:020000040800F2
:1000000048640020A502000887690008815F000895
:1000100085690008AD180008158B00080000000075
:10002000000000000000000000000000E1010008E6
:10003000BD2A0008000000003D0200082D780008DD
:10004000BF020008BF020008BF020008BF0200088C
:10005000BF020008BF020008BF020008BF0200087C
:10006000BF020008BF020008BF020008BF0200086C
:10007000E9290008F5290008BF020008012A000844
:10008000BF020008BF020008BF020008BF0200084C
:10009000BF020008BF020008BF020008BF0200083C
:1000A000097900084D7900083179000825790008A0
:1000B000597900086579000871790008BF020008C5
:1000C000BF020008BF020008BF020008BF0200080C
:1000D000BF02000829890008BF020008358900080E
:1000E000BF020008BF020008BF020008C57900086F
:1000F000097A0008ED790008E1790008BF020008DC
:10010000BF020008BF020008BF020008BF020008CB
:100110009D800008A9800008BF0200087D790008C2
:10012000BF020008BF0200080D2A0008BF02000835
:10013000BF020008BF020008BF020008BF0200089B
:10014000BF020008BF020008BF020008BF0200088B
:10015000BF020008BF020008BF020008BF0200087B
:10016000BF020008BF020008BF020008BF0200086B
:10017000BF020008BF020008BF020008BF0200085B
:10018000BF020008BF020008B5800008C180000857
:10019000BF020008BF020008BF020008BF0200083B
:1001A000BF020008BF020008BF020008BF0200082B
:1001B000BF020008BF020008BF020008BF0200081B
:1001C000BF020008BF020008DFF810D000F016FCE4
:1001D000004800476DA90008AFF300804864002084
:1001E0002D4B19680868B0E8F04F80F30988BFF319
:1001F0006F8F4FF0000080F31188704700000000FF
:1002000008480068006880F308884FF0000080F319
:10021000148862B661B6BFF34F8FBFF36F8F00DFF4
:1002200000BF00BF08ED00E0DFF80C00016841F4FA
:1002300070010160704700BF88ED00E0EFF30980B6
:10024000BFF36F8F144B1A681EF0100F08BF20ED1C
:10025000108A20E9F04F106009B44FF0500072B6D8
:1002600080F31188BFF34F8FBFF36F8F62B60BF02F
:10027000C5FF4FF0000080F3118809BC19680868B9
:10028000B0E8F04F1EF0100F08BFB0EC108A80F3FA
:100290000988BFF36F8F704714000020EFF30580CB
:1002A000704700000648804706480047FEE7FEE723
:1002B000FEE7FEE7FEE7FEE7FEE7FEE7FEE7FEE716
:1002C000F9780008C90100082DE9F05F0546002013
:1002D00092469B4688460646814640241BE02846B7
:1002E00041464746224600F0BEF953465A46C01AD8
:1002F000914110D311461846224600F0A5F92D1A57
:1003000067EB01084F4622460120002100F09CF9CE
:1003100017EB00094E41201EA4F10104DFDC484622
:1003200031462A464346BDE8F09F10B5431A934232
:1003300009D28318881803E010F8011D03F8011D85
:10034000521EF9D210BD40EA01039B0703D009E019
:1003500008C9121F08C0042AFAD203E011F8013BB1
:1003600000F8013B521EF9D210BDD2B201E000F8F4
:10037000012B491EFBD270470022F6E710B5134649
:100380000A4604461946FFF7F0FF204610BD10B597
:10039000002200E0521C835C8C5CA34201D1002B44
:1003A000F8D1D8B2E1B2401A10BD2DE9FE4F81EA72
:1003B000030404F0004421F0004100944FF0000BCE
:1003C00023F0004350EA01045ED052EA03045BD0FC
:1003D000C3F30A54C1F30A552C44A4F2F334019434
:1003E000A0FB0254C1F3130141F48011C3F31303C2
:1003F00043F4801301FB024400FB034E840A970A76
:1004000044EA815447EA8357A4FB076802958D0AA2
:1004100005FB07854FEA932C04FB0C542705029D2E
:100420004FEA065847EA1637B5EB08056EEB070C9E
:10043000870E920E47EA811742EA8312A7FB020158
:10044000B6EB0B0164EB00042B0D43EA0C335E1892
:1004500044EB1C50DA465146E7FB0201C5F3130496
:100460004FEA0B3343EA14534FEA0432019C43EA48
:100470000603A4F10C040294009CCDE900B400F042
:1004800097F903B0BDE8F08F00200146F9E72DE9A8
:10049000F04D81EA030404F0004B21F000451446BE
:1004A0004FF0000A23F0004150EA050220D054EA40
:1004B00001021DD0C5F30A570246C5F31303C1F369
:1004C0001300C1F30A5640F4801543F48013A7EBE0
:1004D0000608101BD64608F2FD3873EB050002D360
:1004E00008F1010801E092185B41B8F1000F03DA4E
:1004F00000200146BDE8F08D00204FF48011064633
:1005000084460EE0171B73EB050705D3121B63EB44
:10051000050306434CEA010C49084FEA30009218E3
:100520005B4150EA0107EDD152EA030012D082EAA2
:10053000040083EA0501084305D0101BAB4106D235
:100540000122002306E000224FF0004302E06FF09A
:10055000010253101AEB06004CEB085110EB0A0095
:1005600041EB0B01BDE8F04D00F013B90EB5C10F22
:1005700080EAE0700844CA07002140F233438DE866
:100580000E000A460B4600F013F903B000BD00F060
:10059000004230F000400AD0C10D01F56071C0F397
:1005A000160042EA0151C20840071143704700207B
:1005B0000146704730B5041E71F1000404DB4FF0B2
:1005C0000044404264EB0101141E73F1000405DB9A
:1005D0001C464FF00043524263EB04038B4208BFBA
:1005E000824230BD01F0004330B421F0004150EAB6
:1005F000010206D00A0DA2F56072C1F31301002AB0
:1006000002DC30BC00207047440F44EAC104C10042
:10061000E01830BC00EBC25000F084B830B50B4697
:10062000014600202022012409E021FA02F59D4222
:1006300005D303FA02F5491B04FA02F52844151EF6
:10064000A2F10102F1DC30BD202A04DB203A00FADD
:1006500002F1002070479140C2F1200320FA03F319
:10066000194390407047202A04DB203A21FA02F017
:100670000021704721FA02F3D040C2F120029140DC
:1006800008431946704700000FB4002300B589B035
:100690000CA900910B996FF00042CB601E4B0693A2
:1006A0001E4B07930423CDE901321D4A08920246EE
:1006B0006B46002000F060FA09B05DF814FB70B5DD
:1006C00086B006464FF0FF300091CDE901010020D1
:1006D00015460C4604903246694604A8FFF7D4FF3D
:1006E00002460498211825B108B1084600E02046CA
:1006F0002860049800280DD0002A02DD0098884266
:1007000008D0081B0094CDE901043246694604A8CC
:10071000FFF7BAFF06B070BDB10D0008CF0D00089D
:10072000450A00080029A8BF7047401C490008BFBF
:1007300020F00100704710B4B0FA80FC00FA0CF011
:1007400050EA010404BF10BC704749B1CCF1200449
:1007500021FA04F411FA0CF118BF012121430843D6
:10076000A3EB0C01CB1D4FEA00614FEA102042BF02
:10077000002010BC704700EBC35010440029A4BFF8
:1007800010BC7047401C490008BF20F0010010BC9D
:10079000704710B5141E73F1000408DA401C41F1D3
:1007A000000192185B411A4301D120F0010010BDF5
:1007B0002DE9F04D92469B4611B1B1FA81F202E06B
:1007C000B0FA80F220329046FFF73EFF04460F4613
:1007D00040EA0A0041EA0B0153465A46084313D047
:1007E000114653EA010019D0C8F140025046FFF704
:1007F0003AFF05460E46504659464246FFF724FF4B
:10080000084305D0012004E020463946BDE8F08DBC
:100810000020054346EAE0762C4337430A986305F7
:10082000E40AA0EB08000022FD0A44EA47540A301B
:1008300002D500200146E9E7010510196941DDE90B
:10084000084500196941BDE8F04DA2E72DE9FE4FCA
:10085000804681EA0300C00F0C46009021F0004161
:1008600023F00045B8EB0200A94105D240462146DD
:1008700090461C460B46024623F00040104347D0EA
:10088000270DC7F30A00C3F30A510290401A0190E2
:1008900040286BDAC3F3130040F4801B00989246A3
:1008A00020B10023D2EB030A63EB0B0B01985946EE
:1008B000C0F140025046FFF7C7FE06460D465046BF
:1008C0005946019A00F0ACF810EB08006141002491
:1008D00087EA115284EAE7731A4340D0009A62B360
:1008E000019A012A4FEA075215DC001B61EB020155
:1008F0004FF0004202EA0752CDE90042001C41F5E8
:10090000801132462B46FFF753FF03B0BDE8F08F4E
:1009100040462146F9E7001B61EB0201001C41F54E
:10092000801300185B412018A2F5001747EB030164
:1009300040EAD570B6196D4111E06D084FEA3606F0
:1009400045EAC0754FEA0752001B61EB0201001C2B
:1009500041F5801149084FEA3000001951413246F3
:100960002B4603B0BDE8F04FFFF713BF00980122FC
:1009700040000023D0EB020263EBE07300982146B5
:100980004FEAE074B8EB000061EB0401E9E783F0A3
:1009900000435BE781F0004158E7C1F30A52C1F31D
:1009A000130140F2FF3341F480119A4202DA002031
:1009B0000146704740F233439A42A2F2334202DCCE
:1009C0005242FFF750BEFFF73FBE000030B5041E95
:1009D00071F1000404DB4FF00044404264EB01017C
:1009E000141E73F1000405DB1C464FF00043524215
:1009F00063EB0403994208BF904230BD064C074D9B
:100A000006E0E06840F0010394E8070098471034DE
:100A1000AC42F6D3FFF7DCFB68DC000888DC00089A
:100A2000202A06DBCB17203A41FA02F043EAE073B2
:100A300006E041FA02F3D040C2F12002914008439F
:100A400019467047C0B24FF4F05100F0D1B9000020
:100A50002DE9FF4F087883B09946FF2805D0491C3F
:100A60002D2804D00024002008E000200BE0012401
:100A7000F9E700EB800003EB4000491C0B78FF2BEB
:100A8000F7D104B1404200230293147819461D4661
:100A90002D2C01D02B2C04D1521C2D2C13D0002432
:100AA0000294AA461478FF2C0FD00A25A3FB0578E0
:100AB00001FB05814FF0000C03FB0C11521CE319E4
:100AC0004AEB0101EEE70124EAE7814453EA010021
:100AD00002D019F5C87F06DA03980021C0E9001199
:100AE00007B0BDE8F08F0025AE4E2F46DFF8B88284
:100AF000184600F091F9CDE90001B9F1000002DAE1
:100B0000C9F1000400E004460023A74A1AEB030BD6
:100B100042EB045A12E0E00707D02A463346384633
:100B20004146FFF742FC074688462A4633461046B0
:100B30001946FFF73AFC05460E466410002CEAD130
:100B4000DDE90001B9F1000F5A46534606DAFFF716
:100B50009EFC3A464346FFF79AFC05E0FFF725FC6A
:100B60003A464346FFF721FC029A0AB181F0004160
:100B7000039AC2E90001B3E72DE9FF4F1F468DB08C
:100B8000D7E901464FF0FF382E2045464FF00009C7
:100B90000B90B9696D1C0E988847396A8246884760
:100BA0000028F6D1BAF1FF3F0AD024F4D064002E19
:100BB00011DDBAF12B0F08D0BAF12D0F0BD102E0E5
:100BC000404611B08DE744F48064B9696D1C0E98FD
:100BD00088478246761E6946600501D52D2000E0D3
:100BE0002B208DF8000001F1010B0DF1200809E028
:100BF000B9696D1C0E98884782460F9844F40074BA
:100C0000761E0560002E02DDBAF1300FF0D00B9990
:100C10008A453ED144F0800406E00F99681CA9F192
:100C2000010944F400740860B9696D1C761E0E98C1
:100C3000884782463028F0D02BE00B998A4505D1B1
:100C4000200603D444F08004761E18E0504608F0D5
:100C500099F808B30DF11301761E44F400748B4526
:100C600008D2AAF130000BF8010B200607D5A9F134
:100C7000010003E0200602D409F101008146A0052D
:100C800002D50F99681C0860B9696D1C0E988847D9
:100C90008246002ED1DC53E0002E51DDBAF1650F03
:100CA00002D0BAF1450F4BD1A00549D5B9696D1CE9
:100CB00024F44074761E0E9888478246002E0CDD80
:100CC0002B2804D0BAF12D0F07D144F48074B969F0
:100CD0006D1C0E9888478246761EE00501D52D21B1
:100CE00000E02B2108F8011BCDF82C8021E00DF14C
:100CF0002901761E44F4007488450CD2AAF1300014
:100D000010F0FF0088F8000002D10B99884509D93E
:100D100008F1010806E0E00501D5244801E042F2AF
:100D20000F708146B9696D1C0E98884782460F98EE
:100D30000560002E04DD504608F024F80028D6D1C6
:100D4000F9690E988847FF208BF8000088F80000AA
:100D50000020069007904B466A4608A906A8FFF7B0
:100D600077FEA00502D46FF001002AE714F0240FEB
:100D70000AD0E00714D1DDE906123868031D3B6094
:100D80000068C0E900120BE0DDE90601FFF72AFC6C
:100D90000146E00704D13868021D3A60006801602E
:100DA00028460EE7000014400000F03FF1D8FFFF96
:100DB000426842B1016811F8013B23B1521EC0E9FB
:100DC0000012184670470121C160881E70474268B2
:100DD0005AB1C368016843B983688B4205D0491E84
:100DE000521CC0E90012002070474FF0FF307047DE
:100DF0007F2801D9002208E0064A02EB5002C00712
:100E0000127800D1120902F00F0201209040084030
:100E1000704700001CDC00080EB540F2334202921D
:100E20000022CDE900221346FFF7C2FC03B000BD4B
:100E300070B58C1810F8015B15F0070301D110F89C
:100E4000013B2A1106D110F8012B03E010F8016BC9
:100E500001F8016B5B1EF9D12B0705D40023521E4C
:100E60000DD401F8013BFAE710F8013BCB1A921CB4
:100E700003E013F8015B01F8015B521EF9D5A142B2
:100E8000D8D3002070BD10B50146806B026C12F003
:100E9000500F05D0026CD20626D502F0BBFA10BD69
:100EA000016C41F40071016401688A6812F0405FCE
:100EB00017D18269AAB9CA6A12F4700F02D08A687F
:100EC00052050ED44A6822F020024A60016C21F4D7
:100ED00080710164016CC90403D4016C41F001010B
:100EE000016402F095FA10BD806BC26C0846BDE843
:100EF0001040104710B5806B40210164416C41F0F7
:100F00000401416402F086FA10BD10B5806B02F056
:100F100080FA10BD484910B5D1F8042322F44032BC
:100F2000C1F80423D1F8042343681A43C1F8042309
:100F300001684A6822F480724A6001684A6803695D
:100F400042EA03224A6001684A6822F040724A601D
:100F500001684A6883681A434A6001688A6822F413
:100F600000628A6001688A68C3681A438A60816A7D
:100F70006FF07062D14201688A6822F070628A6004
:100F800001688A680CD0836A1A438A6001688A689B
:100F900022F040528A6001688A68C36A1A4301E0FD
:100FA00022F040528A6001688A6822F002028A6058
:100FB00001688A68836942EA43028A6090F82010D7
:100FC000002901684A680FD042F400624A60016853
:100FD0004A6822F460424A6001684A68436A174CD2
:100FE00004EB43331A4301E022F400624A600168D3
:100FF000CA6A22F47002CA620168CA6A838B104C02
:1010000004EB03531A43CA6201688A6822F400722F
:101010008A6001688A6890F8303042EA43228A6028
:1010200001688A6822F480628A6001688A6840697F
:1010300042EA8020886010BD0020014000E0FFFFF0
:101040000000F0FF2DE9F04F00252C462DED068B1A
:1010500081B09FEDB69A0220F3EE090AB0EE491A6C
:101060008DED001AB3EE090A00F070FD00F090FC5F
:10107000DFF8BCB2DFF8BC92AF4EF3EE049ADFEDBE
:10108000AFAAAF4FAA46DFF8BC82F1EE048A9FED0B
:10109000AEAA35B1012D24D0022D73D0032D70D10D
:1010A000DAE03220694602F0A1F8B2EE0E0A06F04C
:1010B0004DF9002814D09DED000AB5EEC00AF1EEFE
:1010C00010FA03D108F0DCFF8DED000AB0EE401AF3
:1010D0000420F3EE090AB3EE090A00F037FD0125FA
:1010E00019E198ED000A00204546B2EE044A70EE80
:1010F000290A30EE281AF0EE493AF2EE082A30EECC
:10110000A93A30EEE82AF3EE091ADDED000AB3EE53
:10111000090A05F04BFD00F03BFC9FED8C8A0AE0CC
:10112000B7EE001AF7EE080AB0EE480A00F03AFCF3
:1011300005200AF0D3FE00F0A7FCB0EEC00A10EEC6
:10114000100AB842ECDB08F09BFFF0EE400A95ED88
:10115000000AB0EE491A002030EE283AB2EE044AF6
:10116000F0EE413AF2EE082AB0EE412AF2EE081A09
:10117000B2EE080A05F01AFD00F00AFC0225CAE0EA
:1011800000E0C7E06A4801F00BFC00F07DFCBBF812
:1011900000105846B0EEC08AC90A10D0307B0A2829
:1011A00048D8401CC0B230730A2843D10024212003
:1011B0000AF0DAFA08F064FF30EE680A12E00088FC
:1011C000400614D0307B0A2834D8401CC0B230739B
:1011D0000A282FD1002421200AF0C6FA08F050FF77
:1011E00030EE280A89ED010AB2EE080A20E086F8FE
:1011F0000CA008F083FF5648417809B9007858B12F
:1012000018EE100A0024B7EE001AB842F7EE080AEA
:1012100008DCB0EE6A0A07E0641C1E2C06DB9FEDBA
:101220004D0A05E09FED4C0A00F0BCFBB0EE4A0A07
:1012300000F036FF18EE100A4849884202DB00240D
:10124000032568E018EE100A4549884263DBB2EED8
:10125000080A00F025FF5EE008F012FF98ED001A82
:10126000F0EE493AF0EE400A71EE691A0120454667
:1012700031EE681AB0EE634A31EEE93A31EEA82A4F
:10128000F3EE092AF2EE081AB2EE080A05F08EFC17
:1012900000F07EFB08F032FF0AE0B7EE001AF0EE35
:1012A000000AB0EE6A0A00F07DFB05200AF016FE87
:1012B00000F0EAFBB0EEC00A10EE100AB842ECDB18
:1012C00008F0DEFEF0EE400A95ED000A0120B0EED7
:1012D000494A30EE683AF0EE493AF3EE092AB0EEA8
:1012E000492AF3EE091AB0EE491AB3EE090A05F0DD
:1012F0005DFCB0EE4A0A0220B0EE491AF0EE400A58
:1013000000F024FC1749184881F830A0017841F01A
:1013100001010170042502200AF0E0FD042D7FF494
:10132000B8AE01B0BDEC068BBDE8F08F0000000048
:10133000845F0020D0100020E0000020CDCC4C3D88
:1013400000007041AC00002000001042295C8F3D7D
:10135000C1000020000034428FC2F53C00009642DC
:1013600000008C42E85E0020100100202DE9F041D1
:1013700000242DED048B9FED908A2546DFED8F1A1A
:101380009FED8F1AF0EE480AB1EE000A00F048FC1B
:101390000220B0EE481AF3EE090AB3EE090A00F093
:1013A000D5FB00F0F5FADFED879ADFF81C82874F56
:1013B000874EB3EE049AF1EE048A082C71D2DFE86E
:1013C00004F0041029435CA0B9CFB3EE040A05F081
:1013D000BDFF002804D008F053FE0124B0EE408A7F
:1013E000D6E096ED000A0020B2EE044A30EE281A4C
:1013F00030EE092AF0EE693AF2EE082AB0EE413AF0
:10140000F3EE091AF0EE480AB3EE090A05F0CEFB36
:101410000224BDE00420B0EE481AF3EE090AB3EE50
:10142000090A00F093FBD6ED000A97ED020A70EE70
:10143000A80AB4EEE00AF1EE10FA04DB08F020FE90
:101440000324B0EE408AA3E096ED000A0020B2EE3D
:10145000044A30EE281A30EE092AF0EE693AF2EE2C
:10146000082AB0EE413AF3EE091AF0EE480AB3EE5C
:10147000090A05F09BFB04248AE015B1012D11D067
:1014800086E008F0FDFDB0EE401A00210420F2EEE7
:101490000E0AB3EE0B0A00F0C7FA00F043FA01257A
:1014A00076E074E008F002FFD8ED090A09F0C6FC06
:1014B00064200AF013FD08F0E3FDB0EE401A0021AD
:1014C0000420FAEE0E0AB2EE040A00F0ADFA00F0C3
:1014D00029FA0C200AF048F908F0D2FDB0EE408A53
:1014E00008F0CEFDDFED3B0A30EE200AF0EE480AB0
:1014F00000F034FF08F0C4FD00250524B0EE408A5A
:1015000046E096ED000A0120B2EE044A30EE681A79
:1015100030EE492ADFED303AF3EE092AB0EE413AD7
:10152000F2EE081AF0EE480AB2EE080A05F03EFBA9
:1015300006242DE00420B0EE481AF2EE080AB2EEBE
:10154000080A00F003FBD6ED000A97ED020A70EEE0
:10155000E80AB4EEE00AF1EE10FA19D8072417E011
:1015600096ED000A0120B2EE044A30EE681A30EE21
:10157000492ADFED1A3AF3EE092AB0EE413AF2EECB
:10158000081AF0EE480AB2EE080A05F00FFB08242C
:1015900002200AF0A3FC082C7FF40FAF00F086FCB9
:1015A0000F48002188F83010017841F001010170E6
:1015B000BDEC048BBDE8F081000000000000484253
:1015C00000008C42CDCC4C3DE85E0020645C0020E5
:1015D000AC000020000034430AD7A33C8FC2F53C86
:1015E0001001002030B500242DED048B81B0DFED1B
:1015F0004D8A0220CDED008AB0EE681AF2EE0E0A96
:10160000B2EE0E0A00F0A2FADFED471A9FED471A7C
:10161000F0EE680AB1EE000A00F002FB00F0B8F943
:10162000434DB1EE048A9FED439A7CB1012C2DD03D
:10163000022C49D0B0EE681A9FED3F0A0220F0EE6E
:10164000400A00F083FA00F031FC57E0322069468E
:1016500001F0CCFDB2EE0E0A05F078FE00284ED067
:101660009DED000AB5EEC00AF1EE10FA03D108F0C4
:1016700007FD8DED000AB0EE401A0420F2EE0E0ACE
:10168000B2EE0E0A00F062FA012438E095ED000A8D
:10169000F2EE0E0A002030EE081A30EE202AB2EEEA
:1016A0000E4AF0EE493AB0EE413AF2EE082AF2EE76
:1016B000081ADDED000AB2EE080A05F077FA1FA05D
:1016C00007F046FA02241AE095ED001AB2EE000A7D
:1016D000012031EE402A31EE483AB2EE0E4AF0EEE9
:1016E000493AF2EE082AF2EE081ADDED000AB2EEEF
:1016F000080A05F05BFA1CA007F02AFA032402206E
:101700000AF0ECFB032C90D11D49002081F8300039
:101710001C48017841F00101017001B0BDEC048B5F
:1017200030BD0000000000000000484200008C4274
:10173000AC000020CDCCCC3D0000104248696C6C60
:1017400020617363656E6420636F6D706C65746592
:101750002C20707265706172696E6720746F2064EE
:10176000657363656E640A0048696C6C2064657318
:1017700063656E6420636F6D706C6574650A00004C
:10178000E85E00201001002070B53D491C222DEDBF
:10179000028B8EB0B0EE408A6846FEF7C6FD39492E
:1017A0001C2207A8FEF7C1FDDFED378A0220F3EE09
:1017B000040AB0EE681AB3EE040A00F0C7F9334D1C
:1017C000334C344E10E0334801F0EAF83088C0F36F
:1017D000C110032805D108F069FDD5ED090A09F00B
:1017E0002DFB02200AF07AFB207B0428EBD9607BDA
:1017F0000128E8D023489FED280AB0EE681A80ED52
:10180000000A80ED011A80ED021A0220F2EE0C0AA5
:10181000B2EE0C0A00F09AF9204C0320204ED4EDD1
:10182000088A307107F02CFF02E002200AF056FB14
:1018300094ED080A30EE680AB0EEC00AB4EEC80AA9
:10184000F1EE10FAF1D3174800240470447034719B
:101850001C220C4807A9FEF768FD85F8304007F008
:1018600001FF07481C226946FEF75FFD0E4801781C
:1018700041F0010101700EB0BDEC028B70BD0000A3
:10188000D05B00207C5B002000000000E85E0020B0
:10189000745F0020845F002000000C42D05F0020B5
:1018A00080100020E000002010010020FEE7000072
:1018B000F0B50022164E9FED150A012411468578D9
:1018C000C1F1070304FA03F73D420FD08578521C9B
:1018D000D2B2DD4005F0010300EE903A06EB810341
:1018E000F8EE600A93ED001A00EE810A491CC9B2B5
:1018F0000829E4D33AB100EE902AB8EE601AC0EE9F
:10190000010AB0EE600A80ED020AF0BD000000009E
:10191000FCDB0008012803D0022801D0002070471A
:1019200001207047012010B500F038FB0021012094
:1019300009F08CF90021022009F088F90021032028
:1019400009F084F90021042009F080F9BDE8104075
:1019500009F04EB910B50C4CB0EE000A2DED028B1B
:1019600094ED0A8A84ED0A0A9FED080A00F098FBBC
:10197000C8200AF0B3FA84ED0A8ABDEC028BBDE8F8
:101980001040FFF7CFBF0000D05F00200000000034
:1019900003489FED020A80ED080A7047000000002E
:1019A000D05F002010B52DED048BF0EE418AB0EE33
:1019B000609AB0EE408A08F0A1FB184800F0F0FFF2
:1019C00017494A78174812B90A78012A0DD0134AE4
:1019D000138813F0FF0F0DD090ED010A08EE090AED
:1019E00080ED010ABDEC048B10BD90ED010A30EED4
:1019F000080AF5E74B78012B01D1097849B1118824
:101A0000090AEFD068EE090A90ED010A00EEE80A33
:101A1000E6E790ED010A08EE680AE1E7845F00203E
:101A2000C1000020D010002010B50C4C2DED028B11
:101A3000B0EE408A21710B49DFED091AB0EE600A61
:101A4000C1ED081A00F082F8B0EE480A07F064F819
:101A500000202071BDEC028B10BD00008010002022
:101A600000000000D05F0020024801210171002128
:101A7000418070470460002002480121017200216A
:101A8000C180704704600020014890ED080A70474B
:101A9000D05F0020244A002110B51170234C9FED27
:101AA000240AA4F13400DFED230A21706170618003
:101AB0002171E1802172617280ED000A80ED010ADE
:101AC00080ED020A80ED030A80ED070AC0ED050AE9
:101AD000F3EE090AC0ED040ADFED170AC0ED060AAD
:101AE000DFED160AC0ED090AC0ED0A0AC0ED0B0AC7
:101AF000C0ED0C0A124880ED010A80ED020A117057
:101B00001048017041F288300F490860002005F04C
:101B1000DFF9FFF7B1FF0120607209F029F8BDE895
:101B2000104009F013BA0000790000200460002082
:101B3000000000000000C842000048423333333F39
:101B4000DC100020741000207400002010B505285F
:101B50004FF07E542DED048BF0EE608AB0EE409A8B
:101B6000DFED2C9A39EE680AB0EEC08A4FD2DFE87A
:101B700000F046270B031B00BDEC048BB0EE410ABE
:101B8000BDE8104006F05EBA234880ED001A02203E
:101B90000FE0B0EE690A01E0B0EE490ABDEC048B3B
:101BA000BDE8104000F07CBAB0EE410A00F0E2F966
:101BB000042000F0F3F918EE100AA042ECDDE8E78B
:101BC000012000F0EBF9BDEEC98A012018EE101AD1
:101BD00009F03CF8022018EE101A09F037F8BDEEB3
:101BE000E88A032018EE101A09F030F818EE101ADF
:101BF000BDEC048B0420BDE8104009F027B800209C
:101C000000F0CCF9054880ED009AC0ED018ABDECEA
:101C1000048B10BD0000000080100020D05F002069
:101C200070B5114C114D2DED048BF0EE619AB0EEB4
:101C3000419AA078F0EE608AB0EE408A58B90C491B
:101C40001C2205F15C00FEF770FB95ED052A0120D2
:101C500084ED082AA070064880EC038AC5ED059A39
:101C6000BDEC048B70BD0000DC100020D05F0020B4
:101C7000D05B00200D480E490E4A03788BB991EDD8
:101C8000002A012380ED032A91ED012A80ED042A28
:101C900091ED022A80ED052A92ED062A80ED062AB2
:101CA000037081EC030AC2ED061A7047DC100020B5
:101CB0007C5B0020D05F002070B5114C114D2DEDE4
:101CC000048BF0EE619AB0EE419A6078F0EE608A93
:101CD000B0EE408A58B90C491C2205F14000FEF7CD
:101CE00024FB95ED042A012084ED072A6070064844
:101CF00080EC038AC5ED049ABDEC048B70BD000036
:101D0000DC100020D05F0020B45B00207CB5464C86
:101D1000607A28B3454E464D464996ED010AD5ED09
:101D2000000A30EE600AB0EEC00A10EE100A8842D7
:101D300016DDFFF7F7FD1F2009F016FD2868FEF7F6
:101D400026FC0D4604467068FEF721FC41EC100BA2
:101D5000CDE9004553EC102B37A006F0F9FEFEE765
:101D60004248007802285ED12F4A00252079343A73
:101D7000012823D13E483F4B90ED010A2A48B0EE9E
:101D8000C00A10EE101AB0F90200994201DD401CA1
:101D900002E0C82801DA0A386080B4F9020000289D
:101DA00001DDC8280CDB2571658000F099F86078AA
:101DB00000EE100AB8EE400A82ED020A608888B18F
:101DC00060789FED2D1ADFED2D0A400800EE100A15
:101DD000B8EE400A82ED020AD2ED021AB2EE0E0A05
:101DE000FFF748FF207A00281DD02549002000EB8E
:101DF000400201EB8202127AA2B1401CC0B2052857
:101E0000F5D3E088401C00B2E08050280BDBE58071
:101E10002572FFF787FD1E2009F0A6FC19A006F029
:101E200097FEFEE7E5807CBD04600020645C002036
:101E3000BC00002000002042524F4C4C204F564521
:101E4000522120726F6C6C3D252E316620626173C9
:101E500069635F723D252E31662C20656D65726762
:101E6000656E63792073746F70210A007900002019
:101E7000745F00206666A63F000048430000000033
:101E8000881000204C696E65206C6F7374212045AA
:101E90006D657267656E6379206272616B65206142
:101EA00063746976617465642E0A000010B5094C8C
:101EB000A07800280CD008491C220848FEF735FA03
:101EC000054894ED080A5C3880ED050A0020A070F2
:101ED00010BD0000DC1000202C600020D05B002032
:101EE0000C480178002913D00B4990ED030A81EDCD
:101EF000000A90ED040A81ED010A90ED050A81EDDA
:101F0000020A064990ED060A81ED060A00210170D9
:101F100070470000DC1000207C5B0020D05F0020B8
:101F200010B5094C607800280CD008491C220848DC
:101F3000FEF7FBF9054894ED070A403880ED040AE6
:101F40000020607010BD0000DC1000201060002038
:101F5000B45B002000EE100A0248B8EE400A80EDA3
:101F6000000A704780100020014908717047000086
:101F70008010002010B508F085FF024880ED010AAE
:101F800010BD0000D010002010B508F07BFF024803
:101F900080ED000A10BD0000D010002070B5374D54
:101FA00004462DED028B96B02878A04261D0344EC5
:101FB000022C02D0042C08D00EE0287804280BD183
:101FC00096ED030A86ED020A06E02878022803D17E
:101FD00096ED020A86ED030A2A48052C9FED2A8A0F
:101FE00041F658312ED2DFE804F00808030503005B
:101FF000016027E041F28831FAE701601C21684660
:10200000FEF7BAF921481C226946FEF78EF91C2119
:1020100007A8FEF7B1F91E481C2207A9FEF785F9AB
:102020001C210EA8FEF7A8F91A481C220EA9FEF7DB
:102030007CF9194886ED028A86ED038A80ED028AD2
:1020400080ED018A2C70022C13D00D490020134A18
:102050003431012348800871C88000EB400102EB55
:10206000810181ED008A81ED018A0B72401C0528F7
:10207000F3DB16B0BDEC028B70BD000079000020D0
:10208000D05F00207400002000000000EC5B002006
:10209000085C0020245C0020DC1000208810002058
:1020A000F0EEC00AB6EE001A314970EE810A314AEC
:1020B000FCEEE00A10EE900AC0B248701378343992
:1020C000022B05D01078042801D181ED030A704756
:1020D00081ED020A28492D289FED280AF1EE0C0A0D
:1020E0003ED01CDC142813D00EDC0C2801D00F28A5
:1020F000EDD1F3EE040AC1ED000A81ED010A9FED76
:10210000200A81ED020A7047192801D02428FAD14B
:10211000C1ED000A81ED010A9FED1A0AF1E73728A7
:1021200015D03C280CD0462801D04B28EBD1F1EE3D
:10213000000AC1ED000A81ED010A9FED130AE0E7F4
:10214000C1ED000A81ED010A9FED100AD9E7F2EE18
:10215000000AC1ED000A81ED010A9FED0D0AD0E7EA
:10216000C1ED000A81ED010A9FED0A0AC9E70000EE
:1021700004600020790000207C5B0020000000004B
:10218000000070420000B44200007A430000E642C2
:1021900000000C430000A0420749002208700749D4
:1021A00028B1012805D0022803D0032801D00A70E5
:1021B0007047087070470000046000207410002011
:1021C00070B5214C4FF080452DED048BB0EE418A67
:1021D000B0EE609AF0EE409A25E0022009F07EFE13
:1021E000194800F0DDFB607B01281CD1208810F429
:1021F000707F18D007F044FFF0EE400AB0EE690A95
:1022000008F026FEF0EEC08AF0EE490AB0EE690A48
:1022100008F01EFEB0EEC00A20EE080AF4EEC08AF6
:10222000F1EE10FA0DD307F02BFFF0EE400AB0EEFE
:10223000690A08F00DFEB0EEC00A10EE100AA842BE
:10224000CBDCBDEC048B70BD845F002010B5DFEDEE
:10225000191A9FED191A2DED048BF0EE608AB0EE7D
:10226000409ADFED160AB2EE040AFFF7D9FC07F038
:1022700007FFB0EE408AF0EE490AB0EE680A08F0B7
:10228000E7FD38EE000A08F0FDFDB0EE408AFFF7EA
:1022900071FE0420FFF782FE9FED091AF0EE680A36
:1022A000B0EE480AFFF78CFFBDEC048BBDE8104090
:1022B000FFF7FCBD000048420000DC4200000000C7
:1022C000CDCCCC3DF0EE602AB0EE403AF0EE411AB3
:1022D000B1EE041ADFED0C0A9FED0C0A10B5FFF702
:1022E000C9FC0120FFF758FFB5EE001AF0EE620AB4
:1022F000B0EE430AFFF764FF0020FFF74DFFBDE893
:102300001040FFF7EDBD00000000000000008C420F
:10231000F0EE602AB0EE403AF0EE411AB1EE041A47
:10232000DFED0C0A9FED0C0A10B5FFF7A3FC0220AD
:10233000FFF732FFB5EE001AF0EE620AB0EE430A84
:10234000FFF73EFF0020FFF727FFBDE81040FFF733
:10235000C7BD00000000000000008C4210B5174807
:102360004FF07E522DED028BB0EE608A90ED001A98
:10237000F0EE408AB0EEC11A11EE101A914207DC5D
:1023800090ED011AB0EEC11A11EE100A904201DD73
:10239000FFF7E0FAB0EE680AFFF7F6FD0320FFF75B
:1023A000FDFDF0EE480AB0EE680ABDEC028B9FED31
:1023B000041ABDE81040FFF703BF0000D05F002003
:1023C0000AD7233C124B18461A7990F83410007F34
:1023D0000B2A0DD00C2A10D0092A0DD10A280BD1B6
:1023E0000B2909D19FED0B0A83ED0B0AFFF758BEAD
:1023F0000C2801D10D29F5D070470D2804D00B28E9
:10240000FAD10A29EED070470E29EBD070470000B0
:10241000E85E002000008C42F0B572B6244D6E7864
:1024200062B629783C23234C721A3C3292FBF3F7B4
:1024300003FB1722D2B2032A14D3B1FBF3F203FB3E
:102440001212A25C5B2A05D0491CB1FBF3F203FB1C
:102450001211E9E70A46521CB2FBF3F603FB1622FF
:102460008A4201D10020F0BDB2FBF3F603FB162631
:10247000A65D5D2EEFD1521A3C3292FBF3F603FBC0
:102480001622521CD7B2002208E08E18B6FBF3FCCD
:1024900003FB1C66A65D8654521CD2B2BA42F4D32A
:1024A000C819B0FBF3F103FB110028703846F0BDEA
:1024B000D8100020945F0020054841780078081A61
:1024C0003C213C3090FBF1F201FB1200C0B270479E
:1024D000D810002000B5FFF7EFFFC0F13B00C0B2FD
:1024E00000BD00002DE9F0410C468046FFF7F2FFE9
:1024F000A04202D20020BDE8F081104E1049707851
:1025000002193C2A08D2084422464146FDF70DFF35
:102510007078204470700FE0C0F13C0208444146DE
:10252000D5B22A46FDF701FF621B054808EB0501FD
:102530001746FDF7FAFE77702046DCE7D81000203A
:10254000945F002070B52C4CA07810B1012845D0C4
:1025500049E06078012610B900F0EAF86670FFF7EC
:1025600093FA264DF0EEC00AB6EE001A288D00EE62
:10257000100AB8EE400A20EE010AF4EEC00AF1EEAD
:1025800010FA12DB607801280FD1286A410201D5C8
:10259000012006E0010201D5022002E0C00102D5BF
:1025A0000320FFF7F9FD02206070FFF76DFA288D18
:1025B000F0EEC00A00EE100A9FED111AB8EE400AC4
:1025C00020EE010AF4EEC00AF1EE10FA0BDB60789F
:1025D000022808D100F072F8A67004E000F012F8AA
:1025E0000020A07060702078C00701D000F0CAF809
:1025F000BDE8704000F03AB810010020E85E00200D
:102600003333333F10B5154C94F8300008F07AFAA4
:1026100013480178C9071FD1007880071CD41148DE
:1026200000230222194600680AF08CFA01204FF0BC
:10263000FF3109F0C1F8207F06280DD194F834004D
:10264000072809D194ED0B0ADFED070ABDE8104019
:1026500020EE200AFFF724BD10BD0000E85E002038
:10266000100100208C0000206666663F70B5104C9B
:10267000207880071AD5E51C601D2978415CFF2968
:102680000DD00C48007F07F01DFD0B4900EB40000A
:10269000182201EBC00107483430FDF746FE2878C8
:1026A000401C2870207820F00200207070BD0000CF
:1026B00010010020E85E00203804002070B507F00B
:1026C000DFFC184CD4ED0F0A08F0C2FBB0EEC00AD4
:1026D00010EE100A144DA84212DBD4ED0F0A94ED4F
:1026E000090A08F0B5FBB0EEC00A10EE100AA842C5
:1026F00006DB206AC00203D4B3EE090AFFF7D0FC60
:1027000020792E280CD1207F1C2809D194F8340080
:10271000162805D1BDE870409FED040AFFF7C0BC44
:1027200070BD0000E85E0020000020410000104263
:1027300010B5FFF72DF90020FFF70CFC0020FFF784
:1027400013FC0F4C206A010501D5012008E0C104EB
:1027500001D5022004E0000301D5032000E00020A1
:10276000FFF71AFD0220FFF719FC94ED0B0AFFF7A3
:1027700097FCFFF727FEBDE81040FFF775B9000092
:10278000E85E00202DE9F0417C4E2DED028B307883
:1027900020F001003070F41C601C2178085CFF28D8
:1027A0007ED007F06DFC764DD5ED0F0A08F050FB9A
:1027B000B0EEC00A10EE100A724FDFF8CC81B842BA
:1027C0002EDBD5ED0F0A95ED090A08F041FBB0EEBE
:1027D000C00A10EE100AB84222DB286AC1021FD4D8
:1027E000297FE9B108291BD02278611E515C1D297F
:1027F00016D01E2914D0202912D098F800100129D3
:102800000ED0C103B6EE080A0DD5D5ED0B0A20EEA9
:10281000801AD5ED090A95ED0F0AFFF753FD78E010
:1028200003F04CFB75E081030AD5D5ED0B0A20EED1
:10283000801AD5ED090A95ED0F0AFFF769FD68E0EA
:1028400080050CD4D5ED0F0A95ED090A08F000FBC0
:10285000B0EEC00A10EE100A4C4988423DDD95F8F2
:102860003420297F287900F0FFF9B0EE408A07F084
:1028700007FCB0EE401A00210420F2EE0E0AB0EE82
:10288000480AFFF7D1F8FFF74DF82879DFED400A45
:10289000052808D1287F062805D195F8340000E0E6
:1028A00062E0072812D0B1EE0C0ADFED3A1A9FED74
:1028B0003A1AFFF701FA07F0E3FBF0EE400A95ED54
:1028C0000F0AFFF74BFDFFF72BFB22E0F3EE041A94
:1028D000B3EE041AB0EE000AEBE795F83420297F36
:1028E000287900F02BF9B0EE408A07F0C9FBB0EE72
:1028F000401A00210420F3EE090AB0EE480AFFF75F
:1029000093F807F0BDFBF0EE400A95ED0F0AFFF7D4
:102910009DFC002188F8001019491822281D1C313F
:102920000F46FDF702FD1649182238463431884615
:10293000FDF7FBFC11492078491D095C401C207003
:10294000287F07F0BFFB154900EB4000182201EB80
:10295000C0014046FDF7E9FC307820F001003070FE
:10296000BDEC028BBDE8F081FEF7DCFF022009F030
:10297000B5FA6078401C6070F2E70000100100209A
:10298000E85E002000002041E20000200000B44288
:102990000000000000000C4200008C4238040020BF
:1029A0002DE9F04100260446354604F0ADF92080BB
:1029B00000210122238802FA01F73B420BD06D1C53
:1029C0000F29EDB205D023884F1C02FA07F003420D
:1029D00001D1761CF6B2491CC9B21029EAD366733C
:1029E0002573BDE8F0810000014800F0B7BE00008B
:1029F000A01C0020014800F0B1BE0000E01B002038
:102A0000014800F0ABBE0000401C0020014800F06F
:102A1000A5BE0000A415002001681823CAB2103A10
:102A2000B2FBF3F2054B6FF30901032A9B5CC3650C
:102A300000D9091D81650846704700001CD10008B7
:102A4000014610B500208B694FF0C0748A6A53B1FB
:102A5000B3F5005F15D072B1012A0CD0022A0AD05A
:102A6000032A09D104E01AB1012A06D0022A03D1AF
:102A7000C96AC90100D5012010BDC96AA142FAD0B6
:102A800010BD002AF7D0012AF2D0022AF3D0032A7F
:102A9000F3D010BD30B50468256825F48025256085
:102AA000046863608368402B036803D09960006802
:102AB000C26030BD9A600068C16030BD70470000E0
:102AC0001848002110B502F0BDFA1648042102F0A2
:102AD000B9FA144802F0D4F81348002102F0B2FA0F
:102AE0001148042102F0AEFA0F4802F0C9F80F486D
:102AF000002102F0A7FA0D48042102F0A3FA0B48C6
:102B000002F0BEF80A48002102F09CFA08480421AD
:102B100002F098FA064802F0B3F8BDE81040054804
:102B200002F0AEB804160020501600209C160020BB
:102B3000341700201818002072B6FEE704281DD0B4
:102B4000252825D0212828D0042819D005282CD0C4
:102B500009282FD0312833D088B30A283CD00C283C
:102B60003FD013284CD017285CD018285FD01F28DE
:102B700061D02E2865D001286AD06DE00B2902D0E3
:102B800002290FD068E00C2A66D1B1EE0C0A70471A
:102B90002B2961D1212A51D05EE02B295CD1252A35
:102BA0004CD059E0012A49D056E0062954D1072AD1
:102BB0004BD051E00A294FD1132A3FD04CE004E01A
:102BC000302949D12C2A13D046E00A2944D1132AAE
:102BD00042D1B2EE000A70470B293DD1052A34D00C
:102BE0003AE0192902D00D2905D035E01A2A33D14F
:102BF000B0EE080A7047082A2ED1B2EE080A7047D4
:102C0000192902D00A2903D026E01A2A27D023E066
:102C1000092A01D01AB11FE0B3EE040A7047B3EEDF
:102C20000E0A7047182917D1132A18D014E00A2960
:102C300012D1A2B110E01829BED00DE0B1EE040A05
:102C400070472F2908D1212A06D1B2EE0E0A70470B
:102C5000022901D1042A02D09FED020A7047B1EE89
:102C6000000A704700000000312815D0D8B12F2885
:102C70001ED030281FD0052820D0122823D010289D
:102C800028D02A282BD013282ED0172839D02B282B
:102C90003ED0162841D042E0302940D12C2A64D1C0
:102CA000B3EE0C0A70470A2939D1092A26D05CE014
:102CB0002E295AD033E02C2957D030E006292ED1C6
:102CC000072A3DD051E00F2929D1102A4DD1B3EE6A
:102CD000020A70470F2922D1112A3FD045E02B2943
:102CE00043D1212A2CD022E00C2902D00A2903D07A
:102CF00015E00B2A24D038E0092A36D1B2EE0E0AAC
:102D0000704718290BD1132A2FD1B3EE0A0A704746
:102D1000212904D12F2A21D027E0172902D02B29DD
:102D200005D006E0122A20D19FED130A70472A2A07
:102D300006D0182807D011280CD00C2811D014E088
:102D4000B3EE0E0A704717290FD1122A0DD19FED4D
:102D50000B0A7047172908D1182A06D1B3EE090AC1
:102D60007047132901D1192A02D0B3EE040A704723
:102D7000B1EE040A70470000000034420000204217
:102D80002DE9F04F00242DED028B8FB09FED748A5A
:102D900014216846FDF7F0FA142105A8FDF7ECFAB6
:102DA0000020DFF8C0C105AF03460DF13009014630
:102DB000EA460C900D9001EB41020CEB8202157A71
:102DC0001DB1157A022D05D012E009F80410641C1B
:102DD000E4B20DE092ED010A0AEB800585ED000AF0
:102DE00092ED000A07EB8002401C82ED000AC0B29F
:102DF000491C0529DFDBDFF86CB1032CABF1140BA8
:102E000004D284424FF07E5810D3ACB100204A4621
:102E100009E0115C401C01EB41010CEB810191EDDB
:102E2000010A30EE088AA042F3DB86E024B10022DA
:102E30000A930B930AAB5FE04A491439002891EDDD
:102E4000010A08D0012804D000220A930B930AAB90
:102E500022E09DED000A0FB0BDEC028BBDE8F08FC3
:102E6000511C07EB820514E007EB8104D5ED000A45
:102E700094ED001A70EEC10AF0EEE00A10EE904AEE
:102E8000444505DC9C5C641C9C545C5C641C5C5488
:102E9000491C8142E8DB521C8242E1DB00259DF89F
:102EA0002820294605E05C5C944201D92246CDB237
:102EB000491C8142F7DB002ACDD00AEB85004CE0AB
:102EC000511C07EB820614E007EB810596ED000A22
:102ED000D5ED000A30EE600AB0EEC00A10EE105ACE
:102EE000454505DC9D5C6D1C9D545D5C6D1C5D5411
:102EF000491C8142E8DB521C8242E1DB00269DF83E
:102F00002820314605E05D5C954201D92A46CEB2C3
:102F1000491C8142F7DB521C94421CD300204A46D4
:102F200009E0115C401C01EB41010CEB810191EDCA
:102F3000010A30EE088AA042F3DB00EE104AF8EEF8
:102F4000400A88EE200AB5EEC00AF1EE10FA82D0EF
:102F50008BED010A7FE70AEB860090ED000A7AE725
:102F6000000000008810002010B504462DED028BF3
:102F7000B0EE608AF0EE408A07F082F8F0EE680A60
:102F800007F066FF1A481C4980ED020A9FED190AF6
:102F900080ED060A08F09AF8F0EEC80A9FED171ABD
:102FA00060EE800A80EE810AD4ED050AF4EEC00AD4
:102FB000F1EE10FA02D894ED050A0CE0D4ED050A02
:102FC000F1EE600AF4EEC00AF1EE10FA03DB94EDC4
:102FD000050AB1EE400A012078EE000A38EE400AF8
:102FE000C4ED000A84ED010ABDEC028B10BD0000A7
:102FF000245C002000000000D05B0020000048425C
:1030000070B52F4C05462F482F4E2DED028BB0EE9C
:10301000408A6278017802B111B1012903D007E03A
:10302000FFF7AEFE02E0294890ED020A86ED020AA3
:10303000234827490C3090ED000A234886ED060A04
:1030400008F044F8234884ED020AD0ED060AF4EEB5
:10305000C00AF1EE10FA02D890ED060A0CE0D0EDAD
:10306000060AF1EE600AF4EEC00AF1EE10FA05DB92
:1030700090ED060AB1EE400A84ED020A9FED161AA1
:10308000F0EEC80AB5EEC08A80EE810AD4ED020ADD
:1030900020EE200AF1EE10FA84ED020A03D2B1EE1E
:1030A000400A84ED020A38EE400A85ED000A94EDEC
:1030B000020A38EE000A85ED010ABDEC028B70BDF4
:1030C0007410002006010020EC5B0020745F0020DB
:1030D0007C5B0020D05F002000004842044810B50F
:1030E00000F0DEFABDE81040024800F0BBBA000074
:1030F000A41500205C15002070B51E4C002213465C
:1031000010462DED028B34F81010914201D90A4679
:103110000346401CC0B20428F5D30021DFED160A97
:103120004FF4FA70994204D034F81150551B85427F
:103130000EDB491CC9B20429F4D39FED108B63B197
:10314000012B07D0022BB1EE400A03D0032B04D091
:10315000B0EE600ABDEC028B70BD10EE100AFDF7F8
:1031600016FA53EC182BFDF720F9FDF73BFA00EEA9
:10317000100AEFE70801002000000000666666669E
:103180006666F63FF8B500240E4D012321464FF444
:103190007A72C1F1050635F81100904203FA06F083
:1031A00002D22043C4B200E08443491C0429F0DB6E
:1031B000E888009004A0AB886A88298805F0C8FCDC
:1031C0002046F8BD0801002025642C25642C2564C8
:1031D0002C25640D0A00000002490422024800F078
:1031E000A5B90000080100205C1500202DE9F04180
:1031F0000E4607461048FFF7D3FB0F48008800250E
:103200000E4CC0F3C110032803D0A5720020BDE806
:10321000F081A07A401CC0B2A072B842F6D306F08A
:103220002FFF86ED000A2020A57208F09DFA04A069
:1032300005F08EFC0120EAE7845F0020E00000201A
:103240006779726F2072657365740A00F8B50023A0
:10325000009390F83C20012A1ED0012280F83C20E7
:1032600007270A68664DFE07092A21D9B2421FD0F6
:103270000468D4F80CC00A3A02EB420297402CEAE8
:10328000070CC4F80CC00A68AA4207D10268D468C7
:103290000F7A44EA076409E00220F8BD0A3A8C6814
:1032A00002EB420294400268D7683C43D46016E0C7
:1032B0000468D4F810C002EB420202F01F029740EB
:1032C0002CEA070CC4F810C00A788C6802EB4202A2
:1032D00002F01F029440026817693C4314614A6877
:1032E0001F27072A16D20468D4F834C0521E02EBF6
:1032F000820297402CEA070CC4F834C00A8894B2C2
:103300000A79521E02EB820294400268576B3C43DA
:1033100054632DE004680D2A15D2D4F830C0D21FB2
:1033200002EB820297402CEA070CC4F830C00A88EE
:1033300094B20A79D21F02EB820294400268176BA2
:103340003C43146314E0D4F82CC00D3A02EB820223
:1033500097402CEA070CC4F82CC00A8894B20A796A
:103360000D3A02EB820294400268D76A3C43D46271
:10337000244C0268A24208D10A68B24205D1D4F8AE
:10338000042322F44002C4F804230268A2420ED1AE
:103390000A68122A0BD1D4F8042322F40002C4F8DC
:1033A0000423D4F8042342F48002C4F804230268FE
:1033B000A24220D10A68AA4201D0112A1BD1D4F816
:1033C000042322F48002C4F80423D4F8042342F432
:1033D0000002C4F804230968A9420CD10A490B4A27
:1033E0000968B1FBF2F101EB8101490000E0491EDF
:1033F00000910029FBD180F83C300020F8BD00008E
:1034000012000010002001401000002040420F0078
:1034100070477047704770B504004FF0000603D046
:10342000206C002510B107E0012070BD204600F09F
:103430001DF8656484F83C50206CC00610D4206CE4
:1034400020F4885040F0020020642046FDF762FD21
:103450006564206C20F0020040F00100206400E070
:10346000012684F83C50304670BD000070B586B02F
:10347000064614216846FCF77FFF264930688842DB
:1034800046D12548016841F4007101600068224975
:1034900000F4007005901439086840F001000860DD
:1034A000086800F001000590086840F0040008601A
:1034B000086803240025694600F0040005900C20EC
:1034C0008DE83100154800F0CFFA302069468DE8CC
:1034D0003100134800F0C8FA134C124820604FF036
:1034E0000070C4E90105C013C4E9035040006061E5
:1034F0008000A0614011E0614FF44030C4E908054C
:10350000204600F0FBF908B1FFF716FBB463A66391
:1035100006B070BD00210140443802400000024066
:103520000008024040640240A4150020F8B513468C
:10353000044600220092154690F83C00012807D06E
:10354000012084F83C0020688668F60702D011E06C
:103550000220F8BD866846F0010686603A483B4E78
:103560000068B0FBF6F000EB400000E0401E009069
:103570000028FBD120688668F6075BD0226C40F2F9
:103580000166B24342F4807222644068400505D56A
:10359000206C20F4005040F480502064206CC00463
:1035A00004D5606C20F00600606400E0656484F877
:1035B0003C50A26B2648D063A26B26481064A26BD5
:1035C0002548D0646FF022002268106020684268AD
:1035D00042F0806242602068826842F480728260B9
:1035E00020680A46A56B00F14C01284600F0EEF970
:1035F0001A490246D1F80403C006206811D0884257
:1036000007D1836813F0405F03D1836843F08043A0
:103610008360D1F80403C00614D41149206888429D
:1036200010D1816811F0405F0CD1816841F0804178
:10363000816007E0206C40F010002064606C40F076
:10364000010060641046F8BD1000002040420F00E9
:10365000870E00080B0F0008F50E0008002001403F
:103660000022014090F83C1001290CD0012180F883
:103670003C1001688A6822F001028A60016889684A
:10368000C90702D007E002207047016C21F488517D
:1036900041F001010164002180F83C1008467047A8
:1036A0002DE9F041876D044600F0E6FA054694F8EE
:1036B00035000026022806D080206065012084F8AD
:1036C0003460BDE8F0812068016821F016010160D6
:1036D0002068416921F080014161206C08B9A06C2B
:1036E00020B12068016821F00801016020680168AC
:1036F00021F0010101600CE000F0BEFA401B05283A
:1037000007D920206065032084F8350084F83460F0
:10371000D7E720680068C007EED194F85C103F201E
:103720008840B860012084F83500002084F83460B7
:10373000C7E790F83510022903D0802141650120A8
:103740007047052180F835100068016821F00101FB
:10375000016000207047406D704700002DE9F8437C
:10376000044665484FF00009CDF800904FF416511B
:10377000A56D0068B0FBF1F72E68082194F85C2075
:1037800001FA02F030420FD02068026852070BD5D0
:10379000026822F00402026094F85C008140A96093
:1037A000606D40F00100606594F85C104FF0010816
:1037B00008FA01F0304208D021684969090604D5A9
:1037C000A860606D40F00200606594F85C10042011
:1037D0008840304208D021680968890704D5A8606C
:1037E000606D40F00400606594F85C101020884023
:1037F000304218D021680968090714D5A8602068EC
:103800000168490304D50068000308D5A16C07E0EE
:103810000168C90503D4016821F008010160216C29
:1038200009B12046884794F85C1020208840304237
:1038300031D021680968C9062DD5A86094F83500F3
:1038400005282068016806D0490347D500680003B1
:103850001DD4616C1CE021F01601016020684169F3
:1038600021F080014161206C08B9A06C20B1206872
:10387000016821F00801016094F85C103F20884045
:10388000A86084F8358084F83490216D1FE0E16BE6
:1038900009B120468847606D00282BD0606DC007B5
:1038A00014D0052084F835002068016821F001015A
:1038B00001600098401C0090B84203D8206800685E
:1038C000C007F6D184F8358084F83490E16C002983
:1038D00010D001B02046BDE8F04308470168C90593
:1038E000D5D4016821F01001016084F8358084F896
:1038F0003490CCE7BDE8F8831000002070B5044692
:1039000000F0BAF905465CB1022084F835000026C3
:1039100084F834602068016821F0010101600CE046
:10392000012070BD00F0A8F9401B052805D9202012
:103930006065032084F8350070BD20680068C0070A
:10394000F0D121680A6820480240D4E901031843F5
:10395000D4E903352B43184363691843A36918431B
:10396000E3691843236A18431043626A042A03D1A7
:10397000D4E90B231A43104308602068406920F003
:103980000701606A042840EA01050CD1A06A0543DA
:10399000E06A40B12046FFF753F820B1402060654F
:1039A00084F83560BCE7206845612046FFF734F8AD
:1039B00094F85C203F21914081606665012084F885
:1039C0003500002070BD00003F8010F02DE9F0416F
:1039D000866D044690F83400002501280DD00120A2
:1039E00084F8340094F835700020012F07D00225A8
:1039F00084F834002846BDE8F0810220FBE7022766
:103A000084F8357060652046FFF744F894F85C1040
:103A10003F208840B0602068016841F016010160D5
:103A20002068416941F080014161206C20B120682B
:103A3000016841F0080101602068016841F001015E
:103A40000160D7E770B5044600F016F90546601C22
:103A500002D004480078044400F00EF9401BA04254
:103A6000FAD370BD040000202DE9F84FDFF8B091C3
:103A7000002203274FF00F0CA9F1040B09F1040AEF
:103A8000ABF1040E0B68012595402B40AB426ED183
:103A90000C7904F00304012C01D0022C15D18668A6
:103AA000540007FA04F826EA0806D1F80C8008FA50
:103AB00004F848EA0608C0F808804468AC430D7969
:103AC000C5F300159540254345600C79E443A407F0
:103AD00008D0C568540007FA04F6B5438E68A640BE
:103AE0002E43C6600C7904F00304022C11D1D408D3
:103AF00000EB8406356A5407E40E0CFA04F825EA54
:103B00000805D1F8108008FA04F848EA0508C6F854
:103B100020800568540007FA04F6B5430E7906F0D4
:103B20000306A6402E4306604C6814F4403F70D054
:103B30003C4C256845F480452560246822F0030547
:103B400004F480440094384C05EB0408D8F8085875
:103B50009407260F0CFA06F4A543344CA04201D179
:103B600000242EE0324CA04202D1012429E050E092
:103B7000304CA04201D1022423E02F4CA04201D1BD
:103B800003241EE02D4CA04201D1042419E02C4C4A
:103B9000A04201D1052414E02A4CA04201D1062400
:103BA0000FE0294CA04201D107240AE0274CA04293
:103BB00001D1082405E0264CA04201D1092400E0EF
:103BC0000A24B4402C43C8F80848D9F800404D46B0
:103BD0004E689C43F60200D51C432C60DAF8004086
:103BE00055464E689C43B60200D51C432C60DBF85A
:103BF00000405D464E689C43B60300D51C432C60D4
:103C0000DEF8004075464E689C43F60300D51C4321
:103C10002C60521C102AFFF435AFBDE8F88F00006D
:103C2000083C01404438024000300140000002409E
:103C30000004024000080240000C02400010024054
:103C40000014024000180240001C02400020024004
:103C5000002402400069084000D0012070474269FA
:103C600021EA02030A4043EA0241816170470AB136
:103C7000816170470904FBE70148806870470000D4
:103C80000400002002488168027811448160704776
:103C900004000020032010B500F0E8F80F2000F029
:103CA00005F800F099F8002010BD000030B5054679
:103CB0001F4887B0016841F480710160006806A95F
:103CC00000F480700590684600F032FC0398B0B1B3
:103CD00000F04EFC40001749174AB0FBF1F11748BD
:103CE000026040F2E732491E41600021C0E9032131
:103CF0008160816100F0DEFE040003D015E000F079
:103D000037FCE8E70D4800F0BBFF04000DD12D2083
:103D100000F07EF8102D07D2002229462D2000F059
:103D200085F80748056000E0012407B0204630BD53
:103D30004038024040420F0000200040001D00209B
:103D400008000020134A41781160124908310A68BE
:103D500022F001020A600B1F42681A60027BC37ADC
:103D6000120742EA0362837A42EAC342437B42EA91
:103D70008342837B42EA4342C37B42EA0342437A63
:103D800042EA0322037A007842EA430202430A60CD
:103D90007047000098ED00E0BFF35F8F04480168B2
:103DA00021F48031016002490020703108607047C1
:103DB00024ED00E0074940F0010008600548703834
:103DC000016841F480310160BFF34F8FBFF36F8F03
:103DD0007047000094ED00E00C4882B0016841F0AB
:103DE00080510160006800F0805000900748001D7D
:103DF000016841F480410160006800220F2100F455
:103E000080400090901E02B000F010B84038024090
:103E1000002809DB012100F01F02914040098000C9
:103E200000F1E020C0F80011704700000E4BF0B424
:103E30001B68C3F30223C3F10704042C00D9042434
:103E40001D1D072D01D2002300E0DB1E012606FA0E
:103E500004F56D1E0D409D409E40761E164045EABD
:103E60000601F0BC04F084BE0CED00E0064A00F050
:103E7000070110684FF6FF03184040EA012003498C
:103E800008431060704700000CED00E00000FA05E8
:103E90001848F8B5016841F0805101600068164D7E
:103EA00000F080500090286840F480302860FFF7D0
:103EB000E3FE4FF47A76044604E0FFF7DDFE001BD4
:103EC000B0420FD86868C003F7D5286840F40030C6
:103ED0002860FFF7D1FE044606E0FFF7CDFE001B89
:103EE000B04201D90320F8BD68688003F5D50020F1
:103EF000F8BD000040380240007000402DE9F84F46
:103F0000044600780026DFF820943546C0070ED01E
:103F1000D9F8001021F40001C9F80010D9F80010F8
:103F2000626B1143C9F80010606B00B9012620686C
:103F3000FE4F00030ED53868E16B20F440100843B3
:103F40003860E06BB0F5801F01D010B102E00126AF
:103F500000E001252068C0020ED53868216C20F4ED
:103F6000400008433860206CB0F5800F01D010B1DC
:103F700002E0012600E001252068C10100D50126EC
:103F8000800666D5E8483830016841F0805101600C
:103F90000068DFF89CA300F080500090DAF8001071
:103FA00041F48071CAF80010FFF766FE804605E014
:103FB000FFF762FEA0EB080064287DD8DAF8000065
:103FC000C005F5D5DFF864A3AAF11C0ADAF80000F1
:103FD00010F440702AD0218E01F44071814225D026
:103FE000DAF80010DAF8002021F4407142F480324F
:103FF000CAF80020DAF8002022F48032CAF8002043
:10400000CAF80010DAF80000C0070FD0FFF734FE3E
:10401000804641F2883B05E0FFF72EFEA0EB080149
:104020005945CAD8DAF800008007F5D5206BC0F3EF
:10403000012103297ED0D9F8001021F4F811C9F824
:104040000010DAF80010228EC2F30B021143CAF8F6
:1040500000102078C00607D5386820F080703860DE
:104060003868A16B0843386020884104B14805D501
:104070000168626E21F44031114301602188090416
:1040800005D50168A26E21F4402111430160216829
:10409000C90305D50168E26E21F4401111430160A6
:1040A0002168890305D50168226F21F4400111437D
:1040B00001602178490600E002E105D50168626CE3
:1040C00021F00301114301602178090605D501683B
:1040D000A26C21F00C01114301602188C90505D5AE
:1040E0000168E26C21F030011143016021888905EB
:1040F00005D50168226D21F0C001114301602188BE
:10410000490505D50168626D21F4407111430160D4
:104110002188090505D50168A26D21F4406111438C
:1041200001602188C90407D50168E26D21F440517E
:10413000114300E03DE001602188890405D5016854
:10414000226E21F44041114301602168490205D5E6
:104150000168A26F21F080611143016021684FF076
:104160000069890209D50168E26F21F000611143FD
:104170000160E16F494500D1012521680A0700D59A
:104180000125490305D50168626F21F04071114393
:1041900001602168090206D50168D4F8802021F069
:1041A000805111430160DFF88081A8F108086EB9E1
:1041B00009E0D9F80020604B22F4F81218400243BD
:1041C000C9F800203DE72068800178D5D8F80010B4
:1041D00021F08061C8F80010FFF74EFD064604E0AC
:1041E000FFF74AFD801B64286AD8D8F80000000158
:1041F000F6D420785149C00711D0606B78B90868AF
:104200000A68C0F301406368C2F303629B0143EA9A
:10421000004040EA0260227A40EA027008602068AA
:10422000020303D5E26BB2F5801F05D0C0021AD598
:10423000206CB0F5800F16D108680A68C0F3014001
:104240006368C2F302729B0143EA0040237B40EAA9
:10425000036040EA027008603868626A20F01F005C
:10426000521E104338602068C0010FD508680A68E4
:10427000C0F303606368268AC2F302729B0143EABB
:10428000064343EA006040EA02700860206880014B
:104290000BD56068228A800140EA0240227B40EA16
:1042A0000260227A40EA02700860D8F8001041F0FB
:1042B0008061C8F80010FFF7DFFC064606E009E061
:1042C00082E0FFF7D9FC801B64287DD8D8F8000075
:1042D0000001F6D5B5B3D8F80000454620F080506F
:1042E000C8F80000FFF7C8FC064604E0FFF7C4FC6E
:1042F000801B642875D82868C0438000F6D52068E4
:104300000F49020301D5E26B1AB1C0022BD5206C14
:1043100048BB08680A68C0F301406369C2F30272CF
:104320009B0143EA00400EE0083802408C3802400E
:104330000070004090380240FFFCFF0F84380240BC
:104340008838024054E0237E40EA036040EA02706D
:10435000086038686FF0FF03A26A20F4F85003EB9E
:104360000222104338602068800212D5E06F484571
:104370000FD108680A68C0F303606369268CC2F332
:1043800002729B0143EA064343EA006040EA02707E
:1043900008602078000715D508680A68C0F3036034
:1043A0006369C2F301429B0143EA024242EA0060B0
:1043B000227F40EA027008603868E16A20F44030E9
:1043C00008433860286800E00BE040F08050286027
:1043D000FFF752FC044607E0FFF74EFC001B642881
:1043E00002D90320BDE8F88F2868C0438000F3D4C9
:1043F0000020F7E72DE9F04704000D4669D0DFF80B
:104400001C81D8F8000000F00F00A8420CD2D8F8A8
:10441000001021F00F012943C8F80010D8F800005F
:1044200000F00F00A84254D120683D4E810712D5FC
:10443000400703D5306840F4E05030602078000732
:1044400003D5306840F4604030603068A16820F0E7
:10445000F000084330602078C00729D030496068F8
:104460000839012810D00968022810D089070029CE
:104470002FDA316821F0030101433160FFF7FCFBC3
:10448000074641F288390CE009688903EFE78901A2
:10449000EDE7FFF7F1FBC11B494502D90320BDE859
:1044A000F0873068616800F00C00B0EB810FF0D14C
:1044B000D8F80010404601F00F01A9420BD901685D
:1044C00021F00F0129430160006800F00F00A842AD
:1044D00001D00120E3E72078400705D53068E16886
:1044E00020F4E050084330602078000706D530689B
:1044F000216920F4604040EAC100306000F058F8C3
:104500003168084AC1F30311515CC840064908608C
:1045100006480068FFF7CAFB0020C0E7003C0240E5
:104520000838024024D100081000002008000020B4
:104530000F2202600C4A136803F003034360136800
:1045400003F0F0038360136803F4E053C360126860
:104550004FF4E05303EAD20202610448006800F01D
:104560000F0008607047000008380240003C02401D
:104570000448054900680968044AC1F38221515C76
:10458000C8407047100000200838024034D10008AD
:104590000448054900680968044AC1F34231515C86
:1045A000C8407047100000200838024034D100088D
:1045B000154810B5006810F00C01144813D04310D2
:1045C00004290FD008290ED10F4C241F216801F0B7
:1045D0003F022168490207D52068C0F38810A0FB7C
:1045E000030106E0184610BD2168C1F38811A1FB44
:1045F00000010023FBF768FE2168C1F30141491C5B
:104600004900B0FBF1F010BD083802400024F4006E
:104610002DE9F84F04004FF0000877D02078DFF83C
:1046200050B3ABF10409C007A9F104054AD0DBF887
:1046300000105846C1F38101012908D00068C0F379
:10464000810002280AD1D9F80000400206D5286866
:10465000800337D560680028DFD033E06068B0F5AC
:10466000803F0BD010B1B0F5A02F11D0286820F4F6
:1046700080302860286820F4802002E0286840F418
:1046800080302860606888B1FFF7F6FA064609E0D6
:10469000286840F480202860F0E7FFF7EDFA801BDF
:1046A000642873D828688003F7D50BE0FFF7E4FA95
:1046B000064604E0FFF7E0FA801B6428F1D828687A
:1046C0008003F7D42078800740D5DBF800105846E7
:1046D00011F00C0F08D00068C0F3810002280AD145
:1046E000D9F80000400206D42868800717D5E06892
:1046F00001280BD113E0E0680028286817D040F0AB
:1047000001002860FFF7B8FA064605E02CE1FFF744
:10471000B3FA801B0228C4D828688007F7D5286818
:10472000216920F0F80040EAC10028600EE020F086
:1047300001002860FFF7A0FA064604E0FFF79CFAA4
:10474000801B022822D828688007F7D42078000729
:1047500025D5874F60696C37002838680FD040F046
:1047600001003860FFF788FA064604E0FFF784FA94
:10477000801B02280AD838688007F7D50FE020F0A0
:1047800001003860FFF778FA064605E082E0FFF79F
:1047900073FA801B02287DD838688007F7D4207808
:1047A000400769D5DFF8C8A10AF1380ADAF8000035
:1047B000C0000CD4DAF8001041F08051CAF80010A3
:1047C000DAF800004FF0010800F080500090694FC7
:1047D0003868C0050FD4386840F480703860FFF73F
:1047E0004BFA064604E0FFF747FA801B642851D8CD
:1047F0003868C005F7D55E4FA068683701280AD031
:1048000008B1052811D0386820F0010038603868F8
:1048100020F0040002E0386840F001003860A06831
:1048200098B1FFF729FA06460BE0386840F004001B
:104830003860F0E7FFF720FA811B41F288308142AF
:1048400065D838688007F5D50DE0FFF715FA0646FC
:1048500006E0FFF711FA811B41F28830814256D8F9
:1048600038688007F5D4B8F1000F05D0DAF80010E9
:1048700021F08051CAF80010A169C9B3DBF800002B
:10488000C0F38100022849D02868022920F08070F6
:10489000286000E03BE003D0FFF7EEF9044639E082
:1048A000FFF7EAF9064604E0FFF7E6F9801B022865
:1048B0002DD828688001F7D4D4E907012E4A08438F
:1048C000A16A490802EB0141626A41EA8211084388
:1048D00094F82C1040EA016040F00051C9F8001033
:1048E000286840F080702860FFF7C6F9044605E0AC
:1048F0003CE0FFF7C1F9001B022808D828688001B6
:10490000F7D533E0FFF7B8F9001B022802D90320DE
:10491000BDE8F88F28688001F4D427E0D9F80000BA
:10492000012921D0E26900F4800191421CD1226A60
:1049300000F03F01914217D1626A47F6C071014011
:10494000B1EB821F10D1A26A4FF0FF3300F4403167
:1049500003EB5202B1EB024F06D194F82C1000F099
:104960007060B0EB016F01D00120D1E70020CFE7EC
:1049700008380240007000400000FFFF7047704799
:104980007047000030B590F83C20012A3AD001224F
:1049900080F83C20CA6800248B6822F440721A4DCB
:1049A0001A434B6822F480621A430B6822F40062B7
:1049B0001A430B6922F480521A434B6922F40052C5
:1049C0001A438B6A22F480421A430B8B22F4702222
:1049D00042EA03420368AB4202D00C4DAB420CD119
:1049E0008D8C22F4700242EA0552CD6922F0807269
:1049F000096A2A4322F000720A435A6480F83C4054
:104A0000002030BD022030BD000001400004014004
:104A1000F0B590F83C20012A3CD0012580F83C50AC
:104A2000022280F83D2003685A689C681A4E1B4F8A
:104A3000B34201D0BB4204D122F4700C4A6842EA6E
:104A40000C0222F0700C0A6842EA0C025A600268FA
:104A5000B24213D0B2F1804F10D0114B9A420DD018
:104A6000104B9A420AD0104B9A4207D0BA4205D056
:104A70000E4B9A4202D00E4B9A4204D1896824F020
:104A800080031943916080F83D50002180F83C106C
:104A90000846F0BD0220F0BD0000014000040140C6
:104AA0000004004000080040000C004000400140AD
:104AB0000018004010B5040003D094F83D0010B178
:104AC00007E0012010BD002084F83C00204600F0E3
:104AD00023F8022084F83D002068211D02F09AFF8F
:104AE000012084F8480084F83E0084F83F0084F8F0
:104AF000400084F8410084F8420084F8430084F8C0
:104B0000440084F8450084F8460084F8470084F89F
:104B10003D00002010BD000008B500683349884200
:104B20000FD13348016841F00401016000680022A0
:104B3000052100F0040000901E20FFF777F91E20E9
:104B40004EE02B492B4A091D904226D1086840F0BF
:104B50000200086008680022052100F002000090B1
:104B60002B20FFF763F92B20FFF752F900220521D4
:104B70002C20FFF75BF92C20FFF74AF900220F21C8
:104B80002D20FFF753F92D20FFF742F900220521D0
:104B90002E20FFF74BF92E2022E0174A90420ED12B
:104BA000086840F48030086008680022052100F49D
:104BB000803000901820FFF739F9182010E00F4AD4
:104BC000904211D1086840F48020086008680022F3
:104BD000052100F4802000901A20FFF727F91A2001
:104BE000BDE80840FFF714B908BD00000008004008
:104BF00040380240000401400040014000480140AC
:104C000090F83D10012901D001207047022180F861
:104C10003D1000681249884214D0B0F1804F11D085
:104C2000104988420ED0104988420BD00F49884263
:104C300008D00F49884205D00E49884202D00E495B
:104C4000884207D181680D4A1140062906D0B1F586
:104C5000803F03D0016841F00101016000207047EE
:104C6000000001400004004000080040000C00402B
:104C7000000401400040014000180040070001000E
:104C800090F83D10012901D001207047022180F8E1
:104C90003D100168CA6842F00102CA600068134909
:104CA000884214D0B0F1804F11D0114988420ED003
:104CB000104988420BD01049884208D00F498842D9
:104CC00005D00F49884202D00E49884207D1816839
:104CD0000D4A1140062906D0B1F5803F03D0016886
:104CE00041F0010101600020704700000000014018
:104CF0000004004000080040000C00400004014097
:104D000000400140001800400700010070B5044653
:104D100090F83C000025012817D0012684F83C605B
:104D2000022084F83D00206882682F4B1A4022F44C
:104D30007F4282600868502838D00DDC20284FD090
:104D400005DC90B3102811D14AE0022070BD302854
:104D500046D040280AD13BE060282FD070280DD0E3
:104D6000B0F5805F03D0B0F5005F12D0012584F864
:104D70003D60002084F83C00284670BD4A682068E9
:104D8000D1E9021302F0BBFE2068816841F077018F
:104D900009E04A682068D1E9021302F0B0FE2068F9
:104DA000816841F480418160E1E719E0CA6849689F
:104DB000206802F0DBFF2068502106E0CA684968DD
:104DC000206802F0E4FF2068602102F0A2FECEE736
:104DD000CA684968206802F0C9FF20684021F4E7EA
:104DE000226801461046F0E788FFFEFF2DE9F041FA
:104DF00004000D4603D094F83D0018B108E00120EE
:104E0000BDE8F081002084F83C00204600F046F820
:104E1000022084F83D00206881681F4A11408160AB
:104E20002068211D02F0F6FD206881688269066A0B
:104E30002B68AF6926F0AA060B4340F203318A4380
:104E4000A96842EA0722EF6911434FF6FC429143F9
:104E5000EA6841EA07212F6A0A432969090141EA00
:104E6000073111436A686D69836046EA05152A4374
:104E70002068816120680262012084F8480084F87B
:104E80003E0084F83F0084F8440084F8450084F82C
:104E90003D000020B4E70000F8BFFEFF70B586B00B
:104EA000044614216846FBF767FA5F48022521682B
:104EB00000245E4A012681423BD15C4814300168DF
:104EC00041F001010160006800F0010005901068E8
:104ED00040F0100010601068694600F01000059066
:104EE0004FF420600090CDE901545148CDE90346CC
:104EF000FEF7BAFD002205211820FEF797FF1820C3
:104F0000FEF786FF002205211920FEF78FFF1920EA
:104F1000FEF77EFF002205211A20FEF787FF1A20E8
:104F2000FEF776FF002205211B20FEF77FFF1B20E6
:104F300059E03E4B3F481033B1F1804F22D03E4EF6
:104F4000B14254D1196841F002011960196801F0A9
:104F500002010591116841F001011160116801F031
:104F600001010591C0210091CDE90154CDE903452E
:104F70006946FEF779FD002205211D20FEF756FF48
:104F80001D2030E0196841F001011960196801F035
:104F900001010591116841F001011160116801F0F2
:104FA00001010591116841F002011160116801F0E1
:104FB0000201059120210091CDE90154CDE903467C
:104FC0006946FEF751FD08200090CDE901541B48C9
:104FD0006946CDE90346FEF747FD002205211C2066
:104FE000FEF724FF1C20FEF713FF06B070BD144E21
:104FF000B142FAD1196841F008011960196801F04D
:1050000008010591116841F001011160116801F07A
:105010000101059103210091CDE90154CDE903453A
:105020006946FEF721FDE0E700000140303802400C
:105030000010024000000240000400400004024052
:10504000000C004070B590F83E50044690F83F3098
:1050500090F8442090F84500022621B104290BD095
:10506000012D16D10FE0012D13D1012A11D184F8A1
:105070003E6084F8446016E0012B0AD1012808D173
:1050800084F83F600DE0012B03D1012A01D10128F2
:1050900001D0012070BD84F83E6084F83F6084F840
:1050A000446084F8456091B1042904D0206801224D
:1050B000002102F017FD20680122042102F012FDF8
:1050C0002068016841F001010160002070BD0122EB
:1050D00020680021F2E770472DE9F041044600689E
:1050E000C66805694FF00007A90713D5B10711D5A8
:1050F000F91E016101202077206880698007204621
:1051000002D0FFF7E8FF04E000F000F9204600F0CD
:10511000DFF92777680716D5700714D521686FF077
:1051200004000861022020772068806910F4407F25
:10513000204602D0FFF7CFFF04E000F0E7F820465A
:1051400000F0C6F92777280715D5300713D5216851
:105150006FF008000861042020772068C06980078C
:10516000204602D0FFF7B7FF04E000F0CFF820465A
:1051700000F0AEF92777E80616D5F00614D52168B9
:105180006FF010000861082020772068C06910F4D3
:10519000407F204602D0FFF79EFF04E000F0B6F803
:1051A000204600F095F92777E80708D0F00706D0E9
:1051B00021686FF001000861204600F00BFA280614
:1051C00001D4A80408D5300606D521686FF4025032
:1051D00008612046FFF7D3FBE80508D5300606D561
:1051E00021686FF4807008612046FFF7C7FB6806EE
:1051F00008D5700606D521686FF04000086120468A
:1052000000F0F2F9A8060AD5B00608D521686FF0BB
:10521000200008612046BDE8F041FFF7B1BBBDE8C2
:10522000F081000030B587B0044614216846FBF7D2
:10523000A3F8206800212C4C02222C4BA04211D153
:10524000186840F008001860186800F00800059021
:105250004FF470400090CDE90121CDE903122448BC
:10526000694613E0234D0324A84213D1186840F087
:1052700004001860186800F00400059020020090F7
:10528000CDE90121CDE903141B486946FEF7ECFB8B
:1052900007B030BD194DA84210D1186840F0100079
:1052A0001860186800F01000059060200090CDE9AB
:1052B0000121CDE9031412486946E7E7114CA042E9
:1052C000E6D1186840F002001860186800F002008B
:1052D0000590E00000900920CDE90121CDE90310FF
:1052E00009486946D2E70000000800403038024013
:1052F000000C024000040140000802400040014050
:10530000001002400018004000040240704770B5D1
:10531000044690F83C0000260D4601280BD00120E1
:1053200084F83C000C2A4AD007DC82B1042A20D041
:10533000082A06D131E0022070BD102A53D0142A69
:1053400063D00126002084F83C00304670BD206800
:1053500002F0E8FB2068816941F008018161206862
:10536000816921F004018161206881692A69114302
:1053700011E0206802F00AFC2068816941F40061B4
:1053800081612068816921F480618161206881697F
:105390002A6941EA02218161D4E7206802F030FCE9
:1053A0002068C16941F00801C1612068C16921F02C
:1053B0000401C1612068C1692A69114311E02068B4
:1053C00002F056FC2068C16941F40061C1612068A7
:1053D000C16921F48061C1612068C1692A6941EA1B
:1053E0000221C161AEE7206802F06EFC2068416DC9
:1053F00041F0080141652068416D21F004014165DB
:105400002068416D2A69114311E0206802F084FC94
:105410002068416D41F4006141652068416D21F4CF
:10542000806141652068416D2A6941EA0221416538
:1054300088E710B5040003D094F83D0010B107E0F0
:10544000012010BD002084F83C00204600F022F826
:10545000022084F83D002068211D02F0DBFA0120C3
:1054600084F8480084F83E0084F83F0084F8400047
:1054700084F8410084F8420084F8430084F8440032
:1054800084F8450084F8460084F8470084F83D001D
:10549000002010BD08B500680B49884212D10B48A6
:1054A000016841F04001016000680022052100F020
:1054B000400000902B20FEF7B9FCBDE808402B20EF
:1054C000FEF7A6BC08BD00000018004040380240AE
:1054D0007047000010B5044669B104290ED00829B0
:1054E0000FD00C2910D0102911D094F843000128B6
:1054F00010D0012010BD94F83E00F8E794F83F006A
:10550000F5E794F84000F2E794F84100EFE794F8EB
:105510004200ECE70220E9B304293FD0082940D03B
:105520000C2941D0102942D084F843000122206880
:1055300002F0D8FA1F4920681F4A884201D09042E1
:1055400003D1436C43F4004343642068884213D082
:10555000B0F1804F10D0194988420DD018498842C7
:105560000AD01849884207D0904205D0164988428F
:1055700002D01649884207D18168154A1140062990
:1055800006D0B1F5803F03D0016841F00101016010
:10559000002010BDFFE784F83E00C7E784F83F0015
:1055A000C4E784F84000C1E784F84100BEE784F80E
:1055B0004200BBE70000014000040140000400403D
:1055C00000080040000C004000400140001800406E
:1055D0000700010000680349884201D1FEF752BB71
:1055E0007047000000200040704710B50446D0F816
:1055F0008000202801D0022010BD51B14AB1012005
:10560000206600206066204603F098F8010002D072
:1056100005E0012010BD206E012802D001210846BE
:1056200010BD226810201062206850E8002F42F060
:10563000100240E80023002BF6D1F0E7094A10B52C
:1056400090420ED10848C9B2FCF74CFF06494022EF
:105650000448FFF7CAFF05480068016821F0080107
:10566000016010BDB01800201C5E0020E01B00206F
:1056700070B50446C06FD4F88060216889684FF027
:105680001005090618D5212816D12068083050E8E1
:10569000001F21F0800140E80012002AF5D1206FA0
:1056A00038B1FDF7FDFF20B1206FFEF754F8202838
:1056B00021D0204602F05EFE20688068400618D5A2
:1056C000222E16D12068083050E8001F21F040013A
:1056D00040E80012002AF5D1606F38B1FDF7E0FF15
:1056E00020B1606FFEF737F8202804D0204602F082
:1056F0001BFE002070BDC4F88450032070BD7047AD
:105700002DE9F04103680446D86919689A6840F6A3
:105710000F0528424FF000054FF0020605D1820622
:105720007ED58A067CD5A16E24E1DFF878C202F02E
:10573000010701EA0C0C57EA0C0C71D05FEAC07C3F
:105740000CD05FEAC15C09D54FF0010CC3F820C052
:10575000D4F8843043F00103C4F88430830709D5BA
:10576000D30707D023681E62D4F8843043F00403C3
:10577000C4F8843043070AD5D20708D0236804222E
:105780001A62D4F8842042F00202C4F8842002078E
:105790000CD501F020023A4308D0236808221A628F
:1057A000D4F8842042F00802C4F8842002050BD506
:1057B0004A0109D523684FF400621A62D4F88420A4
:1057C00042F02002C4F88420D4F88420002A36D085
:1057D000800605D5880603D5A16E09B12046884705
:1057E000D4F8840021688968490602D410F0280F93
:1057F00027D0204602F098FD2068806840061BD51F
:105800002068083050E8001F21F0400140E80012F5
:10581000002AF5D1606F78B163490165606F00E0DF
:1058200015E0FDF786FF002809D0606F016D00E0EC
:105830002046BDE8F04108472046FFF760FFBDE87D
:10584000F0812046FFF75BFFC4F88450F7E7276E2E
:105850002022012F7ED1C7067CD5CF067AD5102015
:10586000186220688068400650D5636F18684068E9
:105870004FF480770004000C3CD0B4F858108142FB
:1058800038D9A4F85A00D869B8422BD0206850E81B
:10589000001F21F4807140E80013002BF6D120682E
:1058A000083050E8001F21F0010140E80013002BF0
:1058B000F5D12068083050E8001F21F0400140E891
:1058C0000013002BF5D1C4F880202566206850E82D
:1058D000001F21F0100140E80012002AF6D1606F8D
:1058E000FDF7DEFE6666B4F85800B4F85A10401AA8
:1058F00081B207E0B4F858108142A0D1D869B8420B
:105900009DD166662046FFF799FE98E7B4F85800E7
:10591000B4F85A10401A81B2B4F85A0000288ED058
:1059200000298CD0206850E8003F23F4907340E8B1
:105930000037002FF6D12068083050E8003F23F0F0
:10594000010340E80037002FF5D1C4F88020256618
:10595000A56600E009E0206850E8002F22F0100260
:1059600040E80023002BF4D1CBE7030606D50B0655
:1059700004D5E16E00297FF45BAF60E74006C4D533
:105980004806C2D52046016851E8003F23F0400395
:1059900041E80034002CF6D1C267C56600F08CFAED
:1059A0004DE7000020010004F181000810B504005B
:1059B00002D0E06F10B107E0012010BD002084F894
:1059C0007800204600F026F82420E067206801686F
:1059D00021F001010160606A10B1204602F076FBFF
:1059E000204602F091FD0128E7D02068416821F4AB
:1059F000904141602068816821F02A01816020681F
:105A0000016841F0010101602046BDE8104002F04C
:105A1000C1BB00002DE9F04FA7B00446142121A816
:105A2000FAF7AAFC84216846FAF7A6FCCC4D0227B7
:105A3000CA4903262068103DDFF824934FF4806B99
:105A400088424FF0080A4FF0000860D14015CDF8A9
:105A5000508000906846FEF751FA08B1FDF76CF8E7
:105A6000D9F8001041F40021C9F80010D9F800005D
:105A700000F400202690286840F004002860286880
:105A800023AA454600F0040026904FF44060CDE97B
:105A9000210782E86004B34821A9FDF7E5FFB34E72
:105AA0004FF00068B0485F4630604FF40030C6E900
:105AB0000185C6E9035B7561B561C6E907503046EB
:105AC0007562FDF71BFF08B1FDF736F86667B46332
:105AD000A64EA54860363030E6E80208402086E849
