:020000040800F2
:1000000050640020A5020008CB6E0008F5640008CB
:10001000C96E0008351D0008C992000800000000E4
:10002000000000000000000000000000E1010008E6
:10003000912F0008000000003D02000885800008A4
:10004000BF020008BF020008BF020008BF0200088C
:10005000BF020008BF020008BF020008BF0200087C
:10006000BF020008BF020008BF020008BF0200086C
:10007000BD2E0008C92E0008BF020008D52E0008BA
:10008000BF020008BF020008BF020008BF0200084C
:10009000BF020008BF020008BF020008BF0200083C
:1000A00061810008A5810008898100087D81000820
:1000B000B1810008BD810008C9810008BF020008A5
:1000C000BF020008BF020008BF020008BF0200080C
:1000D000BF020008DD900008BF020008E990000898
:1000E000BF020008BF020008BF0200081D8200080E
:1000F000618200084582000839820008BF020008BA
:10010000BF020008BF020008BF020008BF020008CB
:100110002988000835880008BF020008D58100083A
:10012000E12E0008BF020008BF020008BF0200085D
:10013000BF020008BF020008BF020008BF0200089B
:10014000BF020008BF020008BF020008BF0200088B
:10015000BF020008BF020008BF020008BF0200087B
:10016000BF020008BF020008BF020008BF0200086B
:10017000BF020008BF020008BF020008BF0200085B
:10018000BF020008BF020008418800084D8800082F
:10019000BF020008BF020008BF020008BF0200083B
:1001A000BF020008BF020008BF020008BF0200082B
:1001B000BF020008BF020008BF020008BF0200081B
:1001C000BF020008BF020008DFF810D000F016FCE4
:1001D00000480047F5B70008AFF3008050640020E6
:1001E0002D4B19680868B0E8F04F80F30988BFF319
:1001F0006F8F4FF0000080F31188704700000000FF
:1002000008480068006880F308884FF0000080F319
:10021000148862B661B6BFF34F8FBFF36F8F00DFF4
:1002200000BF00BF08ED00E0DFF80C00016841F4FA
:1002300070010160704700BF88ED00E0EFF30980B6
:10024000BFF36F8F144B1A681EF0100F08BF20ED1C
:10025000108A20E9F04F106009B44FF0500072B6D8
:1002600080F31188BFF34F8FBFF36F8F62B60DF02D
:1002700017FB4FF0000080F3118809BC196808686B
:10028000B0E8F04F1EF0100F08BFB0EC108A80F3FA
:100290000988BFF36F8F704714000020EFF30580CB
:1002A000704700000648804706480047FEE7FEE723
:1002B000FEE7FEE7FEE7FEE7FEE7FEE7FEE7FEE716
:1002C00051810008C90100082DE9F05F05460020B2
:1002D00092469B4688460646814640241BE02846B7
:1002E00041464746224600F0BEF953465A46C01AD8
:1002F000914110D311461846224600F0A5F92D1A57
:1003000067EB01084F4622460120002100F09CF9CE
:1003100017EB00094E41201EA4F10104DFDC484622
:1003200031462A464346BDE8F09F10B5431A934232
:1003300009D28318881803E010F8011D03F8011D85
:10034000521EF9D210BD40EA01039B0703D009E019
:1003500008C9121F08C0042AFAD203E011F8013BB1
:1003600000F8013B521EF9D210BDD2B201E000F8F4
:10037000012B491EFBD270470022F6E710B5134649
:100380000A4604461946FFF7F0FF204610BD10B597
:10039000002200E0521C835C8C5CA34201D1002B44
:1003A000F8D1D8B2E1B2401A10BD2DE9FE4F81EA72
:1003B000030404F0004421F0004100944FF0000BCE
:1003C00023F0004350EA01045ED052EA03045BD0FC
:1003D000C3F30A54C1F30A552C44A4F2F334019434
:1003E000A0FB0254C1F3130141F48011C3F31303C2
:1003F00043F4801301FB024400FB034E840A970A76
:1004000044EA815447EA8357A4FB076802958D0AA2
:1004100005FB07854FEA932C04FB0C542705029D2E
:100420004FEA065847EA1637B5EB08056EEB070C9E
:10043000870E920E47EA811742EA8312A7FB020158
:10044000B6EB0B0164EB00042B0D43EA0C335E1892
:1004500044EB1C50DA465146E7FB0201C5F3130496
:100460004FEA0B3343EA14534FEA0432019C43EA48
:100470000603A4F10C040294009CCDE900B400F042
:1004800097F903B0BDE8F08F00200146F9E72DE9A8
:10049000F04D81EA030404F0004B21F000451446BE
:1004A0004FF0000A23F0004150EA050220D054EA40
:1004B00001021DD0C5F30A570246C5F31303C1F369
:1004C0001300C1F30A5640F4801543F48013A7EBE0
:1004D0000608101BD64608F2FD3873EB050002D360
:1004E00008F1010801E092185B41B8F1000F03DA4E
:1004F00000200146BDE8F08D00204FF48011064633
:1005000084460EE0171B73EB050705D3121B63EB44
:10051000050306434CEA010C49084FEA30009218E3
:100520005B4150EA0107EDD152EA030012D082EAA2
:10053000040083EA0501084305D0101BAB4106D235
:100540000122002306E000224FF0004302E06FF09A
:10055000010253101AEB06004CEB085110EB0A0095
:1005600041EB0B01BDE8F04D00F013B90EB5C10F22
:1005700080EAE0700844CA07002140F233438DE866
:100580000E000A460B4600F013F903B000BD00F060
:10059000004230F000400AD0C10D01F56071C0F397
:1005A000160042EA0151C20840071143704700207B
:1005B0000146704730B5041E71F1000404DB4FF0B2
:1005C0000044404264EB0101141E73F1000405DB9A
:1005D0001C464FF00043524263EB04038B4208BFBA
:1005E000824230BD01F0004330B421F0004150EAB6
:1005F000010206D00A0DA2F56072C1F31301002AB0
:1006000002DC30BC00207047440F44EAC104C10042
:10061000E01830BC00EBC25000F084B830B50B4697
:10062000014600202022012409E021FA02F59D4222
:1006300005D303FA02F5491B04FA02F52844151EF6
:10064000A2F10102F1DC30BD202A04DB203A00FADD
:1006500002F1002070479140C2F1200320FA03F319
:10066000194390407047202A04DB203A21FA02F017
:100670000021704721FA02F3D040C2F120029140DC
:1006800008431946704700000FB4002300B589B035
:100690000CA900910B996FF00042CB601E4B0693A2
:1006A0001E4B07930423CDE901321D4A08920246EE
:1006B0006B46002000F060FA09B05DF814FB70B5DD
:1006C00086B006464FF0FF300091CDE901010020D1
:1006D00015460C4604903246694604A8FFF7D4FF3D
:1006E00002460498211825B108B1084600E02046CA
:1006F0002860049800280DD0002A02DD0098884266
:1007000008D0081B0094CDE901043246694604A8CC
:10071000FFF7BAFF06B070BDB10D0008CF0D00089D
:10072000450A00080029A8BF7047401C490008BFBF
:1007300020F00100704710B4B0FA80FC00FA0CF011
:1007400050EA010404BF10BC704749B1CCF1200449
:1007500021FA04F411FA0CF118BF012121430843D6
:10076000A3EB0C01CB1D4FEA00614FEA102042BF02
:10077000002010BC704700EBC35010440029A4BFF8
:1007800010BC7047401C490008BF20F0010010BC9D
:10079000704710B5141E73F1000408DA401C41F1D3
:1007A000000192185B411A4301D120F0010010BDF5
:1007B0002DE9F04D92469B4611B1B1FA81F202E06B
:1007C000B0FA80F220329046FFF73EFF04460F4613
:1007D00040EA0A0041EA0B0153465A46084313D047
:1007E000114653EA010019D0C8F140025046FFF704
:1007F0003AFF05460E46504659464246FFF724FF4B
:10080000084305D0012004E020463946BDE8F08DBC
:100810000020054346EAE0762C4337430A986305F7
:10082000E40AA0EB08000022FD0A44EA47540A301B
:1008300002D500200146E9E7010510196941DDE90B
:10084000084500196941BDE8F04DA2E72DE9FE4FCA
:10085000804681EA0300C00F0C46009021F0004161
:1008600023F00045B8EB0200A94105D240462146DD
:1008700090461C460B46024623F00040104347D0EA
:10088000270DC7F30A00C3F30A510290401A0190E2
:1008900040286BDAC3F3130040F4801B00989246A3
:1008A00020B10023D2EB030A63EB0B0B01985946EE
:1008B000C0F140025046FFF7C7FE06460D465046BF
:1008C0005946019A00F0ACF810EB08006141002491
:1008D00087EA115284EAE7731A4340D0009A62B360
:1008E000019A012A4FEA075215DC001B61EB020155
:1008F0004FF0004202EA0752CDE90042001C41F5E8
:10090000801132462B46FFF753FF03B0BDE8F08F4E
:1009100040462146F9E7001B61EB0201001C41F54E
:10092000801300185B412018A2F5001747EB030164
:1009300040EAD570B6196D4111E06D084FEA3606F0
:1009400045EAC0754FEA0752001B61EB0201001C2B
:1009500041F5801149084FEA3000001951413246F3
:100960002B4603B0BDE8F04FFFF713BF00980122FC
:1009700040000023D0EB020263EBE07300982146B5
:100980004FEAE074B8EB000061EB0401E9E783F0A3
:1009900000435BE781F0004158E7C1F30A52C1F31D
:1009A000130140F2FF3341F480119A4202DA002031
:1009B0000146704740F233439A42A2F2334202DCCE
:1009C0005242FFF750BEFFF73FBE000030B5041E95
:1009D00071F1000404DB4FF00044404264EB01017C
:1009E000141E73F1000405DB1C464FF00043524215
:1009F00063EB0403994208BF904230BD064C074D9B
:100A000006E0E06840F0010394E8070098471034DE
:100A1000AC42F6D3FFF7DCFB28F4000848F40008EA
:100A2000202A06DBCB17203A41FA02F043EAE073B2
:100A300006E041FA02F3D040C2F12002914008439F
:100A400019467047C0B24FF4F05100F0D1B9000020
:100A50002DE9FF4F087883B09946FF2805D0491C3F
:100A60002D2804D00024002008E000200BE0012401
:100A7000F9E700EB800003EB4000491C0B78FF2BEB
:100A8000F7D104B1404200230293147819461D4661
:100A90002D2C01D02B2C04D1521C2D2C13D0002432
:100AA0000294AA461478FF2C0FD00A25A3FB0578E0
:100AB00001FB05814FF0000C03FB0C11521CE319E4
:100AC0004AEB0101EEE70124EAE7814453EA010021
:100AD00002D019F5C87F06DA03980021C0E9001199
:100AE00007B0BDE8F08F0025AE4E2F46DFF8B88284
:100AF000184600F091F9CDE90001B9F1000002DAE1
:100B0000C9F1000400E004460023A74A1AEB030BD6
:100B100042EB045A12E0E00707D02A463346384633
:100B20004146FFF742FC074688462A4633461046B0
:100B30001946FFF73AFC05460E466410002CEAD130
:100B4000DDE90001B9F1000F5A46534606DAFFF716
:100B50009EFC3A464346FFF79AFC05E0FFF725FC6A
:100B60003A464346FFF721FC029A0AB181F0004160
:100B7000039AC2E90001B3E72DE9FF4F1F468DB08C
:100B8000D7E901464FF0FF382E2045464FF00009C7
:100B90000B90B9696D1C0E988847396A8246884760
:100BA0000028F6D1BAF1FF3F0AD024F4D064002E19
:100BB00011DDBAF12B0F08D0BAF12D0F0BD102E0E5
:100BC000404611B08DE744F48064B9696D1C0E98FD
:100BD00088478246761E6946600501D52D2000E0D3
:100BE0002B208DF8000001F1010B0DF1200809E028
:100BF000B9696D1C0E98884782460F9844F40074BA
:100C0000761E0560002E02DDBAF1300FF0D00B9990
:100C10008A453ED144F0800406E00F99681CA9F192
:100C2000010944F400740860B9696D1C761E0E98C1
:100C3000884782463028F0D02BE00B998A4505D1B1
:100C4000200603D444F08004761E18E0504608F0D5
:100C50003DFD08B30DF11301761E44F400748B457D
:100C600008D2AAF130000BF8010B200607D5A9F134
:100C7000010003E0200602D409F101008146A0052D
:100C800002D50F99681C0860B9696D1C0E988847D9
:100C90008246002ED1DC53E0002E51DDBAF1650F03
:100CA00002D0BAF1450F4BD1A00549D5B9696D1CE9
:100CB00024F44074761E0E9888478246002E0CDD80
:100CC0002B2804D0BAF12D0F07D144F48074B969F0
:100CD0006D1C0E9888478246761EE00501D52D21B1
:100CE00000E02B2108F8011BCDF82C8021E00DF14C
:100CF0002901761E44F4007488450CD2AAF1300014
:100D000010F0FF0088F8000002D10B99884509D93E
:100D100008F1010806E0E00501D5244801E042F2AF
:100D20000F708146B9696D1C0E98884782460F98EE
:100D30000560002E04DD504608F0C8FC0028D6D11E
:100D4000F9690E988847FF208BF8000088F80000AA
:100D50000020069007904B466A4608A906A8FFF7B0
:100D600077FEA00502D46FF001002AE714F0240FEB
:100D70000AD0E00714D1DDE906123868031D3B6094
:100D80000068C0E900120BE0DDE90601FFF72AFC6C
:100D90000146E00704D13868021D3A60006801602E
:100DA00028460EE7000014400000F03FF1D8FFFF96
:100DB000426842B1016811F8013B23B1521EC0E9FB
:100DC0000012184670470121C160881E70474268B2
:100DD0005AB1C368016843B983688B4205D0491E84
:100DE000521CC0E90012002070474FF0FF307047DE
:100DF0007F2801D9002208E0064A02EB5002C00712
:100E0000127800D1120902F00F0201209040084030
:100E10007047000034F300080EB540F233420292EE
:100E20000022CDE900221346FFF7C2FC03B000BD4B
:100E300070B58C1810F8015B15F0070301D110F89C
:100E4000013B2A1106D110F8012B03E010F8016BC9
:100E500001F8016B5B1EF9D12B0705D40023521E4C
:100E60000DD401F8013BFAE710F8013BCB1A921CB4
:100E700003E013F8015B01F8015B521EF9D5A142B2
:100E8000D8D3002070BD10B50146806B026C12F003
:100E9000500F05D0026CD20626D502F0A3FC10BD7F
:100EA000016C41F40071016401688A6812F0405FCE
:100EB00017D18269AAB9CA6A12F4700F02D08A687F
:100EC00052050ED44A6822F020024A60016C21F4D7
:100ED00080710164016CC90403D4016C41F001010B
:100EE000016402F07DFC10BD806BC26C0846BDE859
:100EF0001040104710B5806B40210164416C41F0F7
:100F00000401416402F06EFC10BD10B5806B02F06C
:100F100068FC10BD484910B5D1F8042322F44032D2
:100F2000C1F80423D1F8042343681A43C1F8042309
:100F300001684A6822F480724A6001684A6803695D
:100F400042EA03224A6001684A6822F040724A601D
:100F500001684A6883681A434A6001688A6822F413
:100F600000628A6001688A68C3681A438A60816A7D
:100F70006FF07062D14201688A6822F070628A6004
:100F800001688A680CD0836A1A438A6001688A689B
:100F900022F040528A6001688A68C36A1A4301E0FD
:100FA00022F040528A6001688A6822F002028A6058
:100FB00001688A68836942EA43028A6090F82010D7
:100FC000002901684A680FD042F400624A60016853
:100FD0004A6822F460424A6001684A68436A174CD2
:100FE00004EB43331A4301E022F400624A600168D3
:100FF000CA6A22F47002CA620168CA6A838B104C02
:1010000004EB03531A43CA6201688A6822F400722F
:101010008A6001688A6890F8303042EA43228A6028
:1010200001688A6822F480628A6001688A6840697F
:1010300042EA8020886010BD0020014000E0FFFFF0
:101040000000F0FF0021022010B506F0F1F9642045
:101050000CF096FA0021012006F0EAF9C8200CF005
:101060008FFA0121022006F0E3F964200CF088FADF
:101070000121BDE81040084606F0DAB92DE9F05F1D
:101080000024254626462DED068BDFEDB49AB4A04C
:10109000B0EE698A08F000FA0220B0EE481AF3EECA
:1010A000090AB3EE090A00F06DFF00F0B3FEDFF8A5
:1010B000D8B2DFF8D8929FEDB6AADFF8D882B64F43
:1010C000DFF8D8A2B2EE0E9AF1EE048A072C7BD29A
:1010D000DFE804F004447B8EBAF2FF00B04801F070
:1010E000C9FEAF480088C0F3C110032816D0002500
:1010F00000F0F2FEB0EEC00A10EE100AA9498842D4
:101100001ADA9BF80C105846042915D2417B0229A3
:1011100012D2417B81B1007B70B115E16D1CEDB243
:10112000052DE5D309F0C8FFDAED090A0AF0F4FD50
:101130009DA008F0B1F9DBE709F0A8FEB0EE408A07
:101140009CA008F0A9F90420B0EE481AF3EE090AB1
:10115000B3EE090A00F016FF0124F5E0D7ED000A0E
:1011600098ED020A70EEA80AB4EEE00AF1EE10FA69
:1011700012DB70EE890AB4EEE00AF1EE10FA0BD23F
:1011800096A008F089F90420B0EE481AF3EE090A97
:10119000B3EE090A00F0F6FED7ED000A98ED020A58
:1011A00070EEA80A70EE890AB4EEE00AF1EE10FAC9
:1011B00009DB0420B0EE481AF2EE0E0AB2EE0E0A77
:1011C00000F0E0FE0224BFE0BDE0D7ED000A98ED9C
:1011D000020A70EEA80AB4EEE00AF1EE10FA06D8A0
:1011E00087A008F059F900F015FE00260324ABE0B3
:1011F00009F08AFE99F801104846012902D00078CA
:10120000012805D1B0EE4A0A00F00EFE002E1AD0D9
:1012100009F03CFEF0EE000A20EE201AB2EE040ABD
:10122000C1EE000AB2EE001A28EE011AC1EE001A51
:1012300030EEA11A9FED7A0A0420F0EE400A00F089
:10124000A1FE002604247FE000F046FEB0EEC00AB6
:1012500010EE100A7349884216DB00F03DFEB0EE36
:10126000C00A10EE100A704988420DDA09F04CFEEF
:1012700099F801104846012902D00078012803D1CD
:10128000B0EE4A0A00F0D0FD00F026FEB0EEC00A33
:1012900010EE100A6549884256DB09F0F7FDB0EE02
:1012A000401A0420F2EE0E0AB2EE0E0A00F06AFEB8
:1012B000052449E00DE0FFE7D7ED000A98ED020AAA
:1012C00070EEE80AB4EEE00AF1EE10FA3CD806241B
:1012D0003AE0D7ED000A98ED020A70EEE80A30EE27
:1012E000C91AB4EEC10AF1EE10FA0FDBB4EEE00A4F
:1012F000F1EE10FA0AD209F0C9FDB0EE401A04204E
:10130000F3EE090AB3EE090A00F03CFED7ED000A3D
:1013100098ED020A70EEE80AB4EEE00AF1EE10FA77
:1013200012DB0220B0EE691AF3EE090AB3EE090AE5
:1013300000F028FE00218AF830109AF8001041F0E1
:1013400004018AF80010072402200CF019F9072C78
:101350007FF4BCAEBDEC068BBDE8F09F0000000042
:10136000457865637574696E672062726964676544
:101370002063726F7373696E672070726F63656448
:101380007572650A000000007C5F0020C500002027
:10139000CDCCCC3D6C5C0020B0000020F05E002085
:1013A0008C5F00200000C8416779726F20726573FE
:1013B00065740A00427269646765206465746563D8
:1013C0007465642C20707265706172696E67207438
:1013D0006F20617363656E640A0000004F6E2072B7
:1013E000616D702C2077616974696E6720666F7219
:1013F0002062726964676520746F700A00000000E3
:101400004174206272696467652C20707265706136
:1014100072696E6720746F2063726F73730A0000C5
:10142000000010420000704200008C420000964212
:101430002DE9F04F2DED088B87B009F027FDB0EEB8
:10144000401A0420F1EE080AB1EE080A00F09AFDF5
:101450000121002005F0ECFF9A4D02200CF090F8DD
:1014600009F0B0FE287B0428F7D902200CF088F898
:1014700009F0A8FE287B0428F7D200F0CBFC9249A3
:101480001C226846FEF751FF9FED90AA8E4C84ED1A
:1014900000AA9FED8F8AF7EE08AA84ED018A022048
:1014A000C4ED02AAB0EE481AF1EE080AB1EE080A3D
:1014B00000F068FDB3EE090A07F0D2FFB3EE0B0AA5
:1014C00084ED000A84ED018A9FED82BA022084ED4A
:1014D00002BAB0EE481AF2EE020AB2EE020A00F0C8
:1014E00051FD002608F068FDDFED7BBADFF8ECA1C6
:1014F0007B4FCAED05BA14E009F064FE2888C0F3FA
:10150000C110032805D02888C00502D42888000609
:1015100004D5012609F0BAFC87ED010A02200CF07F
:101520002FF8287B0A28E7D3002408F037FD9FED29
:101530006D9A0EB987ED019ADFED6B9A0420B946DA
:10154000CAED059A97ED011AF2EE0A0AB2EE0A0AFE
:1015500000F018FD654F664EF1EE048A02E00220AD
:101560000CF00EF8D6ED000A97ED020AB04670EEC8
:10157000E80AB4EEE00AF1EE10FAF0D300F04AFC0B
:1015800002200BF0FDFF09F01DFE287B0428F7D98F
:1015900002200BF0F5FF09F015FE287B0428F7D296
:1015A000DFF850B1B1EE080A8BED030A00F032FC0F
:1015B000454E0220F1EE080AB1EE080A86ED00AAB7
:1015C000B0EE48AA86ED01AAC6ED02AAB0EE4A1A0C
:1015D00000F0D8FCB2EE0E0A07F042FFB3EE080AA4
:1015E00086ED000A86ED01AA022086ED02BAB0EE71
:1015F0004A1AF2EE000AB2EE000A00F0C3FC00261E
:10160000CAED05BA08F0D8FC00F004FCB3EE0E0AEF
:1016100007F026FF0220B0EE4A1AF3EE010AB3EEFD
:10162000010A00F0AFFC9BED080ABB4647461AE0F2
:1016300009F0C8FD2888C0F3C110032805D1012690
:10164000641C09F023FC38EE008AD7ED000A9BEDFC
:10165000020A70EEE80AB4EEE00AF1EE10FA08DCD5
:1016600002200BF08DFF287B042802D2287B002863
:10167000DED13CB100EE104AF0EE480AB8EE400A66
:1016800080EE808A4C4689ED018A08F087FC0EB90D
:1016900084ED019A0220CAED059AB0EE4A1AF3EEE3
:1016A000020AB3EE020A00F06DFC13490020087133
:1016B0001C2205486946FEF738FE07B0BDEC088BD2
:1016C000BDE8F08F7C5F0020845B002000000C42AE
:1016D000000000000000C84366660640EC000020E1
:1016E000D810002000003443CDCCCC3F6C5C0020EF
:1016F000B0000020D85F0020881000202DE9F04FB6
:101700002DED048B8FB0DFEDD09AD04900251C223F
:101710006846FEF70AFECE4C1C22CE4907A894ED7F
:10172000049AFEF702FEB3EE090A84ED040AC748E4
:10173000B3EE060A84ED020AB1EE020A80ED000A59
:10174000C0ED019AC0ED029AC248B3EE010A80EDE5
:10175000000AC0ED019A9FEDC00AC04980ED020A5F
:10176000032008710220B0EE691AF3EE000AB3EE0E
:10177000000A00F007FCBA4FDFF8E8920AE0388868
:10178000C0F3C110032805D109F096FCD9ED090A70
:101790000AF0C2FA387B032802D2387B0028EED147
:1017A000787B0128EBD000F035FBAF4EDFF8BC8230
:1017B000F1EE048A02E002200BF0E2FED8ED000A0E
:1017C00096ED020A70EEA80AB4EEE00AF1EE10FA05
:1017D000F1D308F0F1FB00F01DFB9D480024DFF879
:1017E00090A2BB46B0EE698A90ED080A11E0022093
:1017F0000BF0C6FE9E4801F03DFBBBF80000C0F3B5
:10180000C110032805D1641C09F040FB38EE008AA2
:1018100001259AF80C000028E9D1964F3CB100EE62
:10182000104AB8EE400AC8EE000AC7ED010A0024CB
:10183000B0EE698A08F0B2FB1DB999ED090A87ED8F
:10184000010A0025BA46042097ED011AF3EE010AB9
:10185000B3EE010A00F096FB474602E002200BF0CF
:101860008FFED7ED000A96ED020A70EEA80AB4EEDC
:10187000E00AF1EE10FAF1DC5E4602200BF080FE89
:1018800009F0A0FC307B0428F7D902200BF078FE89
:1018900009F098FC307B0428F7D208F08DFB00217A
:1018A000084605F0C5FD6D4F032038710220F0EEAB
:1018B000488AF3EE010AB0EE681AB3EE010A00F0AE
:1018C00061FB00F0A7FADFF8888198ED080AB3EE13
:1018D000040A07F0C5FD0DE002200BF051FE308830
:1018E000C0F3C110032805D1641C09F0CFFA38EE0B
:1018F000008A0125307B0A28EED33CB100EE104A65
:10190000B8EE400AC8EE000ACAED010A1DB999ED09
:10191000090A8AED010A00243C7108F03FFB04200B
:1019200055469AED011AF2EE040AB2EE040A00F0EE
:1019300029FB0E200AF002FF4F4F4FF4807602E0A1
:1019400005200BF01DFE3146384602F0E1FB002871
:10195000F6D100F05FFAB3EE010A07F081FDB0EEB8
:10196000681A9FED460A0120F0EE400A00F00AFBDB
:10197000B6EE000A07F074FD00F04CFA404804701F
:101980000AF0EEF900F014FAFA200BF0F9FD09F074
:1019900093FBD9ED090A4E460AF0BEF939483A4F91
:1019A000C07818B9787828B907F090FC787808B929
:1019B0000BF02CF900F02EFA9FED340A0120B0EE66
:1019C000681AF0EE400A00F0DDFAB1EE060A07F000
:1019D00047FD00F01FFA00F0EBF9FFF733FB4FF47F
:1019E00048700BF0CDFD9FED2A0A06F0F1FE4FF096
:1019F000804702E002200BF0C3FD09F047FAD5ED65
:101A0000000A30EEC00AB0EEC00A10EE100AB8426A
:101A1000F0DC9FED200AFFF70BFD0C481C22694605
:101A2000FEF783FC0B481C2288ED049A07A9FEF7F9
:101A30007CFC86F83040307840F0040030700FB005
:101A4000BDEC048BBDE8F08F00000000D85B0020E7
:101A5000D85F0020845B00200000C843881000206D
:101A60007C5F0020F05E00206C5C0020B000002055
:101A70008C5F0020D8100020000C02400080BBC406
:101A8000CC000020EC0000201B0100200000FAC464
:101A900000002A43A0AA26442DE9F04151491C2206
:101AA0002DED028B88B06846FEF73FFC4E484FF4A0
:101AB0007A784E49B3EE090A80ED020A01204C4EB5
:101AC0004C4D00244C4F087014E0641CA4B24445F3
:101AD00016D8494801F0CEF93888C0F3C110032860
:101AE00005D109F0E9FAD6ED090A0AF015F9022044
:101AF0000BF046FD6878012802D128780128E4D04F
:101B00003848B3EE040ADFED3E8A80ED000A3D4F0F
:101B10009FED3A0AB0EE681A80ED010A80ED021AD4
:101B2000032038710220F2EE080AB2EE080A00F033
:101B300029FA354C354DB2EE008A02E002200BF056
:101B40001FFDD5ED000A94ED020A70EE880AB4EE8E
:101B5000E00AF1EE10FAF1D308F02EFA02E00220CA
:101B60000BF00EFDD5ED000A94ED020A70EEC80AE6
:101B7000B4EEE00AF1EE10FAF1DCB1EE048AD5ED34
:101B8000000A94ED020A70EEC80AB4EEE00AF1EE23
:101B900010FA03D202200BF0F3FCF0E708F0FEF994
:101BA00000243C710220B0EE681AF3EE030AB3EE93
:101BB000030A00F0E7F9B2EE040A07F051FC00F066
:101BC00029F908481C22694686F83040FEF7ADFB2B
:101BD000307840F00400307008B0BDEC028BBDE8F6
:101BE000F0810000845B0020D85F0020C40000204A
:101BF000F05E0020C50000208C5F00206F12833B48
:101C000000000000881000206C5C0020B000002064
:101C100070B53E491C222DED028B8EB0F0EE408A4D
:101C20006846FEF782FB3A491C2207A8FEF77DFBB7
:101C30009FED388A0220F3EE040AB0EE481AB3EEA4
:101C4000040A00F09FF9344D344C354E10E034480E
:101C500001F010F93088C0F3C110032805D109F054
:101C60002BFAD5ED090A0AF057F802200BF088FC90
:101C7000207B0428EBD9607B0128E8D024489FED25
:101C8000290AB0EE481A80ED000A80ED011A80EDB5
:101C9000021A0220F2EE0C0AB2EE0C0A00F072F9FF
:101CA000214C0320214E94ED088A307108F084F90C
:101CB00006E002200BF064FCB2EE080A00F03CF8EB
:101CC00094ED080A30EE480AB0EEC00AB4EEE80A15
:101CD000F1EE10FAEDD3164800240470447034710C
:101CE0001C220B4807A9FEF720FB85F8304008F0BE
:101CF00055F906481C226946FEF717FB287840F084
:101D0000040028700EB0BDEC028B70BDD85B0020C3
:101D1000845B002000000000F05E00207C5F00205B
:101D20008C5F002000000C42D85F0020881000204B
:101D3000EC000020FEE7000002209FED031AF0EE09
:101D4000400A00F01FB9000000000000F0B50022BA
:101D5000164E9FED150A012411468578C1F107033F
:101D600004FA03F73D420FD08578521CD2B2DD4011
:101D700005F0010300EE903A06EB8103F8EE600AED
:101D800093ED001A00EE810A491CC9B20829E4D378
:101D90003AB100EE902AB8EE601AC0EE010AB0EE39
:101DA000600A80ED020AF0BD0000000014F3000894
:101DB000012010B50AF0E4F80021012009F0CCFE62
:101DC0000021022009F0C8FE0021032009F0C4FE12
:101DD0000021042009F0C0FEBDE8104009F08EBECD
:101DE00010B50A4CB7EE000A84ED0A0A9FED080A06
:101DF00000F0CEFA4FF4C8700BF0C2FBB6EE000A4A
:101E000084ED0A0ABDE81040FFF7D2BFD85F00207A
:101E10000000000003489FED020A80ED080A7047A9
:101E200000000000D85F002010B52DED028BB0EE51
:101E3000408A09F069F811484278114912B90278CC
:101E4000012A04D00F4A138813F0FF0F04D091ED3C
:101E5000010A30EE080A0BE04378012B01D100782B
:101E600010B11088000A05D091ED010A30EE480A41
:101E700081ED010ABDEC028B10BD0000C500002001
:101E8000D81000207C5F002010B50C4C2DED028B8B
:101E9000B0EE408A21710B49DFED091AB0EE600AFD
:101EA000C1ED081A00F06EF8B0EE480A00F0D4F860
:101EB00000202071BDEC028B10BD000088100020B6
:101EC00000000000D85F00200248012101710021BC
:101ED000418070470C600020014890ED080A70476F
:101EE000D85F00201F4A002110B511701E489FEDD9
:101EF0001F0ADFED1F0A0170417041800171C1802E
:101F00000172343880ED000A80ED010A80ED020A8A
:101F100080ED030A80ED070AC0ED050AF3EE090A19
:101F2000C0ED040ADFED130AC0ED060AF6EE000A62
:101F3000C0ED090AC0ED0A0AC0ED0B0AC0ED0C0A9B
:101F40000D4880ED010A80ED020A11700B48017006
:101F500041F288300A49086009F090FDBDE8104060
:101F600009F06ABF7A0000200C6000200000000029
:101F70000000C84200004842E41000207C1000200D
:101F80007400002010B505284FF07E542DED048B11
:101F9000F0EE608AB0EE409ADFED2C9A39EE680AD6
:101FA000B0EEC08A4FD2DFE800F046270B031B00DB
:101FB000BDEC048BB0EE410ABDE8104006F008BC51
:101FC000234880ED001A02200FE0B0EE690A01E01C
:101FD000B0EE490ABDEC048BBDE8104000F0D8B962
:101FE000B0EE410A00F096F9042009F0C9FF18EE9E
:101FF000100AA042ECDDE8E7012009F0C1FFBDEEC8
:10200000C98A012018EE101A09F0A6FD022018EE68
:10201000101A09F0A1FDBDEEE88A032018EE101A8F
:1020200009F09AFD18EE101ABDEC048B0420BDE8EF
:10203000104009F091BD002009F0A2FF054880ED95
:10204000009AC0ED018ABDEC048B10BD00000000B9
:1020500088100020D85F002010B50C4C2DED028BAD
:10206000B0EE408AD4ED088A02E002200BF088FA34
:10207000D4ED080A70EEE80AF0EEE00AF4EEC80AC1
:10208000F1EE10FAF1D3BDEC028B10BDD85F002049
:1020900070B5114C114D2DED048BF0EE619AB0EE40
:1020A000419AA078F0EE608AB0EE408A58B90C49A7
:1020B0001C2205F15C00FEF738F995ED052A012098
:1020C00084ED082AA070064880EC038AC5ED059AC5
:1020D000BDEC048B70BD0000E4100020D85F002030
:1020E000D85B00200D480E490E4A03788BB991ED5C
:1020F000002A012380ED032A91ED012A80ED042AB4
:1021000091ED022A80ED052A92ED062A80ED062A3D
:10211000037081EC030AC2ED061A7047E410002038
:10212000845B0020D85F002070B5114C114D2DED5F
:10213000048BF0EE619AB0EE419A6078F0EE608A1E
:10214000B0EE408A58B90C491C2205F14000FEF758
:10215000ECF895ED042A012084ED072A607006480A
:1021600080EC038AC5ED049ABDEC048B70BD0000C1
:10217000E4100020D85F0020BC5B00202D4870B523
:102180000078022855D12C4C0025A4F13402207986
:1021900001281ED12948008830F470712046B0F91A
:1021A000020001D0401C02E0C82801DA0A38608031
:1021B000B4F90200002801DDC8280CDB2571658018
:1021C00000F05EF8607800EE100AB8EE400A82ED8A
:1021D000020A608888B160789FED191ADFED190A4C
:1021E000400800EE100AB8EE400A82ED020AD2ED75
:1021F000021AB2EE080AFFF775FF207A002818D0FD
:102200001149002000EB400201EB8202127A7AB100
:10221000401CC0B20528F5D3E088401C00B2E08025
:10222000C82806DBE5802572BDE87040FFF7D8BD01
:10223000E58070BD7A0000200C6000207C5F0020EB
:1022400000004843000000009010002010B5094C29
:10225000A07800280CD008491C220848FEF765F831
:10226000054894ED080A5C3880ED050A0020A0704E
:1022700010BD0000E410002034600020D85B002076
:102280000C480178002913D00B4990ED030A81ED29
:10229000000A90ED040A81ED010A90ED050A81ED36
:1022A000020A064990ED060A81ED060A0021017036
:1022B00070470000E4100020845B0020D85F0020FD
:1022C00010B5094C607800280CD008491C22084839
:1022D000FEF72BF8054894ED070A403880ED040A14
:1022E0000020607010BD0000E41000201860002085
:1022F000BC5B002000EE100A0248B8EE400A80EDF8
:10230000000A7047881000200149087170470000DA
:102310008810002010EE100A0949DFED0A0A8842F1
:1023200002DD30EE600A06E010EE100A064988422F
:1023300001D330EE200A054880ED010A7047000005
:10234000000034430000B443000034C3D810002020
:1023500010EE100A0949DFED0A0A884202DD30EE6C
:10236000600A06E010EE100A0649884201D330EEFA
:10237000200A054880ED000A704700000000344341
:102380000000B443000034C3D810002009F0F8BDA9
:10239000F0EEC00AB6EE001A2E4970EE810A2E4AFF
:1023A000FCEEE00A10EE900AC0B24870137834399F
:1023B000022B05D01078042801D181ED030A704763
:1023C00081ED020A254937289FED250AF1EE0C0A16
:1023D00025D00EDC0C2832D0192829D0242827D06B
:1023E0002D28ECD1C1ED000A81ED010A9FED1D0AF7
:1023F0002DE03C280CD0462801D04B28DFD1F1EE4F
:10240000000AC1ED000A81ED010A9FED170A1EE0E6
:10241000C1ED000A81ED010A9FED140A17E0F2EE0A
:10242000000AC1ED000A81ED010A9FED110A0EE0DC
:10243000C1ED000A81ED010A9FED0E0A07E0F3EEFF
:10244000040AC1ED000A81ED010A9FED0B0A81ED3E
:10245000020A70470C6000207A000020845B002094
:10246000000000000000A04200007A430000E642A5
:1024700000000C430000B4420000704207490022F3
:102480000870074928B1012805D0022803D0032885
:1024900001D00A7070470870704700000C6000207F
:1024A0007C10002070B5214C214D2DED048BB0EE39
:1024B000418AB0EE609AF0EE409A25E002200BF0DF
:1024C0005FF81A4800F0D6FC607B01281CD12088F8
:1024D00010F4707F18D008F0D9FCF0EE400AB0EE8E
:1024E000690A09F023FCF0EEC08AF0EE490AB0EE6A
:1024F000690A09F01BFCB0EEC00A20EE080AF4EEEF
:10250000C08AF1EE10FA0DD308F0C0FCF0EE400ADC
:10251000B0EE690A09F00AFCB0EEC00A10EE100A2B
:10252000A842CBDCBDEC048B70BD00008C5F0020AA
:102530000000404010B52DED048BF0EE608AB0EE47
:10254000409A09F0F3FBB5EEC00AF1EE10FADFEDA8
:10255000200AB3EE0E0A70FE201A9FED1E1ADFED60
:102560001E0AB2EE080AFFF793FD08F08FFCB0EEEA
:10257000408AF0EE490AB0EE680A09F0D7FB38EE5F
:10258000008A16499FED160A18EE100A884202DDED
:1025900038EE408A06E018EE100A1249884201D34C
:1025A00038EE008AB0EE480AFFF7B4FE042009F0C6
:1025B000E7FC9FED0D1AF0EE680AB0EE480AFFF74F
:1025C00071FFBDEC048BBDE81040FFF73FBE00007B
:1025D00000001C42000034430000000000003443AF
:1025E0000000B443000034C3CDCCCC3DF0EE602AF3
:1025F000B0EE403AF0EE411AB1EE041ADFED0C0AEB
:102600009FED0C0A10B5FFF76DFD0120FFF736FFB7
:10261000B5EE001AF0EE620AB0EE430AFFF742FF91
:102620000020FFF72BFFBDE81040FFF729BE000098
:102630000000000000008C42F0EE602AB0EE403A4C
:10264000F0EE411AB1EE041ADFED0C0A9FED0C0A10
:1026500010B5FFF747FD0220FFF710FFB5EE001A97
:10266000F0EE620AB0EE430AFFF71CFF0020FFF70E
:1026700005FFBDE81040FFF703BE000000000000AA
:1026800000008C4210B518484FF07E522DED028BA1
:10269000B0EE608A90ED001AF0EE408AB0EEC11AFA
:1026A00011EE101A914207DC90ED011AB0EEC11A3A
:1026B00011EE100A904201DDFFF792FBB0EE680ABE
:1026C000FFF746FE032009F05BFC9FED081AF0EED1
:1026D000480AB0EE680AFFF7E5FEBDEC028BBDE8E4
:1026E0001040FFF765BB0000D85F0020CDCC4C3D0B
:1026F000124B18461A7990F83410007F0B2A0DD02F
:102700000C2A10D0092A0DD10A280BD10B2909D186
:102710009FED0B0A83ED0B0AFFF73ABE0C2801D19F
:102720000D29F5D070470D2804D00B28FAD10A29BD
:10273000EED070470E29EBD070470000F05E00200D
:1027400000008C42F0B572B6244D6E7862B62978DE
:102750003C23234C721A3C3292FBF3F703FB172203
:10276000D2B2032A14D3B1FBF3F203FB1212A25C20
:102770005B2A05D0491CB1FBF3F203FB1211E9E718
:102780000A46521CB2FBF3F603FB16228A4201D121
:102790000020F0BDB2FBF3F603FB1626A65D5D2E0E
:1027A000EFD1521A3C3292FBF3F603FB1622521C75
:1027B000D7B2002208E08E18B6FBF3FC03FB1C66C0
:1027C000A65D8654521CD2B2BA42F4D3C819B0FBEB
:1027D000F3F103FB110028703846F0BDE010002033
:1027E0009C5F0020054841780078081A3C213C3065
:1027F00090FBF1F201FB1200C0B27047E010002024
:1028000000B5FFF7EFFFC0F13B00C0B200BD000014
:102810002DE9F0410C468046FFF7F2FFA04202D2BC
:102820000020BDE8F081104E1049707802193C2A52
:1028300008D2084422464146FDF777FD70782044CF
:1028400070700FE0C0F13C0208444146D5B22A4600
:10285000FDF76BFD621B054808EB05011746FDF708
:1028600064FD77702046DCE7E01000209C5F0020CC
:102870002DE9F04FFE4DFF4CEE1E2DED028B83B087
:10288000287828B9307818B994ED0B0AFFF780FD45
:10289000B0784FF00009DFF8E0A310B101287CD038
:1028A000E3E070784FF0010810B101282DD03CE032
:1028B000F2A006F0F1FDFFF7ADFA207F172803D153
:1028C00094F8340018280AD00020FFF713FD0020E8
:1028D000FFF71AFD206A01050AD5012011E0EC4836
:1028E00090ED070ABCEEC00A10EE100AC0B2ECE789
:1028F000C10401D5022004E0000301D5032000E05B
:102900000020FFF7BBFD86F80180E2A006F0C4FDC1
:1029100094ED0B0AFFF73CFDFFF7EAFE0220FFF7FC
:1029200035FDFFF7D1FA02207070FFF7D5FA208D40
:10293000F0EEC00A00EE100AB6EE001AB8EE400A39
:1029400020EE010AF4EEC00AF1EE10FA15DB707801
:10295000022812D1D7A006F09FFD206A410201D5BE
:10296000012006E0010201D5022002E0C00102D5EB
:102970000320FFF783FD03207070FFF7ADFA208D71
:10298000F0EEC00A00EE100AB8EE400A9FEDD71A2A
:1029900020EE010AF4EEC00A00E039E0F1EE10FA90
:1029A00063DB7078032860D1D1A006F075FD08F0D4
:1029B0006DFAD4ED0F0A09F0B9F9B0EEC00A10EEC5
:1029C000100A5746B84212DBD4ED0F0A94ED090AFB
:1029D00009F0ACF9B0EEC00A10EE100AB84206DBFE
:1029E000206AC00203D4B3EE090AFFF7D1FC2079B4
:1029F0002E280AD1207F1C2807D194F834001628ED
:102A000003D19FEDCA0AFFF7C3FC86F802802CE0D1
:102A1000C7A006F041FD94F8300008F0F7FF2078D9
:102A200041071ED401061CD480061AD4CD480023C9
:102A30000222194600680BF0D1FB01204FF0FF3154
:102A400009F0A4FE207F06280BD194F83400072853
:102A500007D194ED0B0ADFEDC40A20EE200AFFF740
:102A600097FC86F8029086F8019020788149804E84
:102A7000BE4F430706F1020601F13402029201F152
:102A80001C0B7DD520F00400207094F83410A6F1C2
:102A90000108207FCDE900012978B548735C11F861
:102AA000082006F0F9FC297811F80800DFEDB18A5A
:102AB000FF2866D008F0EAF9D4ED0F0A09F036F9DC
:102AC000B0EEC00A10EE100AD046DFF8ACA24045C6
:102AD0002EDBD4ED0F0A94ED090A09F027F9B0EEC8
:102AE000C00A10EE100A404522DB206AC1021FD442
:102AF000217FE9B108291BD02A78F11E515C1D29DC
:102B000016D01E2914D0202912D09AF800100129BD
:102B10000ED0C103B6EE080A0DD5D4ED0B0A20EE97
:102B2000801AD4ED090A94ED0F0AFFF75FFD77E0F4
:102B300003F07EFC74E081030AD5D4ED0B0A20EE8D
:102B4000801AD4ED090A94ED0F0AFFF775FD67E0CE
:102B500080050CD4D4ED0F0A94ED090A09F0E6F8CB
:102B6000B0EEC00A10EE100A844988423EDD94F8A7
:102B70003420217F207900F0DBFAB0EE408A01E0BA
:102B800029E119E108F082F9B0EE401A0021042091
:102B9000F2EE0E0AB0EE480AFFF776F9FFF720F9D9
:102BA0002079052806D1207F062803D194F8340027
:102BB000072812D0F3EE041A9FED711AF0EE680A9E
:102BC000B1EE0A0AFFF7B0FAD4ED090A94ED0F0A44
:102BD000FFF758FDFFF774FB22E0F2EE021AB3EEA6
:102BE000041AF0EE680AB0EE000AEBE794F834201D
:102BF000217F207900F00CFAB0EE408A08F046F907
:102C0000B0EE401A00210420F3EE090AB0EE480AA3
:102C1000FFF73AF9D4ED090A94ED0F0AFFF78AFCA1
:102C20008AF8009007F0BAF918225946201DFDF7DE
:102C30007CFB029918225846FDF777FB297851A0B2
:102C4000725C06F029FC2878315C401C2870207FDB
:102C500008F03EF900EB4000182207EBC001029893
:102C6000FDF763FB207820F004002070B3E0000043
:102C70001B010020F05E00200000204153746172AF
:102C800074696E67206E657720706174680A000051
:102C90003C5F0020496E2074686520666972737419
:102CA0002068616C66206F662074686520706174AE
:102CB000680A000050617373656420353025252053
:102CC0006F662074686520706174682C2073776962
:102CD000746368696E67206C696E6520666F6C6CE2
:102CE0006F77696E67206D6F64650A003333333F19
:102CF0005061737365642037302525206F6620741A
:102D0000686520706174682C2070726570617269EA
:102D10006E6720666F72206E6F646520656E6470EA
:102D20006F696E7420636865636B0A00000010426F
:102D3000417070726F616368696E6720706174685A
:102D400020656E64706F696E742C2065786563759C
:102D500074696E67206172726976616C2063686560
:102D6000636B0A00900000206666663F4004002006
:102D7000CCF3000800000000EE0000200000B44288
:102D800000008C425B44454255475D20737769746F
:102D90006368696E67206E6F64652C20726561647C
:102DA000696E6720726F7574655B25645D3D307870
:102DB000253032580A00000022A006F06DFBB0EE6C
:102DC000680AFFF7E5FAFFF70BF802200AF0D8FBD4
:102DD0006878401C68702078800617D518225946FC
:102DE000201DFDF7A2FA2878315C401C2870207F56
:102DF00008F06EF800EB4000182207EBC0010298C3
:102E0000FDF793FA207820F020002070207800064B
:102E100012D52878315C401C2870207F08F058F8C3
:102E200000EB4000182207EBC0010298FDF77DFA85
:102E3000207820F08000207003B0BDEC028BBDE84C
:102E4000F08F0000526561636865642066696E6199
:102E50006C2064657374696E6174696F6E2C207385
:102E6000746F7070696E6720636861737369730A49
:102E7000000000002DE9F04100260446354604F02C
:102E80004FFA208000210122238802FA01F73B42F9
:102E90000BD06D1C0F29EDB205D023884F1C02FA10
:102EA00007F0034201D1761CF6B2491CC9B21029C1
:102EB000EAD366732573BDE8F0810000014800F095
:102EC000ABBE0000A81C0020014800F0A5BE000019
:102ED000E81B0020014800F09FBE0000481C0020B5
:102EE000014800F099BE0000AC15002001681823CD
:102EF000CAB2103AB2FBF3F2054B6FF30901032A91
:102F00009B5CC36500D9091D8165084670470000B8
:102F100058E80008014610B500208B694FF0C074D6
:102F20008A6A53B1B3F5005F15D072B1012A0CD093
:102F3000022A0AD0032A09D104E01AB1012A06D0D4
:102F4000022A03D1C96AC90100D5012010BDC96A8E
:102F5000A142FAD010BD002AF7D0012AF2D0022AED
:102F6000F3D0032AF3D010BD30B50468256825F4EA
:102F700080252560046863608368402B036803D064
:102F800099600068C26030BD9A600068C16030BD61
:102F9000704700001848002110B502F0B1FA164839
:102FA000042102F0ADFA144802F0C8F813480021D9
:102FB00002F0A6FA1148042102F0A2FA0F4802F02A
:102FC000BDF80F48002102F09BFA0D48042102F0E1
:102FD00097FA0B4802F0B2F80A48002102F090FA82
:102FE0000848042102F08CFA064802F0A7F8BDE870
:102FF0001040054802F0A2B80C1600205816002018
:10300000A41600203C1700202018002072B6FEE70E
:1030100004281BD0252821D0212824D0042817D00B
:1030200005282AD009282DD0312831D078B30A2894
:103030003AD00C283DD013284AD017285AD0182847
:103040005DD01F2861D02E2865D068E00B2902D002
:1030500002290DD063E00C2A0CD060E02B295ED150
:10306000212A07D05BE02B2959D1252A02D056E02E
:10307000012A54D1B2EE020A704706294FD1072A1D
:1030800050D04CE00A294AD1132A41D047E004E04D
:10309000302944D12C2A13D041E00A293FD1132AE8
:1030A0003DD1B2EE000A70470B2938D1052A39D03C
:1030B00035E0192902D00D2905D030E01A2A2ED189
:1030C000B0EE080A7047082A29D1B2EE080A704704
:1030D000192902D00A2903D021E01A2A12D01EE0B1
:1030E000092A01D01AB11AE0B3EE040A7047B3EE10
:1030F0000E0A7047182912D1132A03D00FE00A29AB
:103100000DD162B9B1EE000A70471829BCD006E0B3
:10311000B1EE040A70472F2901D1212A02D09FED78
:10312000030A7047B2EE0E0A70470000000000006C
:10313000312815D0D8B12F281ED030281FD005280F
:1031400020D0122823D0102828D02A282BD01328AA
:103150002ED0172839D02B283ED0162841D042E057
:10316000302940D12C2A5BD1B3EE0C0A70470A29D2
:1031700039D1092A26D053E02E2951D033E02C2909
:103180004ED030E006292ED1072A3BD048E00F2947
:1031900029D1102A44D1B3EE020A70470F2922D157
:1031A000112A40D03CE02B293AD1212A2AD022E012
:1031B0000C2902D00A2903D015E00B2A22D02FE0D7
:1031C000092A2DD1B2EE0E0A704718290BD1132A05
:1031D00026D1B3EE0A0A7047212904D12F2A22D022
:1031E0001EE0172902D02B2905D006E0122A17D19C
:1031F0009FED0E0A70472A2A04D0182805D01128FE
:103200000AD00DE0B3EE0E0A7047172908D1122A32
:1032100006D19FED070A7047172901D1182A02D05D
:10322000B3EE040A7047B3EE090A70470000344257
:10323000000020422DE9F04F00242DED028B8FB0CD
:103240009FED748A14216846FDF796F8142105A8AD
:10325000FDF792F80020DFF8C0C105AF03460DF17D
:1032600030090146EA460C900D9001EB41020CEB4F
:103270008202157A1DB1157A022D05D012E009F8E7
:103280000410641CE4B20DE092ED010A0AEB800523
:1032900085ED000A92ED000A07EB8002401C82EDEA
:1032A000000AC0B2491C0529DFDBDFF86CB1032C32
:1032B000ABF1140B04D284424FF07E5810D3ACB162
:1032C00000204A4609E0115C401C01EB41010CEB77
:1032D000810191ED010A30EE088AA042F3DB86E01D
:1032E00024B100220A930B930AAB5FE04A491439D8
:1032F000002891ED010A08D0012804D000220A9389
:103300000B930AAB22E09DED000A0FB0BDEC028BDF
:10331000BDE8F08F511C07EB820514E007EB810438
:10332000D5ED000A94ED001A70EEC10AF0EEE00A45
:1033300010EE904A444505DC9C5C641C9C545C5C2B
:10334000641C5C54491C8142E8DB521C8242E1DB74
:1033500000259DF82820294605E05C5C944201D9AF
:103360002246CDB2491C8142F7DB002ACDD00AEBC0
:1033700085004CE0511C07EB820614E007EB810549
:1033800096ED000AD5ED000A30EE600AB0EEC00AF4
:1033900010EE105A454505DC9D5C6D1C9D545D5C2E
:1033A0006D1C5D54491C8142E8DB521C8242E1DB0A
:1033B00000269DF82820314605E05D5C954201D944
:1033C0002A46CEB2491C8142F7DB521C94421CD3E0
:1033D00000204A4609E0115C401C01EB41010CEB66
:1033E000810191ED010A30EE088AA042F3DB00EE84
:1033F000104AF8EE400A88EE200AB5EEC00AF1EE57
:1034000010FA82D08BED010A7FE70AEB860090ED7F
:10341000000A7AE7000000009010002010B5044672
:103420002DED028BB0EE608AF0EE408A07F02EFDA3
:10343000F0EE680A08F07AFC1A481C4980ED020A8E
:103440009FED190A80ED060A08F02AFEF0EEC80A80
:103450009FED171A60EE800A80EE810AD4ED050A0E
:10346000F4EEC00AF1EE10FA02D894ED050A0CE071
:10347000D4ED050AF1EE600AF4EEC00AF1EE10FA9E
:1034800003DB94ED050AB1EE400A012078EE000A54
:1034900038EE400AC4ED000A84ED010ABDEC028B4F
:1034A00010BD00002C5C002000000000D85B002054
:1034B0000000484270B52B4C05462B482B4E2DED95
:1034C000028BB0EE408A6278017802B111B1012915
:1034D00003D007E0FFF7AEFE02E0254890ED020AB8
:1034E00086ED020A1F4823490C3090ED000A1F4860
:1034F00086ED060A08F0D4FD1F4984ED020AD1EDDD
:10350000060AF4EEC00AF1EE10FA02D891ED060AAE
:103510000CE0D1ED060AF1EE600AF4EEC00AF1EE1D
:1035200010FA05DB91ED060AB1EE400A84ED020ABD
:103530009FED121AF0EEC80A80EE810AD4ED020A5D
:1035400020EE200A84ED020A38EE400A85ED000ADA
:1035500094ED020A38EE000A85ED010ABDEC028BFB
:1035600070BD00007C1000200E010020F45B0020E4
:103570007C5F0020845B0020D85F00200000484270
:10358000F8B500240E4D012321464FF47A72C1F1A3
:10359000050635F81100904203FA06F002D22043E6
:1035A000C4B200E08443491C0429F0DBE8880090A1
:1035B00004A0AB886A88298805F06EFF2046F8BD14
:1035C0001001002025642025642025642025640D39
:1035D0000A00000000B587B014216846FCF7CCFE55
:1035E0000C48016841F0100101600068694600F074
:1035F000100005904FF44650009001200190029079
:1036000000200390044800F08DFC002003F06CFFC4
:1036100007B000BD3038024000100240F8B500236A
:10362000009390F83C20012A1ED0012280F83C2013
:1036300007270A68664DFE07092A21D9B2421FD022
:103640000468D4F80CC00A3A02EB420297402CEA14
:10365000070CC4F80CC00A68AA4207D10268D468F3
:103660000F7A44EA076409E00220F8BD0A3A8C6840
:1036700002EB420294400268D7683C43D46016E0F3
:103680000468D4F810C002EB420202F01F02974017
:103690002CEA070CC4F810C00A788C6802EB4202CE
:1036A00002F01F029440026817693C4314614A68A3
:1036B0001F27072A16D20468D4F834C0521E02EB22
:1036C000820297402CEA070CC4F834C00A8894B2EE
:1036D0000A79521E02EB820294400268576B3C4307
:1036E00054632DE004680D2A15D2D4F830C0D21FDF
:1036F00002EB820297402CEA070CC4F830C00A881B
:1037000094B20A79D21F02EB820294400268176BCE
:103710003C43146314E0D4F82CC00D3A02EB82024F
:1037200097402CEA070CC4F82CC00A8894B20A7996
:103730000D3A02EB820294400268D76A3C43D4629D
:10374000244C0268A24208D10A68B24205D1D4F8DA
:10375000042322F44002C4F804230268A2420ED1DA
:103760000A68122A0BD1D4F8042322F40002C4F808
:103770000423D4F8042342F48002C4F8042302682A
:10378000A24220D10A68AA4201D0112A1BD1D4F842
:10379000042322F48002C4F80423D4F8042342F45E
:1037A0000002C4F804230968A9420CD10A490B4A53
:1037B0000968B1FBF2F101EB8101490000E0491E0B
:1037C00000910029FBD180F83C300020F8BD0000BA
:1037D00012000010002001401000002040420F00A5
:1037E00070477047704770B504004FF0000603D073
:1037F000206C002510B107E0012070BD204600F0CC
:103800001DF8656484F83C50206CC00610D4206C10
:1038100020F4885040F0020020642046FDF77AFB37
:103820006564206C20F0020040F00100206400E09C
:10383000012684F83C50304670BD000070B586B05B
:10384000064614216846FCF797FD244930688842F3
:1038500042D12348016841F4807101600068204929
:1038600000F4807005901439086840F00100086089
:10387000086800F001000590086840F00400086046
:10388000086803240025694600F0040005900C2018
:103890008DE83100134800F045FB302069468DE883
:1038A0003100114800F03EFB114C1048C4E90005FE
:1038B0000015A560C4E90350400060618000A0616C
:1038C0004011C4E907052046656200F075FA08B1A9
:1038D000FFF79CFBB463A66306B070BD00200140F7
:1038E00044380240000002400008024010640240D8
:1038F000AC15002018B50022009290F83C10012968
:1039000007D0012180F83C1001688B68DB0702D0EA
:1039100011E0022018BD8B6843F001038B602E4933
:103920002E4B0968B1FBF3F101EB410100E0491EA8
:1039300000910029FBD101688B68DB0741D0036C43
:1039400040F20164A34343F4807303644B685B0556
:1039500005D5036C23F4005343F480530364036CD4
:10396000DB0404D5436C23F00603436400E04264A7
:1039700080F83C206FF022020A60194AD2F8041342
:10398000C90607D0016891420AD18B6813F0405FE5
:1039900002D005E000680BE08B6843F080438B6049
:1039A000D2F80413C90614D400680E49884210D115
:1039B000816811F0405F0CD1816841F080418160E5
:1039C00007E0016C41F010010164416C41F001011C
:1039D0004164002018BD00001000002040420F008C
:1039E0000020014000220140F8B5134604460022A1
:1039F0000092154690F83C00012807D0012084F879
:103A00003C0020688668F60702D011E00220F8BD6D
:103A1000866846F0010686603A483B4E0068B0FB77
:103A2000F6F000EB400000E0401E00900028FBD1C3
:103A300020688668F6075BD0226C40F20166B243CC
:103A400042F4807222644068400505D5206C20F461
:103A5000005040F480502064206CC00404D5606C99
:103A600020F00600606400E0656484F83C50A26BBE
:103A70002648D063A26B26481064A26B2548D06408
:103A80006FF02200226810602068426842F0806275
:103A900042602068826842F48072826020680A4630
:103AA000A56B00F14C01284600F0EEF91A490246D8
:103AB000D1F80403C006206811D0884207D183687A
:103AC00013F0405F03D1836843F080438360D1F8F3
:103AD0000403C00614D411492068884210D18168BB
:103AE00011F0405F0CD1816841F08041816007E0B6
:103AF000206C40F010002064606C40F001006064B5
:103B00001046F8BD1000002040420F00870E00084C
:103B10000B0F0008F50E00080020014000220140B4
:103B200090F83C1001290CD0012180F83C1001686C
:103B30008A6822F001028A6001688968C90702D098
:103B400007E002207047016C21F4885141F0010127
:103B50000164002180F83C10084670472DE9F041CF
:103B6000876D044600F0E6FA054694F83500002615
:103B7000022806D080206065012084F83460BDE80A
:103B8000F0812068016821F0160101602068416918
:103B900021F080014161206C08B9A06C20B120683F
:103BA000016821F0080101602068016821F001012D
:103BB00001600CE000F0BEFA401B052807D9202068
:103BC0006065032084F8350084F83460D7E7206806
:103BD0000068C007EED194F85C103F208840B860C0
:103BE000012084F83500002084F83460C7E790F89D
:103BF0003510022903D0802141650120704705213D
:103C000080F835100068016821F001010160002092
:103C10007047406D704700002DE9F8430446654841
:103C20004FF00009CDF800904FF41651A56D0068D3
:103C3000B0FBF1F72E68082194F85C2001FA02F03D
:103C400030420FD02068026852070BD5026822F07C
:103C50000402026094F85C008140A960606D40F04D
:103C60000100606594F85C104FF0010808FA01F05B
:103C7000304208D021684969090604D5A860606D02
:103C800040F00200606594F85C10042088403042E7
:103C900008D021680968890704D5A860606D40F0E4
:103CA0000400606594F85C1010208840304218D001
:103CB00021680968090714D5A860206801684903CC
:103CC00004D50068000308D5A16C07E00168C905A8
:103CD00003D4016821F008010160216C09B120467C
:103CE000884794F85C1020208840304231D0216809
:103CF0000968C9062DD5A86094F835000528206804
:103D0000016806D0490347D5006800031DD4616CE3
:103D10001CE021F0160101602068416921F080015A
:103D20004161206C08B9A06C20B12068016821F0C5
:103D30000801016094F85C103F208840A86084F876
:103D4000358084F83490216D1FE0E16B09B1204685
:103D50008847606D00282BD0606DC00714D0052007
:103D600084F835002068016821F0010101600098A5
:103D7000401C0090B84203D820680068C007F6D104
:103D800084F8358084F83490E16C002910D001B0BB
:103D90002046BDE8F04308470168C905D5D401684D
:103DA00021F01001016084F8358084F83490CCE76C
:103DB000BDE8F8831000002070B5044600F0BAF9A1
:103DC00005465CB1022084F83500002684F8346092
:103DD0002068016821F0010101600CE0012070BD44
:103DE00000F0A8F9401B052805D9202060650320B4
:103DF00084F8350070BD20680068C007F0D12168E4
:103E00000A6820480240D4E901031843D4E9033585
:103E10002B43184363691843A3691843E3691843A4
:103E2000236A18431043626A042A03D1D4E90B239E
:103E30001A43104308602068406920F00701606A57
:103E4000042840EA01050CD1A06A0543E06A40B1AC
:103E50002046FFF75FF820B14020606584F83560A8
:103E6000BCE7206845612046FFF740F894F85C20E5
:103E70003F21914081606665012084F83500002073
:103E800070BD00003F8010F02DE9F041866D0446C2
:103E900090F83400002501280DD0012084F834006A
:103EA00094F835700020012F07D0022584F83400E3
:103EB0002846BDE8F0810220FBE7022784F8357030
:103EC00060652046FFF750F894F85C103F2088406A
:103ED000B0602068016841F0160101602068416906
:103EE00041F080014161206C20B12068016841F0FF
:103EF000080101602068016841F001010160D7E715
:103F000070B5044600F016F90546601C02D004485E
:103F10000078044400F00EF9401BA042FAD370BDB3
:103F2000040000202DE9F84FDFF8B09100220327AC
:103F30004FF00F0CA9F1040B09F1040AABF1040EC8
:103F40000B68012595402B40AB426ED10C7904F0F3
:103F50000304012C01D0022C15D18668540007FA05
:103F600004F826EA0806D1F80C8008FA04F848EAB2
:103F70000608C0F808804468AC430D79C5F3001505
:103F80009540254345600C79E443A40708D0C568F3
:103F9000540007FA04F6B5438E68A6402E43C66067
:103FA0000C7904F00304022C11D1D40800EB840630
:103FB000356A5407E40E0CFA04F825EA0805D1F82E
:103FC000108008FA04F848EA0508C6F82080056859
:103FD000540007FA04F6B5430E7906F00306A6402E
:103FE0002E4306604C6814F4403F70D03C4C25686A
:103FF00045F480452560246822F0030504F48044DC
:104000000094384C05EB0408D8F808589407260F9C
:104010000CFA06F4A543344CA04201D100242EE052
:10402000324CA04202D1012429E050E0304CA042A1
:1040300001D1022423E02F4CA04201D103241EE031
:104040002D4CA04201D1042419E02C4CA04201D1F6
:10405000052414E02A4CA04201D106240FE0294C8B
:10406000A04201D107240AE0274CA04201D1082434
:1040700005E0264CA04201D1092400E00A24B44006
:104080002C43C8F80848D9F800404D464E689C4378
:10409000F60200D51C432C60DAF8004055464E6805
:1040A0009C43B60200D51C432C60DBF800405D4603
:1040B0004E689C43B60300D51C432C60DEF80040DC
:1040C00075464E689C43F60300D51C432C60521C79
:1040D000102AFFF435AFBDE8F88F0000083C01401E
:1040E0004438024000300140000002400004024019
:1040F00000080240000C0240001002400014024080
:1041000000180240001C024000200240002402402F
:104110000069084000D001207047426921EA02038B
:104120000A4043EA0241816170470AB181617047E8
:104130000904FBE701488068704700000400002084
:1041400002488168027811448160704704000020B1
:10415000032010B500F0E8F80F2000F005F800F09B
:1041600099F8002010BD000030B505461F4887B003
:10417000016841F480710160006806A900F4807054
:104180000590684600F032FC0398B0B100F04EFC98
:1041900040001749174AB0FBF1F11748026040F29E
:1041A000E732491E41600021C0E90321816081613D
:1041B00000F0DEFE040003D015E000F037FCE8E775
:1041C0000D4800F0BBFF04000DD12D2000F07EF85B
:1041D000102D07D2002229462D2000F085F807482F
:1041E000056000E0012407B0204630BD40380240A1
:1041F00040420F0000200040081D00200800002061
:10420000134A41781160124908310A6822F001020C
:104210000A600B1F42681A60027BC37A120742EAE7
:104220000362837A42EAC342437B42EA8342837B4E
:1042300042EA4342C37B42EA0342437A42EA032210
:10424000037A007842EA430202430A6070470000A2
:1042500098ED00E0BFF35F8F0448016821F48031DE
:1042600001600249002070310860704724ED00E0D1
:10427000074940F00100086005487038016841F4C2
:1042800080310160BFF34F8FBFF36F8F7047000025
:1042900094ED00E00C4882B0016841F0805101606B
:1042A000006800F0805000900748001D016841F44C
:1042B00080410160006800220F2100F480400090DE
:1042C000901E02B000F010B840380240002809DB10
:1042D000012100F01F0291404009800000F1E02020
:1042E000C0F80011704700000E4BF0B41B68C3F318
:1042F0000223C3F10704042C00D904241D1D072D3B
:1043000001D2002300E0DB1E012606FA04F56D1E33
:104310000D409D409E40761E164045EA0601F0BCC9
:1043200005F0CAB80CED00E0064A00F0070110687D
:104330004FF6FF03184040EA01200349084310608C
:10434000704700000CED00E00000FA051848F8B5D1
:10435000016841F0805101600068164D00F0805006
:104360000090286840F480302860FFF7E3FE4FF4A7
:104370007A76044604E0FFF7DDFE001BB0420FD85A
:104380006868C003F7D5286840F400302860FFF75C
:10439000D1FE044606E0FFF7CDFE001BB04201D976
:1043A0000320F8BD68688003F5D50020F8BD000043
:1043B00040380240007000402DE9F84F0446007874
:1043C0000026DFF820943546C0070ED0D9F800103B
:1043D00021F40001C9F80010D9F80010626B1143F4
:1043E000C9F80010606B00B901262068FE4F000379
:1043F0000ED53868E16B20F4401008433860E06B5C
:10440000B0F5801F01D010B102E0012600E00125C7
:104410002068C0020ED53868216C20F440000843A3
:104420003860206CB0F5800F01D010B102E0012699
:1044300000E001252068C10100D50126800666D56F
:10444000E8483830016841F0805101600068DFF8C9
:104450009CA300F080500090DAF8001041F48071C5
:10446000CAF80010FFF766FE804605E0FFF762FE1F
:10447000A0EB080064287DD8DAF80000C005F5D567
:10448000DFF864A3AAF11C0ADAF8000010F4407007
:104490002AD0218E01F44071814225D0DAF8001033
:1044A000DAF8002021F4407142F48032CAF800208A
:1044B000DAF8002022F48032CAF80020CAF800108E
:1044C000DAF80000C0070FD0FFF734FE804641F253
:1044D000883B05E0FFF72EFEA0EB08015945CAD83E
:1044E000DAF800008007F5D5206BC0F3012103291D
:1044F0007ED0D9F8001021F4F811C9F80010DAF8CC
:104500000010228EC2F30B021143CAF8001020786B
:10451000C00607D5386820F0807038603868A16B15
:104520000843386020884104B14805D50168626EAF
:1045300021F44031114301602188090405D5016847
:10454000A26E21F44021114301602168C90305D501
:104550000168E26E21F44011114301602168890372
:1045600005D50168226F21F44001114301602178D3
:10457000490600E002E105D50168626C21F0030103
:10458000114301602178090605D50168A26C21F06C
:104590000C01114301602188C90505D50168E26C51
:1045A00021F03001114301602188890505D501689A
:1045B000226D21F0C001114301602188490505D514
:1045C0000168626D21F44071114301602188090581
:1045D00005D50168A26D21F4406111430160218875
:1045E000C90407D50168E26D21F44051114300E090
:1045F0003DE001602188890405D50168226E21F41F
:104600004041114301602168490205D50168A26F4C
:1046100021F080611143016021684FF00069890237
:1046200009D50168E26F21F0006111430160E16F7B
:10463000494500D1012521680A0700D50125490314
:1046400005D50168626F21F0407111430160216856
:10465000090206D50168D4F8802021F08051114369
:104660000160DFF88081A8F108086EB909E0D9F887
:104670000020604B22F4F81218400243C9F80020D1
:104680003DE72068800178D5D8F8001021F08061DE
:10469000C8F80010FFF74EFD064604E0FFF74AFD9C
:1046A000801B64286AD8D8F800000001F6D420786E
:1046B0005149C00711D0606B78B908680A68C0F327
:1046C00001406368C2F303629B0143EA004040EA91
:1046D0000260227A40EA027008602068020303D573
:1046E000E26BB2F5801F05D0C0021AD5206CB0F580
:1046F000800F16D108680A68C0F301406368C2F3EE
:1047000002729B0143EA0040237B40EA036040EAD7
:10471000027008603868626A20F01F00521E104361
:1047200038602068C0010FD508680A68C0F30360CC
:104730006368268AC2F302729B0143EA064343EA96
:10474000006040EA02700860206880010BD5606854
:10475000228A800140EA0240227B40EA0260227AFB
:1047600040EA02700860D8F8001041F08061C8F893
:104770000010FFF7DFFC064606E009E082E0FFF7E5
:10478000D9FC801B64287DD8D8F800000001F6D53C
:10479000B5B3D8F80000454620F08050C8F80000B6
:1047A000FFF7C8FC064604E0FFF7C4FC801B642842
:1047B00075D82868C0438000F6D520680F490203E9
:1047C00001D5E26B1AB1C0022BD5206C48BB08683A
:1047D0000A68C0F301406369C2F302729B0143EAB5
:1047E00000400EE0083802408C3802400070004063
:1047F00090380240FFFCFF0F8438024088380240A6
:1048000054E0237E40EA036040EA027008603868A2
:104810006FF0FF03A26A20F4F85003EB022210436A
:1048200038602068800212D5E06F48450FD10868D3
:104830000A68C0F303606369268CC2F302729B01AD
:1048400043EA064343EA006040EA027008602078C9
:10485000000715D508680A68C0F303606369C2F3EE
:1048600001429B0143EA024242EA0060227F40EAA1
:10487000027008603868E16A20F44030084338600C
:10488000286800E00BE040F080502860FFF752FC01
:10489000044607E0FFF74EFC001B642802D9032002
:1048A000BDE8F88F2868C0438000F3D40020F7E704
:1048B0002DE9F04704000D4669D0DFF81C81D8F8D7
:1048C000000000F00F00A8420CD2D8F8001021F030
:1048D0000F012943C8F80010D8F8000000F00F00BD
:1048E000A84254D120683D4E810712D5400703D518
:1048F000306840F4E05030602078000703D530681D
:1049000040F4604030603068A16820F0F000084357
:1049100030602078C00729D0304960680839012804
:1049200010D00968022810D0890700292FDA3168D1
:1049300021F0030101433160FFF7FCFB074641F220
:1049400088390CE009688903EFE78901EDE7FFF793
:10495000F1FBC11B494502D90320BDE8F08730684F
:10496000616800F00C00B0EB810FF0D1D8F80010B6
:10497000404601F00F01A9420BD9016821F00F0157
:1049800029430160006800F00F00A84201D0012017
:10499000E3E72078400705D53068E16820F4E0506F
:1049A000084330602078000706D53068216920F47C
:1049B000604040EAC100306000F058F83168084AB1
:1049C000C1F30311515CC8400649086006480068FD
:1049D000FFF7CAFB0020C0E7003C02400838024055
:1049E00060E8000810000020080000200F2202608C
:1049F0000C4A136803F003034360136803F0F003E9
:104A00008360136803F4E053C36012684FF4E0530B
:104A100003EAD20202610448006800F00F00086057
:104A20007047000008380240003C02400448054935
:104A300000680968044AC1F38221515CC84070478C
:104A4000100000200838024070E8000804480549BA
:104A500000680968044AC1F34231515CC84070479C
:104A6000100000200838024070E80008154810B512
:104A7000006810F00C01144813D0431004290FD023
:104A800008290ED10F4C241F216801F03F02216834
:104A9000490207D52068C0F38810A0FB030106E097
:104AA000184610BD2168C1F38811A1FB0001002345
:104AB000FBF70AFC2168C1F30141491C4900B0FB26
:104AC000F1F010BD083802400024F4002DE9F84F41
:104AD00004004FF0000877D02078DFF850B3ABF136
:104AE0000409C007A9F104054AD0DBF800105846B4
:104AF000C1F38101012908D00068C0F381000228B8
:104B00000AD1D9F80000400206D52868800337D5BD
:104B100060680028DFD033E06068B0F5803F0BD0DC
:104B200010B1B0F5A02F11D0286820F48030286093
:104B3000286820F4802002E0286840F48030286053
:104B4000606888B1FFF7F6FA064609E0286840F485
:104B500080202860F0E7FFF7EDFA801B642873D807
:104B600028688003F7D50BE0FFF7E4FA064604E077
:104B7000FFF7E0FA801B6428F1D828688003F7D497
:104B80002078800740D5DBF80010584611F00C0F54
:104B900008D00068C0F3810002280AD1D9F80000CB
:104BA000400206D42868800717D5E06801280BD199
:104BB00013E0E0680028286817D040F00100286062
:104BC000FFF7B8FA064605E02CE1FFF7B3FA801BC1
:104BD0000228C4D828688007F7D52868216920F002
:104BE000F80040EAC10028600EE020F001002860D3
:104BF000FFF7A0FA064604E0FFF79CFA801B0228A4
:104C000022D828688007F7D42078000725D5874F59
:104C100060696C37002838680FD040F001003860B8
:104C2000FFF788FA064604E0FFF784FA801B0228A3
:104C30000AD838688007F7D50FE020F00100386007
:104C4000FFF778FA064605E082E0FFF773FA801B6B
:104C500002287DD838688007F7D42078400769D5C6
:104C6000DFF8C8A10AF1380ADAF80000C0000CD455
:104C7000DAF8001041F08051CAF80010DAF80000AC
:104C80004FF0010800F080500090694F3868C0056F
:104C90000FD4386840F480703860FFF74BFA06464E
:104CA00004E0FFF747FA801B642851D83868C00534
:104CB000F7D55E4FA068683701280AD008B10528EB
:104CC00011D0386820F001003860386820F0040006
:104CD00002E0386840F001003860A06898B1FFF742
:104CE00029FA06460BE0386840F004003860F0E727
:104CF000FFF720FA811B41F28830814265D838687D
:104D00008007F5D50DE0FFF715FA064606E0FFF738
:104D100011FA811B41F28830814256D838688007E9
:104D2000F5D4B8F1000F05D0DAF8001021F0805169
:104D3000CAF80010A169C9B3DBF80000C0F3810014
:104D4000022849D02868022920F08070286000E0FD
:104D50003BE003D0FFF7EEF9044639E0FFF7EAF94C
:104D6000064604E0FFF7E6F9801B02282DD82868E4
:104D70008001F7D4D4E907012E4A0843A16A490803
:104D800002EB0141626A41EA8211084394F82C1057
:104D900040EA016040F00051C9F80010286840F076
:104DA00080702860FFF7C6F9044605E03CE0FFF795
:104DB000C1F9001B022808D828688001F7D533E024
:104DC000FFF7B8F9001B022802D90320BDE8F88FCD
:104DD00028688001F4D427E0D9F80000012921D007
:104DE000E26900F4800191421CD1226A00F03F0187
:104DF000914217D1626A47F6C0710140B1EB821F40
:104E000010D1A26A4FF0FF3300F4403103EB52029D
:104E1000B1EB024F06D194F82C1000F07060B0EBAB
:104E2000016F01D00120D1E70020CFE70838024010
:104E3000007000400000FFFF70477047704700009F
:104E400030B590F83C20012A3AD0012280F83C206D
:104E5000CA6800248B6822F440721A4D1A434B68CA
:104E600022F480621A430B6822F400621A430B6931
:104E700022F480521A434B6922F400521A438B6A7F
:104E800022F480421A430B8B22F4702242EA03423E
:104E90000368AB4202D00C4DAB420CD18D8C22F496
:104EA000700242EA0552CD6922F08072096A2A43F3
:104EB00022F000720A435A6480F83C40002030BD62
:104EC000022030BD0000014000040140F0B590F820
:104ED0003C20012A3CD0012580F83C50022280F879
:104EE0003D2003685A689C681A4E1B4FB34201D09C
:104EF000BB4204D122F4700C4A6842EA0C0222F050
:104F0000700C0A6842EA0C025A600268B24213D07E
:104F1000B2F1804F10D0114B9A420DD0104B9A42F3
:104F20000AD0104B9A4207D0BA4205D00E4B9A4293
:104F300002D00E4B9A4204D1896824F080031943B1
:104F4000916080F83D50002180F83C100846F0BD8B
:104F50000220F0BD000001400004014000040040B8
:104F600000080040000C00400040014000180040D4
:104F700010B5040003D094F83D0010B107E0012003
:104F800010BD002084F83C00204600F023F80220E9
:104F900084F83D002068211D03F068F9012084F8A1
:104FA000480084F83E0084F83F0084F8400084F80C
:104FB000410084F8420084F8430084F8440084F8F7
:104FC000450084F8460084F8470084F83D0000203E
:104FD00010BD000008B50068334988420FD133483E
:104FE000016841F00401016000680022052100F021
:104FF000040000901E20FFF777F91E204EE02B4999
:105000002B4A091D904226D1086840F00200086032
:1050100008680022052100F0020000902B20FFF715
:1050200063F92B20FFF752F9002205212C20FFF70E
:105030005BF92C20FFF74AF900220F212D20FFF702
:1050400053F92D20FFF742F9002205212E20FFF70A
:105050004BF92E2022E0174A90420ED1086840F406
:105060008030086008680022052100F4803000903C
:105070001820FFF739F9182010E00F4A904211D19B
:10508000086840F48020086008680022052100F4C8
:10509000802000901A20FFF727F91A20BDE8084069
:1050A000FFF714B908BD0000000800404038024076
:1050B00000040140004001400048014090F83D10CC
:1050C000012901D001207047022180F83D100068BD
:1050D0001249884214D0B0F1804F11D01049884253
:1050E0000ED0104988420BD00F49884208D00F4992
:1050F000884205D00E49884202D00E49884207D125
:1051000081680D4A1140062906D0B1F5803F03D0D1
:10511000016841F00101016000207047000001407A
:105120000004004000080040000C00400004014062
:1051300000400140001800400700010090F83D10B9
:10514000012901D001207047022180F83D1001683B
:10515000CA6842F00102CA6000681349884214D04C
:10516000B0F1804F11D0114988420ED010498842C9
:105170000BD01049884208D00F49884205D00F490A
:10518000884202D00E49884207D181680D4A1140F9
:10519000062906D0B1F5803F03D0016841F0010136
:1051A0000160002070470000000001400004004042
:1051B00000080040000C0040000401400040014095
:1051C000001800400700010070B5044690F83C004C
:1051D0000025012817D0012684F83C60022084F8BD
:1051E0003D00206882682F4B1A4022F47F42826083
:1051F0000868502838D00DDC20284FD005DC90B34B
:10520000102811D14AE0022070BD302846D0402835
:105210000AD13BE060282FD070280DD0B0F5805F18
:1052200003D0B0F5005F12D0012584F83D60002066
:1052300084F83C00284670BD4A682068D1E9021312
:1052400003F089F82068816841F0770109E04A6835
:105250002068D1E9021303F07EF82068816841F4E8
:1052600080418160E1E719E0CA684968206803F07D
:10527000A9F92068502106E0CA684968206803F04F
:10528000B2F92068602103F070F8CEE7CA68496877
:10529000206803F097F920684021F4E7226801466E
:1052A0001046F0E788FFFEFF2DE9F04104000D46AF
:1052B00003D094F83D0018B108E00120BDE8F0816A
:1052C000002084F83C00204600F046F8022084F8D4
:1052D0003D00206881681F4A114081602068211DBF
:1052E00002F0C4FF206881688269066A2B68AF6992
:1052F00026F0AA060B4340F203318A43A96842EA2A
:105300000722EF6911434FF6FC429143EA6841EAF4
:1053100007212F6A0A432969090141EA073111432C
:105320006A686D69836046EA05152A4320688161D1
:1053300020680262012084F8480084F83E0084F866
:105340003F0084F8440084F8450084F83D000020C4
:10535000B4E70000F8BFFEFF70B586B00446142124
:105360006846FBF709F85F480225216800245E4A79
:10537000012681423BD15C481430016841F00101B3
:105380000160006800F001000590106840F0100016
:1053900010601068694600F0100005904FF420601E
:1053A0000090CDE901545148CDE90346FEF7BAFD1E
:1053B000002205211820FEF797FF1820FEF786FF30
:1053C000002205211920FEF78FFF1920FEF77EFF2E
:1053D000002205211A20FEF787FF1A20FEF776FF2C
:1053E000002205211B20FEF77FFF1B2059E03E4BCA
:1053F0003F481033B1F1804F22D03E4EB14254D1DC
:10540000196841F002011960196801F00201059163
:10541000116841F001011160116801F0010105916D
:10542000C0210091CDE90154CDE903456946FEF75D
:1054300079FD002205211D20FEF756FF1D2030E0DA
:10544000196841F001011960196801F00101059125
:10545000116841F001011160116801F0010105912D
:10546000116841F002011160116801F0020105911B
:1054700020210091CDE90154CDE903466946FEF7AC
:1054800051FD08200090CDE901541B486946CDE943
:105490000346FEF747FD002205211C20FEF724FFEE
:1054A0001C20FEF713FF06B070BD144EB142FAD1B6
:1054B000196841F008011960196801F008010591A7
:1054C000116841F001011160116801F001010591BD
:1054D00003210091CDE90154CDE903456946FEF76A
:1054E00021FDE0E70000014030380240001002409A
:1054F000000002400004004000040240000C004094
:1055000070B590F83E50044690F83F3090F8442033
:1055100090F84500022621B104290BD0012D16D1A7
:105520000FE0012D13D1012A11D184F83E6084F8D7
:10553000446016E0012B0AD1012808D184F83F60AD
:105540000DE0012B03D1012A01D1012801D0012056
:1055500070BD84F83E6084F83F6084F8446084F84D
:10556000456091B1042904D020680122002102F095
:10557000E5FE20680122042102F0E0FE20680168B7
:1055800041F001010160002070BD0122206800216E
:10559000F2E770472DE9F04104460068C6680569E6
:1055A0004FF00007A90713D5B10711D5F91E016106
:1055B00001202077206880698007204602D0FFF70D
:1055C000E8FF04E000F000F9204600F0DFF927775B
:1055D000680716D5700714D521686FF004000861BC
:1055E000022020772068806910F4407F204602D096
:1055F000FFF7CFFF04E000F0E7F8204600F0C6F91F
:105600002777280715D5300713D521686FF00800D4
:105610000861042020772068C0698007204602D0F6
:10562000FFF7B7FF04E000F0CFF8204600F0AEF936
:105630002777E80616D5F00614D521686FF010001C
:105640000861082020772068C06910F4407F204658
:1056500002D0FFF79EFF04E000F0B6F8204600F00D
:1056600095F92777E80708D0F00706D021686FF092
:1056700001000861204600F00BFA280601D4A804B6
:1056800008D5300606D521686FF40250086120461F
:10569000FFF7D3FBE80508D5300606D521686FF47F
:1056A000807008612046FFF7C7FB680608D57006C2
:1056B00006D521686FF040000861204600F0F2F93D
:1056C000A8060AD5B00608D521686FF02000086149
:1056D0002046BDE8F041FFF7B1BBBDE8F081000016
:1056E00030B587B0044614216846FAF745FE2068B5
:1056F00000212C4C02222C4BA04211D1186840F002
:1057000008001860186800F0080005904FF4704019
:105710000090CDE90121CDE903122448694613E048
:10572000234D0324A84213D1186840F004001860E8
:10573000186800F00400059020020090CDE90121D6
:10574000CDE903141B486946FEF7ECFB07B030BDFA
:10575000194DA84210D1186840F010001860186860
:1057600000F01000059060200090CDE90121CDE906
:10577000031412486946E7E7114CA042E6D11868C5
:1057800040F002001860186800F002000590E00088
:1057900000900920CDE90121CDE9031009486946AF
:1057A000D2E700000008004030380240000C024000
:1057B0000004014000080240004001400010024087
:1057C0000018004000040240704770B5044690F88D
:1057D0003C0000260D4601280BD0012084F83C0037
:1057E0000C2A4AD007DC82B1042A20D0082A06D12C
:1057F00031E0022070BD102A53D0142A63D0012654
:10580000002084F83C00304670BD206802F0B6FDF0
:105810002068816941F0080181612068816921F077
:1058200004018161206881692A69114311E02068BF
:1058300002F0D8FD2068816941F40061816120682F
:10584000816921F480618161206881692A6941EA66
:1058500002218161D4E7206802F0FEFD2068C16961
:1058600041F00801C1612068C16921F00401C161F2
:105870002068C1692A69114311E0206802F024FE02
:105880002068C16941F40061C1612068C16921F4E7
:105890008061C1612068C1692A6941EA0221C16150
:1058A000AEE7206802F03CFE2068416D41F008013F
:1058B00041652068416D21F0040141652068416D1A
:1058C0002A69114311E0206802F052FE2068416D00
:1058D00041F4006141652068416D21F480614165BA
:1058E0002068416D2A6941EA0221416588E710B5C7
:1058F000040003D094F83D0010B107E0012010BD72
:10590000002084F83C00204600F022F8022084F8B1
:105910003D002068211D02F0A9FC012084F8480008
:1059200084F83E0084F83F0084F8400084F8410089
:1059300084F8420084F8430084F8440084F8450069
:1059400084F8460084F8470084F83D00002010BD2C
:1059500008B500680B49884212D10B48016841F034
:105960004001016000680022052100F04000009025
:105970002B20FEF7B9FCBDE808402B20FEF7A6BCA3
:1059800008BD000000180040403802407047000089
:1059900010B5044669B104290ED008290FD00C298E
:1059A00010D0102911D094F84300012810D0012004
:1059B00010BD94F83E00F8E794F83F00F5E794F83E
:1059C0004000F2E794F84100EFE794F84200ECE77A
:1059D0000220E9B304293FD0082940D00C2941D046
:1059E000102942D084F843000122206802F0A6FC6E
:1059F0001F4920681F4A884201D0904203D1436C5E
:105A000043F4004343642068884213D0B0F1804FD0
:105A100010D0194988420DD0184988420AD0184937
:105A2000884207D0904205D01649884202D01649D4
:105A3000884207D18168154A1140062906D0B1F580
:105A4000803F03D0016841F001010160002010BDDA
:105A5000FFE784F83E00C7E784F83F00C4E784F816
:105A60004000C1E784F84100BEE784F84200BBE78C
:105A70000000014000040140000400400008004014
:105A8000000C0040004001400018004007000100E9
:105A900000680349884201D1FEF752BB70470000FD
:105AA00000200040704710B50446D0F88000202840
:105AB00001D0022010BD51B14AB101202066002062
:105AC0006066204603F014FA010002D005E00120D0
:105AD00010BD206E012802D00121084610BD2268A9
