:020000040800F2
:10000000E0600020A5020008CD5200082548000845
:10001000E95100088D1400088D67000800000000F9
:10002000000000000000000000000000E1010008E6
:1000300091180008000000003D020008515500081A
:10004000BF020008BF020008BF020008BF0200088C
:10005000BF020008BF020008BF020008BF0200087C
:10006000BF020008BF020008BF020008BF0200086C
:10007000BD170008C9170008BF020008D5170008FF
:10008000BF020008BF020008BF020008BF0200084C
:10009000BF020008BF020008BF020008BF0200083C
:1000A0002D5600087156000855560008495600089C
:1000B0007D5600088956000895560008BF020008C2
:1000C000BF020008BF020008BF020008BF0200080C
:1000D000BF020008A1650008BF020008AD65000866
:1000E000BF020008BF020008BF020008E95600086E
:1000F0002D5700081157000805570008BF020008D7
:10010000BF020008BF020008BF020008BF020008CB
:10011000C95C0008D55C0008BF020008A1560008B1
:10012000E1170008BF020008BF020008BF02000874
:10013000BF020008BF020008BF020008BF0200089B
:10014000BF020008BF020008BF020008BF0200088B
:10015000BF020008BF020008BF020008BF0200087B
:10016000BF020008BF020008BF020008BF0200086B
:10017000BF020008BF020008BF020008BF0200085B
:10018000BF020008BF020008E15C0008ED5C000847
:10019000BF020008BF020008BF020008BF0200083B
:1001A000BF020008BF020008BF020008BF0200082B
:1001B000BF020008BF020008BF020008BF0200081B
:1001C000BF020008BF020008DFF810D000F0BEFC3C
:1001D00000480047DD870008AFF30080E0600020A2
:1001E0002D4B19680868B0E8F04F80F30988BFF319
:1001F0006F8F4FF0000080F31188704700000000FF
:1002000008480068006880F308884FF0000080F319
:10021000148862B661B6BFF34F8FBFF36F8F00DFF4
:1002200000BF00BF08ED00E0DFF80C00016841F4FA
:1002300070010160704700BF88ED00E0EFF30980B6
:10024000BFF36F8F144B1A681EF0100F08BF20ED1C
:10025000108A20E9F04F106009B44FF0500072B6D8
:1002600080F31188BFF34F8FBFF36F8F62B609F031
:100270000BFD4FF0000080F3118809BC1968086875
:10028000B0E8F04F1EF0100F08BFB0EC108A80F3FA
:100290000988BFF36F8F704714000020EFF30580CB
:1002A000704700000648804706480047FEE7FEE723
:1002B000FEE7FEE7FEE7FEE7FEE7FEE7FEE7FEE716
:1002C0001D560008C90100082DE9F05F0546002011
:1002D00092469B4688460646814640241BE02846B7
:1002E00041464746224600F033FA53465A46C01A62
:1002F000914110D311461846224600F01AFA2D1AE1
:1003000067EB01084F4622460120002100F011FA58
:1003100017EB00094E41201EA4F10104DFDC484622
:1003200031462A464346BDE8F09F10B5431A934232
:1003300009D28318881803E010F8011D03F8011D85
:10034000521EF9D210BD40EA01039B0703D009E019
:1003500008C9121F08C0042AFAD203E011F8013BB1
:1003600000F8013B521EF9D210BDD2B201E000F8F4
:10037000012B491EFBD270470022F6E710B5134649
:100380000A4604461946FFF7F0FF204610BD10B597
:10039000002200E0521C835C8C5CA34201D1002B44
:1003A000F8D1D8B2E1B2401A10BD00000FB400B5C8
:1003B0008DB010A909900B9000914FF0FF300A907A
:1003C00000200C9005480690054807906A4609A849
:1003D0000F9900F0D3F90DB05DF814FB99070008F0
:1003E000B70700082DE9FF5FD2E901A74FF0000829
:1003F000916999461446DDF838B046460198884719
:10040000054659EA0B0005D009E0A169761C019860
:1004100088470546216A284688470028F5D1681C88
:1004200003D05FEACA7005D015E04FF0FF3004B08A
:10043000BDE8F09F2068011D2160D0F800800AE02F
:100440005FEACA7001D108F8015BA169761C7F1EC2
:10045000019888470546002F1ADD681C18D0B9F1AD
:10046000000F0DD0E81705EBD060421120F01F00FF
:1004700059F822102A1A012090400142E0D107E0E9
:10048000BBF1000FDCD1216A284688470028D7D06D
:10049000E16901988847BBF1000F07D1002E05DD07
:1004A0005FEACA7002D1002188F80010A068B84243
:1004B00003DDBBF1000F03D017B16FF00100B6E709
:1004C0003046B4E72DE9FE4F81EA030404F000440E
:1004D00021F0004100944FF0000B23F0004350EA5C
:1004E00001045ED052EA03045BD0C3F30A54C1F3A3
:1004F0000A552C44A4F2F3340194A0FB0254C1F336
:10050000130141F48011C3F3130343F4801301FB7F
:10051000024400FB034E840A970A44EA815447EAE6
:100520008357A4FB076802958D0A05FB07854FEAF0
:10053000932C04FB0C542705029D4FEA065847EA0A
:100540001637B5EB08056EEB070C870E920E47EADF
:10055000811742EA8312A7FB0201B6EB0B0164EBA1
:1005600000042B0D43EA0C335E1844EB1C50DA46B2
:100570005146E7FB0201C5F313044FEA0B3343EA8C
:1005800014534FEA0432019C43EA0603A4F10C041D
:100590000294009CCDE900B400F0B2F903B0BDE8CC
:1005A000F08F00200146F9E72DE9F04D81EA0304C0
:1005B00004F0004B21F0004514464FF0000A23F0F0
:1005C000004150EA050220D054EA01021DD0C5F3D3
:1005D0000A570246C5F31303C1F31300C1F30A56C9
:1005E00040F4801543F48013A7EB0608101BD64691
:1005F00008F2FD3873EB050002D308F1010801E0B1
:1006000092185B41B8F1000F03DA00200146BDE803
:10061000F08D00204FF48011064684460EE0171B33
:1006200073EB050705D3121B63EB050306434CEA86
:10063000010C49084FEA300092185B4150EA01076B
:10064000EDD152EA030012D082EA040083EA0501E8
:10065000084305D0101BAB4106D20122002306E05F
:1006600000224FF0004302E06FF0010253101AEB3A
:1006700006004CEB085110EB0A0041EB0B01BDE802
:10068000F04D00F02EB90EB5C10F80EAE0700844BD
:10069000CA07002140F233438DE80E000A460B469C
:1006A00000F02EF903B000BD00F0004230F0004031
:1006B0000AD0C10D01F56071C0F3160042EA015184
:1006C000C20840071143704700200146704701F0FF
:1006D000004330B421F0004150EA010206D00A0D77
:1006E000A2F56072C1F31301002A02DC30BC0020C5
:1006F0007047440F44EAC104C100E01830BC00EB6D
:10070000C25000F0B7B830B50B4601460020202299
:10071000012409E021FA02F59D4205D303FA02F50E
:10072000491B04FA02F52844151EA2F10102F1DC6E
:1007300030BD202A04DB203A00FA02F10020704785
:100740009140C2F1200320FA03F31943904070470F
:10075000202A04DB203A21FA02F00021704721FA16
:1007600002F3D040C2F1200291400843194670477D
:10077000026811441378016018467047D16004493B
:1007800051610449116200211161114600F008BA5B
:1007900071070008950B0008426842B1016811F822
:1007A000013B23B1521EC0E90012184670470121D7
:1007B000C160881E704742685AB1C368016843B976
:1007C00083688B4205D0491E521CC0E900120020EC
:1007D00070474FF0FF3070470FB4002300B589B069
:1007E0000CA900910B996FF00042CB601E4B069351
:1007F0001E4B07930423CDE901321D4A089202469D
:100800006B46002000F0F8FB09B05DF814FB70B5F2
:1008100086B006464FF0FF300091CDE9010100207F
:1008200015460C4604903246694604A8FFF7D4FFEB
:1008300002460498211825B108B1084600E0204678
:100840002860049800280DD0002A02DD0098884214
:1008500008D0081B0094CDE901043246694604A87B
:10086000FFF7BAFF06B070BD99070008B707000888
:10087000950B00080029A8BF7047401C490008BF1D
:1008800020F00100704710B4B0FA80FC00FA0CF0C0
:1008900050EA010404BF10BC704749B1CCF12004F8
:1008A00021FA04F411FA0CF118BF01212143084385
:1008B000A3EB0C01CB1D4FEA00614FEA102042BFB1
:1008C000002010BC704700EBC35010440029A4BFA7
:1008D00010BC7047401C490008BF20F0010010BC4C
:1008E000704710B5141E73F1000408DA401C41F182
:1008F000000192185B411A4301D120F0010010BDA4
:100900002DE9F04D92469B4611B1B1FA81F202E019
:10091000B0FA80F220329046FFF70BFF04460F46F4
:1009200040EA0A0041EA0B0153465A46084313D0F5
:10093000114653EA010019D0C8F140025046FFF7B2
:1009400007FF05460E46504659464246FFF7F1FE60
:10095000084305D0012004E020463946BDE8F08D6B
:100960000020054346EAE0762C4337430A986305A6
:10097000E40AA0EB08000022FD0A44EA47540A30CA
:1009800002D500200146E9E7010510196941DDE9BA
:10099000084500196941BDE8F04DA2E72DE9FE4F79
:1009A000804681EA0300C00F0C46009021F0004110
:1009B00023F00045B8EB0200A94105D2404621468C
:1009C00090461C460B46024623F00040104347D099
:1009D000270DC7F30A00C3F30A510290401A019091
:1009E00040286BDAC3F3130040F4801B0098924652
:1009F00020B10023D2EB030A63EB0B0B019859469D
:100A0000C0F140025046FFF794FE06460D465046A0
:100A10005946019A00F0ACF810EB0800614100243F
:100A200087EA115284EAE7731A4340D0009A62B30E
:100A3000019A012A4FEA075215DC001B61EB020103
:100A40004FF0004202EA0752CDE90042001C41F596
:100A5000801132462B46FFF753FF03B0BDE8F08FFD
:100A600040462146F9E7001B61EB0201001C41F5FD
:100A7000801300185B412018A2F5001747EB030113
:100A800040EAD570B6196D4111E06D084FEA36069F
:100A900045EAC0754FEA0752001B61EB0201001CDA
:100AA00041F5801149084FEA3000001951413246A2
:100AB0002B4603B0BDE8F04FFFF713BF00980122AB
:100AC00040000023D0EB020263EBE0730098214664
:100AD0004FEAE074B8EB000061EB0401E9E783F052
:100AE00000435BE781F0004158E7C1F30A52C1F3CC
:100AF000130140F2FF3341F480119A4202DA0020E0
:100B00000146704740F233439A42A2F2334202DC7C
:100B10005242FFF71DBEFFF70CBE000030B5041EA9
:100B200071F1000404DB4FF00044404264EB01012A
:100B3000141E73F1000405DB1C464FF000435242C3
:100B400063EB0403994208BF904230BD064C074D49
:100B500006E0E06840F0010394E80700984710348D
:100B6000AC42F6D3FFF734FB1CBE00083CBE0008C5
:100B7000202A06DBCB17203A41FA02F043EAE07361
:100B800006E041FA02F3D040C2F12002914008434E
:100B900019467047C0B24FF4F05100F049BB000055
:100BA0002DE9F34F8BB04FF0000801F10C000C461B
:100BB0004FF0010B46460DF1080A019062690121D0
:100BC00001989047051E2DD0252D2CD0216A8847ED
:100BD000C0B16269012101989047216A88470028C5
:100BE000F7D1411E62690198904700E0761CA16927
:100BF0000B988847216A88470028F7D1E1690B984C
:100C00008847DBE7A1690B9888470746A84201D1CE
:100C1000761CD3E7E1690B9888477F1C02D1B8F1B5
:100C2000000F6FD047E1002762693D4639460198C1
:100C300090472A2804D16269012101989047012533
:100C4000DFF888926269012101989047A0F1300194
:100C50000A290AD24F45E5DC07EB870100EB410783
:100C6000303FDFD445F01005ECE7E90601D46FF022
:100C700000476C280AD04C2814D0682815D06A2860
:100C80000DD074281CD07A281AD01DE06269012189
:100C9000019890476C2802D045F0040514E045F017
:100CA00002050DE045F020050AE062690121019886
:100CB0009047682802D045F0080505E045F4006536
:100CC0006269012101989047C4E9015765283DD028
:100CD00019DC58287AD00CDC452837D004DC2528CC
:100CE00026D0412831D131E046282FD047282CD1B9
:100CF0002CE05B2877D0612828D063287CD064283A
:100D000023D15AE0D1E06F2848D008DC66281DD0F6
:100D100067281BD0692821D06E2816D127E07028BB
:100D200045D0732868D0752847D078280DD14DE07C
:100D3000A1690B988847054625283FF469AFE1690A
:100D40000B9888476D1C3FF46AAFB4E023466A46AF
:100D50006FF001000B9900F04FF99FE045F0400063
:100D60006060A80723464FF0000236D43EE0E80753
:100D70007FF447AF2068011D21600068290501D577
:100D800006701BE7290701D5068017E7A90703D5D9
:100D9000F117C0E9006111E706600FE745F0400078
:100DA0006060A80723464FF0080216D41EE040F604
:100DB0000E0125EA0100606016E045F04000606029
:100DC000A80723464FF00A0207D40FE045F0400081
:100DD0006060A80708D5234610226FF001000B9928
:100DE000AFF300805AE007E0234610226FF00100C5
:100DF0000B99AFF3008051E04FF000094F464B468E
:100E0000632802D05B2807D041E02079C00601D4D6
:100E10000120A06001273AE0626901210198904712
:100E20005E2805D14FF00109626949460198904753
:100E3000216939B900210A46534643F82120491C4B
:100E40000829FADBB0B3216969B9C11700EBD16297
:100E500053110AEB830122F01F02821A01200B6852
:100E6000904003430B6062690121019890475D281F
:100E7000E8D1B9F1000F09D00020514651F82020E7
:100E8000D24341F82020401C0828F7DB02AB224661
:100E900000976FF001000B99FFF7A4FA00280CDA15
:100EA000401C08D1BBF1000F05D04FF0FF300DB052
:100EB000BDE8F08FFFE74046F9E7E90701D108F107
:100EC000010806444FF0000B78E60000CCCCCC0CB7
:100ED0002DE9FF4F087883B09946FF2805D0491CBB
:100EE0002D2804D00024002008E000200BE001247D
:100EF000F9E700EB800003EB4000491C0B78FF2B67
:100F0000F7D104B1404200230293147819461D46DC
:100F10002D2C01D02B2C04D1521C2D2C13D00024AD
:100F20000294AA461478FF2C0FD00A25A3FB05785B
:100F300001FB05814FF0000C03FB0C11521CE3195F
:100F40004AEB0101EEE70124EAE7814453EA01009C
:100F500002D019F5C87F06DA03980021C0E9001114
:100F600007B0BDE8F08F0025AE4E2F46DFF8B882FF
:100F7000184600F071F9CDE90001B9F1000002DA7C
:100F8000C9F1000400E004460023A74A1AEB030B52
:100F900042EB045A12E0E00707D02A4633463846AF
:100FA0004146FFF78FFA074688462A4633461046E1
:100FB0001946FFF787FA05460E466410002CEAD161
:100FC000DDE90001B9F1000F5A46534606DAFFF792
:100FD000EBFA3A464346FFF7E7FA05E0FFF772FA05
:100FE0003A464346FFF76EFA029A0AB181F0004191
:100FF000039AC2E90001B3E72DE9FF4F1F468DB008
:10100000D7E901464FF0FF382E2045464FF0000942
:101010000B90B9696D1C0E988847396A82468847DB
:101020000028F6D1BAF1FF3F0AD024F4D064002E94
:1010300011DDBAF12B0F08D0BAF12D0F0BD102E060
:10104000404611B08DE744F48064B9696D1C0E9878
:1010500088478246761E6946600501D52D2000E04E
:101060002B208DF8000001F1010B0DF1200809E0A3
:10107000B9696D1C0E98884782460F9844F4007435
:10108000761E0560002E02DDBAF1300FF0D00B990C
:101090008A453ED144F0800406E00F99681CA9F10E
:1010A000010944F400740860B9696D1C761E0E983D
:1010B000884782463028F0D02BE00B998A4505D12D
:1010C000200603D444F08004761E18E0504605F054
:1010D00079FC08B30DF11301761E44F400748B45BE
:1010E00008D2AAF130000BF8010B200607D5A9F1B0
:1010F000010003E0200602D409F101008146A005A9
:1011000002D50F99681C0860B9696D1C0E98884754
:101110008246002ED1DC53E0002E51DDBAF1650F7E
:1011200002D0BAF1450F4BD1A00549D5B9696D1C64
:1011300024F44074761E0E9888478246002E0CDDFB
:101140002B2804D0BAF12D0F07D144F48074B9696B
:101150006D1C0E9888478246761EE00501D52D212C
:1011600000E02B2108F8011BCDF82C8021E00DF1C7
:101170002901761E44F4007488450CD2AAF130008F
:1011800010F0FF0088F8000002D10B99884509D9BA
:1011900008F1010806E0E00501D5244801E042F22B
:1011A0000F708146B9696D1C0E98884782460F986A
:1011B0000560002E04DD504605F004FC0028D6D161
:1011C000F9690E988847FF208BF8000088F8000026
:1011D0000020069007904B466A4608A906A8FFF72C
:1011E00077FEA00502D46FF001002AE714F0240F67
:1011F0000AD0E00714D1DDE906123868031D3B6010
:101200000068C0E900120BE0DDE90601FFF75FFAB4
:101210000146E00704D13868021D3A6000680160A9
:1012200028460EE7000014400000F03FF1D8FFFF11
:101230007F2801D9002208E0064A02EB5002C007CD
:10124000127800D1120902F00F02012090400840EC
:1012500070470000D0BD00080EB540F23342029244
:101260000022CDE900221346FFF74AFB03B000BD80
:1012700070B58D1810F8014B14F0030201D110F86D
:10128000012B231106D110F8013B03E010F8016B8C
:1012900001F8016B521EF9D1ABB110F8012B04F02B
:1012A0000C048A1A0C2C03D0A2EB84129B1C08E0BD
:1012B00010F8014BA2EB0422F8E712F8014B01F8F9
:1012C000014B5B1EF9D5A942D4D3002070BD10B5E7
:1012D0000146806B026C12F0500F05D0026CD206F2
:1012E00026D500F089FC10BD016C41F40071016449
:1012F00001688A6812F0405F17D18269AAB9CA6A88
:1013000012F4700F02D08A6852050ED44A6822F097
:1013100020024A60016C21F480710164016CC904EF
:1013200003D4016C41F00101016400F063FC10BDC5
:10133000806BC26C0846BDE81040104710B5806B4A
:1013400040210164416C41F00401416400F054FC0F
:1013500010BD10B5806B00F04EFC10BD484910B5B3
:10136000D1F8042322F44032C1F80423D1F8042335
:1013700043681A43C1F8042301684A6822F4807262
:101380004A6001684A68036942EA03224A600168C8
:101390004A6822F040724A6001684A6883681A43CA
:1013A0004A6001688A6822F400628A6001688A687B
:1013B000C3681A438A60816A6FF07062D142016823
:1013C0008A6822F070628A6001688A680CD0836A39
:1013D0001A438A6001688A6822F040528A60016874
:1013E0008A68C36A1A4301E022F040528A600168A9
:1013F0008A6822F002028A6001688A68836942EA88
:1014000043028A6090F82010002901684A680FD0D2
:1014100042F400624A6001684A6822F460424A600D
:1014200001684A68436A174C04EB43331A4301E0EE
:1014300022F400624A600168CA6A22F47002CA6239
:101440000168CA6A838B104C04EB03531A43CA62C7
:1014500001688A6822F400728A6001688A6890F8DC
:10146000303042EA43228A6001688A6822F480624E
:101470008A6001688A68406942EA8020886010BDFD
:101480000020014000E0FFFF0000F0FFFEE7000049
:10149000F0B50022164E9FED150A012411468578FD
:1014A000C1F1070304FA03F73D420FD08578521CBF
:1014B000D2B2DD4005F0010300EE903A06EB810365
:1014C000F8EE600A93ED001A00EE810A491CC9B2D9
:1014D0000829E4D33AB100EE902AB8EE601AC0EEC3
:1014E000010AB0EE600A80ED020AF0BD00000000C3
:1014F000B0BD0008012010B507F0D0FC002101208C
:1015000007F0C4FA0021022007F0C0FA00210320EE
:1015100007F0BCFA0021042007F0B8FA07F088FAB7
:1015200003489FED020A80ED000A10BD0000000094
:10153000B000002005F02CFEFFF7DCFF022008F0D1
:1015400013FAF9E7B5EEC00AF1EE10FA05D2B0EEE3
:10155000C00ADFED020A30EEC00A70470080B143D6
:10156000054A117808443C21C0B2B0FBF1F301FBFD
:101570001300107070470000480E002070B51D4C1D
:10158000054600F039F8032812D3207800F04AF815
:101590005B2803D00120FFF7E3FFF2E723783C2626
:1015A0005B1CB3FBF6F006FB10332078834201D1BD
:1015B000002070BD184600F035F85D28F0D1207885
:1015C000181A3C3090FBF6F106FB1100401C00237A
:1015D000C6B207E020781844C0B200F023F8E854FF
:1015E0005B1CDBB2B342F5D33046FFF7B9FF3046A0
:1015F00070BD0000480E0020054841780078081AA8
:101600003C213C3090FBF1F201FB1200C0B270476C
:10161000480E002000B5FFF7EFFFC0F13B00C0B25D
:1016200000BD00003C21B0FBF1F201FB12000149BA
:10163000085C7047A45C00202DE9F0410C46804610
:10164000FFF7E8FFA04202D20020BDE8F081104E73
:101650001049707802193C2A08D2084422464146B3
:10166000FEF763FE7078204470700FE0C0F13C021A
:1016700008444146D5B22A46FEF757FE621B05488C
:1016800008EB05011746FEF750FE77702046DCE7B1
:10169000480E0020A45C00202DE9F04700254248B8
:1016A0004FF480492C464FF6FF76494600F03AFF4A
:1016B0003E4F86EAC0362021384600F033FF86EAE6
:1016C00080363846B91500F02DFF86EA4036384698
:1016D000102100F027FF86EA00363846802100F00E
:1016E00021FFDFF8CC8086EAC0268021404600F04A
:1016F00019FF86EA80263846402100F013FF2D4F5F
:1017000086EA40264FF40041384600F00BFF86EA97
:1017100000264046202100F005FF86EAC01640461C
:10172000012100F0FFFE86EA80164046102100F0FD
:10173000F9FE86EA40163846082100F0F3FE86EAF4
:1017400000164046082100F0EDFE86EAC006384645
:10175000042100F0E7FE86EA80064046022100F000
:10176000E1FE86EA40064946384600F0DBFE124AB2
:101770007040108000200123168803FA00F73E42D3
:1017800009D01688641CE4B2471C03FA07F10E4224
:1017900001D16D1CEDB2401CC0B21028ECD35573C2
:1017A0001473BDE8F08700000010024000040240FE
:1017B000000C024000080240945C0020014800F048
:1017C00035BC0000EC190020014800F02FBC0000DF
:1017D0002C190020014800F029BC00008C190020C1
:1017E000014800F023BC0000F0120020016818231B
:1017F000CAB2103AB2FBF3F2054B6FF30901032AA8
:101800009B5CC36500D9091D8165084670470000CF
:1018100020AF0008014610B500208B694FF0C0745E
:101820008A6A53B1B3F5005F15D072B1012A0CD0AA
:10183000022A0AD0032A09D104E01AB1012A06D0EB
:10184000022A03D1C96AC90100D5012010BDC96AA5
:10185000A142FAD010BD002AF7D0012AF2D0022A04
:10186000F3D0032AF3D010BD30B50468256825F401
:1018700080252560046863608368402B036803D07B
:1018800099600068C26030BD9A600068C16030BD78
:10189000704700001848002110B502F03BF81648C8
:1018A000042102F037F8144801F052FE13480021D9
:1018B00002F030F81148042102F02CF80F4801F032
:1018C00047FE0F48002102F025F80D48042102F0E0
:1018D00021F80B4801F03CFE0A48002102F01AF8FA
:1018E0000848042102F016F8064801F031FEBDE870
:1018F0001040054801F02CBE501300209C1300201E
:10190000E8130020801400206415002072B6FEE762
:1019100010B504462DED028BB0EE608AF0EE408AE1
:1019200005F018FEF0EE680A07F0B8F915481749F7
:1019300080ED020A9FED140A80ED060A07F05CFBB9
:1019400060EE080A9FED121A80EE810AD4ED060AB5
:10195000F4EEC00AF1EE10FA06D9F1EE600AF4EEE8
:10196000C00AF1EE10FA01DBB0EE600A012078EE59
:10197000000A38EE400AC4ED000A84ED010ABDEC0D
:10198000028B10BD8C590020000000001C59002063
:1019900000004842F8B500240E4D012321464FF4C3
:1019A0007A72C1F1050635F81100904203FA06F08B
:1019B00002D22043C4B200E08443491C0429F0DB76
:1019C000E888009004A0AB886A88298804F0E0FECB
:1019D0002046F8BD380100202564202564202564B8
:1019E0002025640D0A00000000B587B01421684668
:1019F000FEF7C2FC0C48016841F01001016000686C
:101A0000694600F0100005904FF446500090012008
:101A10000190029000200390044800F08DFC00200B
:101A200003F0C6FC07B000BD303802400010024091
:101A3000F8B50023009390F83C20012A1ED0012223
:101A400080F83C2007270A68664DFE07092A21D93D
:101A5000B2421FD00468D4F80CC00A3A02EB42022A
:101A600097402CEA070CC4F80CC00A68AA4207D1B8
:101A70000268D4680F7A44EA076409E00220F8BDDE
:101A80000A3A8C6802EB420294400268D7683C43F1
:101A9000D46016E00468D4F810C002EB420202F0F1
:101AA0001F0297402CEA070CC4F810C00A788C6813
:101AB00002EB420202F01F029440026817693C43A5
:101AC00014614A681F27072A16D20468D4F834C064
:101AD000521E02EB820297402CEA070CC4F834C075
:101AE0000A8894B20A79521E02EB8202944002687C
:101AF000576B3C4354632DE004680D2A15D2D4F88B
:101B000030C0D21F02EB820297402CEA070CC4F8C7
:101B100030C00A8894B20A79D21F02EB8202944044
:101B20000268176B3C43146314E0D4F82CC00D3AE0
:101B300002EB820297402CEA070CC4F82CC00A88FA
:101B400094B20A790D3A02EB820294400268D76A95
:101B50003C43D462244C0268A24208D10A68B242D3
:101B600005D1D4F8042322F44002C4F80423026807
:101B7000A2420ED10A68122A0BD1D4F8042322F40F
:101B80000002C4F80423D4F8042342F48002C4F809
:101B900004230268A24220D10A68AA4201D0112A75
:101BA0001BD1D4F8042322F48002C4F80423D4F80F
:101BB000042342F40002C4F804230968A9420CD1AA
:101BC0000A490B4A0968B1FBF2F101EB81014900B6
:101BD00000E0491E00910029FBD180F83C30002034
:101BE000F8BD00001200001000200140100000208D
:101BF00040420F0070477047704770B504004FF0C7
:101C0000000603D0206C002510B107E0012070BD54
:101C1000204600F01DF8656484F83C50206CC00636
:101C200010D4206C20F4885040F00200206420463C
:101C3000FFF794FB6564206C20F0020040F0010087
:101C4000206400E0012684F83C50304670BD00005E
:101C500070B586B0064614216846FEF78DFB244910
:101C60003068884242D12348016841F480710160A4
:101C70000068204900F4807005901439086840F02D
:101C800001000860086800F001000590086840F055
:101C900004000860086803240025694600F0040079
:101CA00005900C208DE83100134800F045FB3020F2
:101CB00069468DE83100114800F03EFB114C104898
:101CC000C4E900050015A560C4E903504000606147
:101CD0008000A0614011C4E907052046656200F05C
:101CE00075FA08B1FFF712FEB463A66306B070BDC3
:101CF0000020014044380240000002400008024039
:101D000010640240F012002018B50022009290F8F2
:101D10003C10012907D0012180F83C1001688B6834
:101D2000DB0702D011E0022018BD8B6843F00103ED
:101D30008B602E492E4B0968B1FBF3F101EB410199
:101D400000E0491E00910029FBD101688B68DB0788
:101D500041D0036C40F20164A34343F480730364F5
:101D60004B685B0505D5036C23F4005343F48053A3
:101D70000364036CDB0404D5436C23F00603436463
:101D800000E0426480F83C206FF022020A60194AA9
:101D9000D2F80413C90607D0016891420AD18B68B2
:101DA00013F0405F02D005E000680BE08B6843F061
:101DB00080438B60D2F80413C90614D400680E491E
:101DC000884210D1816811F0405F0CD1816841F0E8
:101DD0008041816007E0016C41F010010164416CB9
:101DE00041F001014164002018BD000010000020F6
:101DF00040420F000020014000220140F8B5134688
:101E0000044600220092154690F83C00012807D0B5
:101E1000012084F83C0020688668F60702D011E0B3
:101E20000220F8BD866846F0010686603A483B4EBF
:101E30000068B0FBF6F000EB400000E0401E0090B0
:101E40000028FBD120688668F6075BD0226C40F240
:101E50000166B24342F4807222644068400505D5B1
:101E6000206C20F4005040F480502064206CC004AA
:101E700004D5606C20F00600606400E0656484F8BE
:101E80003C50A26B2648D063A26B26481064A26B1C
:101E90002548D0646FF022002268106020684268F4
:101EA00042F0806242602068826842F48072826000
:101EB00020680A46A56B00F14C01284600F0EEF9B7
:101EC0001A490246D1F80403C006206811D088429E
:101ED00007D1836813F0405F03D1836843F08043E8
:101EE0008360D1F80403C00614D4114920688842E5
:101EF00010D1816811F0405F0CD1816841F08041C0
:101F0000816007E0206C40F010002064606C40F0BD
:101F1000010060641046F8BD1000002040420F0030
:101F2000CF120008531300083D13000800200140A1
:101F30000022014090F83C1001290CD0012180F8CA
:101F40003C1001688A6822F001028A600168896891
:101F5000C90702D007E002207047016C21F48851C4
:101F600041F001010164002180F83C1008467047EF
:101F70002DE9F041876D044600F0E6FA054694F835
:101F800035000026022806D080206065012084F8F4
:101F90003460BDE8F0812068016821F0160101601D
:101FA0002068416921F080014161206C08B9A06C72
:101FB00020B12068016821F00801016020680168F3
:101FC00021F0010101600CE000F0BEFA401B052881
:101FD00007D920206065032084F8350084F8346038
:101FE000D7E720680068C007EED194F85C103F2066
:101FF0008840B860012084F83500002084F83460FF
:10200000C7E790F83510022903D0802141650120EF
:102010007047052180F835100068016821F0010142
:10202000016000207047406D704700002DE9F843C3
:10203000044665484FF00009CDF800904FF4165162
:10204000A56D0068B0FBF1F72E68082194F85C20BC
:1020500001FA02F030420FD02068026852070BD517
:10206000026822F00402026094F85C008140A960DA
:10207000606D40F00100606594F85C104FF001085D
:1020800008FA01F0304208D021684969090604D5F0
:10209000A860606D40F00200606594F85C10042058
:1020A0008840304208D021680968890704D5A860B3
:1020B000606D40F00400606594F85C10102088406A
:1020C000304218D021680968090714D5A860206833
:1020D0000168490304D50068000308D5A16C07E036
:1020E0000168C90503D4016821F008010160216C71
:1020F00009B12046884794F85C102020884030427F
:1021000031D021680968C9062DD5A86094F835003A
:1021100005282068016806D0490347D500680003F8
:102120001DD4616C1CE021F016010160206841693A
:1021300021F080014161206C08B9A06C20B12068B9
:10214000016821F00801016094F85C103F2088408C
:10215000A86084F8358084F83490216D1FE0E16B2D
:1021600009B120468847606D00282BD0606DC007FC
:1021700014D0052084F835002068016821F00101A1
:1021800001600098401C0090B84203D820680068A5
:10219000C007F6D184F8358084F83490E16C0029CA
:1021A00010D001B02046BDE8F04308470168C905DA
:1021B000D5D4016821F01001016084F8358084F8DD
:1021C0003490CCE7BDE8F8831000002070B50446D9
:1021D00000F0BAF905465CB1022084F8350000260B
:1021E00084F834602068016821F0010101600CE08E
:1021F000012070BD00F0A8F9401B052805D920205A
:102200006065032084F8350070BD20680068C00751
:10221000F0D121680A6820480240D4E9010318433C
:10222000D4E903352B43184363691843A369184362
:10223000E3691843236A18431043626A042A03D1EE
:10224000D4E90B231A43104308602068406920F04A
:102250000701606A042840EA01050CD1A06A054321
:10226000E06A40B12046FFF7D5FA20B14020606512
:1022700084F83560BCE7206845612046FFF7B6FA70
:1022800094F85C203F21914081606665012084F8CC
:102290003500002070BD00003F8010F02DE9F041B6
:1022A000866D044690F83400002501280DD00120E9
:1022B00084F8340094F835700020012F07D00225EF
:1022C00084F834002846BDE8F0810220FBE70227AD
:1022D00084F8357060652046FFF7C6FA94F85C1004
:1022E0003F208840B0602068016841F0160101601D
:1022F0002068416941F080014161206C20B1206873
:10230000016841F0080101602068016841F00101A5
:102310000160D7E770B5044600F016F90546601C69
:1023200002D004480078044400F00EF9401BA0429B
:10233000FAD370BD040000202DE9F84FDFF8B0910A
:10234000002203274FF00F0CA9F1040B09F1040A36
:10235000ABF1040E0B68012595402B40AB426ED1CA
:102360000C7904F00304012C01D0022C15D18668ED
:10237000540007FA04F826EA0806D1F80C8008FA97
:1023800004F848EA0608C0F808804468AC430D79B0
:10239000C5F300159540254345600C79E443A40737
:1023A00008D0C568540007FA04F6B5438E68A64005
:1023B0002E43C6600C7904F00304022C11D1D4081A
:1023C00000EB8406356A5407E40E0CFA04F825EA9B
:1023D0000805D1F8108008FA04F848EA0508C6F89C
:1023E00020800568540007FA04F6B5430E7906F01C
:1023F0000306A6402E4306604C6814F4403F70D09C
:102400003C4C256845F480452560246822F003058E
:1024100004F480440094384C05EB0408D8F80858BC
:102420009407260F0CFA06F4A543344CA04201D1C0
:1024300000242EE0324CA04202D1012429E050E0D9
:10244000304CA04201D1022423E02F4CA04201D104
:1024500003241EE02D4CA04201D1042419E02C4C91
:10246000A04201D1052414E02A4CA04201D1062447
:102470000FE0294CA04201D107240AE0274CA042DA
:1024800001D1082405E0264CA04201D1092400E036
:102490000A24B4402C43C8F80848D9F800404D46F7
:1024A0004E689C43F60200D51C432C60DAF80040CD
:1024B00055464E689C43B60200D51C432C60DBF8A1
:1024C00000405D464E689C43B60300D51C432C601B
:1024D000DEF8004075464E689C43F60300D51C4369
:1024E0002C60521C102AFFF435AFBDE8F88F0000B5
:1024F000083C0140443802400030014000000240E6
:102500000004024000080240000C0240001002409B
:102510000014024000180240001C0240002002404B
:10252000002402400069084000D001207047426941
:1025300021EA02030A4043EA0241816170470AB17D
:10254000816170470904FBE701488068704700001B
:1025500004000020024881680278114481607047BD
:1025600004000020032010B500F0E8F80F2000F070
:1025700005F800F099F8002010BD000030B50546C0
:102580001F4887B0016841F480710160006806A9A6
:1025900000F480700590684600F032FC0398B0B1FA
:1025A00000F04EFC40001749174AB0FBF1F1174804
:1025B000026040F2E732491E41600021C0E9032178
:1025C0008160816100F0DEFE040003D015E000F0C0
:1025D00037FCE8E70D4800F0BBFF04000DD12D20CB
:1025E00000F07EF8102D07D2002229462D2000F0A1
:1025F00085F80748056000E0012407B0204630BD9B
:102600004038024040420F00002000404C1A002099
:1026100008000020134A41781160124908310A6805
:1026200022F001020A600B1F42681A60027BC37A23
:10263000120742EA0362837A42EAC342437B42EAD8
:102640008342837B42EA4342C37B42EA0342437AAA
:1026500042EA0322037A007842EA430202430A6014
:102660007047000098ED00E0BFF35F8F04480168F9
:1026700021F4803101600249002070310860704708
:1026800024ED00E0074940F001000860054870387B
:10269000016841F480310160BFF34F8FBFF36F8F4A
:1026A0007047000094ED00E00C4882B0016841F0F2
:1026B00080510160006800F0805000900748001DC4
:1026C000016841F480410160006800220F2100F49C
:1026D00080400090901E02B000F010B840380240D8
:1026E000002809DB012100F01F0291404009800011
:1026F00000F1E020C0F80011704700000E4BF0B46C
:102700001B68C3F30223C3F10704042C00D904247B
:102710001D1D072D01D2002300E0DB1E012606FA55
:1027200004F56D1E0D409D409E40761E164045EA04
:102730000601F0BC04F03CB80CED00E0064A00F0E5
:10274000070110684FF6FF03184040EA01200349D3
:1027500008431060704700000CED00E00000FA052F
:102760001848F8B5016841F0805101600068164DC5
:1027700000F080500090286840F480302860FFF717
:10278000E3FE4FF47A76044604E0FFF7DDFE001B1B
:10279000B0420FD86868C003F7D5286840F400300D
:1027A0002860FFF7D1FE044606E0FFF7CDFE001BD0
:1027B000B04201D90320F8BD68688003F5D5002038
:1027C000F8BD000040380240007000402DE9F84F8D
:1027D000044600780026DFF820943546C0070ED066
:1027E000D9F8001021F40001C9F80010D9F8001040
:1027F000626B1143C9F80010606B00B901262068B4
:10280000FE4F00030ED53868E16B20F440100843FA
:102810003860E06BB0F5801F01D010B102E00126F6
:1028200000E001252068C0020ED53868216C20F434
:10283000400008433860206CB0F5800F01D010B123
:1028400002E0012600E001252068C10100D5012633
:10285000800666D5E8483830016841F08051016053
:102860000068DFF89CA300F080500090DAF80010B8
:1028700041F48071CAF80010FFF766FE804605E05B
:10288000FFF762FEA0EB080064287DD8DAF80000AC
:10289000C005F5D5DFF864A3AAF11C0ADAF8000038
:1028A00010F440702AD0218E01F44071814225D06D
:1028B000DAF80010DAF8002021F4407142F4803296
:1028C000CAF80020DAF8002022F48032CAF800208A
:1028D000CAF80010DAF80000C0070FD0FFF734FE86
:1028E000804641F2883B05E0FFF72EFEA0EB080191
:1028F0005945CAD8DAF800008007F5D5206BC0F337
:10290000012103297ED0D9F8001021F4F811C9F86B
:102910000010DAF80010228EC2F30B021143CAF83D
:1029200000102078C00607D5386820F08070386025
:102930003868A16B0843386020884104B14805D548
:102940000168626E21F4403111430160218809045D
:1029500005D50168A26E21F4402111430160216870
:10296000C90305D50168E26E21F4401111430160ED
:102970002168890305D50168226F21F440011143C4
:1029800001602178490600E002E105D50168626C2A
:1029900021F00301114301602178090605D5016882
:1029A000A26C21F00C01114301602188C90505D5F5
:1029B0000168E26C21F03001114301602188890532
:1029C00005D50168226D21F0C00111430160218805
:1029D000490505D50168626D21F44071114301601C
:1029E0002188090505D50168A26D21F440611143D4
:1029F00001602188C90407D50168E26D21F44051C6
:102A0000114300E03DE001602188890405D501689B
:102A1000226E21F44041114301602168490205D52D
:102A20000168A26F21F080611143016021684FF0BD
:102A30000069890209D50168E26F21F00061114344
:102A40000160E16F494500D1012521680A0700D5E1
:102A50000125490305D50168626F21F040711143DA
:102A600001602168090206D50168D4F8802021F0B0
:102A7000805111430160DFF88081A8F108086EB928
:102A800009E0D9F80020604B22F4F8121840024304
:102A9000C9F800203DE72068800178D5D8F80010FB
:102AA00021F08061C8F80010FFF74EFD064604E0F3
:102AB000FFF74AFD801B64286AD8D8F8000000019F
:102AC000F6D420785149C00711D0606B78B90868F6
:102AD0000A68C0F301406368C2F303629B0143EAE2
:102AE000004040EA0260227A40EA027008602068F2
:102AF000020303D5E26BB2F5801F05D0C0021AD5E0
:102B0000206CB0F5800F16D108680A68C0F3014048
:102B10006368C2F302729B0143EA0040237B40EAF0
:102B2000036040EA027008603868626A20F01F00A3
:102B3000521E104338602068C0010FD508680A682B
:102B4000C0F303606368268AC2F302729B0143EA02
:102B5000064343EA006040EA027008602068800192
:102B60000BD56068228A800140EA0240227B40EA5D
:102B70000260227A40EA02700860D8F8001041F042
:102B80008061C8F80010FFF7DFFC064606E009E0A8
:102B900082E0FFF7D9FC801B64287DD8D8F80000BC
:102BA0000001F6D5B5B3D8F80000454620F08050B6
:102BB000C8F80000FFF7C8FC064604E0FFF7C4FCB5
:102BC000801B642875D82868C0438000F6D520682B
:102BD0000F49020301D5E26B1AB1C0022BD5206C5C
:102BE00048BB08680A68C0F301406369C2F3027217
:102BF0009B0143EA00400EE0083802408C38024056
:102C00000070004090380240FFFCFF0F8438024003
:102C10008838024054E0237E40EA036040EA0270B4
:102C2000086038686FF0FF03A26A20F4F85003EBE5
:102C30000222104338602068800212D5E06F4845B8
:102C40000FD108680A68C0F303606369268CC2F379
:102C500002729B0143EA064343EA006040EA0270C5
:102C600008602078000715D508680A68C0F303607B
:102C70006369C2F301429B0143EA024242EA0060F7
:102C8000227F40EA027008603868E16A20F4403030
:102C900008433860286800E00BE040F0805028606E
:102CA000FFF752FC044607E0FFF74EFC001B6428C8
:102CB00002D90320BDE8F88F2868C0438000F3D410
:102CC0000020F7E72DE9F04704000D4669D0DFF852
:102CD0001C81D8F8000000F00F00A8420CD2D8F8F0
:102CE000001021F00F012943C8F80010D8F80000A7
:102CF00000F00F00A84254D120683D4E810712D544
:102D0000400703D5306840F4E05030602078000779
:102D100003D5306840F4604030603068A16820F02E
:102D2000F000084330602078C00729D0304960683F
:102D30000839012810D00968022810D08907002915
:102D40002FDA316821F0030101433160FFF7FCFB0A
:102D5000074641F288390CE009688903EFE78901E9
:102D6000EDE7FFF7F1FBC11B494502D90320BDE8A0
:102D7000F0873068616800F00C00B0EB810FF0D193
:102D8000D8F80010404601F00F01A9420BD90168A4
:102D900021F00F0129430160006800F00F00A842F4
:102DA00001D00120E3E72078400705D53068E168CD
:102DB00020F4E050084330602078000706D53068E2
:102DC000216920F4604040EAC100306000F058F80A
:102DD0003168084AC1F30311515CC84006490860D4
:102DE00006480068FFF7CAFB0020C0E7003C02402D
:102DF0000838024028AF000810000020080000201A
:102E00000F2202600C4A136803F003034360136847
:102E100003F0F0038360136803F4E053C3601268A7
:102E20004FF4E05303EAD20202610448006800F064
:102E30000F0008607047000008380240003C024064
:102E40000448054900680968044AC1F38221515CBD
:102E5000C8407047100000200838024038AF000812
:102E60000448054900680968044AC1F34231515CCD
:102E7000C8407047100000200838024038AF0008F2
:102E8000154810B5006810F00C01144813D0431019
:102E900004290FD008290ED10F4C241F216801F0FE
:102EA0003F022168490207D52068C0F38810A0FBC3
:102EB000030106E0184610BD2168C1F38811A1FB8B
:102EC00000010023FDF700FA2168C1F30141491C0C
:102ED0004900B0FBF1F010BD083802400024F400B6
:102EE0002DE9F84F04004FF0000877D02078DFF884
:102EF00050B3ABF10409C007A9F104054AD0DBF8CF
:102F000000105846C1F38101012908D00068C0F3C0
:102F1000810002280AD1D9F80000400206D52868AD
:102F2000800337D560680028DFD033E06068B0F5F3
:102F3000803F0BD010B1B0F5A02F11D0286820F43D
:102F400080302860286820F4802002E0286840F45F
:102F500080302860606888B1FFF7F6FA064609E01D
:102F6000286840F480202860F0E7FFF7EDFA801B26
:102F7000642873D828688003F7D50BE0FFF7E4FADC
:102F8000064604E0FFF7E0FA801B6428F1D82868C1
:102F90008003F7D42078800740D5DBF8001058462E
:102FA00011F00C0F08D00068C0F3810002280AD18C
:102FB000D9F80000400206D42868800717D5E068D9
:102FC00001280BD113E0E0680028286817D040F0F2
:102FD00001002860FFF7B8FA064605E02CE1FFF78C
:102FE000B3FA801B0228C4D828688007F7D5286860
:102FF000216920F0F80040EAC10028600EE020F0CE
:1030000001002860FFF7A0FA064604E0FFF79CFAEB
:10301000801B022822D828688007F7D42078000770
:1030200025D5874F60696C37002838680FD040F08D
:1030300001003860FFF788FA064604E0FFF784FADB
:10304000801B02280AD838688007F7D50FE020F0E7
:1030500001003860FFF778FA064605E082E0FFF7E6
:1030600073FA801B02287DD838688007F7D420784F
:10307000400769D5DFF8C8A10AF1380ADAF800007C
:10308000C0000CD4DAF8001041F08051CAF80010EA
:10309000DAF800004FF0010800F080500090694F0E
:1030A0003868C0050FD4386840F480703860FFF786
:1030B0004BFA064604E0FFF747FA801B642851D814
:1030C0003868C005F7D55E4FA068683701280AD078
:1030D00008B1052811D0386820F001003860386840
:1030E00020F0040002E0386840F001003860A06879
:1030F00098B1FFF729FA06460BE0386840F0040063
:103100003860F0E7FFF720FA811B41F288308142F6
:1031100065D838688007F5D50DE0FFF715FA064643
:1031200006E0FFF711FA811B41F28830814256D840
:1031300038688007F5D4B8F1000F05D0DAF8001030
:1031400021F08051CAF80010A169C9B3DBF8000072
:10315000C0F38100022849D02868022920F080703D
:10316000286000E03BE003D0FFF7EEF9044639E0C9
:10317000FFF7EAF9064604E0FFF7E6F9801B0228AC
:103180002DD828688001F7D4D4E907012E4A0843D6
:10319000A16A490802EB0141626A41EA82110843CF
:1031A00094F82C1040EA016040F00051C9F800107A
:1031B000286840F080702860FFF7C6F9044605E0F3
:1031C0003CE0FFF7C1F9001B022808D828688001FD
:1031D000F7D533E0FFF7B8F9001B022802D9032026
:1031E000BDE8F88F28688001F4D427E0D9F8000002
:1031F000012921D0E26900F4800191421CD1226AA8
:1032000000F03F01914217D1626A47F6C071014058
:10321000B1EB821F10D1A26A4FF0FF3300F44031AE
:1032200003EB5202B1EB024F06D194F82C1000F0E0
:103230007060B0EB016F01D00120D1E70020CFE733
:1032400008380240007000400000FFFF70477047E0
:103250007047000030B590F83C20012A3AD0012296
:1032600080F83C20CA6800248B6822F440721A4D12
:103270001A434B6822F480621A430B6822F40062FE
:103280001A430B6922F480521A434B6922F400520C
:103290001A438B6A22F480421A430B8B22F4702269
:1032A00042EA03420368AB4202D00C4DAB420CD160
:1032B0008D8C22F4700242EA0552CD6922F08072B0
:1032C000096A2A4322F000720A435A6480F83C409B
:1032D000002030BD022030BD00000140000401404C
:1032E000F0B590F83C20012A3CD0012580F83C50F4
:1032F000022280F83D2003685A689C681A4E1B4FD2
:10330000B34201D0BB4204D122F4700C4A6842EAB5
:103310000C0222F0700C0A6842EA0C025A60026841
:10332000B24213D0B2F1804F10D0114B9A420DD05F
:10333000104B9A420AD0104B9A4207D0BA4205D09D
:103340000E4B9A4202D00E4B9A4204D1896824F067
:1033500080031943916080F83D50002180F83C10B3
:103360000846F0BD0220F0BD00000140000401400D
:103370000004004000080040000C004000400140F4
:103380000018004010B5040003D094F83D0010B1BF
:1033900007E0012010BD002084F83C00204600F02A
:1033A00023F8022084F83D002068211D02F0C4F9B2
:1033B000012084F8480084F83E0084F83F0084F837
:1033C000400084F8410084F8420084F8430084F807
:1033D000440084F8450084F8460084F8470084F8E7
:1033E0003D00002010BD000008B500683349884248
:1033F0000FD13348016841F00401016000680022E8
:10340000052100F0040000901E20FFF777F91E2030
:103410004EE02B492B4A091D904226D1086840F006
:103420000200086008680022052100F002000090F8
:103430002B20FFF763F92B20FFF752F9002205211B
:103440002C20FFF75BF92C20FFF74AF900220F210F
:103450002D20FFF753F92D20FFF742F90022052117
:103460002E20FFF74BF92E2022E0174A90420ED172
:10347000086840F48030086008680022052100F4E4
:10348000803000901820FFF739F9182010E00F4A1B
:10349000904211D1086840F480200860086800223A
:1034A000052100F4802000901A20FFF727F91A2048
:1034B000BDE80840FFF714B908BD0000000800404F
:1034C00040380240000401400040014000480140F3
:1034D00090F83D10012901D001207047022180F8A9
:1034E0003D1000681249884214D0B0F1804F11D0CD
:1034F000104988420ED0104988420BD00F498842AB
:1035000008D00F49884205D00E49884202D00E49A2
:10351000884207D181680D4A1140062906D0B1F5CD
:10352000803F03D0016841F0010101600020704735
:10353000000001400004004000080040000C004072
:103540000004014000400140001800400700010055
:1035500090F83D10012901D001207047022180F828
:103560003D100168CA6842F00102CA600068134950
:10357000884214D0B0F1804F11D0114988420ED04A
:10358000104988420BD01049884208D00F49884220
:1035900005D00F49884202D00E49884207D1816880
:1035A0000D4A1140062906D0B1F5803F03D00168CD
:1035B00041F001010160002070470000000001405F
:1035C0000004004000080040000C004000040140DE
:1035D00000400140001800400700010070B504469B
:1035E00090F83C000025012817D0012684F83C60A3
:1035F000022084F83D00206882682F4B1A4022F494
:103600007F4282600868502838D00DDC20284FD0D7
:1036100005DC90B3102811D14AE0022070BD30289B
:1036200046D040280AD13BE060282FD070280DD02A
:10363000B0F5805F03D0B0F5005F12D0012584F8AB
:103640003D60002084F83C00284670BD4A68206830
:10365000D1E9021302F0E5F82068816841F07701B2
:1036600009E04A682068D1E9021302F0DAF820681C
:10367000816841F480418160E1E719E0CA684968E6
:10368000206802F005FA2068502106E0CA684968FF
:10369000206802F00EFA2068602102F0CCF8CEE734
:1036A000CA684968206802F0F3F920684021F4E70D
:1036B000226801461046F0E788FFFEFF2DE9F04141
:1036C00004000D4603D094F83D0018B108E0012035
:1036D000BDE8F081002084F83C00204600F046F868
:1036E000022084F83D00206881681F4A11408160F3
:1036F0002068211D02F020F8206881688269066A2E
:103700002B68AF6926F0AA060B4340F203318A43C7
:10371000A96842EA0722EF6911434FF6FC42914340
:10372000EA6841EA07212F6A0A432969090141EA47
:10373000073111436A686D69836046EA05152A43BB
:103740002068816120680262012084F8480084F8C2
:103750003E0084F83F0084F8440084F8450084F873
:103760003D000020B4E70000F8BFFEFF70B586B052
:10377000044614216846FCF7FFFD5F4802252168D6
:1037800000245E4A012681423BD15C481430016826
:1037900041F001010160006800F00100059010682F
:1037A00040F0100010601068694600F010000590AD
:1037B0004FF420600090CDE901545148CDE9034613
:1037C000FEF7BAFD002205211820FEF797FF18200A
:1037D000FEF786FF002205211920FEF78FFF192032
:1037E000FEF77EFF002205211A20FEF787FF1A2030
:1037F000FEF776FF002205211B20FEF77FFF1B202E
:1038000059E03E4B3F481033B1F1804F22D03E4E3D
:10381000B14254D1196841F002011960196801F0F0
:1038200002010591116841F001011160116801F078
:1038300001010591C0210091CDE90154CDE9034575
:103840006946FEF779FD002205211D20FEF756FF8F
:103850001D2030E0196841F001011960196801F07C
:1038600001010591116841F001011160116801F039
:1038700001010591116841F002011160116801F028
:103880000201059120210091CDE90154CDE90346C3
:103890006946FEF751FD08200090CDE901541B4810
:1038A0006946CDE90346FEF747FD002205211C20AD
:1038B000FEF724FF1C20FEF713FF06B070BD144E68
:1038C000B142FAD1196841F008011960196801F094
:1038D00008010591116841F001011160116801F0C2
:1038E0000101059103210091CDE90154CDE9034582
:1038F0006946FEF721FDE0E7000001403038024054
:103900000010024000000240000400400004024099
:10391000000C004070B590F83E50044690F83F30DF
:1039200090F8442090F84500022621B104290BD0DC
:10393000012D16D10FE0012D13D1012A11D184F8E8
:103940003E6084F8446016E0012B0AD1012808D1BA
:1039500084F83F600DE0012B03D1012A01D1012839
:1039600001D0012070BD84F83E6084F83F6084F887
:10397000446084F8456091B1042904D02068012294
:10398000002101F041FF20680122042101F03CFFE9
:103990002068016841F001010160002070BD012232
:1039A00020680021F2E770472DE9F04104460068E5
:1039B000C66805694FF00007A90713D5B10711D5EF
:1039C000F91E016101202077206880698007204668
:1039D00002D0FFF7E8FF04E000F000F9204600F015
:1039E000DFF92777680716D5700714D521686FF0BF
:1039F00004000861022020772068806910F4407F6D
:103A0000204602D0FFF7CFFF04E000F0E7F82046A1
:103A100000F0C6F92777280715D5300713D5216898
:103A20006FF008000861042020772068C0698007D3
:103A3000204602D0FFF7B7FF04E000F0CFF82046A1
:103A400000F0AEF92777E80616D5F00614D5216800
:103A50006FF010000861082020772068C06910F41A
:103A6000407F204602D0FFF79EFF04E000F0B6F84A
:103A7000204600F095F92777E80708D0F00706D030
:103A800021686FF001000861204600F00BFA28065B
:103A900001D4A80408D5300606D521686FF4025079
:103AA00008612046FFF7D3FBE80508D5300606D5A8
:103AB00021686FF4807008612046FFF7C7FB680635
:103AC00008D5700606D521686FF0400008612046D1
:103AD00000F0F2F9A8060AD5B00608D521686FF003
:103AE000200008612046BDE8F041FFF7B1BBBDE80A
:103AF000F081000030B587B0044614216846FCF719
:103B00003BFC206800212C4C02222C4BA04211D1FE
:103B1000186840F008001860186800F00800059068
:103B20004FF470400090CDE90121CDE90312244803
:103B3000694613E0234D0324A84213D1186840F0CE
:103B400004001860186800F004000590200200903E
:103B5000CDE90121CDE903141B486946FEF7ECFBD2
:103B600007B030BD194DA84210D1186840F01000C0
:103B70001860186800F01000059060200090CDE9F2
:103B80000121CDE9031412486946E7E7114CA04230
:103B9000E6D1186840F002001860186800F00200D2
:103BA0000590E00000900920CDE90121CDE9031046
:103BB00009486946D2E7000000080040303802405A
:103BC000000C024000040140000802400040014097
:103BD000001002400018004000040240704770B519
:103BE000044690F83C0000260D4601280BD0012029
:103BF00084F83C000C2A4AD007DC82B1042A20D089
:103C0000082A06D131E0022070BD102A53D0142AB0
:103C100063D00126002084F83C00304670BD206847
:103C200001F012FE2068816941F00801816120687D
:103C3000816921F004018161206881692A69114349
:103C400011E0206801F034FE2068816941F40061D0
:103C500081612068816921F48061816120688169C6
:103C60002A6941EA02218161D4E7206801F05AFE05
:103C70002068C16941F00801C1612068C16921F073
:103C80000401C1612068C1692A69114311E02068FB
:103C900001F080FE2068C16941F40061C1612068C3
:103CA000C16921F48061C1612068C1692A6941EA62
:103CB0000221C161AEE7206801F098FE2068416DE5
:103CC00041F0080141652068416D21F00401416522
:103CD0002068416D2A69114311E0206801F0AEFEB1
:103CE0002068416D41F4006141652068416D21F417
:103CF000806141652068416D2A6941EA0221416580
:103D000088E710B5040003D094F83D0010B107E037
:103D1000012010BD002084F83C00204600F022F86D
:103D2000022084F83D002068211D01F005FD0120DE
:103D300084F8480084F83E0084F83F0084F840008E
:103D400084F8410084F8420084F8430084F8440079
:103D500084F8450084F8460084F8470084F83D0064
:103D6000002010BD08B500680B49884212D10B48ED
:103D7000016841F04001016000680022052100F067
:103D8000400000902B20FEF7B9FCBDE808402B2036
:103D9000FEF7A6BC08BD00000018004040380240F5
:103DA0007047000010B5044669B104290ED00829F7
:103DB0000FD00C2910D0102911D094F843000128FD
:103DC00010D0012010BD94F83E00F8E794F83F00B1
:103DD000F5E794F84000F2E794F84100EFE794F833
:103DE0004200ECE70220E9B304293FD0082940D083
:103DF0000C2941D0102942D084F8430001222068C8
:103E000001F002FD1F4920681F4A884201D09042FC
:103E100003D1436C43F4004343642068884213D0C9
:103E2000B0F1804F10D0194988420DD0184988420E
:103E30000AD01849884207D0904205D016498842D6
:103E400002D01649884207D18168154A11400629D7
:103E500006D0B1F5803F03D0016841F00101016057
:103E6000002010BDFFE784F83E00C7E784F83F005C
:103E7000C4E784F84000C1E784F84100BEE784F855
:103E80004200BBE700000140000401400004004084
:103E900000080040000C00400040014000180040B5
:103EA0000700010000680349884201D1FEF752BBB8
:103EB0007047000000200040704710B50446D0F85D
:103EC0008000202801D0022010BD51B14AB101204C
:103ED000206600206066204602F06CFA010002D0E5
:103EE00005E0012010BD206E012802D00121084606
:103EF00010BD226810201062206850E8002F42F0A8
:103F0000100240E80023002BF6D1F0E710B50C4674
:103F10000B49884213D10B48E1B2FDF78DFB0949EB
:103F20002246074800F036FC06490A220448FFF7FB
:103F3000C4FF05480068016821F00801016010BD58
:103F4000FC150020845B00202C19002070B504466D
:103F5000C06FD4F88060216889684FF010050906A9
:103F600018D5212816D12068083050E8001F21F00C
:103F7000800140E80012002AF5D1206F38B1FDF72A
:103F8000F7FF20B1206FFEF74EF8202821D0204601
:103F900002F02CF820688068400618D5222E16D131
:103FA0002068083050E8001F21F0400140E800126E
:103FB000002AF5D1606F38B1FDF7DAFF20B1606FEC
:103FC000FEF731F8202804D0204601F0E9FF002058
:103FD00070BDC4F88450032070BD70472DE9F041D6
:103FE00003680446D86919689A6840F60F052842A4
:103FF0004FF000054FF0020605D182067ED58A06F5
:104000007CD5A16E24E1DFF878C202F0010701EA55
:104010000C0C57EA0C0C71D05FEAC07C0CD05FEA44
:10402000C15C09D54FF0010CC3F820C0D4F884302E
:1040300043F00103C4F88430830709D5D30707D0C0
:1040400023681E62D4F8843043F00403C4F884303B
:1040500043070AD5D20708D0236804221A62D4F88D
:10406000842042F00202C4F8842002070CD501F03B
:1040700020023A4308D0236808221A62D4F8842028
:1040800042F00802C4F8842002050BD54A0109D584
:1040900023684FF400621A62D4F8842042F02002B0
:1040A000C4F88420D4F88420002A36D0800605D5B0
:1040B000880603D5A16E09B120468847D4F884004C
:1040C00021688968490602D410F0280F27D02046BD
:1040D00001F066FF2068806840061BD52068083024
:1040E00050E8001F21F0400140E80012002AF5D1FD
:1040F000606F78B163490165606F00E015E0FDF71E
:1041000080FF002809D0606F016D00E02046BDE807
:10411000F04108472046FFF760FFBDE8F0812046E8
:10412000FFF75BFFC4F88450F7E7276E2022012FCA
:104130007ED1C7067CD5CF067AD5102018622068BC
:104140008068400650D5636F186840684FF48077E8
:104150000004000C3CD0B4F85810814238D9A4F8BF
:104160005A00D869B8422BD0206850E8001F21F4CB
:10417000807140E80013002BF6D12068083050E829
:10418000001F21F0010140E80013002BF5D1206849
:10419000083050E8001F21F0400140E80013002BD8
:1041A000F5D1C4F880202566206850E8001F21F072
:1041B000100140E80012002AF6D1606FFDF7D8FE2A
:1041C0006666B4F85800B4F85A10401A81B207E095
:1041D000B4F858108142A0D1D869B8429DD1666622
:1041E0002046FFF793FE98E7B4F85800B4F85A1049
:1041F000401A81B2B4F85A0000288ED000298CD021
:10420000206850E8003F23F4907340E80037002F07
:10421000F6D12068083050E8003F23F0010340E861
:104220000037002FF5D1C4F880202566A56600E090
:1042300009E0206850E8002F22F0100240E8002337
:10424000002BF4D1CBE7030606D50B0604D5E16EAF
:1042500000297FF45BAF60E74006C4D54806C2D5AD
:104260002046016851E8003F23F0400341E8003454
:10427000002CF6D1C267C56600F0D2FA4DE7000007
:10428000200100041D5E000810B5040002D0E06F9C
:1042900010B107E0012010BD002084F8780020460E
:1042A00000F026F82420E0672068016821F0010171
:1042B0000160606A10B1204601F01EFD204601F049
:1042C0005FFF0128E7D02068416821F490414160F8
:1042D0002068816821F02A0181602068016841F02E
:1042E000010101602046BDE8104001F069BD0000F9
:1042F0002DE9F04FA7B00446142121A8FCF73CF8A3
:1043000084216846FCF738F8CC4D0227CA490326B9
:104310002068103DDFF824934FF4806B88424FF003
:10432000080A4FF0000860D14015CDF85080009089
:104330006846FEF74BFA08B1FDF7E8FAD9F8001025
:1043400041F40021C9F80010D9F8000000F4002061
:104350002690286840F004002860286823AA454673
:1043600000F0040026904FF44060CDE9210782E878
:104370006004B34821A9FDF7DFFFB34E4FF000689A
:10438000B0485F4630604FF40030C6E90185C6E9A9
:10439000035B7561B561C6E9075030467562FDF78C
:1043A00015FF08B1FDF7B2FA6667B463A64EA548DB
:1043B00060363030E6E80208402086E8A100F5606B
:1043C0003561A1487561B5616030F561083EFDF762
:1043D000FDFE08B1FDF79AFA266700220521B463B5
:1043E0003420FEF78BF9342041E09849884243D1CC
:1043F0006846CDF800B0CDF85480FEF7E7F908B173
:10440000FDF784FAD9F8001041F48011C9F80010C2
:10441000D9F8000000F480102690286840F00400CD
:104420002860286800F004002690286840F0080002
:104430002860286821A9544600F0080026904FF40F
:10444000805081E881017E48CDE9246AFDF774FF40
:1044500021A9042081E881017D48CDE92464FDF78C
:104460006BFF002205213520FEF748F93520FEF7C5
:1044700037F927B0BDE8F08F764988422DD18014F6
:10448000CDF85C8000906846FEF7A0F908B1FDF712
:104490003DFAD9F8001041F08041C9F80010D9F870
:1044A000000000F080402690286840F0100028604E
:1044B000286821A900F0100026904FF4C07081E810
:1044C00081016548CDE9246AFDF736FF0022052108
:1044D0005220FEF713F95220C9E7604988422BD1D8
:1044E0004014CDF8608000906846FEF76FF908B17F
:1044F000FDF70CFAD9F8001041F00041C9F800109E
:10450000D9F8000000F000402690286840F0100024
:104510002860286821A900F0100081E8C0012496D5
:10452000CDE925A04C48FDF707FF002205215320C7
:10453000FEF7E4F853209AE749494FF0070A88420A
:104540002CD14020CDF8448000906846FEF73EF91B
:1045500008B1FDF7DBF93948001D016841F0100191
:104560000160006800F010002690286840F001000B
:104570002860286821A900F0010026904FF4C0604F
:1045800081E881013748CDE9246AFDF7D5FE002294
:1045900005212520FEF7B2F8252068E73249884238
:1045A0007FF467AF8015CDF84C8000906846FEF729
:1045B0000DF908B1FDF7AAF9D9F8001041F48021EE
:1045C000C9F80010D9F8000000F48020269028686F
:1045D00040F002002860286821A900F0020026901F
:1045E0004FF44060CDE92107CDF894A047461F481D
:1045F000CDE92386FDF7A0FE134D1248C0351838CB
:1046000028604FF00060C5E901078012C5E9037B0F
:104610006F61AF61C5E9077028466F62FDF7D6FD8F
:1046200008B1FDF773F9656700220521AC63272007
:10463000FEF764F827201AE7004C0040403802409B
:1046400000080240406002402C1900200050004049
:10465000000C02400078004000100240007C004046
:1046600000100140000002400048004000040240E9
:1046700030B4D0F88030202B02D0022030BC7047FC
:1046800091B18AB10023036603685B681B0208D5F9
:10469000036853E8004F44F0806443E80045002D70
:1046A000F6D130BC01F086BE0120E7E730B4D0F887
:1046B0008030202B02D0022030BC704791B18AB1EB
:1046C0000023036603685B681B0208D5036853E890
:1046D000004F44F0806443E80045002DF6D130BC23
:1046E00001F0B8BE0120E7E7704770472DE9F843B5
:1046F0000446C06F1F4615460E46202802D00220F1
:10470000BDE8F8839EB195B10020C4F88400212053
:10471000E067FDF719FFA4F850508146A4F8525005
:104720004FF02008A068B0F5805F02D003E00120C0
:10473000E6E7206910B13546002610E000250EE0BE
:104740008021204601F0E2FEB8B9D5B115F8010B81
:1047500021688862B4F85200401EA4F85200B4F8F0
:1047600052004B464FF0000200970028E8D14FF06E
:104770004001204601F0CAFE40B1C4F87C8003200D
:10478000BEE736F8020BC0F30800E1E7C4F87C800E
:104790000020B5E770B50446C06F202801D0022084
:1047A00070BD29B322B3E164A4F85020A4F85220CC
:1047B0000021C4F884102120E067206FD0B1154B90
:1047C000C363236F14481864236F1448D8641346D6
:1047D000206F01652068256F00F12802E16C2846F2
:1047E000FDF75CFD30B11020C4F884002020E067A4
:1047F000012070BD2168402008622068083050E820
:10480000001F41F0800140E80012002AF5D100208D
:1048100070BD0000555F0008975F00082D5E00081E
:1048200070477047FEE700002DE9F041204D00245D
:104830000E4607464FF0FF382DED028B86B0DFEDB8
:104840001B8AB0EE688A142005F08EF8E868B8B1CB
:10485000414605F0E1FE012812D1164914226846AE
:10486000FBF763FD0023E8681A46194605F070FD62
:104870009DED000A70EE288A9DED020A30EE088A4E
:10488000641CE4B20A2CDED3B2EE041A88EE810A6C
:10489000C8EE010A0FB187ED000A002E01D0C6ED67
:1048A000000A06B0BDEC028BBDE8F08100000000FC
:1048B000F0000020E0590020FEB59FED2E0A0023F5
:1048C00015468DED010A0A460446184619464FF072
:1048D000010C8DF8083012E027880CFA01FE17EA67
:1048E0000E0F0AD02788401CC0B201F1010E0CFA4D
:1048F0000EF6374201D15B1CDBB2491CC9B29142B2
:10490000EAD363732073194602F076FD28B10120C3
:10491000FFEE000ABFEE000A28E002A8294601AB1C
:104920000090204605F0E0F9B0EE401AB5EEC01A4E
:10493000F1EE10FAEBDBB0EE410A04F037FB002891
:104940009DF80800DDED011A00EE100AB8EE400AED
:10495000C1EE800AB0EE410ACDED010AC4ED010AB4
:10496000D4ED010A01D0002000E0022001F0E6FEB3
:104970000020FEBD000000007FB526480021244A2B
:1049800001240091042501910291039102604FF4EA
:10499000803204618461C0E901211F4A80F820103F
:1049A000C0E90A21C561C16080F830404461FDF76B
:1049B00024F908B1FCF7AAFF0226009615486946BB
:1049C000CDE90145FDF734F808B1FCF79FFF03245A
:1049D0001048CDE900466946FDF72AF808B1FCF712
:1049E00095FF0E206946CDE900040A48FDF720F83E
:1049F00008B1FCF78BFF0F206946CDE9000505489B
:104A0000FDF716F8002801D0FCF780FF7FBD0000FD
:104A100000200140A81200200100000F194808B52D
:104A2000016841F480010160016801F48001009196
:104A3000016841F40011016000680022052100F4C2
:104A4000001000900C20FDF759FE0C20FDF748FEE9
:104A5000002205210D20FDF751FE0D20FDF740FE3F
:104A6000002205210F20FDF749FE0F20FDF738FE3B
:104A7000002205213820FDF741FEBDE8084038201E
:104A8000FDF72EBE3038024000B587B006491C2223
:104A90006846FBF74AFC0021684604F025F9034903
:104AA000086007B000BD000004AF0008000000204F
:104AB000F0B587B014216846FBF75EFC3B480168FF
:104AC00041F010010160016801F0100105910168D9
:104AD00041F004010160016801F0040105910168E1
:104AE00041F080010160016801F0800105910168D9
:104AF00041F001010160016801F0010105910168C7
:104B000041F002010160016801F0020105910168B4
:104B100041F00801016000684FF40045244E002276
:104B200000F00800294605903046FDF708FD214FAA
:104B3000002240213846FDF702FD00244CF20C0013
:104B400069460294CDE900041B48FDF7F5FB6810A7
:104B50006946CDE9000430460294FDF7EDFB00956F
:104B60000125CDE90154694630460394FDF7E4FB85
:104B700041F2F0106946CDE9000410480294FDF7B7
:104B8000DBFB40F6BB406946CDE9000438460294A1
:104B9000FDF7D2FB40200090CDE90154694638462C
:104BA0000394FDF7C9FB07B0F0BD000030380240A8
:104BB00000100240000C02400008024000040240C5
:104BC0000C4845F25F420A4910B5016042F20F718C
:104BD00041600021C0E90212016180218161FEF77C
:104BE000D1FB002803D0BDE81040FCF78FBE10BDFC
:104BF000004801406415002010B588B01C216846AB
:104C0000FBF7BAFB164800241449C0E9001442F629
:104C10002F21C0E90241046180218161FFF771F811
:104C200008B1FCF773FE60206946CDE900040C482A
:104C3000002202940494FEF7D2FF08B1FCF766FE4E
:104C4000074804226946FEF7CAFF08B1FCF75EFE7A
:104C50000348FEF74FFF08B010BD000000180040E9
:104C6000B015002010B58CB024216846FBF784FBFA
:104C700018480024164909940A940B94C0E90014BA
:104C80004FF6FF71C0E9024180210461C0E905418E
:104C900003200494CDE9000401206946CDE9020413
:104CA000CDE905400B4807940894FEF707FD08B1CD
:104CB000FCF72CFE074809A909940A940B94FEF707
:104CC0000FFB002801D0FCF721FE0CB010BD000046
:104CD000000001405013002010B58CB0242168461C
:104CE000FBF74AFB164800244FF0804109940A94D0
:104CF0000B94C0E900144FF6FF71C0E90241802116
:104D0000046181610320CDE9000401200494CDE910
:104D100002046946CDE90540094807940894FEF766
:104D2000CDFC08B1FCF7F2FD054809A909940B94E4
:104D3000FEF7D6FA002801D0FCF7E8FD0CB010BD54
:104D40009C13002010B58CB024216846FBF714FB9F
:104D500017480024154909940A940B94C0E90014DB
:104D60004FF6FF71C0E90241802104618161032097
:104D7000CDE9000401200494CDE902046946CDE99F
:104D800005400B4807940894FEF798FC08B1FCF71F
:104D9000BDFD074809A909940B94FEF7A1FA002864
:104DA00001D0FCF7B3FD0CB010BD000000040040C2
:104DB000E813002010B58EB0002468461C2107942B
:104DC000089409940A940B940C940D94FBF7D4FA6C
:104DD0002A482949C0E9001442F62F21C0E90241BE
:104DE000046180218161FEF7CDFA08B1FCF78EFDE8
:104DF0004FF480500790214807A9FEF7EFFB08B158
:104E0000FCF784FD1D48FEF77CFF08B1FCF77EFD32
:104E10001A480BA90B940D94FEF762FA08B1FCF73F
:104E200075FD60206946CDE9000414480022029413
:104E30000494FEF7D4FE08B1FCF768FD0F48042285
:104E40006946FEF7CCFE08B1FCF760FD0B4808226E
:104E50006946FEF7C4FE08B1FCF758FD07480C226E
:104E60006946FEF7BCFE08B1FCF750FD0348FEF7AB
:104E700041FE0EB010BD00000008004034140020B8
:104E800010B58CB024216846FBF776FA1748002449
:104E9000154909940A940B94C0E900144FF6FF7168
:104EA000C0E902418021046181610320CDE9000451
:104EB00001200494CDE902046946CDE905400B4880
:104EC00007940894FEF7FAFB08B1FCF71FFD0748AA
:104ED00009A909940B94FEF703FA002801D0FCF706
:104EE00015FD0CB010BD0000000C00408014002027
:104EF00010B59AB000241C2117940BA8189415948F
:104F00001694129413941494FBF736FA2C216846E5
:104F1000FBF732FA2F482E49C0E9001442F62F2140
:104F2000C0E9024180210461C0E90541FEF72AFA87
:104F300008B1FCF7EBFC4FF480501590254815A9FB
:104F4000FEF74CFB08B1FCF7E1FC2248FEF7D9FE66
:104F500008B1FCF7DBFC1F4812A9129413941494B7
:104F6000FEF7BEF908B1FCF7D1FC6020CDE90B04D7
:104F7000184808220BA90D940E940F9410941194C4
:104F8000FEF72DFE08B1FCF7C1FC12480C220BA95C
:104F9000FEF725FE08B1FCF7B9FC4FF40050009471
:104FA000019469460294CDE90440000303940694F9
:104FB000CDE90740074809940A94FEF74BF908B178
:104FC000FCF7A4FC0348FEF795FD1AB010BD0000E5
:104FD00000040140CC14002010B58CB000246846B9
:104FE0001C210794089409940A94FBF7C5F91E48FC
:104FF0001C49C0E9001442F62F21C0E902410461B6
:1050000080218161FEF7BEF908B1FCF77FFC4FF407
:1050100080500790144807A9FEF7E0FA08B1FCF7A2
:1050200075FC1148FEF76DFE08B1FCF76FFC6020BF
:105030006946CDE900040C48002202940494FEF76E
:10504000CEFD08B1FCF762FC074804226946FEF772
:10505000C6FD08B1FCF75AFC0348FEF74BFD0CB047
:1050600010BD000000400140181500200D480C2222
:105070000B4910B501604FF4E131416000218160BE
:10508000C160C0E904128161C16101624162FFF740
:10509000FBF8002803D0BDE81040FCF737BC10BD7A
:1050A000004C0040FC1500200D480C220B4910B5A7
:1050B00001604FF4E131416000218160C160C0E9CD
:1050C00004128161C16101624162FFF7DDF80028CD
:1050D00003D0BDE81040FCF719BC10BD00500040E3
:1050E000841600200D480C220B4910B501604FF4C6
:1050F000E131416000218160C160C0E90412816139
:10510000C16101624162FFF7BFF8002803D0BDE82A
:105110001040FCF7FBBB10BD007800400C170020CE
:105120000D480C220B4910B501604FF41651416037
:1051300000218160C160C0E904128161C161016226
:105140004162FFF7A1F8002803D0BDE81040FCF74A
:10515000DDBB10BD007C0040941700200D480C22E0
:105160000B4910B501604FF4E131416000218160CD
:10517000C160C0E904128161C16101624162FFF74F
:1051800083F8002803D0BDE81040FCF7BFBB10BD7A
:10519000001001401C1800200D480C220B4910B5CE
:1051A00001604FF4E131416000218160C160C0E9DC
:1051B00004128161C16101624162FFF765F8002854
:1051C00003D0BDE81040FCF7A1BB10BD0048004073
:1051D000A4180020024901220248FFF767BA000024
:1051E0000901002084160020FEE7000070B5344C51
:1051F00005284FF07E552DED048BB0EE609AB0EE91
:10520000408ADFED2E9A38EE490AF0EEC08A18D2B5
:10521000DFE800F04C2D0B031D00BDEC048BB0EE5D
:10522000410ABDE8704000F023BD264880ED001A19
:10523000022003F033FE18EE900AA84204DDC4ED0C
:10524000029ABDEC048B70BD84ED028AF9E71E481A
:1052500080ED011A042003F021FE18EE900AA84206
:1052600002DDC4ED039AECE784ED038AE9E701204F
:1052700003F014FEBDEEC88A012018EE101A03F0E8
:1052800005FC022018EE101A03F000FCBDEEC98ADE
:10529000032018EE101A03F0F9FB18EE101ABDECFB
:1052A000048B0420BDE8704003F0F0BB002003F045
:1052B000F5FD84ED008A84ED019AC2E7000000004C
:1052C00074000020F40D0020400E0020FEE70000D6
:1052D00006490A22064810B5FEF7EFFD05480068AA
:1052E000016821F00801016010BD0000845B00200E
:1052F000FC1500202C1900204FF4FA7310B5C0B132
:10530000012822D002282AD0032840F27E444FF4FC
:1053100096722DD0042849D1032945D0042945D1BE
:1053200019460C2003F08EFCC820BDE8104004F0A4
:105330001BBB1A4631B14FF46B71022003F082FCA3
:105340000220F2E74FF4C861F7E74FF0C80219B145
:1053500040F2ED310E20F1E740F6C411FAE74FF0CC
:10536000C80219B140F25D710F20E7E71946FBE76B
:1053700051B101290AD002290DD003290FD00429E7
:1053800014D1C82219460DE0214602E0642240F201
:105390002F310120D2E7C82240F2DC5102E0C822BE
:1053A00040F698010020BDE72146BAE710BD000095
:1053B000144910B568B1012822D108701248FCF7D1
:1053C000A3FC10490422BDE810400F48891CFCF7DB
:1053D00015BD002008700D48FCF7CAFD0A48FCF70F
:1053E000A9FD0B4900200B4A01EB800393ED000A55
:1053F00002EB8003401CC0B2102883ED000AF3D3F7
:1054000010BD000036010020A8120020F01200207C
:1054100070BD0008445C002010B52DED028BB0EE8D
:10542000408A02F097F838EE401A234A234CB0EE37
:10543000C11A11EE100A9FED1F1AB0F1804F0BDA5E
:1054400084ED011A84ED001A82ED041A012082ED28
:10545000001ABDEC028B10BDF0EE480A03F01EFCF2
:1054600082ED020A1649144882ED061A03F0C4FDC3
:10547000D4ED050AF4EEC00AF1EE10FA02D894ED6C
:10548000050A0CE0D4ED050AF1EE600AF4EEC00A5C
:10549000F1EE10FA03DB94ED050AB1EE400ADFED00
:1054A000090A84ED000A002020EE200A84ED010A9A
:1054B000CFE70000000000007059002074000020B9
:1054C000005900206666A6BF04F040F900F02AF8F3
:1054D000002004F0BFFA4FF47A7403A001F058F9E9
:1054E000204603F0F5FBF8E764656C65746520669B
:1054F00061696C656400000010B504F089F9FFF77C
:10550000E7FE03F017FA03F085FB01F06FFE044895
:10551000006804F09FFABDE8104004F09DB9000057
:10552000D8000020054920201CB50023C200CDE989
:105530000001064802A105F071F91CBDD800002049
:1055400053746172745F7461736B0000F9540008E6
:10555000502010B572B680F31188BFF34F8FBFF3A0
:105560006F8F62B605F042FA18B104494FF08050CF
:105570000860002080F3118810BD000004ED00E0F9
:1055800010B592B030216846FAF7F6FE14210CA847
:10559000FAF7F2FE1F48016841F08051016000688F
:1055A00000F0805011901C48016841F440410160B6
:1055B0000068022400F44040119001200090000493
:1055C00001908001CDE9064004200890D820CDE963
:1055D000090468460B94FDF783FC08B172B6FEE738
:1055E000FDF7BEF808B172B6FEE70F20CDE90C0456
:1055F00000200E904FF4A0500F904FF48050109068
:1056000007210CA8FDF75EFB002801D072B6FEE76B
:1056100012B010BD403802400070004002480168DE
:1056200041F470010160704788ED00E0044810B556
:10563000FEF7BAF9BDE810400248FEF7B5B9000020
:1056400050130020181500200148FEF7ADB90000E6
:1056500050130020044810B5FEF7A6F9BDE810402D
:105660000248FEF7A1B90000501300206415002085
:105670000148FEF799B90000501300200148FEF7D9
:1056800093B900009C1300200148FEF78DB900007B
:10569000E81300200148FEF787B900003414002009
:1056A00010B50E4C2068C068C043C0070CD10C492F
:1056B0000878401CC0B20870642805D90020087022
:1056C00008480121FCF733FF21686FF001000861F1
:1056D000BDE810400148FEF767B90000AC5B002050
:1056E0003501002000080240044810B5FEF75CF9BF
:1056F000BDE810400248FEF757B90000CC14002066
:10570000B01500200148FEF74FB90000CC1400206E
:10571000044810B5FEF748F9BDE810400248FEF70E
:1057200043B90000CC1400204C1A00200148FEF7B9
:105730003BB90000CC140020F0B502684FF0804E59
:10574000264D274E274FA842DFF89CC0274B09D093
:10575000704507D0B04205D0B84203D0604501D0B3
:10576000984203D122F070044A682243A8421BD019
:10577000704519D0B04217D0B84215D0604513D04B
:10578000984211D01A4CA0420ED01A4CA0420BD015
:10579000194CA04208D0194CA04205D0184CA04288
:1057A00002D0184CA04203D122F44074CA682243AC
:1057B0004C6922F0800222438C68C4620C688462C7
:1057C000A84201D0984201D109690163016841F002
:1057D00004010160012141610260F0BD000001404F
:1057E0000004004000080040000C0040000401409C
:1057F00000400140004401400048014000180040C2
:10580000001C004000200040012301F01F0110B5E2
:10581000046A8B409C430462036A8A401343036218
:1058200010BD10B5846842EA03220A4324F47F4481
:105830002243826010BD826822F070020A4342F067
:105840000701816070470000F0B5056A026A22F026
:10585000010202624268836925F00205114C124E72
:1058600023400C6823F00303104F1C438B682B4329
:10587000B04201D0B84205D1CD6823F008031D43E2
:1058800025F00403B04201D0B84205D14D6922F49D
:10589000407215438A692A434260846149684163C2
:1058A0000362F0BD8FFFFEFF0000014000040140D5
:1058B000F0B5056A026A22F010020262426883694A
:1058C000154C174E23400C6823F4407343EA04241C
:1058D00025F020038D6843EA0513104DA84201D03E
:1058E000B04206D1CF6823F0800343EA071323F0C8
:1058F0004003A84201D0B04207D14D6922F4406272
:1059000042EA85028D6942EA850242608461496803
:1059100081630362F0BD0000FF8FFFFE00000140C5
:1059200000040140F0B5056A026A22F48072026246
:105930004268C369144C164E23400C6823F00303DD
:105940001C4325F400738D6843EA05230F4DA842DC
:1059500001D0B04206D1CF6823F4006343EA0723A5
:1059600023F48063A84201D0B04207D14D6922F4EC
:10597000405242EA05128D6942EA05124260C46152
:105980004968C1630362F0BD8FFFFEFF0000014064
:105990000004014030B5046A026A22F480520262B7
:1059A0004268C36924F400540D4D2B400D6823F464
:1059B000407343EA05238D6844EA0534094DA84243
:1059C00002D0094DA84204D14D6922F4804242EA36
:1059D00085124260C36149680164046230BD000001
:1059E000FF8FFFFE000001400004014030B5056A52
:1059F000026A22F4803202624268436D0C4C2340FA
:105A00000C681C4325F400330D8943EA0543094D16
:105A1000A84202D0084DA84204D14D6922F4803238
:105A200042EA05224260446549688165036230BDEF
:105A30008FFFFEFF000001400004014030B5046A02
:105A4000026A22F4801202624268436D24F4001458
:105A50000C4D2B400D6843EA05230D8944EA05549B
:105A6000094DA84202D0094DA84204D14D6922F443
:105A7000802242EA8522426043654968C16504622A
:105A800030BD0000FF8FFFFE000001400004014018
:105A900010B5046A036A23F001030362836923F0EB
:105AA000F00343EA0213836124F00A020A4302620C
:105AB00010BD10B5036A046A24F0100404628469FE
:105AC00023F0A00343EA011124F4704444EA0232B3
:105AD0008261016210BD0000294810B59FED291AAE
