:020000040800F2
:10000000E85D0020A502000819470008853D0008AA
:10001000354600087D0B00089D5B000800000000CD
:10002000000000000000000000000000E1010008E6
:100030003D0E0008000000003D0200089549000840
:10004000BF020008BF020008BF020008BF0200088C
:10005000BF020008BF020008BF020008BF0200087C
:10006000BF020008BF020008BF020008750D0008AB
:10007000810D0008BF020008BF020008BF0200088F
:10008000BF020008BF020008BF020008BF0200084C
:10009000BF020008BF020008BF020008BF0200083C
:1000A000714A0008B54A0008994A00088D4A0008BC
:1000B000C14A0008CD4A0008D94A0008BF0200081A
:1000C000BF020008BF020008BF020008BF0200080C
:1000D000BF020008BF020008B9590008BD59000856
:1000E000BF020008BF020008BF0200082D4B000835
:1000F000614B0008454B0008394B0008BF0200085F
:10010000BF020008BF020008BF020008BF020008CB
:10011000BF02000819510008BF020008E54A0008A4
:100120008D0D0008BF020008BF020008BF020008D2
:10013000BF020008BF020008BF020008BF0200089B
:10014000BF020008BF020008BF020008BF0200088B
:10015000BF020008BF020008BF020008BF0200087B
:10016000BF020008BF020008BF020008BF0200086B
:10017000BF020008BF020008BF020008BF0200085B
:10018000BF020008BF020008BF0200085951000862
:10019000BF020008BF020008BF020008BF0200083B
:1001A000BF020008BF020008BF020008BF0200082B
:1001B000BF020008BF020008BF020008BF0200081B
:1001C000BF020008BF020008DFF810D000F0A0FB5B
:1001D0000048004781790008AFF30080E85D002007
:1001E0002D4B19680868B0E8F04F80F30988BFF319
:1001F0006F8F4FF0000080F31188704700000000FF
:1002000008480068006880F308884FF0000080F319
:10021000148862B661B6BFF34F8FBFF36F8F00DFF4
:1002200000BF00BF08ED00E0DFF80C00016841F4FA
:1002300070010160704700BF88ED00E0EFF30980B6
:10024000BFF36F8F144B1A681EF0100F08BF20ED1C
:10025000108A20E9F04F106009B44FF0500072B6D8
:1002600080F31188BFF34F8FBFF36F8F62B608F032
:1002700071FE4FF0000080F3118809BC196808680E
:10028000B0E8F04F1EF0100F08BFB0EC108A80F3FA
:100290000988BFF36F8F704718000020EFF30580C7
:1002A000704700000648804706480047FEE7FEE723
:1002B000FEE7FEE7FEE7FEE7FEE7FEE7FEE7FEE716
:1002C000614A0008C90100082DE9F05F05460020D9
:1002D00092469B4688460646814640241BE02846B7
:1002E00041464746224600F098F953465A46C01AFE
:1002F000914110D311461846224600F07FF92D1A7D
:1003000067EB01084F4622460120002100F076F9F4
:1003100017EB00094E41201EA4F10104DFDC484622
:1003200031462A464346BDE8F09F10B5431A934232
:1003300009D28318881803E010F8011D03F8011D85
:10034000521EF9D210BD40EA01039B0703D009E019
:1003500008C9121F08C0042AFAD203E011F8013BB1
:1003600000F8013B521EF9D210BDD2B201E000F8F4
:10037000012B491EFBD270470022F6E710B5134649
:100380000A4604461946FFF7F0FF204610BD2DE946
:10039000FE4F81EA030404F0004421F00041009480
:1003A0004FF0000B23F0004350EA01045ED052EA04
:1003B00003045BD0C3F30A54C1F30A552C44A4F2DE
:1003C000F3340194A0FB0254C1F3130141F48011F2
:1003D000C3F3130343F4801301FB024400FB034EF9
:1003E000840A970A44EA815447EA8357A4FB0768C2
:1003F00002958D0A05FB07854FEA932C04FB0C54EC
:100400002705029D4FEA065847EA1637B5EB08055F
:100410006EEB070C870E920E47EA811742EA8312B1
:10042000A7FB0201B6EB0B0164EB00042B0D43EAC2
:100430000C335E1844EB1C50DA465146E7FB0201D0
:10044000C5F313044FEA0B3343EA14534FEA043263
:10045000019C43EA0603A4F10C040294009CCDE93C
:1004600000B400F030F903B0BDE8F08F0020014681
:10047000F9E72DE9F04D81EA030404F0004B21F087
:10048000004514464FF0000A23F0004150EA0502EF
:1004900020D054EA01021DD0C5F30A570246C5F325
:1004A0001303C1F31300C1F30A5640F4801543F45B
:1004B0008013A7EB0608101BD64608F2FD3873EB35
:1004C000050002D308F1010801E092185B41B8F180
:1004D000000F03DA00200146BDE8F08D00204FF444
:1004E0008011064684460EE0171B73EB050705D303
:1004F000121B63EB050306434CEA010C49084FEA63
:10050000300092185B4150EA0107EDD152EA030036
:1005100012D082EA040083EA0501084305D0101BCB
:10052000AB4106D20122002306E000224FF0004337
:1005300002E06FF0010253101AEB06004CEB085179
:1005400010EB0A0041EB0B01BDE8F04D00F0ACB838
:100550000EB5C10F80EAE0700844CA07002140F2DE
:1005600033438DE80E000A460B4600F0ACF803B0AA
:1005700000BD00F0004230F000400AD0C10D01F58E
:100580006071C0F3160042EA0151C20840071143EE
:10059000704700200146704701F0004330B421F05D
:1005A000004150EA010206D00A0DA2F56072C1F3C3
:1005B0001301002A02DC30BC00207047440F44EADB
:1005C000C104C100E01830BC00EBC25000F035B8E7
:1005D00030B50B46014600202022012409E021FA13
:1005E00002F59D4205D303FA02F5491B04FA02F510
:1005F0002844151EA2F10102F1DC30BD202A04DBE3
:10060000203A00FA02F1002070479140C2F1200325
:1006100020FA03F3194390407047202A04DB203A64
:1006200021FA02F00021704721FA02F3D040C2F112
:10063000200291400843194670470029A8BF70471F
:10064000401C490008BF20F00100704710B4B0FA08
:1006500080FC00FA0CF050EA010404BF10BC7047A3
:1006600049B1CCF1200421FA04F411FA0CF118BFBD
:10067000012121430843A3EB0C01CB1D4FEA00618C
:100680004FEA102042BF002010BC704700EBC3505F
:1006900010440029A4BF10BC7047401C490008BF8B
:1006A00020F0010010BC704710B5141E73F1000457
:1006B00008DA401C41F1000192185B411A4301D154
:1006C00020F0010010BD2DE9F04D92469B4611B17E
:1006D000B1FA81F202E0B0FA80F220329046FFF7E0
:1006E0008DFF04460F4640EA0A0041EA0B015346DB
:1006F0005A46084313D0114653EA010019D0C8F1F5
:1007000040025046FFF789FF05460E4650465946BF
:100710004246FFF773FF084305D0012004E020465E
:100720003946BDE8F08D0020054346EAE0762C43CB
:1007300037430A986305E40AA0EB08000022FD0A8B
:1007400044EA47540A3002D500200146E9E7010592
:1007500010196941DDE9084500196941BDE8F04D0E
:10076000A2E72DE9FE4F804681EA0300C00F0C4648
:10077000009021F0004123F00045B8EB0200A941B0
:1007800005D24046214690461C460B46024623F0C1
:100790000040104347D0270DC7F30A00C3F30A51A6
:1007A0000290401A019040286BDAC3F3130040F422
:1007B000801B0098924620B10023D2EB030A63EB22
:1007C0000B0B01985946C0F140025046FFF716FF47
:1007D00006460D4650465946019A00F0ABF810EB1C
:1007E00008006141002487EA115284EAE7731A4342
:1007F00040D0009A62B3019A012A4FEA075215DCF1
:10080000001B61EB02014FF0004202EA0752CDE902
:100810000042001C41F5801132462B46FFF753FF82
:1008200003B0BDE8F08F40462146F9E7001B61EBBD
:100830000201001C41F5801300185B412018A2F54D
:10084000001747EB030140EAD570B6196D4111E07E
:100850006D084FEA360645EAC0754FEA0752001B9D
:1008600061EB0201001C41F5801149084FEA30009C
:100870000019514132462B4603B0BDE8F04FFFF757
:1008800013BF0098012240000023D0EB020263EB6B
:10089000E073009821464FEAE074B8EB000061EB8A
:1008A0000401E9E783F000435BE781F0004158E78A
:1008B000C1F30A52C1F3130140F2FF3341F4801136
:1008C0009A4202DA00200146704740F233439A42CE
:1008D000A2F2334202DC5242FFF79FBEFFF78EBE08
:1008E00030B5041E71F1000404DB4FF000444042B7
:1008F00064EB0101141E73F1000405DB1C464FF08C
:100900000043524263EB0403994208BF904230BD5A
:10091000064C074D06E0E06840F0010394E807004C
:1009200098471034AC42F6D3FFF752FC94B000085D
:10093000B4B00008202A06DBCB17203A41FA02F0B7
:1009400043EAE07306E041FA02F3D040C2F120022C
:10095000914008431946704770B58D1810F8014B47
:1009600014F0030201D110F8012B231106D110F865
:10097000013B03E010F8016B01F8016B521EF9D145
:10098000ABB110F8012B04F00C048A1A0C2C03D024
:10099000A2EB84129B1C08E010F8014BA2EB04228E
:1009A000F8E712F8014B01F8014B5B1EF9D5A9429B
:1009B000D4D3002070BD10B50146806B026C12F0DC
:1009C000500F05D0026CD20626D500F0FDFC10BDFC
:1009D000016C41F40071016401688A6812F0405FA3
:1009E00017D18269AAB9CA6A12F4700F02D08A6854
:1009F00052050ED44A6822F020024A60016C21F4AC
:100A000080710164016CC90403D4016C41F00101DF
:100A1000016400F0D7FC10BD806BC26C0846BDE8D5
:100A20001040104710B5806B40210164416C41F0CB
:100A30000401416400F0C8FC10BD10B5806B00F0EB
:100A4000C2FC10BD4A496FF0706210B5D1F8043392
:100A500023F44033C1F80433D1F80433446823430A
:100A6000C1F8043301684B6823F480734B6001685C
:100A700003694C6844EA03234B6001684B6823F028
:100A800040734B60016884684B6823434B60016886
:100A90008B6823F400638B600168C4688B68234310
:100AA0008B60816AD14201688A6822F070628A6034
:100AB00001680DD0836A8A681A438A6001688A686F
:100AC00022F040528A600168C36A8A681A4302E0D1
:100AD0008A6822F040528A6001688A6822F0020225
:100AE0008A60016882698B6843EA42028A6090F8F2
:100AF00020100029016811D01E4A4B6843F400639E
:100B00004B6001684B6823F460434B600168446AA2
:100B10004B6802EB443213434B6003E04A6822F413
:100B200000624A600168144BCA6A22F47002CA6209
:100B30000168848BCA6A03EB04531A43CA620168D2
:100B40008A6822F400728A60016890F830208B680D
:100B500043EA42228A6001688A6822F480628A60DD
:100B6000016840698A6842EA8020886010BD000000
:100B70000020014000E0FFFF0000F0FFFEE7000062
:100B8000F0B50022164D9FED150A01241146867816
:100B9000C1F1070304FA03F73E420FD0867805EB54
:100BA000810797ED001ADE4006F0010300EE903A4F
:100BB000521CD2B2F8EE600A00EE810A491CC9B29A
:100BC0000829E4D33AB100EE902AB8EE601AC0EEDC
:100BD000010AB0EE600A80ED020AF0BD00000000DC
:100BE00068B00008012010B507F082FA002101204A
:100BF00007F01AF80021022007F016F80021032060
:100C000007F012F80021042007F00EF806F0DEFFCE
:100C100003489FED020A80ED000A10BD00000000AD
:100C2000BC00002005F08CFCFFF7DCFF022008F080
:100C300001F8F9E7B5EEC00AF1EE10FA05D2B0EE10
:100C4000C00ADFED020A30EEC00A70470080B143EF
:100C50002DE9F047002542484FF480494FF6FF76D2
:100C60002C46494601F080F83E4F86EAC0362021E6
:100C7000384601F079F886EA80363846B91501F031
:100C800073F886EA40363846102101F06DF886EA9E
:100C900000363846802101F067F8DFF8CC8086EA1C
:100CA000C0268021404601F05FF886EA802638465B
:100CB000402101F059F82D4F86EA40264FF40041BB
:100CC000384601F051F886EA00264046202101F01E
:100CD0004BF886EAC0164046012101F045F886EA45
:100CE00080164046102101F03FF886EA401638464B
:100CF000082101F039F886EA00164046082101F083
:100D000033F886EAC0063846042101F02DF886EA59
:100D100080064046022101F027F886EA400649464F
:100D2000384601F021F81249704008800123002064
:100D30000E8803FA00F73E420AD00E88471C04F1E1
:100D4000010403FA07F21642E4B201D16D1CEDB2C0
:100D5000401CC0B21028EBD34D730C73BDE8F08774
:100D60000010024000040240000C02400008024053
:100D7000D4590020014800F041BD00004417002074
:100D8000014800F03BBD0000A4170020014800F01E
:100D900035BD0000EC12002001681823CAB2103AD9
:100DA000B2FBF3F2054B6FF30901032A9B5CC365A9
:100DB00000D9091D8165084670470000D8A10008C8
:100DC00010B583694FF0C074826A0146002053B1A8
:100DD000B3F5005F15D072B1012A0CD0022A0AD0F7
:100DE000032A09D104E01AB1012A06D0022A03D14C
:100DF000C96AC90100D5012010BDC96AA142FAD053
:100E000010BD002AF7D0012AF2D0022AF3D0032A1B
:100E1000F3D010BD30B50468256825F48025256021
:100E2000046863608368402B036803D0996000689E
:100E3000C26030BD9A600068C16030BD704700007C
:100E40001848002110B502F0A5F91648042102F057
:100E5000A1F9144801F0B4FF1348002102F09AF9F7
:100E60001148042102F096F90F4801F0A9FF0F483C
:100E7000002102F08FF90D48042102F08BF90B4894
:100E800001F09EFF0A48002102F084F9084804217D
:100E900002F080F9064801F093FFBDE810400548D4
:100EA00001F08EBF4C13002098130020E4130020A3
:100EB0007C1400206015002072B6FEE72DE9F04793
:100EC0002DED028B96B09FED738A002414210AA8A1
:100ED000FFF752FA142102A8FFF74EFA00236E4DD5
:100EE0000DF1280918460DF1080819460FAE0F93A9
:100EF000CDF8403001EB410205EB8202177A1FB1B9
:100F0000177A022F04D011E0621C3155D4B20DE0E3
:100F100092ED010A09EB800708EB800C87ED000ACF
:100F200092ED000A401C8CED000AC0B2491C052954
:100F3000E0DB032C04D284424FF07E5219D3FCB183
:100F4000002009E0315C401C01EB410105EB81010F
:100F500091ED010A30EE088AA042F3DB00EE104A60
:100F6000F8EE400A88EE200A16B0BDEC028BBDE810
:100F7000F0872CB1002192461193129311AB61E0DE
:100F8000C8B3012804D00021089308AC09931FE0DE
:100F90009DED0A0AE8E700BF4B1C08EB810514E051
:100FA00008EB830695ED000AD6ED000A30EE600AE4
:100FB000B0EEC00A10EE106A964205DC665C761C44
:100FC0006654E65C761CE6545B1C8342E8DB491CF5
:100FD0008142E1DB00259DF820102A4605E0A35C54
:100FE0008B4201D91946D5B2521C8242F7DB11B1AE
:100FF00009EB85004BE0FFE7B0EE480AB4E700BF1D
:101000004A1C08EB81071AE008EB820C97ED000AF6
:10101000DCED000A30EE600AB0EEC00A10EE10CA35
:10102000D4450BDC13F801C00CF1010C03F801C02E
:1010300013F802C00CF1010C03F802C0521C8242EA
:10104000E2DB491C8142DBDB00279DF844103A4675
:1010500007E000BF13F802C08C4501D96146D7B242
:10106000521C8242F6DB491C8C420ED3002009E060
:10107000315C401C01EB410105EB810191ED010A5E
:1010800030EE088AA042F3DB68E709EB870090EDB9
:10109000000A69E700000000000E002070B5254C32
:1010A0002548264D2DED028BB0EE408A6178007800
:1010B00001B110B1012803D007E0FFF7FFFE02E005
:1010C0001F4890ED020A85ED020A1A481D490830B2
:1010D00090ED000A194885ED060A07F0B1F810EE08
:1010E000100A194984ED010A884202DB9FED170AB4
:1010F00006E010EE100A1649884203D39FED150A48
:1011000084ED010A9FED141AB0EEC80A1348C0EE30
:10111000010A94ED010A20EE800A84ED010A78EEBE
:10112000400A38EE001AC0ED000A80ED011ABDEC4D
:10113000028B70BDF00D00203A0100209C5600206B
:10114000C4590020105600200000C8420000C842C8
:101150000000C8C20000C8C2000048428000002051
:1011600038B500240F485FF0010221464FF47A752C
:1011700030F81130AB42C1F1050302FA03F302D299
:101180002343DCB200E09C43491C0429F0DBC18806
:10119000009183884288018803A004F001FD204665
:1011A00038BD00003C010020256420256420256412
:1011B0002025640D0A00000000B587B014216846A0
:1011C000FFF7DAF80C48016841F01001016000688F
:1011D00000224FF4465100F0100005900120CDE9A7
:1011E0000202CDE900100548694600F099FC002094
:1011F00003F000FB07B000BD303802400010024091
:10120000F8B50025009590F83C20012A1DD0012258
:1012100080F83C20674C0723D6070A68092A22D9A0
:10122000B24220D007680A3A02EB420CFA6803FA8D
:101230000CF39A43FA600A68A24208D102680B7A5A
:10124000D76847EA0363D36024E00220F8BD07684B
:101250000A3A8B6802EB4202D7F80CC0934043EA8B
:101260000C03FB6016E0076802EB420202F01F0C61
:101270003A6903FA0CF39A433A6102680F788B6873
:10128000D2F810C007EB470707F01F07BB4043EA3F
:101290000C0313614A681F23072A16D20768521EDF
:1012A00002EB820C7A6B03FA0CF39A437A630368BD
:1012B0000F790A887F1ED3F834C092B207EB8707F4
:1012C000BA4042EA0C025A632DE007680D2A15D293
:1012D000D21F02EB820C3A6B03FA0CF39A433A6387
:1012E00002680F790B88FF1FD2F830C09BB207EB62
:1012F0008707BB4043EA0C03136314E00D3A02EB8B
:10130000820CFA6A03FA0CF39A43FA6202680F79C4
:101310000B880D3FD2F82CC09BB207EB8707BB4070
:1013200043EA0C03D362244A0368934208D10B6852
:10133000B34205D1D2F8043323F44003C2F8043396
:10134000036893420ED10B68122B0BD1D2F80433F1
:1013500023F40003C2F80433D2F8043343F48003C7
:10136000C2F804330368934220D10B68A34201D032
:10137000112B1BD1D2F8043323F48003C2F80433B9
:10138000D2F8043343F40003C2F804330968A142DD
:101390000CD10A490A4A0968B1FBF2F101EB81015B
:1013A000490000E0491E00910029FBD180F83C5023
:1013B0000020F8BD120000100020014014000020A1
:1013C00040420F0070477047704770B504004FF0FF
:1013D000000503D0206C002610B107E0012070BD8D
:1013E000204600F01DF8666484F83C60206CC0065E
:1013F00010D4206C20F4885040F002002064204675
:10140000FFF720FB6664206C20F0020040F0010032
:10141000206400E0012584F83C60284670BD00008F
:10142000F0B587B0064614216846FEF7A5FF2449AB
:101430003068884242D12348016841F480710160DC
:101440000068204900F4807005901439086840F065
:1014500001000860086800F001000590086840F08D
:1014600004000860086803240025694600F00400B1
:1014700005900C208DE83100134800F051FB30201E
:1014800069468DE83100114800F04AFB104C1148C4
:101490000115C4E900058715A560CB00C4E9035117
:1014A000C2142046C4E907756562C4E9052300F04B
:1014B00075FA08B1FFF700FDB463A66307B0F0BD8D
:1014C0000020014044380240000002400008024071
:1014D000EC1200201064024018B50021009190F831
:1014E0003C20012A07D0012280F83C200268936842
:1014F000DB0702D011E0022018BD94682F4B44F0A6
:10150000010494602E4A1268B2FBF3F202EB42022D
:1015100000E0521E0092002AFBD103689A68D207AD
:1015200041D0026C40F20164A24342F48072026432
:101530005A68520505D5026C22F4005242F48052DA
:101540000264026CD20404D5426C22F006024264AA
:1015500000E041646FF022041A4A80F83C101C60DD
:10156000D2F80413C90607D0016891420AD18B68EA
:1015700013F0405F02D005E000680BE08B6843F099
:1015800080438B60D2F80413C90614D400680E4956
:10159000884210D1816811F0405F0CD1816841F020
:1015A0008041816007E0016C41F010010164416CF1
:1015B00041F001014164002018BD000040420F00CD
:1015C000140000200020014000220140F8B50D4623
:1015D00004460021134600910A4690F83C00012879
:1015E00007D0012084F83C0020688668F60702D006
:1015F00011E00220F8BD87683B4E47F00107876085
:101600003A480068B0FBF6F000EB400000E0401EF6
:1016100000900028FBD120688668F60759D0226C1C
:1016200040F20166B24342F4807222644068400591
:1016300005D5206C20F4005040F480502064206CCC
:10164000C00404D5606C20F00600606400E06164B2
:101650006FF0220084F83C10A26B2549D163A26B85
:1016600024491164A26B2449D16421680860206870
:10167000416841F0806141602068816841F4807177
:10168000816021682A46A06B4C3100F0F9F91B49B2
:101690000246D1F80403C006206811D0884207D161
:1016A000836813F0405F03D1836843F08043836015
:1016B000D1F80403C00614D411492068884210D11F
:1016C000816811F0405F0CD1816841F080418160F8
:1016D00007E0206C40F010002064606C40F00100D6
:1016E00060641046F8BD000040420F001400002066
:1016F000B70900083B0A0008250A0008002001403D
:101700000022014090F83C1001290CD0012180F802
:101710003C1001688A6822F001028A6001688968C9
:10172000C90702D007E002207047016C21F48851FC
:1017300041F001010164002180F83C100846704727
:101740002DE9F041876D044600F020FB064694F831
:1017500035000025022806D080206065012084F82D
:101760003450BDE8F0812068016821F01601016065
:101770002068416921F080014161206C08B9A06CAA
:1017800020B12068016821F008010160206801682B
:1017900021F0010101600CE000F0F8FA801B05283F
:1017A00007D920216165032084F8350084F834507E
:1017B000D7E720680068C007EED194F85C203F208E
:1017C00001219040B86084F83510002084F834502E
:1017D000C7E790F83510022903D080214165012028
:1017E0007047052180F835100068016821F001017B
:1017F000016000207047406D704700002DE9F843FC
:1018000004464FF00009644B0820CDF800904FF4D7
:101810001652A56D94F85C101B682E68B3FBF2F7A6
:1018200000FA01F131420FD021680A6852070BD546
:101830000A6822F004020A6094F85C108840A860EC
:10184000606D40F00100606594F85C104FF0010895
:1018500008FA01F0304208D021684969090604D528
:10186000A860606D40F00200606594F85C10042090
:101870008840304208D021680968890704D5A860EB
:10188000606D40F00400606594F85C1010208840A2
:10189000304218D021680968090714D5A86020686B
:1018A0000168490304D50068000308D5A16C07E06E
:1018B0000168C90503D4016821F008010160216CA9
:1018C00009B12046884794F85C10202088403042B7
:1018D00031D021680968C9062DD5A86094F8350073
:1018E00005282068016806D0490347D50068000331
:1018F0001DD4616C1CE021F0160101602068416973
:1019000021F080014161206C08B9A06C20B12068F1
:10191000016821F00801016094F85C303F229A4090
:10192000AA6084F8358084F83490216D1FE0E16B63
:1019300009B120468847606D00282BD0606DC00734
:1019400014D0052084F835002068016821F00101D9
:1019500001600098401C0090B84203D820680068DD
:10196000C007F6D184F8358084F83490E16C002902
:1019700010D001B02046BDE8F04308470168C90512
:10198000D5D4036823F01003036084F8358084F80D
:101990003490CCE7BDE8F883140000202DE9F0472F
:1019A000044600F0F3F906465CB10025022084F8F5
:1019B000350084F834502068016821F0010101608D
:1019C0000DE00120BDE8F08700F0E0F9801B05285C
:1019D00005D920216165032084F83500F2E72068ED
:1019E0000068C007F0D1D4E90010D4E90232D4E98C
:1019F000046C1843D4F8188004F11C038946324360
:101A000009681043C8CB1D4A40EA0C0040EA0800B0
:101A1000114040EA030040EA0600042F40EA0100BA
:101A200003D1D4E90B1211430843C9F80000206820
:101A3000666A4069042E20F0070046EA00060CD1D1
:101A4000D4E90A01064341B12046FFF7B9F920B1B4
:101A50004020606584F83550B3E720684661204631
:101A6000FFF79AF994F85C303F2101229940816098
:101A7000656584F835200020A4E700003F8010F061
:101A80002DE9F041044690F8340000250128A66DA8
:101A90000ED094F835C00127002084F83470BCF1D2
:101AA000010F07D0022584F834002846BDE8F081F4
:101AB0000220FBE7022784F8357060652046FFF7B7
:101AC000A9F994F85C103F208840B0602068016854
:101AD00041F0160101602068416941F080014161D7
:101AE000206C20B12068016841F008010160206885
:101AF000016841F001010160D7E7000070B50446BC
:101B000000F044F90546601C02D004480078044403
:101B100000F03CF9401BA042FAD370BD0800002041
:101B20002DE9F84FDFF80CB2012403254FF00F0A1E
:101B300000220BF1040E00BF0B6804FA02F63340DA
:101B4000B34278D10F7907F00307012F01D0022F9C
:101B50001AD187684FEA4209D1F80CC005FA09F892
:101B600027EA08070CFA09FC4CEA070CC0F808C081
:101B7000476891F804C0B743CCF3001C0CFA02FC90
:101B80004CEA070CC0F804C00E79F643B6070BD038
:101B9000C6684FEA420C8F6805FA0CF826EA080678
:101BA00007FA0CF73743C7600E7906F00306022EDA
:101BB00012D1D6084FEA427800EB860600960F69EC
:101BC000D6F820904FEAD8660AFA06FCB74029EA10
:101BD0000C063743009E37620F7906684FEA420CC5
:101BE00007F0030705FA0CF807FA0CF726EA0806CF
:101BF000374307604E6816F4403F1CD04E4E37689E
:101C000047F480473760366822F00308970706F4E8
:101C100080460096494E3F0F4644B146D6F80868C4
:101C2000DFF81C810AFA07FC404526EA0C0603D1BE
:101C30004FF0000C41E076E0DFF808C1604502D1CA
:101C40004FF0010C39E0DFF800C1604502D14FF0E0
:101C5000020C32E0DFF8F4C0604502D14FF0030C13
:101C60002BE0DFF8ECC0604502D14FF0040C24E01B
:101C7000DFF8E0C0604502D14FF0050C1DE0DFF851
:101C8000D8C0604502D14FF0060C16E0DFF8CCC09A
:101C9000604502D14FF0070C0FE0DFF8C4C060458B
:101CA00002D14FF0080C08E0DFF8B8C0604502D15F
:101CB0004FF0090C01E04FF00A0C0CFA07FC4CEA5B
:101CC000060CC9F808C84F68DBF80060FF0226EA76
:101CD000030600D51E437746CBF80060D1F804C058
:101CE000DEF800605FEA8C2C26EA030600D51E436E
:101CF000DFF840C03E60ACF1040C4F68DCF80060D7
:101D0000BF0326EA030600D51E430A4FCCF8006045
:101D1000083FD1F804C03E685FEACC3C26EA0306DF
:101D200000D51E433E60521C102AFFF405AFBDE8EB
:101D3000F88F0000083C0140443802400030014068
:101D4000000002400004024000080240000C024073
:101D5000001002400014024000180240001C024023
:101D600000200240002402400069084000D0012009
:101D70007047426921EA02030A4043EA0241816155
:101D800070470AB1816170470904FBE70148806828
:101D90007047000008000020024881680278114462
:101DA0008160704708000020032010B500F0ECF8B7
:101DB000052000F005F800F09DF8002010BD00009F
:101DC00030B505461F4887B0016841F48071016055
:101DD000006806A900F48070009001A800F032FCB1
:101DE0000498B0B100F04EFC4000174A0021174B98
:101DF000B0FBF2F2164840F2E7340360C0E9034159
:101E0000521EC0E90121816100F0F4FE040003D0FC
:101E100015E000F037FCE8E70D4800F0D1FF0400C2
:101E20000DD12D2000F082F8102D07D20022294676
:101E30002D2000F089F80748056000E0012407B074
:101E4000204630BD4038024040420F000020004094
:101E5000041800200C000020154BF0B5083B427818
:101E600013491A600B680A1F23F001030B604368D3
:101E70001360057BC67A827A437B2D07847B45EA13
:101E80000665C77B90F809C0067A90F800E045EA3D
:101E9000C24040EA834040EA444040EA074040EA0A
:101EA0000C2040EA460040EA0E000860F0BD000049
:101EB000A0ED00E0BFF35F8F044800210368034AF0
:101EC00023F48033036070321160704724ED00E02A
:101ED000074A40F00100064970321060086840F47B
:101EE00080300860BFF34F8FBFF36F8F70470000E3
:101EF00024ED00E00C4882B0016841F0805101609F
:101F0000006800F0805000900748001D016841F40F
:101F100080410160006800220F2100F480400090A1
:101F2000901E02B000F010B840380240002809DBD3
:101F3000410900F01F028900012001F1E0219040D9
:101F4000C1F80001704700000E4BF0B41B680D464D
:101F5000C3F30223C3F10706042E00D90426191D7A
:101F6000072901D2002300E0DB1E012404FA06F158
:101F70009C40491E2940641E994014402143F0BCF6
:101F800003F01EBE0CED00E0064900F0070210B59C
:101F90004FF6FF040868044B204040EA0220184333
:101FA000086010BD0CED00E00000FA051848F8B517
:101FB000016841F0805101600068164C00F08050CB
:101FC0000090206840F480302060FFF7DFFE4FF47F
:101FD0007A76054605E000BFFFF7D8FE401BB04209
:101FE0000FD86068C003F7D5206840F40030206047
:101FF000FFF7CCFE054606E0FFF7C8FE401BB042E7
:1020000001D90320F8BD60688003F5D50020F8BD34
:1020100040380240007000402DE9F84F0446007837
:10202000DFF824944FF000063746C0070ED0D9F8E9
:10203000001021F40001C9F80010D9F80010626BFB
:102040001143C9F80010606B00B90126FE4D2068ED
:10205000843500030ED5E16B286820F44010084356
:102060002860E06BB0F5801F01D010B102E00126BE
:1020700000E0012720684FF4800BC0020CD5216CD2
:10208000286820F4400008432860206C584501D19E
:10209000012601E000B901272068C10100D5012611
:1020A000800666D5E8483830016841F0805101600B
:1020B0000068DFF898A300F080500090DAF8001074
:1020C00041F48071CAF80010FFF760FE804605E019
:1020D000FFF75CFEA0EB080064287DD8DAF800006A
:1020E000C005F5D5DFF8608308F16808D8F800006E
:1020F00010F440702AD0218E01F44071814225D025
:10210000D8F80010D8F8002021F4407142F4803251
:10211000C8F80020D8F8002022F48032C8F8002047
:10212000C8F80010D8F80000C0070FD0FFF72EFE47
:10213000824607E0FFF72AFEA0EB0A0141F2883051
:102140008142CAD8D8F800008007F3D5206BC0F3CD
:10215000012103297ED0D9F8001021F4F811C9F823
:102160000010228ED8F80010C2F30B021143C8F8F9
:1021700000102078C00607D5286820F080702860FD
:102180002868A16B084328602188AF48883049043B
:1021900005D5626E016821F4403111430160218848
:1021A000090405D5A26E016821F4402111430160A4
:1021B0002168C90305D5E26E016821F4401111437D
:1021C00001602168890305D5226F016821F440016F
:1021D00011430160217800E016E1490605D5626CE3
:1021E000016821F00301114301602178090605D53A
:1021F000A26C016821F00C01114301602188C9051E
:1022000005D5E26C016821F030011143016021889D
:10221000890505D5226D016821F0C00111430160D7
:102220002188490505D5626D016821F4407111438B
:1022300001602188090505D5A26D016821F440617E
:10224000114301602188C90407D5E26D016821F4BA
:10225000405100E04AE0114301602188890405D51E
:10226000226E016821F44041114301602168490256
:1022700005D5A26F016821F08061114301602168DA
:102280004FF0006A890209D5E26F016821F0006110
:1022900011430160E16F514500D1012721680A0710
:1022A00000D50127490305D5626F016821F040710F
:1022B000114301602168090206D5D4F88020016825
:1022C00021F0805111430160DFF88491012E02D08A
:1022D000206880017ED5D9F800004E4620F080604D
:1022E000C9F80000FFF752FD80460FE0594AD9F8BF
:1022F0000030104023F4F8120243C9F8002030E700
:10230000FFF744FDA0EB080064287DD83068000189
:10231000F6D421784C487C30C90712D0616B81B962
:10232000237A62680168D0F800C09201C1F30141CC
:1023300042EA0142CCF3036142EA016141EA0371DE
:10234000016021680A0303D5E26BB2F5801F04D057
:10235000C9021AD5216C594517D16368016894F8F0
:102360000CC002689B01C1F3014143EA0141C2F381
:10237000027241EA0C6141EA027101602968626AF5
:1023800021F01F01521E114329602168C90110D597
:10239000238A62680168D0F800C09201C1F303612A
:1023A00042EA034242EA0162CCF3027142EA01715D
:1023B0000160216889010CD56168228A237B94F829
:1023C00008C0890141EA024141EA036141EA0C7116
:1023D000016000E011E03168B04641F08061316099
:1023E000FFF7D4FC064604E0FFF7D0FC801B64280E
:1023F0000AD8D8F800000001F6D56FB3D9F800006C
:102400004E4620F0805000E07BE0C9F80000FFF766
:10241000BDFC074605E000BFFFF7B8FCC01B642801
:102420006FD83068C0438000F6D5074821688030F7
:102430000A0301D5E26B1AB1C90225D5216C19BB7B
:1024400063690168277E08E0083802400070004098
:1024500000380240FFFCFF0F5AE00268C1F301415F
:102460009B0143EA0143C2F3027143EA076242EA75
:102470000171016029686FF0FF03A26A21F4F8512D
:1024800003EB0222114329602168890212D5E16F12
:1024900051450FD1238C6269016807689201C1F32D
:1024A000036142EA034242EA0162C7F3027142EA6F
:1024B000017101602178090716D561690268D0F8B9
:1024C00000C08B01277FC2F30362CCF3014143EAD2
:1024D000014141EA026141EA077101602868E16A4D
:1024E00020F4403008432860306840F0805030606D
:1024F000FFF74CFC044607E0FFF748FC001B64288C
:1025000002D90320BDE8F88F3068C0438000F3D4BF
:102510000020F7E72DE9F04705000F4663D0444E51
:10252000306800F00F00B84209D2306820F00F0088
:1025300038433060306800F00F00B84253D128684B
:102540003C4C810712D5400703D5206840F4E05089
:1025500020602878000703D5206840F460402060A0
:10256000A968206820F0F000084320602878C007A0
:102570002AD0304968680839012810D00968022833
:1025800010D0890700292EDA216821F003010143C8
:102590002160FFF7FBFB804641F288390DE00968B6
:1025A0008903EFE78901EDE7FFF7F0FBA0EB0801F6
:1025B000494502D90320BDE8F0876868216801F029
:1025C0000C01B1EB800FEFD1306800F00F00B84282
:1025D0000BD9306820F00F0038433060306800F0CD
:1025E0000F00B84201D00120E5E72878400705D563
:1025F000E968206820F4E05008432060287800074C
:1026000006D52869216821F4604141EAC0002060B4
:1026100000F058F82168084AC1F30311515CC84022
:102620000649086006480068FFF7CAFB0020C2E7B9
:10263000003C024008380240E0A1000814000020DD
:102640000C0000200D4A0F2330B503604FF4E05416
:102650000B4B156805F003054560156805F0F0059E
:102660008560156805F4E055C560126804EAD20279
:102670000261186800F00F00086030BD08380240A1
:10268000003C02400449054809680068044AC1F357
:102690008221515CC8407047083802401400002075
:1026A000F0A100080449054809680068044AC1F31C
:1026B0004231515CC8407047083802401400002085
:1026C000F0A10008154910B51548096811F00C0271
:1026D00013D04110042A0FD0082A0ED10F4C241F0A
:1026E0002268236802F03F025B0207D52068C0F32E
:1026F0008810A0FB010106E0084610BD2168C1F367
:102700008811A1FB00010023FDF7DEFD2168C1F364
:102710000141491C4900B0FBF1F010BD08380240EE
:102720000024F4002DE9F84F04004FF000076ED0AC
:102730002078DFF868A3AAF10408C007A8F104050F
:102740004CD0DAF800105046C1F38101012908D0BD
:102750000068C0F3810002280AD1D8F800004002C6
:1027600006D52868800339D560680028DFD035E0B9
:102770006068B0F5803F0BD010B1B0F5A02F11D03C
:10278000286820F480302860286820F4802002E047
:10279000286840F480302860606890B1FFF7F6FA4E
:1027A00006460AE0286840F480202860F0E700BF71
:1027B000FFF7ECFA801B642872D828688003F7D5ED
:1027C0000CE0FFF7E3FA064605E000BFFFF7DEFA8C
:1027D000801B6428F0D828688003F7D4207880070D
:1027E00042D5DAF80010504611F00C0F08D00068FE
:1027F000C0F3810002280BD1D8F80000400207D4B2
:102800002868800718D5E068012800D114E041E16C
:10281000E0680028286817D040F001002860FFF722
:10282000B5FA064605E000BFFFF7B0FA801B0228A4
:10283000C2D828688007F7D52069296821F0F801F7
:1028400041EAC00028600FE020F001002860FFF797
:102850009DFA064605E000BFFFF798FA801B0228A4
:102860001ED828688007F7D42078000729D58B4820
:1028700061696C3000298146016812D041F0010184
:102880000160FFF783FA064605E000BFFFF77EFA16
:10289000801B022804D8D9F800008007F6D510E084
:1028A00089E021F001010160FFF770FA064604E0BB
:1028B000FFF76CFA801B02287DD8D9F8000080074A
:1028C000F6D4207840076BD5DFF8D09109F13809AC
:1028D000D9F80000C0000BD4D9F8001041F08051A5
:1028E000C9F80010D9F80000012700F080500090CE
:1028F0006B480168C90512D40168834641F48071B0
:102900000160FFF743FA064605E000BFFFF73EFA15
:10291000801B64284FD8DBF80000C005F6D55F4E59
:10292000A068683601280AD008B1052811D030689F
:1029300020F001003060306820F0040002E03068D0
:1029400040F001003060A068A0B1FFF71FFA834695
:102950000CE0306840F004003060F0E7FFF716FA52
:10296000A0EB0B0141F28830814266D830688007C5
:10297000F4D50EE0FFF70AFA834607E0FFF706FA00
:10298000A0EB0B0141F28830814256D830688007B5
:10299000F4D42FB1D9F8001021F08051C9F80010FB
:1029A000A069C8B3DAF80010C1F3810102294BD045
:1029B0000228286800E040E020F08070286003D002
:1029C000FFF7E4F904463BE0FFF7E0F9064604E0D0
:1029D000FFF7DCF9801B02282FD828688001F7D484
:1029E000D4E90962D4E907012E4B570894F82C204A
:1029F000084303EB074343EA8611084340EA0260B9
:102A000040F00050C8F80000286840F0807028604E
:102A1000FFF7BCF9044606E03EE000BFFFF7B6F959
:102A2000001B022809D828688001F7D534E000BFD0
:102A3000FFF7ACF9001B022802D90320BDE8F88F8C
:102A400028688001F4D427E00128D8F8000021D0BC
:102A5000E16900F480028A421CD1216A00F03F0241
:102A60008A4217D1626A47F6C0710140B1EB821FFA
:102A700010D1A16A4FF0FF3200F4403302EB510154
:102A8000B3EB014F06D194F82C1000F07060B0EB5E
:102A9000016F01D00120D1E70020CFE708380240C4
:102AA000007000400000FFFF704770477047000053
:102AB0002DE9F04390F83C20012A42D0012280F811
:102AC0003C2051F80C4BDFF880804FF0000991E872
:102AD000680051E9022723F44073B1F80CC03B436E
:102AE000CF6923F480631343026823F40063234314
:102AF00023F4805343EA050323F4005343EA060317
:102B000023F4804343EA07030C3923F4702342453E
:102B100043EA0C4302D00D4CA2420CD18D8C23F41D
:102B20007006D1E9073446EA055121F08071194356
:102B300021F000732343536480F83C900020BDE8EB
:102B4000F0830220FBE70000000001400004014088
:102B5000F0B590F83C20012A3BD01F4E012480F8AC
:102B60003C40022280F83D2002681C4D5368B2426E
:102B7000D2F808C001D0AA4203D14F6823F47003F1
:102B80003B430F6823F070031F4357600268B24253
:102B900013D0B2F1804F10D0114B9A420DD0114B8F
:102BA0009A420AD0104B9A4207D0AA4205D00F4B46
:102BB0009A4202D00E4B9A4204D189682CF08003CD
:102BC00019439160002180F83D4080F83C10084690
:102BD000F0BD0220F0BD00000000014000040140F3
:102BE0000004004000080040000C0040004001408C
:102BF0000018004010B5040003D094F83D0010B157
:102C000007E0012010BD002084F83C00204600F0C1
:102C100023F8022084F83D002068211D01F0A6FF62
:102C2000012084F8480084F83E0084F83F0084F8CE
:102C3000400084F8410084F8420084F8430084F89E
:102C4000440084F8450084F8460084F8470084F87E
:102C50003D00002010BD000008B5016833488142E6
:102C60000FD13348016841F004010160006800227F
:102C7000052100F0040000901E20FFF765F91E20DA
:102C80004EE02B482B4A001D914226D1016841F0AD
:102C90000201016000680022052100F0020000909E
:102CA0002B20FFF751F92B20FFF740F900220521D7
:102CB0002C20FFF749F92C20FFF738F900220521D5
:102CC0002D20FFF741F92D20FFF730F900220521D3
:102CD0002E20FFF739F92E2022E0174A91420ED11B
:102CE000016841F48031016000680022052100F490
:102CF000803000901820FFF727F9182010E00F4AC5
:102D0000914211D1016841F48021016000680022E4
:102D1000052100F4802000901A20FFF715F91A20F1
:102D2000BDE80840FFF702B908BD000000080040F8
:102D3000403802400004014000400140004801408A
:102D400090F83D10012901D001207047144B022258
:102D5000016880F83D20994214D0B1F1804F11D024
:102D6000104881420ED0104881420BD00F4881425A
:102D700008D00F48814205D00E48814202D00E484B
:102D8000814207D188680D4A1040062806D0B0F568
:102D9000803F03D0086840F00100086000207047C1
:102DA000000001400004004000080040000C00400A
:102DB00000040140004001400018004007000100ED
:102DC00090F83D10012901D001207047174A0221D7
:102DD00080F83D100168CB6843F00103CB600068C8
:102DE000904214D0B0F1804F11D0114988420ED0DA
:102DF000104988420BD01049884208D00F498842B8
:102E000005D00F49884202D00E49884207D1816817
:102E10000D4A1140062906D0B1F5803F03D0016864
:102E200041F00101016000207047000000000140F6
:102E30000004004000080040000C00400004014075
:102E400000400140001800400700010070B5044632
:102E500090F83C000025012817D0334B012684F858
:102E60003C60022084F83D0022689068184020F4FD
:102E70007F4090600868502838D00DDC20284FD063
:102E800005DC90B3102811D14AE0022070BD302833
:102E900046D040280AD13BE060282FD070280DD0C2
:102EA000B0F5805F03D0B0F5005F12D0012584F843
:102EB0003D60002084F83C00284670BD4A682068C8
:102EC000D1E9021301F0C9FE2068816841F0770161
:102ED00009E04A682068D1E9021301F0BEFE2068CB
:102EE000816841F480418160E1E719E0CA6849687E
:102EF000206801F0F5FF2068502106E0CA684968A3
:102F0000206801F0FEFF2068602101F0AFFECEE7EF
:102F1000CA684968206801F0E3FF20684021F4E7AF
:102F2000226801461046F0E788FFFEFF2DE9F041D8
:102F300004000D4603D094F83D0018B108E00120CC
:102F4000BDE8F081002084F83C00204600F04CF8F9
:102F5000244A022084F83D00206881681140816085
:102F60002068211D01F002FE226840F20336AF699D
:102F700040F60C4C2B684FF2F00EA86891680B439A
:102F80009169B14341EA07210843D5E9031720EAD3
:102F90000C00D5E9076C20EA0E00D2F820E03F01D2
:102FA00040EA062668686D69314347EA0C3793604A
:102FB00023680F4301219F612EF0AA0242EA051304
:102FC00022681843106284F8481084F83E1084F890
:102FD0003F1084F8441084F8451084F83D10002018
:102FE000AEE70000F8BFFEFF70B586B005461421BD
:102FF0006846FDF7C1F92B6800245F4802255D494A
:10300000012683423BD15B481430026842F0010242
:103010000260006800F001000590086840F01000B0
:1030200008600868694600F0100005904FF42060C1
:103030000090CDE901545148CDE90346FEF770FDFB
:10304000002205211820FEF77FFF1820FEF76EFFF3
:10305000002205211920FEF777FF1920FEF766FFF1
:10306000002205211A20FEF76FFF1A20FEF75EFFEF
:10307000002205211B20FEF767FF1B2058E0404A75
:10308000B3F1804F3F4822D03F4EB34254D1136832
:1030900043F002031360126802F0020205920A680C
:1030A00042F001020A60096801F001010591C021A6
:1030B0000091CDE90154CDE903456946FEF730FDA5
:1030C000002205211D20FEF73FFF1D2030E0136880
:1030D00043F001031360126802F0010205920A68CE
:1030E00042F001020A600A6802F0010205920A68D1
:1030F00042F002020A60096801F0020105912021F4
:103100000091CDE90154CDE903466946FEF708FD7B
:1031100008200090CDE901541C486946CDE90346DA
:10312000FEF7FEFC002205211C20FEF70DFF1C20EF
:10313000FEF7FCFE06B070BD154EB342FAD113681F
:1031400043F008031360126802F0080205920A684F
:1031500042F001020A60096801F0010105910321B2
:103160000091CDE90154CDE903456946FEF7D8FC4D
:10317000E0E700003038024000000140001002404B
:1031800040380240000002400004004000040240B9
:10319000000C004070B504464FF0020094F83E2049
:1031A00094F83F5094F8446094F8453021B10429D4
:1031B0000DD0012A1AD113E0012A17D1012E15D101
:1031C00084F83E0084F844000021206820E0012DAE
:1031D0000CD1012B0AD184F83F0084F8450014E09B
:1031E000012D03D1012E01D1012B01D0012070BD91
:1031F00084F83E0084F83F0084F8440084F84500D9
:1032000001222068002101F01BFD20680122042119
:1032100001F016FD2068016841F001010160002005
:1032200070BD70472DE9F041044600680027C6686C
:103230000569A90713D5B10711D5FA1E026101214D
:103240002177206880698007204602D0FFF7E9FFD8
:1032500004E000F0E7F8204600F0A9F927776807B6
:1032600016D5700714D5226802206FF00401116191
:1032700020772068806910F4407F204602D0FFF755
:10328000D0FF04E000F0CEF8204600F090F9277758
:10329000280715D5300713D5226804206FF00801E0
:1032A000116120772068C0698007204602D0FFF7AF
:1032B000B8FF04E000F0B6F8204600F078F9277770
:1032C000E80616D5F00614D5226808206FF0100124
:1032D000116120772068C06910F4407F204602D039
:1032E000FFF79FFF04E000F09DF8204600F05FF933
:1032F0002777E80708D0F00706D021686FF00100B3
:103300000861204600F0D0F9280601D4A80408D5A9
:10331000300606D521686FF4025008612046FFF799
:10332000C4FBE80508D5300606D521686FF4807027
:1033300008612046FFF7B8FB680608D5700606D579
:1033400021686FF040000861204600F0B7F9A80638
:103350000AD5B00608D521686FF020000861204624
:10336000BDE8F041FFF7A2BBBDE8F08130B587B002
:10337000044614216846FCF7FFFF234A0020236817
:10338000224993424FF0020211D10B6843F0080327
:103390000B60096801F0080105914FF4704100913C
:1033A000CDE90120CDE903021948694613E0194D22
:1033B0000324AB4213D10B6843F004030B6009688C
:1033C00001F00401059121020091CDE90120CDE930
:1033D000030411486946FEF7A3FB07B030BD0F4D4B
:1033E000AB42FAD10B6843F010030B60096801F09F
:1033F0001001059160210091CDE90120CDE9030480
:1034000007486946E7E700000008004030380240FE
:10341000000C02400004014000080240004001404E
:1034200000100240704770B5044690F83C0000263A
:103430000D4601280BD0012084F83C000C2A4AD00C
:1034400007DC82B1042A20D0082A06D131E002200C
:1034500070BD102A53D0142A63D00126002084F8AE
:103460003C00304670BD206801F008FC206881698E
:1034700041F0080181612068816921F004018161C6
:1034800020682A698169114311E0206801F02EFC4F
:103490002068816941F4006181612068816921F4BB
:1034A0008061816120682969826942EA0121816124
:1034B000D4E7206801F056FC2068C16941F008019A
:1034C000C1612068C16921F00401C16120682A69D5
:1034D000C169114311E0206801F080FC2068C169D6
:1034E00041F40061C1612068C16921F48061C1615A
:1034F00020682969C26942EA0121C161AEE72068FA
:1035000001F09AFC2068416D41F008014165206896
:10351000416D21F00401416520682A69416D114324
:1035200011E0206801F0B2FC2068416D41F40061B7
:1035300041652068416D21F48061416520682969F9
:10354000426D42EA0121416588E710B5040003D0CD
:1035500094F83D0010B107E0012010BD002084F870
:103560003C00204600F022F8022084F83D0020684C
:10357000211D01F0FBFA012084F8480084F83E0088
:1035800084F83F0084F8400084F8410084F8420049
:1035900084F8430084F8440084F8450084F8460029
:1035A00084F8470084F83D00002010BD7047704744
:1035B00010B504464FF0020269B1042912D008295F
:1035C00017D00C291CD0102921D094F843000128D1
:1035D00024D0012010BD94F83E000128F9D184F8D0
:1035E0003E201DE094F83F000128F2D184F83F20EE
:1035F00016E094F840000128EBD184F840200FE059
:1036000094F841000128E4D184F8412008E094F8BE
:1036100042000128DDD184F8422001E084F84320F3
:103620000122206801F00CFB17492068174A8842E4
:1036300001D0904203D1436C43F4004343642068BB
:10364000884213D0B0F1804F10D0114988420DD07C
:10365000104988420AD01049884207D0904205D0CC
:103660000E49884202D00E49884207D181680D4A2E
:103670001140062906D0B1F5803F03D0016841F022
:1036800001010160002010BD000001400004014064
:103690000004004000080040000C004000400140D1
:1036A000001800400700010000680349884201D16A
:1036B000FEF772BB70470000002000407047704763
:1036C00070B501680446C06F1025D4F88060896821
:1036D000090618D5212816D12068083050E8001FA7
:1036E00021F0800140E80012002AF5D1206F38B1A6
:1036F000FEF726F820B1206FFEF77DF8202821D0B4
:10370000204601F081FE20688068400618D5222EF0
:1037100016D12068083050E8001F21F0400140E831
:103720000012002AF5D1606F38B1FEF709F820B118
:10373000606FFEF760F8202804D0204601F03EFEBE
:10374000002070BDC4F88450032070BD7047000095
:103750002DE9F04102680025044640F60F070226D5
:10376000D06911689368384205D183067ED58B06EF
:103770007CD5A16E24E1DFF878C203F0010701EAED
:103780000C0C57EA0C0C71D05FEAC07C0CD05FEADD
:10379000C15C09D54FF0010CC2F820C0D4F88420D8
:1037A00042F00102C4F88420820709D5DA0707D065
:1037B00022681662D4F8842042F00402C4F88420FF
:1037C00042070AD5DA0708D0236804221A62D4F81F
:1037D000842042F00202C4F8842002070CD501F0D4
:1037E00020023A4308D0236808221A62D4F88420C1
:1037F00042F00802C4F8842002050BD54A0109D51D
:1038000023684FF400621A62D4F8842042F0200248
:10381000C4F88420D4F88420002A36D0800605D548
:10382000880603D5A16E09B1204688472168D4F8DF
:1038300084008968490602D410F0280F27D020465A
:1038400001F0BCFD2068806840061BD52068083068
:1038500050E8001F21F0400140E80012002AF5D195
:10386000606F78B163490165606F00E015E0FDF7B6
:10387000B0FF002809D0606F016D00E02046BDE870
:10388000F04108472046FFF761FFBDE8F081204680
:10389000FFF75CFFC4F88450F7E7276E2023012F61
:1038A0007ED1C7067CD5CF067AD51020106220685D
:1038B000806840064FD5626FDF00106840680004E2
:1038C000000C3CD0B4F85810814238D9A4F85A0002
:1038D000D069B8422BD0216851E8000F20F48070E5
:1038E00041E80002002AF6D12068083050E8001FA5
:1038F00021F0010140E80012002AF5D120680830CB
:1039000050E8001F21F0400140E80012002AF5D1E4
:10391000C4F880302566216851E8000F20F01000BF
:1039200041E80002002AF6D1606FFDF709FF6666E4
:10393000B4F85800B4F85A10401A81B207E0B4F84D
:1039400058108142A1D1D069B8429ED16666204606
:10395000FFF7B5FE99E7B4F85800B4F85A10B4F878
:103960005A20401A81B2002A8FD000298DD02268B7
:1039700052E8000F20F4907042E80007002FF6D1C3
:10398000206800F1080050E8002F22F0010240E812
:103990000027002FF4D1C4F880302566A56600E02A
:1039A00009E0206850E8002F22F0100240E80023D0
:1039B000002BF4D1CAE7020606D50A0604D5E16E4B
:1039C00000297FF45BAF60E74006C3D54806C1D548
:1039D0002046016851E8002F22F0400241E800240F
:1039E000002CF6D1C367C56600F0CBF94DE70000A7
:1039F000200100048752000810B5040002D0E06FD7
:103A000010B107E0012010BD002084F878002046A6
:103A100000F026F82420E0672068016821F0010109
:103A20000160606A10B1204601F09CFB204601F065
:103A3000B5FD0128E7D02068416821F4904141603C
:103A40002068816821F02A0181602068016841F0C6
:103A5000010101602046BDE8104001F0E7BB000015
:103A60002DE9F04FA7B00746142121A8FCF784FCEC
:103A700084216846FCF780FC6F4C03266F494FF4A5
:103A8000806A3868103C6C4D4FF0020988424FF054
:103A9000080B4FF0000854D16846CDF800A0CDF8CF
:103AA0005480FEF7B9FA08B1FDF706FA286840F429
:103AB00080102860286800F480102690206840F06C
:103AC00004002060206800F004002690206840F088
:103AD0000800206020684FF48051CDE9211900F0E2
:103AE0000800454621A95C46CDE925B05448CDE9FA
:103AF0002386FEF715F804212395CDE921195148B5
:103B000021A9CDE92464FEF70BF84F4C4F4AD005AC
:103B10002260C4E90105C4E9035A65612046A56134
:103B2000E56125626562FDF739FF08B1FDF7C4F96B
:103B30007C6700220521A7633520FEF705FA3520B2
:103B40002BE0434988422DD14014CDF8608000908D
:103B50006846FEF761FA08B1FDF7AEF9286840F053
:103B600000402860286800F000402690206840F05F
:103B700010002060206821A9CDE9216900F0100023
:103B8000CDE925B03348CDE92386FDF7C9FF0022F2
:103B900005215320FEF7D8F95320FEF7C7F927B0C7
:103BA000BDE8F08F2C498842F9D181156846CDF8DF
:103BB0004C800091FEF730FA08B1FDF77DF92868D6
:103BC00040F480202860286800F480202690206837
:103BD00040F00200206020684FF440610722454613
:103BE00000F00200CDE9211921A9CDE925201B48CB
:103BF000CDE92386FDF794FF134C4FF00060134A84
:103C0000603418322260C4E90105C4E9035A6561D1
:103C10002046A561E56125626562FDF7BFFE08B13A
:103C2000FDF74AF97C6700220521A7632720FEF7EC
:103C30008BF92720B1E700004038024000500040D7
:103C400000080240000C02404417002010600240AF
:103C5000007C004000100240004800400004024088
:103C600030B4D0F88030202B02D0022030BC704716
:103C700091B18AB10023036603685B681B0208D513
:103C8000046854E8003F43F0806344E80035002DA9
:103C9000F6D130BC01F09ABD0120E7E730B4D0F88E
:103CA0008030202B02D0022030BC704791B18AB105
:103CB0000023036603685B681B0208D5046854E8A8
:103CC000003F43F0806344E80035002DF6D130BC5E
:103CD00001F0CCBD0120E7E7704770472DE9F843BC
:103CE0000446C06F984616460D46202802D0022092
:103CF000BDE8F88395B18EB10021C4F8841021206D
:103D0000E067FEF743F88146A068A4F85060A4F885
:103D100052602027B0F5805F02D003E00120E7E782
:103D2000206910B12E46002510E000260EE080210B
:103D3000204601F0F7FDC0B9D6B116F8010B216895
:103D40008862B4F85200401EA4F85200B4F8520041
:103D50004B464FF00002CDF800800028E7D14FF02D
:103D60004001204601F0DEFD40B1E7670320BFE7D8
:103D700035F8020B2168C0F30800E1E7E76700208F
:103D8000B6E77047FEE700002DE9F041204D002422
:103D90000E4607464FF0FF382DED028B86B0DFED63
:103DA0001B8AB0EE688A142004F044FFE868B8B1BA
:103DB000414605F083FD012812D1164914226846B8
:103DC000FCF7B3FA0023E8681A46194605F014FC1C
:103DD000DDED000A9DED020A70EEA88A30EE088A39
:103DE000641CE4B20A2CDED3F2EE040A88EEA00AC8
:103DF00088EE201A0FB187ED000A002E01D086ED63
:103E0000001A06B0BDEC028BBDE8F0810000000096
:103E1000F400002028570020FEB59FED2F0A04462D
:103E2000154600200E468DED010A0123014602468B
:103E30008DF8080014E0278803FA00FC17EA0C0F3D
:103E40000CD0B4F800E0471C02F1010203FA07FCB1
:103E50001EEA0C0FD2B201D1491CC9B2401CC0B23B
:103E6000B042E8D361732273104602F09DFC28B182
:103E70000120FFEE000ABFEE000A29E002A8324648
:103E800001AB29460090204605F094F8B0EE401AA8
:103E9000B5EEC01AF1EE10FAEADBB0EE410A04F01A
:103EA000AFF900289DF80800DDED010A00EE100AC8
:103EB000F8EE401A80EEA10A8DED010A84ED010AA8
:103EC000D4ED010AB0EE410A01D0002000E002204A
:103ED00001F03CFE0020FEBD000000007FB5012483
:103EE00024480021224A23040091019104250291D3
:103EF0000391C0E900230461846181601E4A80F857
:103F00002010C0E90A21C561C16080F830404461D9
:103F1000FDF75BFA08B1FCF7CFFF022600961548C3
:103F20006946CDE90145FDF76BF908B1FCF7C4FF1F
:103F300003241048CDE900466946FDF761F908B150
:103F4000FCF7BAFF0E206946CDE900040948FDF7E9
:103F500057F908B1FCF7B0FF0F206946CDE900051D
:103F60000448FDF74DF9002801D0FCF7A5FF7FBDFF
:103F700000200140A41200200100000F154808B5E0
:103F8000016841F400110160016801F40011009121
:103F9000016841F48001016000680022052100F4FD
:103FA000800000900B20FDF7CFFF0B20FDF7BEFF38
:103FB000002205210C20FDF7C7FF0C20FDF7B6FFFE
:103FC000002205213820FDF7BFFFBDE8084038205A
:103FD000FDF7ACBF3038024000B587B006491C225F
:103FE0006846FCF7A2F90021684603F093FF0349F5
:103FF000086007B000BD0000BCA100080000002060
:104000002DE9F04786B014216846FCF7B5F945481C
:10401000016841F010010160016801F01001059193
:10402000016841F004010160016801F0040105919B
:10403000016841F080010160016801F08001059193
:10404000016841F001010160016801F00101059181
:10405000016841F002010160016801F0020105916F
:10406000016841F00801016000684FF40046DFF884
:10407000B880002200F00800314605904046FDF768
:1040800080FE0122DFF8A490570248463946FDF72A
:1040900078FEDFF89CA0002240215046FDF771FE1B
:1040A00000244CF60C4069460294CDE900042148F6
:1040B000FDF736FD70106946CDE9000440460294D4
:1040C000FDF72EFD01250096CDE9015469464046D5
:1040D0000394FDF725FD41F2F0106946CDE9000497
:1040E00015480294FDF71CFD40F6BB406946CDE93A
:1040F000000450460294FDF713FD00976946CDE990
:10410000015448460394FDF70BFD40200090CDE993
:104110000154694650460394FDF702FD06B0BDE820
:10412000F0870000303802400010024000000240DA
:10413000000C024000080240000402400C4845F216
:104140005F4370B5002142F20F74C0E90213802270
:104150008261064D0161C0E90054FEF74BFD002865
:1041600003D0BDE87040FCF7A7BE70BD0048014019
:104170006015002030B58DB024216846FCF7FCF8AE
:1041800017480024154D4FF6FF72099480230A94B6
:1041900001210B94056003254460C0E902420461DB
:1041A000C0E905430095CDE9014103940494CDE9AC
:1041B0000541694607940894FEF7B8FE08B1FCF77C
:1041C0007BFE074809A909940A940B94FEF7C0FCEA
:1041D000002801D0FCF770FE0DB030BD000001409A
:1041E0004C13002070B58CB024216846FCF7C4F84D
:1041F0001548002401214FF6FF72099480238E0791
:104200000A940B940325C0E90064C0E902420461EA
:1042100083610095CDE9014103940494CDE9054102
:10422000694607940894FEF781FE08B1FCF744FE46
:10423000054809A909940B94FEF78AFC002801D0CF
:10424000FCF73AFE0CB070BD9813002070B58CB02E
:1042500024216846FCF790F8164800244FF6FF72B8
:10426000134E099401210A9480230B940325C0E97D
:104270000064C0E90242046183610095CDE9014117
:1042800003940494CDE90541694607940894FEF728
:104290004DFE08B1FCF710FE064809A909940B94DD
:1042A000FEF756FC002801D0FCF706FE0CB070BDEE
:1042B00000040040E413002010B58EB000241C213F
:1042C000009407A80194029403940494059406941E
:1042D000FCF752F82A4842F62F21284B8022C0E9E9
:1042E0000034C0E9024104618261FEF783FC08B139
:1042F000FCF7E2FD4FF48050009021486946FEF73C
:10430000A5FD08B1FCF7D8FD1D48FFF71EF908B15F
:10431000FCF7D2FD1A4804A904940694FEF718FC91
:1043200008B1FCF7C9FD6020CDE90704144800225C
:1043300007A909940B94FFF776F808B1FCF7BCFDC8
:104340000F48042207A9FFF76EF808B1FCF7B4FD87
:104350000B48082207A9FFF766F808B1FCF7ACFD87
:1043600007480C2207A9FFF75EF808B1FCF7A4FD87
:104370000348FEF7FBFF0EB010BD00000008004030
:104380003014002070B58CB024216846FBF7F4FF90
:10439000164800244FF6FF72134E099401210A9427
:1043A00080230B940325C0E90064C0E90242046144
:1043B00083610095CDE9014103940494CDE9054161
:1043C000694607940894FEF7B1FD08B1FCF774FD47
:1043D000064809A909940B94FEF7BAFB002801D0FE
:1043E000FCF76AFD0CB070BD000C00407C1400208E
:1043F00010B59AB000241C21009412A801940294D4
:104400000394049405940694FBF7B6FF2C2107A8A7
:10441000FBF7B2FF2F4842F62F222D498023C0E937
:104420000014C0E902420461C0E90543FEF7E2FB63
:1044300008B1FCF741FD4FF48050009025486946D3
:10444000FEF704FD08B1FCF737FD2248FFF77DF8C1
:1044500008B1FCF731FD1F4804A9049405940694A3
:10446000FEF776FB08B1FCF727FD60201494CDE938
:1044700012041848082212A9159416941794189437
:10448000FEF7D1FF08B1FCF717FD12480C2212A964
:10449000FEF7C9FF08B1FCF70FFD4FF40050079479
:1044A0000894099401030A94CDE90B40CDE90E412B
:1044B000084807A90D9410941194FEF7F9FA08B171
:1044C000FCF7FAFC0348FEF751FF1AB010BD0000DC
:1044D00000040140C814002010B58CB000246846C8
:1044E0001C210794089409940A94FBF745FF1E4881
:1044F00042F62F211B4B8022C0E90034C0E9024163
:1045000004618261FEF776FB08B1FCF7D5FC4FF43D
:1045100080500790144807A9FEF798FC08B1FCF7F3
:10452000CBFC1148FFF711F808B1FCF7C5FC60207F
:104530006946CDE900040C48002202940494FEF779
:1045400072FF08B1FCF7B8FC074804226946FEF781
:104550006AFF08B1FCF7B0FC0348FEF707FF0CB098
:1045600010BD000000400140141500200D4800213E
:1045700010B50B4C0C224FF4E1330460C0E901315B
:10458000C160C0E904128161C16101624162FFF74B
:1045900033FA002803D0BDE81040FCF78DBC10BDF5
:1045A00000500040AC1500200D48002110B50B4C08
:1045B0000C224FF416530460C0E90131C160C0E918
:1045C00004128161C16101624162FFF715FA00289E
:1045D00003D0BDE81040FCF76FBC10BD007C00406C
:1045E000341600200D48002110B50B4C0C224FF45E
:1045F000E1330460C0E90131C160C0E904128161A6
:10460000C16101624162FFF7F7F9002803D0BDE8FC
:104610001040FCF751BC10BD00480040BC16002003
:10462000024901220248FFF739BB00000D010020BA
:10463000AC150020FEE7000070B5344C05284FF0A3
:104640007E552DED048BB0EE609AB0EE408ADFED22
:104650002E9A38EE490AF0EEC08A18D2DFE800F050
:104660004C2D0B031D00BDEC048BB0EE410ABDE8E0
:10467000704000F025BD264880ED001A022003F0AE
:1046800037FD18EE900AA84204DDC4ED029ABDEC95
:10469000048B70BD84ED028AF9E71E4880ED011A93
:1046A000042003F025FD18EE900AA84202DDC4EDB7
:1046B000039AECE784ED038AE9E7012003F018FD93
:1046C000BDEEC88A012018EE101A03F0ADFA0220E0
:1046D00018EE101A03F0A8FABDEEC98A032018EEEE
:1046E000101A03F0A1FA18EE101ABDEC048B042086
:1046F000BDE8704003F098BA002003F0F9FC84EDA7
:10470000008A84ED019AC2E70000000080000020CA
:10471000F80D0020440E0020FEE700000548006868
:10472000016841F01001016003491E220148FFF7B2
:1047300097BA0000AC150020CC5800204FF4FA7353
:1047400010B5C0B1012822D002282AD0032840F297
:104750007E444FF496722DD0042849D1032945D0C8
:10476000042945D119460C2003F080FBC820BDE880
:10477000104004F05FBA1A4631B14FF46B71022059
:1047800003F074FB0220F2E74FF4C861F7E74FF043
:10479000C80219B140F2ED310E20F1E740F6C41124
:1047A000FAE74FF0C80219B140F25D710F20E7E758
:1047B0001946FBE751B101290AD002290DD003297E
:1047C0000FD0042914D1C82219460DE0214602E079
:1047D000642240F22F310120D2E7C82240F2DC519E
:1047E00002E0C82240F698010020BDE72146BAE762
:1047F00010BD0000144910B568B1012822D108701D
:104800001248FCF769FE10490422BDE810400F4829
:10481000891CFCF7DBBE002008700D48FCF790FFF8
:104820000A48FCF76FFF0B4900200B4B421C01EBC1
:10483000800494ED000A03EB8004D0B2102884EDCC
:10484000000AF3D310BD00003A010020A41200209A
:10485000EC12002028B000088459002010B52DED7E
:10486000028BB0EE408A01F0EFFF78EE400A234A57
:10487000234CDFED211AF0EEE00A10EE900AB0F1C1
:10488000804F0BDAC4ED011AC4ED001AC2ED041A10
:104890000120C2ED001ABDEC028B10BDF0EE480AFB
:1048A00003F012FB82ED020A16491448C2ED061A03
:1048B00003F0C6FCD4ED050AF4EEC00AF1EE10FADE
:1048C00002D894ED050A0CE0D4ED050AF1EE600A79
:1048D000F4EEC00AF1EE10FA03DB94ED050AB1EE36
:1048E000400ADFED090A84ED000A002060EE200A8C
:1048F000C4ED010ACFE7000000000000B856002018
:1049000080000020485600206666A6BF04F084F8A8
:1049100000F02AF8002004F001FA4FF47A7403A0A2
:1049200001F03EF9204603F0E9FAF8E764656C65AA
:104930007465206661696C656400000010B504F060
:10494000CDF8FFF7EBFE03F0CDF803F077FA01F0B6
:1049500025FE0448006804F0E1F9BDE8104004F0C9
:10496000E1B80000E4000020054920201CB5002328
:10497000C200CDE90001064802A105F0A5F81CBD62
:10498000E400002053746172745F7461736B000003
:104990003D490008502010B572B680F31188BFF36E
:1049A0004F8FBFF36F8F62B605F076F918B10449E7
:1049B0004FF080500860002080F3118810BD000087
:1049C00004ED00E030B593B030216846FBF7D4FC2D
:1049D00014210CA8FBF7D0FC1F48016841F080515E
:1049E0000160006800F0805011901C48016841F49B
:1049F00040410160006802240423089300F4404011
:104A000011900120D82582050104CDE90642CDE9A7
:104A100009540B94CDE900016846FDF783FE08B107
:104A200072B6FEE7FDF7C2FA08B172B6FEE70EAD48
:104A300000214FF4A0524FF4805385E80E000F2060
:104A4000CDE90C0407210CA8FDF764FD002801D076
:104A500072B6FEE713B030BD40380240007000402F
:104A60000248016841F470010160704788ED00E080
:104A7000044810B5FEF7D6FBBDE810400248FEF72B
:104A8000D1BB00004C130020141500200148FEF794
:104A9000C9BB00004C130020044810B5FEF7C2FB50
:104AA000BDE810400248FEF7BDBB00004C130020DB
:104AB000601500200148FEF7B5BB00004C13002034
:104AC0000148FEF7AFBB0000981300200148FEF735
:104AD000A9BB0000E41300200148FEF7A3BB0000BF
:104AE0003014002010B50E4C2068C068C043C007C9
:104AF0000CD10C480178491CC9B20170642905D950
:104B00000021017008480121FDF733F921686FF099
:104B100001000861BDE810400148FEF783BB0000BA
:104B2000EC58002039010020000802400148FEF73F
:104B300079BB0000C81400200148FEF773BB0000D9
:104B4000C8140020044810B5FEF76CFBBDE8104007
:104B50000248FEF767BB0000C814002004180020BC
:104B60000148FEF75FBB0000C8140020F0B5294BD8
:104B70004FF0804E284D02689842284E284F294C0D
:104B800009D0704507D0A84205D0B04203D0B84242
:104B900001D0A04205D1D1F804C022F070024CEA45
:104BA000020298421BD0704519D0A84217D0B042DB
:104BB00015D0B84213D0A04211D01B4DA8420ED040
:104BC0001A4DA8420BD01A4DA84208D0194DA84240
:104BD00005D0194DA84202D0184DA84203D1CD6886
:104BE00022F440722A438E684D6922F08002C66228
:104BF0000E682A439842866201D0A04201D1096919
:104C000001630368012143F0040303604161026012
:104C1000F0BD00000000014000040040000800401A
:104C2000000C0040000401400040014000440140ED
:104C30000048014000180040001C004000200040D7
:104C400010B5046A012301F01F018B409C430462EC
:104C50008A40016A1143016210BD42EA032283685F
:104C60000A4323F47F410A4382607047826822F03E
:104C700070020A4342F0070181607047F0B5DFF827
:104C800060E0184E184F026A036AB04222F0020C2C
:104C900023F001030362426885698B680C6805EAAA
:104CA0000E0525F0030543EA0C0344EA050401D090
:104CB000B84205D1CD6823F008031D4325F0040355
:104CC000B04201D0B84205D122F44076D1E9055274
:104CD00035432A4342608461496841630362F0BD01
:104CE0008FFFFEFF0000014000040140F0B5DFF837
:104CF00068E01A4C1A4D026A036AA04222F02006AC
:104D000023F01003036242688369D1F808C00F687A
:104D100003EA0E0323F4407E46EA0C134EEA07260C
:104D200001D0A84206D1CF6823F0800343EA0713DD
:104D300023F04003A04201D0A84207D1D1E90545A4
:104D400022F4406242EA840242EA850242608661BD
:104D5000496881630362F0BDFF8FFFFE00000140E0
:104D600000040140F0B5DFF868E01A4D1A4E026AFF
:104D7000036AA84222F4007723F480730362436835
:104D8000C269D1F808C002EA0E020C6822F0030ED4
:104D900047EA0C2244EA0E0401D0B04206D1CF68A3
:104DA00022F4006242EA072222F48062A84201D083
:104DB000B04207D1D1E9055623F4405343EA051325
:104DC00043EA06134360C4614968C1630262F0BDEF
:104DD0008FFFFEFF0000014000040140F0B5046AAF
:104DE000026A22F4805202624268C36924F40054C9
:104DF000DFF838C08E680D6803EA0C030C4F23F40B
:104E0000407344EA0634B84243EA052302D0094D10
:104E1000A84204D14D6922F4804242EA85124260E0
:104E2000C361496801640462F0BD0000FF8FFFFEAA
:104E30000000014000040140F0B5114F114B026A1F
:104E4000046A984222F4003524F4803303624268F5
:104E5000436D0E890C6803EA070344EA030445EA3C
:104E6000064302D0084DA84204D14D6922F4803295
:104E700042EA052242604465496881650362F0BDEB
:104E80008FFFFEFF0000014000040140F0B5114F0C
:104E9000114B026A046A984224F48013036222F4DC
:104EA00000144268436D0D890E6803EA070344EA63
:104EB000055443EA062302D0084DA84204D14D69A7
:104EC00022F4802242EA8522426043654968C16536
:104ED0000462F0BDFF8FFFFE0000014000040140AE
:104EE00010B5036A046A23F00A0324F00104046283
:104EF00084690B4324F0F00141EA021181610362ED
:104F000010BD10B5036A046A23F0A00324F0100456
:104F10000462846943EA011124F4704343EA0232D3
:104F20008261016210BD0000294910B59FED291A68
:104F3000487810B1B0EE410A0AE0274890ED000A27
:104F4000FBF778FED1ED010A30EE600AFBF772FE46
:104F5000DFED221A2248234C31EEC00AF7EE000A98
:104F600010EE102A80ED020AC0ED060AB2F1804F61
:104F70000BDA84ED011A84ED001A80ED041A002288
:104F800080ED001A01200A7010BD1749144803F083
:104F900057F9D4ED050AF4EEC00AF1EE10FA02D882
:104FA00094ED050A0CE0D4ED050AF1EE600AF4EE8A
:104FB000C00AF1EE10FA03DB94ED050AB1EE400AE7
:104FC00084ED000AF1EE400A0020C4ED010A10BD94
:104FD0003C0E002000000000145700200080B14368
:104FE000B8560020800000204856002010B52D49FA
:104FF0002DED028BB0EE408A18EE100A9FED2A0AC2
:10500000884202DD38EE408A06E018EE100A274991
:10501000884201D938EE008A01F016FC78EE400A89
:10502000244A254CDFED221AF0EEE00A10EE900A39
:10503000B0F1804F0BDAC4ED011AC4ED001AC2EDD5
:10504000041A0120C2ED001ABDEC028B10BDF0EE77
:10505000480A02F039FF82ED020A18491548C2EDEC
:10506000061A03F0EDF8D4ED050AF4EEC00AF1EEED
:1050700010FA02D894ED050A0CE0D4ED050AF1EE21
:10508000600AF4EEC00AF1EE10FA03DB94ED050AB3
:10509000B1EE400A84ED000AF1EE400A0020C4EDB2
:1050A000010AD1E7000034430000B443000034C3D8
:1050B00000000000B8560020800000204856002064
:1050C00010B52DED028BB0EE408A01F0BDFB30EE45
:1050D000080A0D49DFED0D0A10EE100A884202DDC4
:1050E00030EE600A06E010EE100A0949884201D944
:1050F00030EE200A074880ED000A0320BDEC028B49
:10510000BDE8104002F0F4BF000034430000B44397
:10511000000034C3440E00200C4810B50068C1697B
:10512000C943C9060DD4102101620848FEF7C8FA28
:1051300007480122016807484968C1F11E01417012
:105140000270BDE810400148FEF702BBAC1500201C
:1051500044170020040000200148FEF7F9BA0000BF
:105160003416002090F82410090706D50168436B17
:105170004A6822F400421A434A6090F82410C90792
:1051800006D00168836A4A6822F400321A434A60F2
:1051900090F82410890706D50168C36A4A6822F48A
:1051A00080321A434A6090F82410490706D50168F6
:1051B000036B4A6822F480221A434A6090F8241054
:1051C000C90606D50168836B8A6822F480521A43A7
:1051D0008A6090F82410890606D50168C36B8A6836
:1051E00022F400521A438A6090F82410490611D51F
:1051F0000168036C4A6822F480121A434A60016C09
:10520000B1F5801F06D10168436C4A6822F4C002E0
:105210001A434A6090F82410090606D50168826C8A
:10522000486820F40020104348607047F8B5002615
:105230000446C0F88460FCF7A9FD034620682025D9
:105240000068000716D56FF07E40009000222046CF
:10525000290400F067FB68B1216851E8000F20F0D5
:10526000800041E80002002AF6D1E567032084F8B7
:105270007860F8BDE567C4F8805026666666002051
:1052800084F87860F8BD10B5806B0021A0F85A1042
:10529000FEF75CFA10BD70B5846B00252168E06FE5
:1052A000D4F880608968090606D5212804D1A4F8BD
:1052B0005250204600F0A8F820688068400606D5C5
:1052C000222E04D1A4F85A50204600F077F8D4F8E2
:1052D000840040F01000C4F884002046FEF736FA3F
:1052E00070BD70B5C36900220146806BB3F5807F45
:1052F0002DD0A0F85A20036853E8004F24F480749E
:1053000043E80045002DF6D10368083353E8004F09
:1053100024F0010443E80045002DF5D1036808336B
:1053200053E8004F24F0400443E80045002DF5D138
:105330002023C0F88030036E012B08D1046854E8A4
:10534000003F23F0100344E80035002DF6D14266FB
:10535000036E012B02D0FEF7BFFC70BDA0F85A20EF
:105360000968B0F85820496889B28A4201D9A0F882
:105370005A10B0F85A10511A89B2FEF7A0F970BD50
:1053800010B50246806B01214166016E012902D0F1
:10539000FEF7A3FC10BDB0F858104B08A0F85A3027
:1053A0001268526892B2914201D3A0F85A20B0F824
:1053B0005A20891A89B2FEF782F910BD016851E8B6
:1053C000002F22F4907241E80023002BF6D10168EF
:1053D000083151E8002F22F0010241E80023002BA0
:1053E000F5D1016E012908D1026852E8001F21F0B1
:1053F000100142E80013002BF6D100212022C0F852
:105400008020016681667047026852E8001F21F023
:10541000C00142E80013002BF6D12021C16770477C
:1054200010B5D0F88010B0F85C202229016804D0B3
:10543000886940F00800886110BD496A436D1140D9
:105440001980416D891C4165B0F85A10491EA0F8B9
:105450005A10B0F85A100029EED1026852E8001F25
:1054600021F4907142E80013002BF6D10168083155
:1054700051E8002F22F0010241E80023002BF5D172
:1054800000212022C0F880208166416602685268AF
:10549000120208D5036853E8002F22F0806243E827
:1054A0000024002CF6D1026E012A02D0FEF714FC73
:1054B00010BD0166026852E8001F21F0100142E8A9
:1054C0000013002BF6D10168CA69D243D20601D479
:1054D00010220A62B0F85810FEF7F1F810BD10B5AE
:1054E000D0F88010B0F85C202229016804D08869C7
:1054F00040F00800886110BD496A436D1140197081
:10550000416D491C4165B0F85A10491EA0F85A1067
:10551000B0F85A100029EED1026852E8001F21F4B9
:10552000907142E80013002BF6D10168083151E870
:10553000002F22F0010241E80023002BF5D10021C9
:105540002022C0F8802081664166026852681202FB
:1055500008D5036853E8002F22F0806243E8002456
:10556000002CF6D1026E012A02D0FEF7B5FB10BD69
:105570000166026852E8001F21F0100142E80013A2
:10558000002BF6D10168CA69D243D20601D4102299
:105590000A62B0F85810FEF792F810BD2DE9F041FC
:1055A00004460368C2698168D4E90450DFF8F0C199
:1055B0007C4E29431F68002510437B4A014307EABC
:1055C0000C070F431F604FF400402168E7684B68E9
:1055D00023F440533B434B602768A369216AD7F803
:1055E00008C019432CF430630B43BB602168B142FF
:1055F0000AD1116811F0030152D001297CD002298F
:1056000071D003296ED184E0684B99420AD11168A8
:1056100011F00C0167D0042965D0082975D00C2938
:1056200060D176E0624B99420AD1116811F03001E5
:1056300059D010296BD0202967D0302952D168E089
:105640005C4B99420AD1116811F0C0014BD040293E
:105650005DD0802959D0C02944D15AE0564B994297
:105660000DD1116811F440713DD0B1F5807F4ED05D
:10567000B1F5007F49D0B1F5407F33D149E04F4BC0
:1056800099420FD1116811F4406109D0B1F5806FD2
:105690003DD0B1F5006F38D0B1F5406F22D138E080
:1056A000012120E0464B99420DD1116811F440517F
:1056B00019D0B1F5805F2AD0B1F5005F25D0B1F5E2
:1056C000405F0FD125E03F4B99420BD1116811F497
:1056D000404108D0B1F5804F19D0814215D0B1F5C5
:1056E000404F16D01021E369374A4FF6EF768342D8
:1056F0002ED1092949D201E009E006E0DFE801F0F6
:105700000B0E11451345454516000221EBE7042118
:10571000E9E70821E7E7FCF7B5FF06E0FCF7C2FF81
:1057200003E0104602E0FCF7CDFF78B3616840006B
:1057300000EB5100B0FBF1F0A0F11001B14224D810
:105740004FF6F0732168C0F342021840104320E086
:1057500009291AD2DFE801F005080B190D191919EA
:105760001000FCF78FFF06E0FCF79CFF03E01046FB
:1057700002E0FCF7A7FF48B1616800EB5100B0FB05
:10578000F1F0A0F11001B14201D9012502E0216838
:1057900080B2C8600020A066E0662846BDE8F081BF
:1057A000F369FFEF001001409038024000440040D0
:1057B00000480040004C00400050004000140140F0
:1057C00000780040007C00400024F40070B50446DE
:1057D000406F002322256165A4F85820C4F8843066
:1057E000C4F88050D0B11E49C163616F1D48086480
:1057F000616F1D48C864606F03651346656D21685D
:10580000606F2A462431FCF73BF938B11021C4F807
:1058100084102020C4F88000012070BD206940B1B0
:10582000216851E8000F40F4807041E80002002A2E
:10583000F6D12068083050E8001F41F0010140E82F
:105840000012002AF5D12068083050E8001F41F00E
:10585000400140E80012002AF5D1002070BD000090
:10586000E3520008815300089752000830B583685E
:10587000002441654FF48055A0F85820AB42A0F8B1
:105880005A204FF0FF01846604D1026972BB40F2D6
:10589000FF112BE04FF07F0233B3B3F1805F28D0CC
:1058A000A0F85C402221C0F88440C0F88010016854
:1058B000083151E8002F42F0010241E80023002B9B
:1058C000F5D18168A94201D10169C9B113490269C1
:1058D0008166BAB1016851E8002F42F4907241E844
:1058E0000023002BF6D116E0036933B9A0F85C1051
:1058F000D8E7016909B13F21F8E7A0F85C20D1E7BA
:1059000007498166026852E8001F41F0200142E821
:105910000013002BF6D1002030BD0000DF5400083A
:10592000215400082DE9F047994617460D460446D4
:10593000089E4FF0000833E0701C31D0FCF726FAC7
:10594000A0EB0900B04218D8BEB120680168490731
:1059500026D5802D24D0402D22D0C169C943090706
:105960000DD4082505622046FFF728FDC4F88450B1
:10597000012084F87880BDE8F0870320FBE7C06948
:10598000C04300050CD421684FF400600862204633
:10599000FFF714FD2021C4F8841084F87880ECE728
:1059A0002068C06935EA000004D00020B842C3D0A6
:1059B0000020E0E70120F9E770470000F0B5574804
:1059C0002DED048B81B00068C169C1F3001100297D
:1059D0007DD0102101625148FDF772FE504800272A
:1059E000504D514C00684068C0F12100287020786B
:1059F00055286DD100200146625C491C0A291044DB
:105A0000C0B2F9DBA17A814275D1A078012872D1A8
:105A1000B4F90400FAF79CFD9FED448B53EC182B6E
:105A2000FAF7B5FC9FED439B53EC192BFAF7AFFC4B
:105A3000FAF7B2FD3C4E24367060B4F90800FAF76C
:105A400087FD53EC182BFAF7A2FC53EC192BFAF74D
:105A50009EFCFAF7A1FD08EE100AB4F90600FAF769
:105A600077FD9FED361B53EC112BFAF790FC53ECAE
:105A7000192BFAF78CFCFAF78FFD00EE100A31486B
:105A800086ED020AD5ED010A78EE600AC6ED000A3D
:105A9000007878B100F096FE86ED020A96ED010AD4
:105AA00000F090FE86ED010A96ED000A00F08AFEF5
:105AB00086ED000A0097E86850B100216A4603F0BD
:105AC000A9FE01280DD118491422243101E017E064
:105AD00011E001F11400FAF728FCE868694603F0C8
