:020000040800F2
:10000000E8530020A5020008A35500089D4B0008F6
:10001000A155000815100008556E000800000000EA
:10002000000000000000000000000000E1010008E6
:10003000E1190008000000003D0200086D5B0008A7
:10004000BF020008BF020008BF020008BF0200088C
:10005000BF020008BF020008BF020008BF0200087C
:10006000BF020008BF020008BF020008BF0200086C
:100070000D19000819190008BF0200082519000809
:10008000BF020008BF020008BF020008BF0200084C
:10009000BF020008BF020008BF020008BF0200083C
:1000A000495C00088D5C0008715C0008655C000814
:1000B000995C0008A55C0008B15C0008BF0200085C
:1000C000BF020008BF020008BF020008BF0200080C
:1000D000BF020008696C0008BF020008756C0008C8
:1000E000BF020008BF020008BF020008055D00084B
:1000F000495D00082D5D0008215D0008BF02000871
:10010000BF020008BF020008BF020008BF020008CB
:10011000DD630008E9630008BF020008BD5C000859
:10012000BF020008BF02000831190008BF02000822
:10013000BF020008BF020008BF020008BF0200089B
:10014000BF020008BF020008BF020008BF0200088B
:10015000BF020008BF020008BF020008BF0200087B
:10016000BF020008BF020008BF020008BF0200086B
:10017000BF020008BF020008BF020008BF0200085B
:10018000BF020008BF020008F56300080164000810
:10019000BF020008BF020008BF020008BF0200083B
:1001A000BF020008BF020008BF020008BF0200082B
:1001B000BF020008BF020008BF020008BF0200081B
:1001C000BF020008BF020008DFF810D000F0FEFBFD
:1001D0000048004711870008AFF30080E853002073
:1001E0002D4B19680868B0E8F04F80F30988BFF319
:1001F0006F8F4FF0000080F31188704700000000FF
:1002000008480068006880F308884FF0000080F319
:10021000148862B661B6BFF34F8FBFF36F8F00DFF4
:1002200000BF00BF08ED00E0DFF80C00016841F4FA
:1002300070010160704700BF88ED00E0EFF30980B6
:10024000BFF36F8F144B1A681EF0100F08BF20ED1C
:10025000108A20E9F04F106009B44FF0500072B6D8
:1002600080F31188BFF34F8FBFF36F8F62B609F031
:1002700049FC4FF0000080F3118809BC1968086838
:10028000B0E8F04F1EF0100F08BFB0EC108A80F3FA
:100290000988BFF36F8F704714000020EFF30580CB
:1002A000704700000648804706480047FEE7FEE723
:1002B000FEE7FEE7FEE7FEE7FEE7FEE7FEE7FEE716
:1002C000395C0008C90100082DE9F05F05460020EF
:1002D00092469B4688460646814640241BE02846B7
:1002E00041464746224600F0A6F953465A46C01AF0
:1002F000914110D311461846224600F08DF92D1A6F
:1003000067EB01084F4622460120002100F084F9E6
:1003100017EB00094E41201EA4F10104DFDC484622
:1003200031462A464346BDE8F09F10B5431A934232
:1003300009D28318881803E010F8011D03F8011D85
:10034000521EF9D210BD40EA01039B0703D009E019
:1003500008C9121F08C0042AFAD203E011F8013BB1
:1003600000F8013B521EF9D210BDD2B201E000F8F4
:10037000012B491EFBD270470022F6E710B5134649
:100380000A4604461946FFF7F0FF204610BD10B597
:10039000002200E0521C835C8C5CA34201D1002B44
:1003A000F8D1D8B2E1B2401A10BD2DE9FE4F81EA72
:1003B000030404F0004421F0004100944FF0000BCE
:1003C00023F0004350EA01045ED052EA03045BD0FC
:1003D000C3F30A54C1F30A552C44A4F2F334019434
:1003E000A0FB0254C1F3130141F48011C3F31303C2
:1003F00043F4801301FB024400FB034E840A970A76
:1004000044EA815447EA8357A4FB076802958D0AA2
:1004100005FB07854FEA932C04FB0C542705029D2E
:100420004FEA065847EA1637B5EB08056EEB070C9E
:10043000870E920E47EA811742EA8312A7FB020158
:10044000B6EB0B0164EB00042B0D43EA0C335E1892
:1004500044EB1C50DA465146E7FB0201C5F3130496
:100460004FEA0B3343EA14534FEA0432019C43EA48
:100470000603A4F10C040294009CCDE900B400F042
:100480007FF903B0BDE8F08F00200146F9E72DE9C0
:10049000F04D81EA030404F0004B21F000451446BE
:1004A0004FF0000A23F0004150EA050220D054EA40
:1004B00001021DD0C5F30A570246C5F31303C1F369
:1004C0001300C1F30A5640F4801543F48013A7EBE0
:1004D0000608101BD64608F2FD3873EB050002D360
:1004E00008F1010801E092185B41B8F1000F03DA4E
:1004F00000200146BDE8F08D00204FF48011064633
:1005000084460EE0171B73EB050705D3121B63EB44
:10051000050306434CEA010C49084FEA30009218E3
:100520005B4150EA0107EDD152EA030012D082EAA2
:10053000040083EA0501084305D0101BAB4106D235
:100540000122002306E000224FF0004302E06FF09A
:10055000010253101AEB06004CEB085110EB0A0095
:1005600041EB0B01BDE8F04D00F0FBB80EB5C10F3B
:1005700080EAE0700844CA07002140F233438DE866
:100580000E000A460B4600F0FBF803B000BD00F079
:10059000004230F000400AD0C10D01F56071C0F397
:1005A000160042EA0151C20840071143704700207B
:1005B0000146704701F0004330B421F0004150EA99
:1005C000010206D00A0DA2F56072C1F31301002AE0
:1005D00002DC30BC00207047440F44EAC104C10073
:1005E000E01830BC00EBC25000F084B830B50B46C8
:1005F000014600202022012409E021FA02F59D4253
:1006000005D303FA02F5491B04FA02F52844151E26
:10061000A2F10102F1DC30BD202A04DB203A00FA0D
:1006200002F1002070479140C2F1200320FA03F349
:10063000194390407047202A04DB203A21FA02F047
:100640000021704721FA02F3D040C2F1200291400C
:1006500008431946704700000FB4002300B589B065
:100660000CA900910B996FF00042CB601E4B0693D2
:100670001E4B07930423CDE901321D4A089202461E
:100680006B46002000F060FA09B05DF814FB70B50D
:1006900086B006464FF0FF300091CDE90101002001
:1006A00015460C4604903246694604A8FFF7D4FF6D
:1006B00002460498211825B108B1084600E02046FA
:1006C0002860049800280DD0002A02DD0098884296
:1006D00008D0081B0094CDE901043246694604A8FD
:1006E000FFF7BAFF06B070BD810D00089F0D00082E
:1006F000150A00080029A8BF7047401C490008BF20
:1007000020F00100704710B4B0FA80FC00FA0CF041
:1007100050EA010404BF10BC704749B1CCF1200479
:1007200021FA04F411FA0CF118BF01212143084306
:10073000A3EB0C01CB1D4FEA00614FEA102042BF32
:10074000002010BC704700EBC35010440029A4BF28
:1007500010BC7047401C490008BF20F0010010BCCD
:10076000704710B5141E73F1000408DA401C41F103
:10077000000192185B411A4301D120F0010010BD25
:100780002DE9F04D92469B4611B1B1FA81F202E09B
:10079000B0FA80F220329046FFF73EFF04460F4643
:1007A00040EA0A0041EA0B0153465A46084313D077
:1007B000114653EA010019D0C8F140025046FFF734
:1007C0003AFF05460E46504659464246FFF724FF7B
:1007D000084305D0012004E020463946BDE8F08DED
:1007E0000020054346EAE0762C4337430A98630528
:1007F000E40AA0EB08000022FD0A44EA47540A304C
:1008000002D500200146E9E7010510196941DDE93B
:10081000084500196941BDE8F04DA2E72DE9FE4FFA
:10082000804681EA0300C00F0C46009021F0004191
:1008300023F00045B8EB0200A94105D2404621460D
:1008400090461C460B46024623F00040104347D01A
:10085000270DC7F30A00C3F30A510290401A019012
:1008600040286BDAC3F3130040F4801B00989246D3
:1008700020B10023D2EB030A63EB0B0B019859461E
:10088000C0F140025046FFF7C7FE06460D465046EF
:100890005946019A00F0ACF810EB080061410024C1
:1008A00087EA115284EAE7731A4340D0009A62B390
:1008B000019A012A4FEA075215DC001B61EB020185
:1008C0004FF0004202EA0752CDE90042001C41F518
:1008D000801132462B46FFF753FF03B0BDE8F08F7F
:1008E00040462146F9E7001B61EB0201001C41F57F
:1008F000801300185B412018A2F5001747EB030195
:1009000040EAD570B6196D4111E06D084FEA360620
:1009100045EAC0754FEA0752001B61EB0201001C5B
:1009200041F5801149084FEA300000195141324623
:100930002B4603B0BDE8F04FFFF713BF009801222C
:1009400040000023D0EB020263EBE07300982146E5
:100950004FEAE074B8EB000061EB0401E9E783F0D3
:1009600000435BE781F0004158E7C1F30A52C1F34D
:10097000130140F2FF3341F480119A4202DA002061
:100980000146704740F233439A42A2F2334202DCFE
:100990005242FFF750BEFFF73FBE000030B5041EC5
:1009A00071F1000404DB4FF00044404264EB0101AC
:1009B000141E73F1000405DB1C464FF00043524245
:1009C00063EB0403994208BF904230BD064C074DCB
:1009D00006E0E06840F0010394E80700984710340F
:1009E000AC42F6D3FFF7F4FB48A8000868A800085B
:1009F000202A06DBCB17203A41FA02F043EAE073E3
:100A000006E041FA02F3D040C2F1200291400843CF
:100A100019467047C0B24FF4F05100F0D1B9000050
:100A20002DE9FF4F087883B09946FF2805D0491C6F
:100A30002D2804D00024002008E000200BE0012431
:100A4000F9E700EB800003EB4000491C0B78FF2B1B
:100A5000F7D104B1404200230293147819461D4691
:100A60002D2C01D02B2C04D1521C2D2C13D0002462
:100A70000294AA461478FF2C0FD00A25A3FB057810
:100A800001FB05814FF0000C03FB0C11521CE31914
:100A90004AEB0101EEE70124EAE7814453EA010051
:100AA00002D019F5C87F06DA03980021C0E90011C9
:100AB00007B0BDE8F08F0025AE4E2F46DFF8B882B4
:100AC000184600F091F9CDE90001B9F1000002DA11
:100AD000C9F1000400E004460023A74A1AEB030B07
:100AE00042EB045A12E0E00707D02A463346384664
:100AF0004146FFF75AFC074688462A4633461046C9
:100B00001946FFF752FC05460E466410002CEAD148
:100B1000DDE90001B9F1000F5A46534606DAFFF746
:100B2000B6FC3A464346FFF7B2FC05E0FFF73DFC52
:100B30003A464346FFF739FC029A0AB181F0004178
:100B4000039AC2E90001B3E72DE9FF4F1F468DB0BC
:100B5000D7E901464FF0FF382E2045464FF00009F7
:100B60000B90B9696D1C0E988847396A8246884790
:100B70000028F6D1BAF1FF3F0AD024F4D064002E49
:100B800011DDBAF12B0F08D0BAF12D0F0BD102E015
:100B9000404611B08DE744F48064B9696D1C0E982D
:100BA00088478246761E6946600501D52D2000E003
:100BB0002B208DF8000001F1010B0DF1200809E058
:100BC000B9696D1C0E98884782460F9844F40074EA
:100BD000761E0560002E02DDBAF1300FF0D00B99C1
:100BE0008A453ED144F0800406E00F99681CA9F1C3
:100BF000010944F400740860B9696D1C761E0E98F2
:100C0000884782463028F0D02BE00B998A4505D1E1
:100C1000200603D444F08004761E18E0504606F007
:100C200035FA08B30DF11301761E44F400748B45B8
:100C300008D2AAF130000BF8010B200607D5A9F164
:100C4000010003E0200602D409F101008146A0055D
:100C500002D50F99681C0860B9696D1C0E98884709
:100C60008246002ED1DC53E0002E51DDBAF1650F33
:100C700002D0BAF1450F4BD1A00549D5B9696D1C19
:100C800024F44074761E0E9888478246002E0CDDB0
:100C90002B2804D0BAF12D0F07D144F48074B96920
:100CA0006D1C0E9888478246761EE00501D52D21E1
:100CB00000E02B2108F8011BCDF82C8021E00DF17C
:100CC0002901761E44F4007488450CD2AAF1300044
:100CD00010F0FF0088F8000002D10B99884509D96F
:100CE00008F1010806E0E00501D5244801E042F2E0
:100CF0000F708146B9696D1C0E98884782460F981F
:100D00000560002E04DD504606F0C0F90028D6D15B
:100D1000F9690E988847FF208BF8000088F80000DA
:100D20000020069007904B466A4608A906A8FFF7E0
:100D300077FEA00502D46FF001002AE714F0240F1B
:100D40000AD0E00714D1DDE906123868031D3B60C4
:100D50000068C0E900120BE0DDE90601FFF72AFC9C
:100D60000146E00704D13868021D3A60006801605E
:100D700028460EE7000014400000F03FF1D8FFFFC6
:100D8000426842B1016811F8013B23B1521EC0E92B
:100D90000012184670470121C160881E70474268E2
:100DA0005AB1C368016843B983688B4205D0491EB4
:100DB000521CC0E90012002070474FF0FF3070470E
:100DC0007F2801D9002208E0064A02EB5002C00742
:100DD000127800D1120902F00F0201209040084061
:100DE00070470000FCA700080EB540F233420292A3
:100DF0000022CDE900221346FFF7C2FC03B000BD7C
:100E000070B58C1810F8015B15F0070301D110F8CC
:100E1000013B2A1106D110F8012B03E010F8016BF9
:100E200001F8016B5B1EF9D12B0705D40023521E7C
:100E30000DD401F8013BFAE710F8013BCB1A921CE4
:100E400003E013F8015B01F8015B521EF9D5A142E2
:100E5000D8D3002070BD10B50146806B026C12F033
:100E6000500F05D0026CD20626D501F043F910BD13
:100E7000016C41F40071016401688A6812F0405FFE
:100E800017D18269AAB9CA6A12F4700F02D08A68AF
:100E900052050ED44A6822F020024A60016C21F407
:100EA00080710164016CC90403D4016C41F001013B
:100EB000016401F01DF910BD806BC26C0846BDE8ED
:100EC0001040104710B5806B40210164416C41F027
:100ED0000401416401F00EF910BD10B5806B01F002
:100EE00008F910BD484910B5D1F8042322F4403266
:100EF000C1F80423D1F8042343681A43C1F804233A
:100F000001684A6822F480724A6001684A6803698D
:100F100042EA03224A6001684A6822F040724A604D
:100F200001684A6883681A434A6001688A6822F443
:100F300000628A6001688A68C3681A438A60816AAD
:100F40006FF07062D14201688A6822F070628A6034
:100F500001688A680CD0836A1A438A6001688A68CB
:100F600022F040528A6001688A68C36A1A4301E02D
:100F700022F040528A6001688A6822F002028A6088
:100F800001688A68836942EA43028A6090F8201007
:100F9000002901684A680FD042F400624A60016883
:100FA0004A6822F460424A6001684A68436A174C02
:100FB00004EB43331A4301E022F400624A60016803
:100FC000CA6A22F47002CA620168CA6A838B104C32
:100FD00004EB03531A43CA6201688A6822F4007260
:100FE0008A6001688A6890F8303042EA43228A6059
:100FF00001688A6822F480628A6001688A684069B0
:1010000042EA8020886010BD0020014000E0FFFF20
:101010000000F0FFFEE70000F0B50022164E9FED45
:10102000150A012411468578C1F1070304FA03F774
:101030003D420FD08578521CD2B2DD4005F001034D
:1010400000EE903A06EB8103F8EE600A93ED001A89
:1010500000EE810A491CC9B20829E4D33AB100EE76
:10106000902AB8EE601AC0EE010AB0EE600A80ED78
:10107000020AF0BD00000000DCA70008012010B546
:1010800007F06AFE0021012007F0C6FC00210220C3
:1010900007F0C2FC0021032007F0BEFC0021042061
:1010A00007F0BAFCBDE8104007F088BC10B50C4C46
:1010B000B0EE000A2DED028B94ED0A8A84ED0A0A47
:1010C0009FED080A00F05EFAC82008F08BFB84ED63
:1010D0000A8ABDEC028BBDE81040FFF7CFBF0000CD
:1010E0006C4F00200000000003489FED020A80EDD5
:1010F000080A7047000000006C4F002070B5124DC8
:101100002DED028BB0EE408A2971114C9FED0F0A34
:1011100084ED080AB0EE600A00F07CF8D4ED088A8D
:1011200002E0022008F05EFB94ED080A30EE680A47
:10113000B0EEC00AB4EEC80AF1EE10FAF1D3002006
:101140002871BDEC028B70BD24010020000000005E
:101150006C4F0020014890ED080A70476C4F00204A
:10116000234A002110B51170224C9FED230AA4F1EF
:101170003400DFED220A2170617061802171E1800D
:101180002172617280ED000A80ED010A80ED020A91
:1011900080ED030A80ED070AC0ED050AF3EE090AA7
:1011A000C0ED040ADFED160AC0ED060ADFED150AF0
:1011B000C0ED090AC0ED0A0AC0ED0B0AC0ED0C0A29
:1011C000114880ED010A80ED020A11700F4801708C
:1011D00041F288300E490860002004F019FB01201C
:1011E000607207F0ABFBBDE8104007F011BD0000D6
:1011F0007A000020A04F0020000000000000C8423C
:10120000000048423333333F8001002018010020A2
:101210007400002010B505284FF07E542DED048B8E
:10122000F0EE608AB0EE409ADFED2C9A39EE680A53
:10123000B0EEC08A4FD2DFE800F046270B031B0058
:10124000BDEC048BB0EE410ABDE8104005F09AB841
:10125000234880ED001A02200FE0B0EE690A01E099
:10126000B0EE490ABDEC048BBDE8104000F08AB92D
:10127000B0EE410A00F04AF9042007F06DFD18EEC7
:10128000100AA042ECDDE8E7012007F065FDBDEEA5
:10129000C98A012018EE101A07F0BEFB022018EED2
:1012A000101A07F0B9FBBDEEE88A032018EE101AF9
:1012B00007F0B2FB18EE101ABDEC048B0420BDE859
:1012C000104007F0A9BB002007F046FD054880ED5F
:1012D000009AC0ED018ABDEC048B10BD0000000037
:1012E000240100206C4F00200D480E490E4A03785F
:1012F0008BB991ED002A012380ED032A91ED012A9B
:1013000080ED042A91ED022A80ED052A92ED062A4D
:1013100080ED062A037081EC030AC2ED061A7047BD
:1013200080010020204C00206C4F00207CB5464CF2
:10133000607A28B3454E464D464996ED010AD5EDF3
:10134000000A30EE600AB0EEC00A10EE100A8842C1
:1013500016DDFFF793FE072008F0DCF82868FFF79A
:1013600016F90D4604467068FFF711F941EC100BB1
:10137000CDE9004553EC102B37A005F06DFDFEE7DD
:101380004248007802285ED12F4A00252079343A5D
:10139000012823D13E483F4B90ED010A2A48B0EE88
:1013A000C00A10EE101AB0F90200994201DD401C8B
:1013B00002E0C82801DA0A386080B4F90200002887
:1013C00001DDC8280CDB2571658000F07FF86078AE
:1013D00000EE100AB8EE400A82ED020A608888B179
:1013E00060789FED2D1ADFED2D0A400800EE100AFF
:1013F000B8EE400A82ED020AD2ED021AB2EE0E0AEF
:10140000FFF772FF207A00281DD02549002000EB4D
:10141000400201EB8202127AA2B1401CC0B2052840
:10142000F5D3E088401C00B2E08050280BDBE5805B
:101430002572FFF723FE072008F06CF819A005F0CD
:101440000BFDFEE7E5807CBDA04F0020084D00208D
:10145000C000002000002042524F4C4C204F564507
:10146000522120726F6C6C3D252E316620626173B3
:1014700069635F723D252E31662C20656D6572674C
:10148000656E63792073746F70210A007A00002002
:10149000104F00206666A63F000048430000000091
:1014A0002C0100204C696E65206C6F7374212045FF
:1014B0006D657267656E6379206272616B6520612C
:1014C00063746976617465642E0A00000C480178C3
:1014D000002913D00B4990ED030A81ED000A90ED2D
:1014E000040A81ED010A90ED050A81ED020A064920
:1014F00090ED060A81ED060A002101707047000098
:1015000080010020204C00206C4F002010EE100ABB
:101510000949DFED0A0A884202DD30EE600A06E082
:1015200010EE100A0649884201D330EE200A054821
:1015300080ED010A70470000000034430000B4430E
:10154000000034C37401002010EE100A0949DFEDD9
:101550000A0A884202DD30EE600A06E010EE100A48
:101560000649884201D330EE200A054880ED000A82
:1015700070470000000034430000B443000034C34F
:1015800074010020F0EEC00AB6EE001A314970EE88
:10159000810A314AFCEEE00A10EE900AC0B24870AF
:1015A00013783439022B05D01078042801D181ED4D
:1015B000030A704781ED020A28492D289FED280A69
:1015C000F1EE0C0A3ED01CDC142813D00EDC0C28E3
:1015D00001D00F28EDD1F3EE040AC1ED000A81ED30
:1015E000010A9FED200A81ED020A7047192801D0F7
:1015F0002428FAD1C1ED000A81ED010A9FED1A0AF3
:10160000F1E7372815D03C280CD0462801D04B28CC
:10161000EBD1F1EE000AC1ED000A81ED010A9FED68
:10162000130AE0E7C1ED000A81ED010A9FED100AFF
:10163000D9E7F2EE000AC1ED000A81ED010A9FED43
:101640000D0AD0E7C1ED000A81ED010A9FED0A0AFB
:10165000C9E70000A04F00207A000020204C0020A5
:1016600000000000000070420000B44200007A4315
:101670000000E64200000C430000A042074900229F
:101680000870074928B1012805D0022803D0032893
:1016900001D00A707047087070470000A04F00200A
:1016A0001801002070B5214C4FF080452DED048BC2
:1016B000B0EE418AB0EE609AF0EE409A25E002204A
:1016C00008F090F8194800F0FDF8607B01281CD163
:1016D000208810F4707F18D006F08AFBF0EE400AE4
:1016E000B0EE690A07F030FAF0EEC08AF0EE490A6F
:1016F000B0EE690A07F028FAB0EEC00A20EE080A38
:10170000F4EEC08AF1EE10FA0DD306F071FBF0EEA4
:10171000400AB0EE690A07F017FAB0EEC00A10EE00
:10172000100AA842CBDCBDEC048B70BD204F00201A
:1017300010B517484FF07E522DED028BB0EE608A47
:1017400090ED001AF0EE408AB0EEC11A11EE101AB8
:10175000914207DC90ED011AB0EEC11A11EE100AA9
:10176000904201DDFFF7A2FCB0EE680AFFF7ECFE45
:10177000032007F0F1FAF0EE480AB0EE680ABDEC7B
:10178000028B9FED041ABDE81040FFF78BBF0000ED
:101790006C4F00200AD7233CF0B572B6244D6E780A
:1017A00062B629783C23234C721A3C3292FBF3F741
:1017B00003FB1722D2B2032A14D3B1FBF3F203FBCB
:1017C0001212A25C5B2A05D0491CB1FBF3F203FBA9
:1017D0001211E9E70A46521CB2FBF3F603FB16228C
:1017E0008A4201D10020F0BDB2FBF3F603FB1626BE
:1017F000A65D5D2EEFD1521A3C3292FBF3F603FB4D
:101800001622521CD7B2002208E08E18B6FBF3FC59
:1018100003FB1C66A65D8654521CD2B2BA42F4D3B6
:10182000C819B0FBF3F103FB110028703846F0BD76
:101830007C010020304F0020054841780078081ACC
:101840003C213C3090FBF1F201FB1200C0B270472A
:101850007C01002000B5FFF7EFFFC0F13B00C0B2F4
:1018600000BD00002DE9F0410C468046FFF7F2FF75
:10187000A04202D20020BDE8F081104E10497078DD
:1018800002193C2A08D2084422464146FEF74DFD83
:101890007078204470700FE0C0F13C02084441466B
:1018A000D5B22A46FEF741FD621B054808EB05014B
:1018B0001746FEF73AFD77702046DCE77C010020F2
:1018C000304F00202DE9F04100260446354603F054
:1018D00017FF208000210122238802FA01F73B42F2
:1018E0000BD06D1C0F29EDB205D023884F1C02FAD6
:1018F00007F0034201D1761CF6B2491CC9B2102987
:10190000EAD366732573BDE8F0810000014800F05A
:1019100095BD0000440D0020014800F08FBD00007F
:10192000840C0020014800F089BD0000E40C002078
:10193000014800F083BD000048060020016818231C
:10194000CAB2103AB2FBF3F2054B6FF30901032A56
:101950009B5CC36500D9091D81650846704700007E
:1019600044A70008014610B500208B694FF0C074F1
:101970008A6A53B1B3F5005F15D072B1012A0CD059
:10198000022A0AD0032A09D104E01AB1012A06D09A
:10199000022A03D1C96AC90100D5012010BDC96A54
:1019A000A142FAD010BD002AF7D0012AF2D0022AB3
:1019B000F3D0032AF3D010BD30B50468256825F4B0
:1019C00080252560046863608368402B036803D02A
:1019D00099600068C26030BD9A600068C16030BD27
:1019E000704700001848002110B502F09BF9164816
:1019F000042102F097F9144801F0B2FF13480021C6
:101A000002F090F91148042102F08CF90F4801F01E
:101A1000A7FF0F48002102F085F90D48042102F0CC
:101A200081F90B4801F09CFF0A48002102F07AF985
:101A30000848042102F076F9064801F091FFBDE85C
:101A40001040054801F08CBFA8060020F4060020D5
:101A500040070020D8070020BC08002072B6FEE72F
:101A60002DE9F04F00242DED028B8FB09FED748A8D
:101A700014216846FEF780FC142105A8FEF77CFCC3
:101A80000020DFF8C0C105AF03460DF13009014663
:101A9000EA460C900D9001EB41020CEB8202157AA4
:101AA0001DB1157A022D05D012E009F80410641C4E
:101AB000E4B20DE092ED010A0AEB800585ED000A23
:101AC00092ED000A07EB8002401C82ED000AC0B2D2
:101AD000491C0529DFDBDFF86CB1032CABF1140BDB
:101AE00004D284424FF07E5810D3ACB100204A4655
:101AF00009E0115C401C01EB41010CEB810191ED0F
:101B0000010A30EE088AA042F3DB86E024B100220D
:101B10000A930B930AAB5FE04A491439002891ED10
:101B2000010A08D0012804D000220A930B930AABC3
:101B300022E09DED000A0FB0BDEC028BBDE8F08FF6
:101B4000511C07EB820514E007EB8104D5ED000A78
:101B500094ED001A70EEC10AF0EEE00A10EE904A21
:101B6000444505DC9C5C641C9C545C5C641C5C54BB
:101B7000491C8142E8DB521C8242E1DB00259DF8D2
:101B80002820294605E05C5C944201D92246CDB26A
:101B9000491C8142F7DB002ACDD00AEB85004CE0DE
:101BA000511C07EB820614E007EB810596ED000A55
:101BB000D5ED000A30EE600AB0EEC00A10EE105A01
:101BC000454505DC9D5C6D1C9D545D5C6D1C5D5444
:101BD000491C8142E8DB521C8242E1DB00269DF871
:101BE0002820314605E05D5C954201D92A46CEB2F7
:101BF000491C8142F7DB521C94421CD300204A4608
:101C000009E0115C401C01EB41010CEB810191EDFD
:101C1000010A30EE088AA042F3DB00EE104AF8EE2B
:101C2000400A88EE200AB5EEC00AF1EE10FA82D022
:101C30008BED010A7FE70AEB860090ED000A7AE758
:101C4000000000002C01002010B504462DED028B91
:101C5000B0EE608AF0EE408A06F0CAF8F0EE680A4C
:101C600006F072FF1A481C4980ED020A9FED190A1E
:101C700080ED060A07F000F9F0EEC80A9FED171A8A
:101C800060EE800A80EE810AD4ED050AF4EEC00A07
:101C9000F1EE10FA02D894ED050A0CE0D4ED050A35
:101CA000F1EE600AF4EEC00AF1EE10FA03DB94EDF7
:101CB000050AB1EE400A012078EE000A38EE400A2B
:101CC000C4ED000A84ED010ABDEC028B10BD0000DA
:101CD000C84C002000000000744C00200000484266
:101CE00070B52F4C05462F482F4E2DED028BB0EED0
:101CF000408A6278017802B111B1012903D007E06E
:101D0000FFF7AEFE02E0294890ED020A86ED020AD6
:101D1000234827490C3090ED000A234886ED060A37
:101D200007F0AAF8234884ED020AD0ED060AF4EE83
:101D3000C00AF1EE10FA02D890ED060A0CE0D0EDE0
:101D4000060AF1EE600AF4EEC00AF1EE10FA05DBC5
:101D500090ED060AB1EE400A84ED020A9FED161AD4
:101D6000F0EEC80AB5EEC08A80EE810AD4ED020A10
:101D700020EE200AF1EE10FA84ED020A03D2B1EE51
:101D8000400A84ED020A38EE400A85ED000A94ED1F
:101D9000020A38EE000A85ED010ABDEC028B70BD27
:101DA000180100200C010020904C0020104F002052
:101DB000204C00206C4F002000004842044810B521
:101DC00000F0DEFABDE81040024800F0BBBA0000A7
:101DD000480600200006002070B51E4C0022134665
:101DE00010462DED028B34F81010914201D90A46AD
:101DF0000346401CC0B20428F5D30021DFED160ACB
:101E00004FF4C870994204D034F81150551B8542E4
:101E10000EDB491CC9B20429F4D39FED108B63B1CA
:101E2000012B07D0022BB1EE400A03D0032B04D0C4
:101E3000B0EE600ABDEC028B70BD10EE100AFEF72A
:101E4000A6FB53EC182BFEF7B0FAFEF7B3FB00EE3F
:101E5000100AEFE70E0100200000000066666666CB
:101E60006666F63FF8B500240E4D012321464FF477
:101E70007A72C1F1050635F81100904203FA06F0B6
:101E800002D22043C4B200E08443491C0429F0DBA1
:101E9000E888009004A0AB886A88298804F0DCFFF9
:101EA0002046F8BD0E01002025642C25642C2564F5
:101EB0002C25640D0A00000002490422024800F0AB
:101EC000A5B900000E010020000600202DE9F04118
:101ED0000E4607461048FFF7F5FC0F48008800251E
:101EE0000E4CC0F3C110032803D0A5720020BDE83A
:101EF000F081A07A401CC0B2A072B842F6D305F0BF
:101F000077FF86ED000A0720A57207F003FB04A007
:101F100004F0A2FF0120EAE7204F0020E4000020A7
:101F20006779726F2072657365740A00F8B50023D3
:101F3000009390F83C20012A1ED0012280F83C201A
:101F400007270A68664DFE07092A21D9B2421FD029
:101F50000468D4F80CC00A3A02EB420297402CEA1B
:101F6000070CC4F80CC00A68AA4207D10268D468FA
:101F70000F7A44EA076409E00220F8BD0A3A8C6847
:101F800002EB420294400268D7683C43D46016E0FA
:101F90000468D4F810C002EB420202F01F0297401E
:101FA0002CEA070CC4F810C00A788C6802EB4202D5
:101FB00002F01F029440026817693C4314614A68AA
:101FC0001F27072A16D20468D4F834C0521E02EB29
:101FD000820297402CEA070CC4F834C00A8894B2F5
:101FE0000A79521E02EB820294400268576B3C430E
:101FF00054632DE004680D2A15D2D4F830C0D21FE6
:1020000002EB820297402CEA070CC4F830C00A8821
:1020100094B20A79D21F02EB820294400268176BD5
:102020003C43146314E0D4F82CC00D3A02EB820256
:1020300097402CEA070CC4F82CC00A8894B20A799D
:102040000D3A02EB820294400268D76A3C43D462A4
:10205000244C0268A24208D10A68B24205D1D4F8E1
:10206000042322F44002C4F804230268A2420ED1E1
:102070000A68122A0BD1D4F8042322F40002C4F80F
:102080000423D4F8042342F48002C4F80423026831
:10209000A24220D10A68AA4201D0112A1BD1D4F849
:1020A000042322F48002C4F80423D4F8042342F465
:1020B0000002C4F804230968A9420CD10A490B4A5A
:1020C0000968B1FBF2F101EB8101490000E0491E12
:1020D00000910029FBD180F83C300020F8BD0000C1
:1020E00012000010002001401000002040420F00AC
:1020F00070477047704770B504004FF0000603D07A
:10210000206C002510B107E0012070BD204600F0D2
:102110001DF8656484F83C50206CC00610D4206C17
:1021200020F4885040F0020020642046FEF7DAFEDA
:102130006564206C20F0020040F00100206400E0A3
:10214000012684F83C50304670BD000070B586B062
:10215000064614216846FEF70FF926493068884282
:1021600046D12548016841F40071016000682249A8
:1021700000F4007005901439086840F00100086010
:10218000086800F001000590086840F0040008604D
:10219000086803240025694600F0040005900C201F
:1021A0008DE83100154800F0CFFA302069468DE8FF
:1021B0003100134800F0C8FA134C124820604FF069
:1021C0000070C4E90105C013C4E903504000606118
:1021D0008000A0614011E0614FF44030C4E908057F
:1021E000204600F0FBF908B1FFF738FCB463A663A2
:1021F00006B070BD0021014044380240000002409A
:10220000000802404064024048060020F8B513462A
:10221000044600220092154690F83C00012807D0A1
:10222000012084F83C0020688668F60702D011E09F
:102230000220F8BD866846F0010686603A483B4EAB
:102240000068B0FBF6F000EB400000E0401E00909C
:102250000028FBD120688668F6075BD0226C40F22C
:102260000166B24342F4807222644068400505D59D
:10227000206C20F4005040F480502064206CC00496
:1022800004D5606C20F00600606400E0656484F8AA
:102290003C50A26B2648D063A26B26481064A26B08
:1022A0002548D0646FF022002268106020684268E0
:1022B00042F0806242602068826842F480728260EC
:1022C00020680A46A56B00F14C01284600F0EEF9A3
:1022D0001A490246D1F80403C006206811D088428A
:1022E00007D1836813F0405F03D1836843F08043D4
:1022F0008360D1F80403C00614D4114920688842D1
:1023000010D1816811F0405F0CD1816841F08041AB
:10231000816007E0206C40F010002064606C40F0A9
:10232000010060641046F8BD1000002040420F001C
:10233000570E0008DB0E0008C50E00080020014003
:102340000022014090F83C1001290CD0012180F8B6
:102350003C1001688A6822F001028A60016889687D
:10236000C90702D007E002207047016C21F48851B0
:1023700041F001010164002180F83C1008467047DB
:102380002DE9F041876D044600F0E6FA054694F821
:1023900035000026022806D080206065012084F8E0
:1023A0003460BDE8F0812068016821F01601016009
:1023B0002068416921F080014161206C08B9A06C5E
:1023C00020B12068016821F00801016020680168DF
:1023D00021F0010101600CE000F0BEFA401B05286D
:1023E00007D920206065032084F8350084F8346024
:1023F000D7E720680068C007EED194F85C103F2052
:102400008840B860012084F83500002084F83460EA
:10241000C7E790F83510022903D0802141650120DB
:102420007047052180F835100068016821F001012E
:10243000016000207047406D704700002DE9F843AF
:10244000044665484FF00009CDF800904FF416514E
:10245000A56D0068B0FBF1F72E68082194F85C20A8
:1024600001FA02F030420FD02068026852070BD503
:10247000026822F00402026094F85C008140A960C6
:10248000606D40F00100606594F85C104FF0010849
:1024900008FA01F0304208D021684969090604D5DC
:1024A000A860606D40F00200606594F85C10042044
:1024B0008840304208D021680968890704D5A8609F
:1024C000606D40F00400606594F85C101020884056
:1024D000304218D021680968090714D5A86020681F
:1024E0000168490304D50068000308D5A16C07E022
:1024F0000168C90503D4016821F008010160216C5D
:1025000009B12046884794F85C102020884030426A
:1025100031D021680968C9062DD5A86094F8350026
:1025200005282068016806D0490347D500680003E4
:102530001DD4616C1CE021F0160101602068416926
:1025400021F080014161206C08B9A06C20B12068A5
:10255000016821F00801016094F85C103F20884078
:10256000A86084F8358084F83490216D1FE0E16B19
:1025700009B120468847606D00282BD0606DC007E8
:1025800014D0052084F835002068016821F001018D
:1025900001600098401C0090B84203D82068006891
:1025A000C007F6D184F8358084F83490E16C0029B6
:1025B00010D001B02046BDE8F04308470168C905C6
:1025C000D5D4016821F01001016084F8358084F8C9
:1025D0003490CCE7BDE8F8831000002070B50446C5
:1025E00000F0BAF905465CB1022084F835000026F7
:1025F00084F834602068016821F0010101600CE07A
:10260000012070BD00F0A8F9401B052805D9202045
:102610006065032084F8350070BD20680068C0073D
:10262000F0D121680A6820480240D4E90103184328
:10263000D4E903352B43184363691843A36918434E
:10264000E3691843236A18431043626A042A03D1DA
:10265000D4E90B231A43104308602068406920F036
:102660000701606A042840EA01050CD1A06A05430D
:10267000E06A40B12046FFF775F920B1402060655F
:1026800084F83560BCE7206845612046FFF756F9BD
:1026900094F85C203F21914081606665012084F8B8
:1026A0003500002070BD00003F8010F02DE9F041A2
:1026B000866D044690F83400002501280DD00120D5
:1026C00084F8340094F835700020012F07D00225DB
:1026D00084F834002846BDE8F0810220FBE7022799
:1026E00084F8357060652046FFF766F994F85C1051
:1026F0003F208840B0602068016841F01601016009
:102700002068416941F080014161206C20B120685E
:10271000016841F0080101602068016841F0010191
:102720000160D7E770B5044600F016F90546601C55
:1027300002D004480078044400F00EF9401BA04287
:10274000FAD370BD040000202DE9F84FDFF8B091F6
:10275000002203274FF00F0CA9F1040B09F1040A22
:10276000ABF1040E0B68012595402B40AB426ED1B6
:102770000C7904F00304012C01D0022C15D18668D9
:10278000540007FA04F826EA0806D1F80C8008FA83
:1027900004F848EA0608C0F808804468AC430D799C
:1027A000C5F300159540254345600C79E443A40723
:1027B00008D0C568540007FA04F6B5438E68A640F1
:1027C0002E43C6600C7904F00304022C11D1D40806
:1027D00000EB8406356A5407E40E0CFA04F825EA87
:1027E0000805D1F8108008FA04F848EA0508C6F888
:1027F00020800568540007FA04F6B5430E7906F008
:102800000306A6402E4306604C6814F4403F70D087
:102810003C4C256845F480452560246822F003057A
:1028200004F480440094384C05EB0408D8F80858A8
:102830009407260F0CFA06F4A543344CA04201D1AC
:1028400000242EE0324CA04202D1012429E050E0C5
:10285000304CA04201D1022423E02F4CA04201D1F0
:1028600003241EE02D4CA04201D1042419E02C4C7D
:10287000A04201D1052414E02A4CA04201D1062433
:102880000FE0294CA04201D107240AE0274CA042C6
:1028900001D1082405E0264CA04201D1092400E022
:1028A0000A24B4402C43C8F80848D9F800404D46E3
:1028B0004E689C43F60200D51C432C60DAF80040B9
:1028C00055464E689C43B60200D51C432C60DBF88D
:1028D00000405D464E689C43B60300D51C432C6007
:1028E000DEF8004075464E689C43F60300D51C4355
:1028F0002C60521C102AFFF435AFBDE8F88F0000A1
:10290000083C0140443802400030014000000240D1
:102910000004024000080240000C02400010024087
:102920000014024000180240001C02400020024037
:10293000002402400069084000D00120704742692D
:1029400021EA02030A4043EA0241816170470AB169
:10295000816170470904FBE7014880687047000007
:1029600004000020024881680278114481607047A9
:1029700004000020032010B500F0E8F80F2000F05C
:1029800005F800F099F8002010BD000030B50546AC
:102990001F4887B0016841F480710160006806A992
:1029A00000F480700590684600F032FC0398B0B1E6
:1029B00000F04EFC40001749174AB0FBF1F11748F0
:1029C000026040F2E732491E41600021C0E9032164
:1029D0008160816100F0DEFE040003D015E000F0AC
:1029E00037FCE8E70D4800F0BBFF04000DD12D20B7
:1029F00000F07EF8102D07D2002229462D2000F08D
:102A000085F80748056000E0012407B0204630BD86
:102A10004038024040420F0000200040A40D00203A
:102A200008000020134A41781160124908310A68F1
:102A300022F001020A600B1F42681A60027BC37A0F
:102A4000120742EA0362837A42EAC342437B42EAC4
:102A50008342837B42EA4342C37B42EA0342437A96
:102A600042EA0322037A007842EA430202430A6000
:102A70007047000098ED00E0BFF35F8F04480168E5
:102A800021F48031016002490020703108607047F4
:102A900024ED00E0074940F0010008600548703867
:102AA000016841F480310160BFF34F8FBFF36F8F36
:102AB0007047000094ED00E00C4882B0016841F0DE
:102AC00080510160006800F0805000900748001DB0
:102AD000016841F480410160006800220F2100F488
:102AE00080400090901E02B000F010B840380240C4
:102AF000002809DB012100F01F02914040098000FD
:102B000000F1E020C0F80011704700000E4BF0B457
:102B10001B68C3F30223C3F10704042C00D9042467
:102B20001D1D072D01D2002300E0DB1E012606FA41
:102B300004F56D1E0D409D409E40761E164045EAF0
:102B40000601F0BC04F098B90CED00E0064A00F074
:102B5000070110684FF6FF03184040EA01200349BF
:102B600008431060704700000CED00E00000FA051B
:102B70001848F8B5016841F0805101600068164DB1
:102B800000F080500090286840F480302860FFF703
:102B9000E3FE4FF47A76044604E0FFF7DDFE001B07
:102BA000B0420FD86868C003F7D5286840F40030F9
:102BB0002860FFF7D1FE044606E0FFF7CDFE001BBC
:102BC000B04201D90320F8BD68688003F5D5002024
:102BD000F8BD000040380240007000402DE9F84F79
:102BE000044600780026DFF820943546C0070ED052
:102BF000D9F8001021F40001C9F80010D9F800102C
:102C0000626B1143C9F80010606B00B9012620689F
:102C1000FE4F00030ED53868E16B20F440100843E6
:102C20003860E06BB0F5801F01D010B102E00126E2
:102C300000E001252068C0020ED53868216C20F420
:102C4000400008433860206CB0F5800F01D010B10F
:102C500002E0012600E001252068C10100D501261F
:102C6000800666D5E8483830016841F0805101603F
:102C70000068DFF89CA300F080500090DAF80010A4
:102C800041F48071CAF80010FFF766FE804605E047
:102C9000FFF762FEA0EB080064287DD8DAF8000098
:102CA000C005F5D5DFF864A3AAF11C0ADAF8000024
:102CB00010F440702AD0218E01F44071814225D059
:102CC000DAF80010DAF8002021F4407142F4803282
:102CD000CAF80020DAF8002022F48032CAF8002076
:102CE000CAF80010DAF80000C0070FD0FFF734FE72
:102CF000804641F2883B05E0FFF72EFEA0EB08017D
:102D00005945CAD8DAF800008007F5D5206BC0F322
:102D1000012103297ED0D9F8001021F4F811C9F857
:102D20000010DAF80010228EC2F30B021143CAF829
:102D300000102078C00607D5386820F08070386011
:102D40003868A16B0843386020884104B14805D534
:102D50000168626E21F44031114301602188090449
:102D600005D50168A26E21F440211143016021685C
:102D7000C90305D50168E26E21F4401111430160D9
:102D80002168890305D50168226F21F440011143B0
:102D900001602178490600E002E105D50168626C16
:102DA00021F00301114301602178090605D501686E
:102DB000A26C21F00C01114301602188C90505D5E1
:102DC0000168E26C21F0300111430160218889051E
:102DD00005D50168226D21F0C001114301602188F1
:102DE000490505D50168626D21F440711143016008
:102DF0002188090505D50168A26D21F440611143C0
:102E000001602188C90407D50168E26D21F44051B1
:102E1000114300E03DE001602188890405D5016887
:102E2000226E21F44041114301602168490205D519
:102E30000168A26F21F080611143016021684FF0A9
:102E40000069890209D50168E26F21F00061114330
:102E50000160E16F494500D1012521680A0700D5CD
:102E60000125490305D50168626F21F040711143C6
:102E700001602168090206D50168D4F8802021F09C
:102E8000805111430160DFF88081A8F108086EB914
:102E900009E0D9F80020604B22F4F81218400243F0
:102EA000C9F800203DE72068800178D5D8F80010E7
:102EB00021F08061C8F80010FFF74EFD064604E0DF
:102EC000FFF74AFD801B64286AD8D8F8000000018B
:102ED000F6D420785149C00711D0606B78B90868E2
:102EE0000A68C0F301406368C2F303629B0143EACE
:102EF000004040EA0260227A40EA027008602068DE
:102F0000020303D5E26BB2F5801F05D0C0021AD5CB
:102F1000206CB0F5800F16D108680A68C0F3014034
:102F20006368C2F302729B0143EA0040237B40EADC
:102F3000036040EA027008603868626A20F01F008F
:102F4000521E104338602068C0010FD508680A6817
:102F5000C0F303606368268AC2F302729B0143EAEE
:102F6000064343EA006040EA02700860206880017E
:102F70000BD56068228A800140EA0240227B40EA49
:102F80000260227A40EA02700860D8F8001041F02E
:102F90008061C8F80010FFF7DFFC064606E009E094
:102FA00082E0FFF7D9FC801B64287DD8D8F80000A8
:102FB0000001F6D5B5B3D8F80000454620F08050A2
:102FC000C8F80000FFF7C8FC064604E0FFF7C4FCA1
:102FD000801B642875D82868C0438000F6D5206817
:102FE0000F49020301D5E26B1AB1C0022BD5206C48
:102FF00048BB08680A68C0F301406369C2F3027203
:103000009B0143EA00400EE0083802408C38024041
:103010000070004090380240FFFCFF0F84380240EF
:103020008838024054E0237E40EA036040EA0270A0
:10303000086038686FF0FF03A26A20F4F85003EBD1
:103040000222104338602068800212D5E06F4845A4
:103050000FD108680A68C0F303606369268CC2F365
:1030600002729B0143EA064343EA006040EA0270B1
:1030700008602078000715D508680A68C0F3036067
:103080006369C2F301429B0143EA024242EA0060E3
:10309000227F40EA027008603868E16A20F440301C
:1030A00008433860286800E00BE040F0805028605A
:1030B000FFF752FC044607E0FFF74EFC001B6428B4
:1030C00002D90320BDE8F88F2868C0438000F3D4FC
:1030D0000020F7E72DE9F04704000D4669D0DFF83E
:1030E0001C81D8F8000000F00F00A8420CD2D8F8DC
:1030F000001021F00F012943C8F80010D8F8000093
:1031000000F00F00A84254D120683D4E810712D52F
:10311000400703D5306840F4E05030602078000765
:1031200003D5306840F4604030603068A16820F01A
:10313000F000084330602078C00729D0304960682B
:103140000839012810D00968022810D08907002901
:103150002FDA316821F0030101433160FFF7FCFBF6
:10316000074641F288390CE009688903EFE78901D5
:10317000EDE7FFF7F1FBC11B494502D90320BDE88C
:10318000F0873068616800F00C00B0EB810FF0D17F
:10319000D8F80010404601F00F01A9420BD9016890
:1031A00021F00F0129430160006800F00F00A842E0
:1031B00001D00120E3E72078400705D53068E168B9
:1031C00020F4E050084330602078000706D53068CE
:1031D000216920F4604040EAC100306000F058F8F6
:1031E0003168084AC1F30311515CC84006490860C0
:1031F00006480068FFF7CAFB0020C0E7003C024019
:10320000083802404CA700081000002008000020E9
:103210000F2202600C4A136803F003034360136833
:1032200003F0F0038360136803F4E053C360126893
:103230004FF4E05303EAD20202610448006800F050
:103240000F0008607047000008380240003C024050
:103250000448054900680968044AC1F38221515CA9
:10326000C840704710000020083802405CA70008E2
:103270000448054900680968044AC1F34231515CB9
:10328000C840704710000020083802405CA70008C2
:10329000154810B5006810F00C01144813D0431005
:1032A00004290FD008290ED10F4C241F216801F0EA
:1032B0003F022168490207D52068C0F38810A0FBAF
:1032C000030106E0184610BD2168C1F38811A1FB77
:1032D00000010023FCF7F8FF2168C1F30141491CFC
:1032E0004900B0FBF1F010BD083802400024F400A2
:1032F0002DE9F84F04004FF0000877D02078DFF870
:1033000050B3ABF10409C007A9F104054AD0DBF8BA
:1033100000105846C1F38101012908D00068C0F3AC
:10332000810002280AD1D9F80000400206D5286899
:10333000800337D560680028DFD033E06068B0F5DF
:10334000803F0BD010B1B0F5A02F11D0286820F429
:1033500080302860286820F4802002E0286840F44B
:1033600080302860606888B1FFF7F6FA064609E009
:10337000286840F480202860F0E7FFF7EDFA801B12
:10338000642873D828688003F7D50BE0FFF7E4FAC8
:10339000064604E0FFF7E0FA801B6428F1D82868AD
:1033A0008003F7D42078800740D5DBF8001058461A
:1033B00011F00C0F08D00068C0F3810002280AD178
:1033C000D9F80000400206D42868800717D5E068C5
:1033D00001280BD113E0E0680028286817D040F0DE
:1033E00001002860FFF7B8FA064605E02CE1FFF778
:1033F000B3FA801B0228C4D828688007F7D528684C
:10340000216920F0F80040EAC10028600EE020F0B9
:1034100001002860FFF7A0FA064604E0FFF79CFAD7
:10342000801B022822D828688007F7D4207800075C
:1034300025D5874F60696C37002838680FD040F079
:1034400001003860FFF788FA064604E0FFF784FAC7
:10345000801B02280AD838688007F7D50FE020F0D3
:1034600001003860FFF778FA064605E082E0FFF7D2
:1034700073FA801B02287DD838688007F7D420783B
:10348000400769D5DFF8C8A10AF1380ADAF8000068
:10349000C0000CD4DAF8001041F08051CAF80010D6
:1034A000DAF800004FF0010800F080500090694FFA
:1034B0003868C0050FD4386840F480703860FFF772
:1034C0004BFA064604E0FFF747FA801B642851D800
:1034D0003868C005F7D55E4FA068683701280AD064
:1034E00008B1052811D0386820F00100386038682C
:1034F00020F0040002E0386840F001003860A06865
:1035000098B1FFF729FA06460BE0386840F004004E
:103510003860F0E7FFF720FA811B41F288308142E2
:1035200065D838688007F5D50DE0FFF715FA06462F
:1035300006E0FFF711FA811B41F28830814256D82C
:1035400038688007F5D4B8F1000F05D0DAF800101C
:1035500021F08051CAF80010A169C9B3DBF800005E
:10356000C0F38100022849D02868022920F0807029
:10357000286000E03BE003D0FFF7EEF9044639E0B5
:10358000FFF7EAF9064604E0FFF7E6F9801B022898
:103590002DD828688001F7D4D4E907012E4A0843C2
:1035A000A16A490802EB0141626A41EA82110843BB
:1035B00094F82C1040EA016040F00051C9F8001066
:1035C000286840F080702860FFF7C6F9044605E0DF
:1035D0003CE0FFF7C1F9001B022808D828688001E9
:1035E000F7D533E0FFF7B8F9001B022802D9032012
:1035F000BDE8F88F28688001F4D427E0D9F80000EE
:10360000012921D0E26900F4800191421CD1226A93
:1036100000F03F01914217D1626A47F6C071014044
:10362000B1EB821F10D1A26A4FF0FF3300F440319A
:1036300003EB5202B1EB024F06D194F82C1000F0CC
:103640007060B0EB016F01D00120D1E70020CFE71F
:1036500008380240007000400000FFFF70477047CC
:103660007047000030B590F83C20012A3AD0012282
:1036700080F83C20CA6800248B6822F440721A4DFE
:103680001A434B6822F480621A430B6822F40062EA
:103690001A430B6922F480521A434B6922F40052F8
:1036A0001A438B6A22F480421A430B8B22F4702255
:1036B00042EA03420368AB4202D00C4DAB420CD14C
:1036C0008D8C22F4700242EA0552CD6922F080729C
:1036D000096A2A4322F000720A435A6480F83C4087
:1036E000002030BD022030BD000001400004014038
:1036F000F0B590F83C20012A3CD0012580F83C50E0
:10370000022280F83D2003685A689C681A4E1B4FBD
:10371000B34201D0BB4204D122F4700C4A6842EAA1
:103720000C0222F0700C0A6842EA0C025A6002682D
:10373000B24213D0B2F1804F10D0114B9A420DD04B
:10374000104B9A420AD0104B9A4207D0BA4205D089
:103750000E4B9A4202D00E4B9A4204D1896824F053
:1037600080031943916080F83D50002180F83C109F
:103770000846F0BD0220F0BD0000014000040140F9
:103780000004004000080040000C004000400140E0
:103790000018004010B5040003D094F83D0010B1AB
:1037A00007E0012010BD002084F83C00204600F016
:1037B00023F8022084F83D002068211D02F0CAFA97
:1037C000012084F8480084F83E0084F83F0084F823
:1037D000400084F8410084F8420084F8430084F8F3
:1037E000440084F8450084F8460084F8470084F8D3
:1037F0003D00002010BD000008B500683349884234
:103800000FD13348016841F00401016000680022D3
:10381000052100F0040000901E20FFF777F91E201C
:103820004EE02B492B4A091D904226D1086840F0F2
:103830000200086008680022052100F002000090E4
:103840002B20FFF763F92B20FFF752F90022052107
:103850002C20FFF75BF92C20FFF74AF900220F21FB
:103860002D20FFF753F92D20FFF742F90022052103
:103870002E20FFF74BF92E2022E0174A90420ED15E
:10388000086840F48030086008680022052100F4D0
:10389000803000901820FFF739F9182010E00F4A07
:1038A000904211D1086840F4802008600868002226
:1038B000052100F4802000901A20FFF727F91A2034
:1038C000BDE80840FFF714B908BD0000000800403B
:1038D00040380240000401400040014000480140DF
:1038E00090F83D10012901D001207047022180F895
:1038F0003D1000681249884214D0B0F1804F11D0B9
:10390000104988420ED0104988420BD00F49884296
:1039100008D00F49884205D00E49884202D00E498E
:10392000884207D181680D4A1140062906D0B1F5B9
:10393000803F03D0016841F0010101600020704721
:10394000000001400004004000080040000C00405E
:103950000004014000400140001800400700010041
:1039600090F83D10012901D001207047022180F814
:103970003D100168CA6842F00102CA60006813493C
:10398000884214D0B0F1804F11D0114988420ED036
:10399000104988420BD01049884208D00F4988420C
:1039A00005D00F49884202D00E49884207D181686C
:1039B0000D4A1140062906D0B1F5803F03D00168B9
:1039C00041F001010160002070470000000001404B
:1039D0000004004000080040000C004000040140CA
:1039E00000400140001800400700010070B5044687
:1039F00090F83C000025012817D0012684F83C608F
:103A0000022084F83D00206882682F4B1A4022F47F
:103A10007F4282600868502838D00DDC20284FD0C3
:103A200005DC90B3102811D14AE0022070BD302887
:103A300046D040280AD13BE060282FD070280DD016
:103A4000B0F5805F03D0B0F5005F12D0012584F897
:103A50003D60002084F83C00284670BD4A6820681C
:103A6000D1E9021302F0EBF92068816841F0770197
:103A700009E04A682068D1E9021302F0E0F9206801
:103A8000816841F480418160E1E719E0CA684968D2
:103A9000206802F00BFB2068502106E0CA684968E4
:103AA000206802F014FB2068602102F0D2F9CEE712
:103AB000CA684968206802F0F9FA20684021F4E7F2
:103AC000226801461046F0E788FFFEFF2DE9F0412D
:103AD00004000D4603D094F83D0018B108E0012021
:103AE000BDE8F081002084F83C00204600F046F854
:103AF000022084F83D00206881681F4A11408160DF
:103B00002068211D02F026F9206881688269066A12
:103B10002B68AF6926F0AA060B4340F203318A43B3
:103B2000A96842EA0722EF6911434FF6FC4291432C
:103B3000EA6841EA07212F6A0A432969090141EA33
:103B4000073111436A686D69836046EA05152A43A7
:103B50002068816120680262012084F8480084F8AE
:103B60003E0084F83F0084F8440084F8450084F85F
:103B70003D000020B4E70000F8BFFEFF70B586B03E
:103B8000044614216846FCF7F7FB5F4802252168CC
:103B900000245E4A012681423BD15C481430016812
:103BA00041F001010160006800F00100059010681B
:103BB00040F0100010601068694600F01000059099
:103BC0004FF420600090CDE901545148CDE90346FF
:103BD000FEF7BAFD002205211820FEF797FF1820F6
:103BE000FEF786FF002205211920FEF78FFF19201E
:103BF000FEF77EFF002205211A20FEF787FF1A201C
:103C0000FEF776FF002205211B20FEF77FFF1B2019
:103C100059E03E4B3F481033B1F1804F22D03E4E29
:103C2000B14254D1196841F002011960196801F0DC
:103C300002010591116841F001011160116801F064
:103C400001010591C0210091CDE90154CDE9034561
:103C50006946FEF779FD002205211D20FEF756FF7B
:103C60001D2030E0196841F001011960196801F068
:103C700001010591116841F001011160116801F025
:103C800001010591116841F002011160116801F014
:103C90000201059120210091CDE90154CDE90346AF
:103CA0006946FEF751FD08200090CDE901541B48FC
:103CB0006946CDE90346FEF747FD002205211C2099
:103CC000FEF724FF1C20FEF713FF06B070BD144E54
:103CD000B142FAD1196841F008011960196801F080
:103CE00008010591116841F001011160116801F0AE
:103CF0000101059103210091CDE90154CDE903456E
:103D00006946FEF721FDE0E700000140303802403F
:103D10000010024000000240000400400004024085
:103D2000000C004070B590F83E50044690F83F30CB
:103D300090F8442090F84500022621B104290BD0C8
:103D4000012D16D10FE0012D13D1012A11D184F8D4
:103D50003E6084F8446016E0012B0AD1012808D1A6
:103D600084F83F600DE0012B03D1012A01D1012825
:103D700001D0012070BD84F83E6084F83F6084F873
:103D8000446084F8456091B1042904D02068012280
:103D9000002102F047F820680122042102F042F8D5
:103DA0002068016841F001010160002070BD01221E
:103DB00020680021F2E770472DE9F04104460068D1
:103DC000C66805694FF00007A90713D5B10711D5DB
:103DD000F91E016101202077206880698007204654
:103DE00002D0FFF7E8FF04E000F000F9204600F001
:103DF000DFF92777680716D5700714D521686FF0AB
:103E000004000861022020772068806910F4407F58
:103E1000204602D0FFF7CFFF04E000F0E7F820468D
:103E200000F0C6F92777280715D5300713D5216884
:103E30006FF008000861042020772068C0698007BF
:103E4000204602D0FFF7B7FF04E000F0CFF820468D
:103E500000F0AEF92777E80616D5F00614D52168EC
:103E60006FF010000861082020772068C06910F406
:103E7000407F204602D0FFF79EFF04E000F0B6F836
:103E8000204600F095F92777E80708D0F00706D01C
:103E900021686FF001000861204600F00BFA280647
:103EA00001D4A80408D5300606D521686FF4025065
:103EB00008612046FFF7D3FBE80508D5300606D594
:103EC00021686FF4807008612046FFF7C7FB680621
:103ED00008D5700606D521686FF0400008612046BD
:103EE00000F0F2F9A8060AD5B00608D521686FF0EF
:103EF000200008612046BDE8F041FFF7B1BBBDE8F6
:103F0000F081000030B587B0044614216846FCF704
:103F100033FA206800212C4C02222C4BA04211D1F4
:103F2000186840F008001860186800F00800059054
:103F30004FF470400090CDE90121CDE903122448EF
:103F4000694613E0234D0324A84213D1186840F0BA
:103F500004001860186800F004000590200200902A
:103F6000CDE90121CDE903141B486946FEF7ECFBBE
:103F700007B030BD194DA84210D1186840F01000AC
:103F80001860186800F01000059060200090CDE9DE
:103F90000121CDE9031412486946E7E7114CA0421C
:103FA000E6D1186840F002001860186800F00200BE
:103FB0000590E00000900920CDE90121CDE9031032
:103FC00009486946D2E70000000800403038024046
:103FD000000C024000040140000802400040014083
:103FE000001002400018004000040240704770B505
:103FF000044690F83C0000260D4601280BD0012015
:1040000084F83C000C2A4AD007DC82B1042A20D074
:10401000082A06D131E0022070BD102A53D0142A9C
:1040200063D00126002084F83C00304670BD206833
:1040300001F018FF2068816941F008018161206862
:10404000816921F004018161206881692A69114335
:1040500011E0206801F03AFF2068816941F40061B5
:1040600081612068816921F48061816120688169B2
:104070002A6941EA02218161D4E7206801F060FFEA
:104080002068C16941F00801C1612068C16921F05F
:104090000401C1612068C1692A69114311E02068E7
:1040A00001F086FF2068C16941F40061C1612068A8
:1040B000C16921F48061C1612068C1692A6941EA4E
:1040C0000221C161AEE7206801F09EFF2068416DCA
:1040D00041F0080141652068416D21F0040141650E
:1040E0002068416D2A69114311E0206801F0B4FF96
:1040F0002068416D41F4006141652068416D21F403
:10410000806141652068416D2A6941EA022141656B
:1041100088E710B5040003D094F83D0010B107E023
:10412000012010BD002084F83C00204600F022F859
:10413000022084F83D002068211D01F00BFE0120C3
:1041400084F8480084F83E0084F83F0084F840007A
:1041500084F8410084F8420084F8430084F8440065
:1041600084F8450084F8460084F8470084F83D0050
:10417000002010BD08B500680B49884212D10B48D9
:10418000016841F04001016000680022052100F053
:10419000400000902B20FEF7B9FCBDE808402B2022
:1041A000FEF7A6BC08BD00000018004040380240E1
:1041B0007047000010B5044669B104290ED00829E3
:1041C0000FD00C2910D0102911D094F843000128E9
:1041D00010D0012010BD94F83E00F8E794F83F009D
:1041E000F5E794F84000F2E794F84100EFE794F81F
:1041F0004200ECE70220E9B304293FD0082940D06F
:104200000C2941D0102942D084F8430001222068B3
:1042100001F008FE1F4920681F4A884201D09042E1
:1042200003D1436C43F4004343642068884213D0B5
:10423000B0F1804F10D0194988420DD018498842FA
:104240000AD01849884207D0904205D016498842C2
:1042500002D01649884207D18168154A11400629C3
:1042600006D0B1F5803F03D0016841F00101016043
:10427000002010BDFFE784F83E00C7E784F83F0048
:10428000C4E784F84000C1E784F84100BEE784F841
:104290004200BBE700000140000401400004004070
:1042A00000080040000C00400040014000180040A1
:1042B0000700010000680349884201D1FEF752BBA4
:1042C0007047000000200040704710B50446D0F849
:1042D0008000202801D0022010BD51B14AB1012038
:1042E000206600206066204602F0C8FB010002D074
:1042F00005E0012010BD206E012802D001210846F2
:1043000010BD226810201062206850E8002F42F093
:10431000100240E80023002BF6D1F0E7094A10B55F
:1043200090420ED10848C9B2FDF79CFA06494022D6
:104330000448FFF7CAFF05480068016821F008013A
:10434000016010BD54090020B84D0020840C0020ED
:1043500070B50446C06FD4F88060216889684FF05A
:104360001005090618D5212816D12068083050E814
:10437000001F21F0800140E80012002AF5D1206FD3
:1043800038B1FDF7FDFF20B1206FFEF754F820286B
:1043900021D0204602F08EF920688068400618D5AA
:1043A000222E16D12068083050E8001F21F040016D
:1043B00040E80012002AF5D1606F38B1FDF7E0FF48
:1043C00020B1606FFEF737F8202804D0204602F0B5
:1043D0004BF9002070BDC4F88450032070BD7047B5
:1043E0002DE9F04103680446D86919689A6840F6D7
:1043F0000F0528424FF000054FF0020605D1820656
:104400007ED58A067CD5A16E24E1DFF878C202F061
:10441000010701EA0C0C57EA0C0C71D05FEAC07C72
:104420000CD05FEAC15C09D54FF0010CC3F820C085
:10443000D4F8843043F00103C4F88430830709D5ED
:10444000D30707D023681E62D4F8843043F00403F6
:10445000C4F8843043070AD5D20708D02368042261
:104460001A62D4F8842042F00202C4F884200207C1
:104470000CD501F020023A4308D0236808221A62C2
:10448000D4F8842042F00802C4F8842002050BD539
:104490004A0109D523684FF400621A62D4F88420D7
:1044A00042F02002C4F88420D4F88420002A36D0B8
:1044B000800605D5880603D5A16E09B12046884738
:1044C000D4F8840021688968490602D410F0280FC6
:1044D00027D0204602F0C8F82068806840061BD527
:1044E0002068083050E8001F21F0400140E8001229
:1044F000002AF5D1606F78B163490165606F00E013
:1045000015E0FDF786FF002809D0606F016D00E01F
:104510002046BDE8F04108472046FFF760FFBDE8B0
:10452000F0812046FFF75BFFC4F88450F7E7276E61
:104530002022012F7ED1C7067CD5CF067AD5102048
:10454000186220688068400650D5636F186840681C
:104550004FF480770004000C3CD0B4F8581081422E
:1045600038D9A4F85A00D869B8422BD0206850E84E
:10457000001F21F4807140E80013002BF6D1206861
:10458000083050E8001F21F0010140E80013002B23
:10459000F5D12068083050E8001F21F0400140E8C4
:1045A0000013002BF5D1C4F880202566206850E860
:1045B000001F21F0100140E80012002AF6D1606FC0
:1045C000FDF7DEFE6666B4F85800B4F85A10401ADB
:1045D00081B207E0B4F858108142A0D1D869B8423E
:1045E0009DD166662046FFF799FE98E7B4F858001B
:1045F000B4F85A10401A81B2B4F85A0000288ED08C
:1046000000298CD0206850E8003F23F4907340E8E4
:104610000037002FF6D12068083050E8003F23F023
:10462000010340E80037002FF5D1C4F8802025664B
:10463000A56600E009E0206850E8002F22F0100293
:1046400040E80023002BF4D1CBE7030606D50B0688
:1046500004D5E16E00297FF45BAF60E74006C4D566
:104660004806C2D52046016851E8003F23F04003C8
:1046700041E80034002CF6D1C267C56600F08CFA20
:104680004DE70000200100043165000810B504006A
:1046900002D0E06F10B107E0012010BD002084F8C7
:1046A0007800204600F026F82420E06720680168A2
:1046B00021F001010160606A10B1204601F0A6FE00
:1046C000204602F0C1F80128E7D02068416821F4B3
:1046D000904141602068816821F02A018160206852
:1046E000016841F0010101602046BDE8104001F081
:1046F000F1BE00002DE9F04FA7B00446142121A817
:10470000FBF73AFE84216846FBF736FECC4D0227C4
:10471000CA4903262068103DDFF824934FF4806BCC
:1047200088424FF0080A4FF0000860D14015CDF8DC
:10473000508000906846FEF751FA08B1FDF78EF9F7
:10474000D9F8001041F40021C9F80010D9F8000090
:1047500000F400202690286840F0040028602868B3
:1047600023AA454600F0040026904FF44060CDE9AE
:10477000210782E86004B34821A9FDF7E5FFB34EA5
:104780004FF00068B0485F4630604FF40030C6E933
:104790000185C6E9035B7561B561C6E9075030461E
:1047A0007562FDF71BFF08B1FDF758F96667B46342
:1047B000A64EA54860363030E6E80208402086E87C
:1047C000A100F5603561A1487561B5616030F561A2
:1047D000083EFDF703FF08B1FDF740F92667002208
:1047E0000521B4633420FEF791F9342041E0984963
:1047F000884243D16846CDF800B0CDF85480FEF72A
:10480000EDF908B1FDF72AF9D9F8001041F480114B
:10481000C9F80010D9F8000000F48010269028682C
:1048200040F004002860286800F004002690286802
:1048300040F008002860286821A9544600F00800CC
:1048400026904FF4805081E881017E48CDE9246AAA
:10485000FDF77AFF21A9042081E881017D48CDE997
:104860002464FDF771FF002205213520FEF74EF983
:104870003520FEF73DF927B0BDE8F08F7649884234
:104880002DD18014CDF85C8000906846FEF7A6F923
:1048900008B1FDF7E3F8D9F8001041F08041C9F8FC
:1048A0000010D9F8000000F080402690286840F001
:1048B00010002860286821A900F0100026904FF40D
:1048C000C07081E881016548CDE9246AFDF73CFFAD
:1048D000002205215220FEF719F95220C9E760494C
:1048E00088422BD14014CDF8608000906846FEF7D6
:1048F00075F908B1FDF7B2F8D9F8001041F00041A0
:10490000C9F80010D9F8000000F00040269028688F
:1049100040F010002860286821A900F0100081E80C
:10492000C0012496CDE925A04C48FDF70DFF0022DB
:1049300005215320FEF7EAF853209AE749494FF042
:10494000070A88422CD14020CDF844800090684668
:10495000FEF744F908B1FDF781F83948001D0168F8
:1049600041F010010160006800F0100026902868F6
:1049700040F001002860286821A900F0010026907D
:104980004FF4C06081E881013748CDE9246AFDF722
:10499000DBFE002205212520FEF7B8F8252068E778
:1049A000324988427FF467AF8015CDF84C80009083
:1049B0006846FEF713F908B1FDF750F8D9F8001072
:1049C00041F48021C9F80010D9F8000000F48020DB
:1049D0002690286840F002002860286821A900F08D
:1049E000020026904FF44060CDE92107CDF894A055
:1049F00047461F48CDE92386FDF7A6FE134D124812
:104A0000C035183828604FF00060C5E901078012F2
:104A1000C5E9037B6F61AF61C5E9077028466F6226
:104A2000FDF7DCFD08B1FDF719F8656700220521E7
:104A3000AC632720FEF76AF827201AE7004C0040F5
:104A4000403802400008024040600240840C0020D0
:104A500000500040000C024000780040001002406E
:104A6000007C00400010014000000240004800406F
:104A70000004024030B4D0F88030202B02D0022055
:104A800030BC704791B18AB10023036603685B684C
:104A90001B0208D5036853E8004F44F0806443E8E4
:104AA0000045002DF6D130BC01F0E8BF0120E7E75A
:104AB00030B4D0F88030202B02D0022030BC7047B8
:104AC00091B18AB10023036603685B681B0208D5B5
:104AD000036853E8004F44F0806443E80045002D2C
:104AE000F6D130BC02F01AB80120E7E770477047F2
:104AF0002DE9F8430446C06F1F4615460E46202890
:104B000002D00220BDE8F8839EB195B10020C4F820
:104B100084002120E067FDF71FFFA4F85050814674
:104B2000A4F852504FF02008A068B0F5805F02D082
:104B300003E00120E6E7206910B13546002610E0C9
:104B400000250EE08021204602F044F8B8B9D5B126
:104B500015F8010B21688862B4F85200401EA4F8D1
:104B60005200B4F852004B464FF000020097002864
:104B7000E8D14FF04001204602F02CF840B1C4F8D3
:104B80007C800320BEE736F8020BC0F30800E1E7A3
:104B9000C4F87C800020B5E77047000001A002F057
:104BA0005BF9FEE748415244204641554C54210AE6
:104BB000000000002DE9F043274D002416460F4663
:104BC00080464FF0FF392DED048B85B09FED218A93
:104BD000B0EE489AF0EE488A142004F003FEA8686C
:104BE000D8B1494605F016FA012816D11B491422FE
:104BF0006846FBF79AFB0023A8681A46194605F099
:104C0000A5F89DED000A30EE099A9DED020A70EEBE
:104C1000288A9DED010A30EE088A641CE4B20A2C51
:104C2000DAD3B2EE040AB8F1000FC9EE000A88EE3A
:104C3000801AC8EE001A01D0C8ED000A0FB187ED46
:104C4000001A002E01D0C6ED001A05B0BDEC048B91
:104C5000BDE8F08300000000B40000201C4D0020DF
:104C60002DE9FF479FED310A0546914600204FF0A0
:104C7000010C8DED020A064604468DF80C0012E088
:104C80002A880CFA04F812EA080F0AD02A88761C3F
:104C9000F6B204F101080CFA08F73A4201D1401CBF
:104CA000C0B2641CE4B28C42EAD368732E730A2E3D
:104CB00016D2042814D29EB1B6FBF0F004280FD20D
:104CC00003AA02A8CDE900020A464946284604F094
:104CD00049FFB0EE401AB5EEC01AF1EE10FA05D257
:104CE0000120FFEE000ABFEE000A19E09DF80C005B
:104CF000DDED021A00EE100AB8EE400AC1EE800A9D
:104D0000B0EE410ACDED020AC5ED010A04F08EF8BD
:104D100008B1002000E00220D5ED010AB0EE410A02
:104D200002F070F804B00020BDE8F0870000000039
:104D30007FB526480021244A0124009104250191D1
:104D40000291039102604FF4803204618461C0E9F2
:104D500001211F4A80F82010C0E90A21C561C16005
:104D600080F830404461FDF7C6F908B1FCF776FEE3
:104D70000720694602260096CDE901401348FDF759
:104D8000D5F808B1FCF76AFE03241048CDE90046C7
:104D90006946FDF7CBF808B1FCF760FE0E206946C6
:104DA000CDE900040948FDF7C1F808B1FCF756FE4B
:104DB0000F206946CDE900050448FDF7B7F8002843
:104DC00001D0FCF74BFE7FBD002101400006002012
:104DD0000100000F194808B5016841F40011016095
:104DE000016801F400110091016841F48001016043
:104DF00000680022052100F4800000900C20FDF7DF
:104E000085FE0C20FDF774FE002205210D20FDF724
:104E10007DFE0D20FDF76CFE002205210F20FDF721
:104E200075FE0F20FDF764FE002205213A20FDF7F4
:104E30006DFEBDE808403A20FDF75ABE303802400A
:104E400000B587B006491C226846FBF76EFA0021C0
:104E5000684603F09FFE0349086007B000BD0000EC
:104E600028A7000800000020F0B587B0142168468C
:104E7000FBF782FA3B48016841F0100101600168CC
:104E800001F010010591016841F004010160016821
:104E900001F004010591016841F0800101600168A1
:104EA00001F080010591016841F001010160016894
:104EB00001F001010591016841F002010160016802
:104EC00001F002010591016841F0080101600068EC
:104ED0004FF40045244E002200F0080029460590BA
:104EE0003046FDF734FD214F002240213846FDF7C2
:104EF0002EFD00244CF20C0069460294CDE900041A
:104F00001B48FDF721FC68106946CDE900043046D6
:104F10000294FDF719FC00950125CDE9015469467D
:104F200030460394FDF710FC41F2F0106946CDE9DC
:104F3000000410480294FDF707FC40F6BB406946A8
:104F4000CDE9000438460294FDF7FEFB40200090B6
:104F5000CDE90154694638460394FDF7F5FB07B0E7
:104F6000F0BD00003038024000100240000C02404A
:104F700000080240000402400C4845F25F420A4922
:104F800010B5016042F20F7141600021C0E90212C8
:104F9000016180218161FEF7FDFB002803D0BDE89F
:104FA0001040FCF75BBD10BD00480140BC0800206C
:104FB00010B588B01C216846FBF7DEF916480024BE
:104FC0001449C0E9001442F62F21C0E902410461EE
:104FD00080218161FFF79DF808B1FCF73FFD60205B
:104FE0006946CDE900040C48002202940494FEF7BF
:104FF000FEFF08B1FCF732FD074804226946FEF7C0
:10500000F6FF08B1FCF72AFD0348FEF77BFF08B066
:1050100010BD0000001800400809002010B58CB039
:1050200024216846FBF7A8F918480024164909947A
:105030000A940B94C0E900144FF6FF71C0E90241D5
:1050400080210461C0E9054103200494CDE90004F6
:1050500001206946CDE90204CDE905400B480794DB
:105060000894FEF733FD08B1FCF7F8FC074809A9DE
:1050700009940A940B94FEF73BFB002801D0FCF73F
:10508000EDFC0CB010BD000000000140A80600209F
:1050900010B58CB024216846FBF76EF91648002441
:1050A0004FF0804109940A940B94C0E900144FF624
:1050B000FF71C0E902418021046181610320CDE9D3
:1050C000000401200494CDE902046946CDE90540BD
:1050D000094807940894FEF7F9FC08B1FCF7BEFCF8
:1050E000054809A909940B94FEF702FB002801D09A
:1050F000FCF7B4FC0CB010BDF406002010B58CB069
:1051000024216846FBF738F917480024154909940B
:105110000A940B94C0E900144FF6FF71C0E90241F4
:105120008021046181610320CDE900040120049401
:10513000CDE902046946CDE905400B48079408947F
:10514000FEF7C4FC08B1FCF789FC074809A90994DB
:105150000B94FEF7CDFA002801D0FCF77FFC0CB0D1
:1051600010BD0000000400404007002010B58EB0C4
:10517000002468461C210794089409940A940B940F
:105180000C940D94FBF7F8F82A482949C0E900145B
:1051900042F62F21C0E90241046180218161FEF7BE
:1051A000F9FA08B1FCF75AFC4FF4805007902148F7
:1051B00007A9FEF71BFC08B1FCF750FC1D48FEF7E1
:1051C000A8FF08B1FCF74AFC1A480BA90B940D94F0
:1051D000FEF78EFA08B1FCF741FC60206946CDE984
:1051E00000041448002202940494FEF700FF08B162
:1051F000FCF734FC0F4804226946FEF7F8FE08B1BC
:10520000FCF72CFC0B4808226946FEF7F0FE08B1BB
:10521000FCF724FC07480C226946FEF7E8FE08B1BB
:10522000FCF71CFC0348FEF76DFE0EB010BD00003D
:10523000000800408C07002010B58CB0242168467F
:10524000FBF79AF817480024154909940A940B941F
:10525000C0E900144FF6FF71C0E9024180210461EA
:1052600081610320CDE9000401200494CDE902040A
:105270006946CDE905400B4807940894FEF726FCE3
:1052800008B1FCF7EBFB074809A909940B94FEF75A
:105290002FFA002801D0FCF7E1FB0CB010BD000094
:1052A000000C0040D807002010B59AB000241C2143
:1052B00017940BA81894159416941294139414949C
:1052C000FBF75AF82C216846FBF756F82F482E4971
:1052D000C0E9001442F62F21C0E902418021046197
:1052E000C0E90541FEF756FA08B1FCF7B7FB4FF4E9
:1052F00080501590254815A9FEF778FB08B1FCF7FA
:10530000ADFB2248FEF705FF08B1FCF7A7FB1F48DD
:1053100012A9129413941494FEF7EAF908B1FCF759
:105320009DFB6020CDE90B04184808220BA90D94C1
:105330000E940F9410941194FEF759FE08B1FCF7E7
:105340008DFB12480C220BA9FEF751FE08B1FCF7A9
:1053500085FB4FF400500094019469460294CDE916
:105360000440000303940694CDE9074007480994DC
:105370000A94FEF777F908B1FCF770FB0348FEF7D3
:10538000C1FD1AB010BD0000000401402408002037
:1053900010B58CB0002468461C2107940894099429
:1053A0000A94FAF7E9FF1E481C49C0E9001442F6C6
:1053B0002F21C0E90241046180218161FEF7EAF9F1
:1053C00008B1FCF74BFB4FF480500790144807A935
:1053D000FEF70CFB08B1FCF741FB1148FEF799FE04
:1053E00008B1FCF73BFB60206946CDE900040C489E
:1053F000002202940494FEF7FAFD08B1FCF72EFB9C
:10540000074804226946FEF7F2FD08B1FCF726FBC7
:105410000348FEF777FD0CB010BD000000400140CE
:10542000700800200D480C220B4910B501604FF4A4
:10543000E131416000218160C160C0E904128161F5
:10544000C16101624162FFF721F9002803D0BDE884
:105450001040FCF703BB10BD004C00405409002075
:105460000D480C220B4910B501604FF4E131416049
:1054700000218160C160C0E904128161C1610162E3
:105480004162FFF703F9002803D0BDE81040FCF7A4
:10549000E5BA10BD00500040DC0900200D480C2288
:1054A0000B4910B501604FF4E1314160002181608A
:1054B000C160C0E904128161C16101624162FFF70C
:1054C000E5F8002803D0BDE81040FCF7C7BA10BDCE
:1054D00000780040640A00200D480C220B4910B5EA
:1054E00001604FF41651416000218160C160C0E944
:1054F00004128161C16101624162FFF7C7F80028AF
:1055000003D0BDE81040FCF7A9BA10BD007C0040F4
:10551000EC0A00200D480C220B4910B501604FF435
:10552000E131416000218160C160C0E90412816104
:10553000C16101624162FFF7A9F8002803D0BDE80C
:105540001040FCF78BBA10BD00100140740B002016
:105550000D480C220B4910B501604FF4E131416058
:1055600000218160C160C0E904128161C1610162F2
:105570004162FFF78BF8002803D0BDE81040FCF72C
:105580006DBA10BD00480040FC0B0020024901220A
:105590000248FFF78DBA0000CC000020DC09002093
:1055A000FEE7FEE770B5002405462DED0A8BB0EE50
:1055B00063AAB0EE449AB5EEC0AAF0EE43AAB0EEEC
:1055C00062CAB0EE42BAF0EE61CAF0EE41BAF0EE55
:1055D000608AB0EE408AF1EE10FA01D0FCF76CFC64
:1055E0000420F0EE689AB0EE681AF0EE480AB0EEC9
:1055F000480AFBF70FFE414EB5EEC0AA96ED028AAF
:10560000F1EE10FA17D0B0EE4A0AFCF7E5FB70EEA7
:10561000288A38EEE90AB4EEC90AF1EE10FA01DD83
:1056200079EE898AF1EE490AB4EEE00AF1EE10FA59
:1056300001D279EEC98A2DB194B3012C3FD0022C4E
:1056400055D14BE024B1012C0CD0022C4FD113E0EA
:10565000B0EE680AFBF75AFFB4EEEB8AF1EE10FAEF
:1056600027DA44E0B0EE680AFBF750FFB4EECB8ACD
:10567000F1EE10FA2CDA3AE0B0EE680AFBF746FFDA
:10568000B4EEEA8AF1EE10FA31D8B5EEC0AAF1EE26
:1056900010FA30D0BDEC0A8BBDE87040FCF78EBB31
:1056A000B0EE680AFBF732FFB4EEEB8AF1EE10FAC7
:1056B0001DD8B0EE6C0AFBF765FF012417E0B0EED1
:1056C000680AFBF723FFB4EECB8AF1EE10FA0ED88E
:1056D000B0EE4C0AFBF756FF022408E0B0EE680A71
:1056E000FBF714FFB4EEEA8AF1EE10FACDDA0520EA
:1056F00004F078F880E7BDEC0A8B70BD084D0020FF
:105700002DE9F0414FF4804533484FF6FF742946A8
:10571000FDF710F9314E84EAC03420213046FDF700
:1057200009F984EA80343046A911FDF703F984EAC7
:10573000403430461021FDF7FDF884EA003430464D
:105740008021FDF7F7F8264F84EAC02480213846EF
:10575000FDF7F0F884EA802430464021FDF7EAF8AE
:10576000204E84EA402084B269003046FDF7E2F81A
:1057700084EA002438462021FDF7DCF884EAC014CE
:1057800038460121FDF7D6F884EA80143846102106
:10579000FDF7D0F884EA401430460821FDF7CAF836
:1057A00084EA001438460821FDF7C4F884EAC004EE
:1057B00030460421FDF7BEF884EA80043846022111
:1057C000FDF7B8F884EA400429463046FDF7B2F800
:1057D0006040BDE8F081000000100240000402407B
:1057E000000C02400008024006494022064810B55D
:1057F000FEF76BFD05480068016821F008010160B3
:1058000010BD0000B84D002054090020840C002079
:10581000184B00219FED160A10B5012401EB41023F
:1058200003EB820282ED000A82ED010A1472491C28
:105830000529F3DB104930B1012817D10C70BDE800
:105840001040FCF739BB00200870FCF7B7FA0B4991
:1058500000200B4A01EB800393ED000A02EB80036A
:10586000401CC0B2102883ED000AF3D310BD000025
:10587000000000002C0100200C0100209CA7000863
:10588000D04E002010B52DED028BB0EE408A02F014
:10589000AFFAF0EE480A03F057F9B0EEC00A10EE86
:1058A000100A0849884201DD012000E00020B0EE26
:1058B000480ABDEC028BDFED040ABDE8104000F0A1
:1058C00091BC0000000016439A99993F00F02CF813
:1058D000002003F0FDFF4FF47A7403A001F0BCFA3E
:1058E000204603F04BF9F8E764656C657465206643
:1058F00061696C656400000010B503F067FE03F099
:10590000C5FEFFF771FF02F0FBFF03F0FBF802F0AA
:1059100031F90448006803F0DBFFBDE8104003F0F4
:10592000D9BE000094000020054920201CB50023AA
:10593000C200CDE90001064802A104F06DFC1CBDC7
:105940009400002053746172745F7461736B000083
:10595000F95800082DE9F04F00242DED048B81B09B
:105960009FED769AF3EE091A8DED009A25462646AC
:105970009FED731AF0EE490AB3EE090AFBF7B4FC87
:105980000220B0EE491AF2EE0E0AB2EE0E0AFBF752
:1059900041FC0A2003F026FFDFF8A8B1DFF8A8A138
:1059A0006A4FDFF8AC81DFF8AC91F1EE048A34B1D4
:1059B000012C24D0022C37D0032C1FD18BE02DB921
:1059C00064206946FCF782FA00B101255D48FBF7C7
:1059D00079FF9BF80C00032810D91DB902F008FAD2
:1059E0008DED000A04209DED001AF3EE090AB3EED6
:1059F000090AFBF70FFCFBF777FB012480E099ED28
:105A0000000AD8ED020A30EE280AF4EEC00AF1EEE0
:105A100010FA01DB012600E0EEB3F4EEC00AF1EE6D
:105A200010FA6DD202246BE0FBF794FBB0EEC00AD3
:105A300010EE100AB8421CDA9FED478A4148FBF786
:105A400041FFBBF80010584611F0F00F05D09AED59
:105A5000010A504630EE080A08E0008810F4706F22
:105A600023D09AED010A504630EE480A80ED010A33
:105A70001BE0FBF76FFBB0EEC00A10EE100AB84255
:105A800008DBFBF767FBB0EEC00A10EE100A3349E3
:105A900088420ADB00E01DE004209DED001AF3EED1
:105AA000090AB3EE090AFBF7B5FBFBF753FBB0EEAF
:105AB000C00A10EE100A2A4988420ADCD9ED000A11
:105AC00098ED020A70EEE80AB4EEE00AF1EE10FA80
:105AD00016D2032414E0FBF73DFBB0EEC00A10EE33
